Component: ARM Compiler 5.05 update 1 (build 106) Tool: armlink [4d0efa]

==============================================================================

Section Cross References

    main.o(i.main) refers to misc.o(i.NVIC_PriorityGroupConfig) for NVIC_PriorityGroupConfig
    main.o(i.main) refers to delay.o(i.delay_init) for delay_init
    main.o(i.main) refers to bsp_init.o(i.Bsp_init) for Bsp_init
    main.o(i.main) refers to os_appobjcreate.o(i.OS_AppObjCreate) for OS_AppObjCreate
    main.o(i.main) refers to tasks.o(i.xTaskCreate) for xTaskCreate
    main.o(i.main) refers to tasks.o(i.vTaskStartScheduler) for vTaskStartScheduler
    main.o(i.main) refers to main.o(.data) for .data
    main.o(i.main) refers to main.o(i.start_task) for start_task
    main.o(i.start_task) refers to data_init.o(i.init_set) for init_set
    main.o(i.start_task) refers to port.o(i.vPortEnterCritical) for vPortEnterCritical
    main.o(i.start_task) refers to tasks.o(i.xTaskCreate) for xTaskCreate
    main.o(i.start_task) refers to tasks.o(i.vTaskDelete) for vTaskDelete
    main.o(i.start_task) refers to port.o(i.vPortExitCritical) for vPortExitCritical
    main.o(i.start_task) refers to main.o(.data) for .data
    main.o(i.start_task) refers to task_motor1_dir.o(i.motor1_dir_task) for motor1_dir_task
    main.o(i.start_task) refers to task_motor1_pwm.o(i.motor1_pwm_task) for motor1_pwm_task
    main.o(i.start_task) refers to task_motor2_dir.o(i.motor2_dir_task) for motor2_dir_task
    main.o(i.start_task) refers to task_motor2_pwm.o(i.motor2_pwm_task) for motor2_pwm_task
==============================================================================

Removing Unused input sections from the image.

    Removing system_stm32f10x.o(i.SystemCoreClockUpdate), (104 bytes).
    Removing os_appobjcreate.o(.constdata), (29 bytes).
    Removing os_appobjcreate.o(.constdata), (23 bytes).
    Removing os_appobjcreate.o(.constdata), (29 bytes).
    Removing os_appobjcreate.o(.constdata), (23 bytes).
    Removing os_appobjcreate.o(.constdata), (23 bytes).
    Removing os_appobjcreate.o(.constdata), (29 bytes).
    Removing os_appobjcreate.o(.constdata), (29 bytes).
    Removing os_appobjcreate.o(.constdata), (27 bytes).
    Removing os_appobjcreate.o(.constdata), (27 bytes).
    Removing os_appobjcreate.o(.constdata), (33 bytes).
    Removing os_appobjcreate.o(.constdata), (33 bytes).
    Removing os_appobjcreate.o(.constdata), (32 bytes).
    Removing os_appobjcreate.o(.constdata), (32 bytes).
    Removing pwm.o(i.TIM2_Int_Init), (92 bytes).
    Removing pwm.o(i.TIM3_Int_Init), (96 bytes).
    Removing key.o(i.KEY_Init), (60 bytes).
    Removing key.o(i.KEY_Scan), (204 bytes).
==============================================================================

Image Symbol Table

    Local Symbols

    Symbol Name                              Value     Ov Type        Size  Object(Section)

    ../clib/angel/boardlib.s                 0x00000000   Number         0  boardshut.o ABSOLUTE
    ../clib/angel/boardlib.s                 0x00000000   Number         0  boardinit1.o ABSOLUTE
    ../clib/angel/boardlib.s                 0x00000000   Number         0  boardinit2.o ABSOLUTE
    ../clib/angel/boardlib.s                 0x00000000   Number         0  boardinit3.o ABSOLUTE
    ../clib/angel/dczerorl2.s                0x00000000   Number         0  __dczerorl2.o ABSOLUTE
    ../clib/angel/handlers.s                 0x00000000   Number         0  __scatter_zi.o ABSOLUTE
    ../clib/angel/kernel.s                   0x00000000   Number         0  __rtentry4.o ABSOLUTE
    ../clib/angel/kernel.s                   0x00000000   Number         0  __rtentry.o ABSOLUTE
    ../clib/angel/kernel.s                   0x00000000   Number         0  rtexit.o ABSOLUTE
    ../clib/angel/kernel.s                   0x00000000   Number         0  rtexit2.o ABSOLUTE
    ../clib/angel/kernel.s                   0x00000000   Number         0  __rtentry2.o ABSOLUTE
    ../clib/angel/rt.s                       0x00000000   Number         0  rt_locale.o ABSOLUTE
    ../clib/angel/rt.s                       0x00000000   Number         0  rt_locale_intlibspace.o ABSOLUTE
    ../clib/angel/rt.s                       0x00000000   Number         0  rt_raise.o ABSOLUTE
    ../clib/angel/scatter.s                  0x00000000   Number         0  __scatter.o ABSOLUTE
    ../clib/angel/startup.s                  0x00000000   Number         0  __main.o ABSOLUTE
    ../clib/angel/sys.s                      0x00000000   Number         0  use_no_semi_2.o ABSOLUTE
    ../clib/angel/sys.s                      0x00000000   Number         0  indicate_semi.o ABSOLUTE
    ../clib/angel/sys.s                      0x00000000   Number         0  use_no_semi.o ABSOLUTE
    ../clib/angel/sys.s                      0x00000000   Number         0  sys_stackheap_outer.o ABSOLUTE
    ../clib/angel/sys.s                      0x00000000   Number         0  libspace.o ABSOLUTE
    ../clib/angel/sysapp.c                   0x00000000   Number         0  sys_wrch.o ABSOLUTE
    ../clib/angel/sysapp.c                   0x00000000   Number         0  sys_command.o ABSOLUTE
    ../clib/armsys.c                         0x00000000   Number         0  argv_veneer.o ABSOLUTE
    ../clib/armsys.c                         0x00000000   Number         0  _get_argv_nomalloc.o ABSOLUTE
    ../clib/armsys.c                         0x00000000   Number         0  no_argv.o ABSOLUTE
    ../clib/armsys.c                         0x00000000   Number         0  argv_veneer.o ABSOLUTE
    ../clib/bigflt.c                         0x00000000   Number         0  bigflt0.o ABSOLUTE
    ../clib/btod.s                           0x00000000   Number         0  btod.o ABSOLUTE
    ../clib/heapalloc.c                      0x00000000   Number         0  hrguard.o ABSOLUTE
    ../clib/heapaux.c                        0x00000000   Number         0  heapauxi.o ABSOLUTE
    ../clib/libinit.s                        0x00000000   Number         0  libinit2.o ABSOLUTE
    ../clib/libinit.s                        0x00000000   Number         0  libshutdown.o ABSOLUTE
    ../clib/libinit.s                        0x00000000   Number         0  libshutdown2.o ABSOLUTE
    ../clib/libinit.s                        0x00000000   Number         0  libinit.o ABSOLUTE
    ../clib/locale.s                         0x00000000   Number         0  lc_numeric_c.o ABSOLUTE
    ../clib/longlong.s                       0x00000000   Number         0  lludiv10.o ABSOLUTE
    ../clib/memcpset.s                       0x00000000   Number         0  rt_memcpy_v6.o ABSOLUTE
    ../clib/memcpset.s                       0x00000000   Number         0  rt_memcpy_w.o ABSOLUTE
    ../clib/memcpset.s                       0x00000000   Number         0  aeabi_memset.o ABSOLUTE
    ../clib/memcpset.s                       0x00000000   Number         0  strcmpv7m.o ABSOLUTE
    ../clib/memcpset.s                       0x00000000   Number         0  rt_memclr.o ABSOLUTE
    ../clib/memcpset.s                       0x00000000   Number         0  rt_memclr_w.o ABSOLUTE
    ../clib/printf.c                         0x00000000   Number         0  _printf_fp_infnan.o ABSOLUTE
    ../clib/printf.c                         0x00000000   Number         0  __printf_nopercent.o ABSOLUTE
    ../clib/printf.c                         0x00000000   Number         0  _printf_intcommon.o ABSOLUTE
    ../clib/printf.c                         0x00000000   Number         0  __printf_ss.o ABSOLUTE
    ../clib/printf.c                         0x00000000   Number         0  __printf_flags_ss.o ABSOLUTE
    ../clib/printf.c                         0x00000000   Number         0  __printf_wp.o ABSOLUTE
    ../clib/printf.c                         0x00000000   Number         0  _printf_fp_dec.o ABSOLUTE
    ../clib/printf.c                         0x00000000   Number         0  __printf_flags_wp.o ABSOLUTE
    ../clib/printf.c                         0x00000000   Number         0  __printf_ss_wp.o ABSOLUTE
    ../clib/printf.c                         0x00000000   Number         0  __printf_flags_ss_wp.o ABSOLUTE
    ../clib/printf.c                         0x00000000   Number         0  noretval__2sprintf.o ABSOLUTE
    ../clib/printf.c                         0x00000000   Number         0  __2sprintf.o ABSOLUTE
    ../clib/printf.c                         0x00000000   Number         0  _printf_char.o ABSOLUTE
    ../clib/printf.c                         0x00000000   Number         0  _sputc.o ABSOLUTE
    ../clib/printf.c                         0x00000000   Number         0  _printf_char_common.o ABSOLUTE
    ../clib/printf.c                         0x00000000   Number         0  __printf_flags.o ABSOLUTE
    ../clib/printf.c                         0x00000000   Number         0  _printf_dec.o ABSOLUTE
    ../clib/printf.c                         0x00000000   Number         0  _printf_str.o ABSOLUTE
    ../clib/printf.c                         0x00000000   Number         0  __printf.o ABSOLUTE
    ../clib/printf.c                         0x00000000   Number         0  noretval__2printf.o ABSOLUTE
    ../clib/printf.c                         0x00000000   Number         0  __2printf.o ABSOLUTE
    ../clib/printf.c                         0x00000000   Number         0  _printf_char_file.o ABSOLUTE
    ../clib/printf_percent.s                 0x00000000   Number         0  _printf_c.o ABSOLUTE
    ../clib/printf_percent.s                 0x00000000   Number         0  _printf_percent.o ABSOLUTE
    ../clib/printf_percent.s                 0x00000000   Number         0  _printf_u.o ABSOLUTE
    ../clib/printf_percent.s                 0x00000000   Number         0  _printf_d.o ABSOLUTE
    ../clib/printf_percent.s                 0x00000000   Number         0  _printf_s.o ABSOLUTE
    ../clib/printf_percent.s                 0x00000000   Number         0  _printf_percent_end.o ABSOLUTE
    ../clib/printf_percent.s                 0x00000000   Number         0  _printf_f.o ABSOLUTE
    ../clib/signal.c                         0x00000000   Number         0  defsig_rtmem_outer.o ABSOLUTE
    ../clib/signal.c                         0x00000000   Number         0  defsig_other.o ABSOLUTE
    ../clib/signal.c                         0x00000000   Number         0  __raise.o ABSOLUTE
    ../clib/signal.c                         0x00000000   Number         0  defsig_segv_inner.o ABSOLUTE
    ../clib/signal.c                         0x00000000   Number         0  defsig_abrt_inner.o ABSOLUTE
    ../clib/signal.c                         0x00000000   Number         0  defsig_rtmem_formal.o ABSOLUTE
    ../clib/signal.c                         0x00000000   Number         0  defsig_fpe_inner.o ABSOLUTE
    ../clib/signal.c                         0x00000000   Number         0  defsig_exit.o ABSOLUTE
    ../clib/signal.c                         0x00000000   Number         0  defsig_rtred_inner.o ABSOLUTE
    ../clib/signal.c                         0x00000000   Number         0  defsig_stak_inner.o ABSOLUTE
    ../clib/signal.c                         0x00000000   Number         0  defsig_pvfn_inner.o ABSOLUTE
    ../clib/signal.c                         0x00000000   Number         0  defsig_cppl_inner.o ABSOLUTE
    ../clib/signal.c                         0x00000000   Number         0  defsig_rtmem_inner.o ABSOLUTE
    ../clib/signal.c                         0x00000000   Number         0  defsig_general.o ABSOLUTE
    ../clib/signal.s                         0x00000000   Number         0  defsig.o ABSOLUTE
    ../clib/stdio.c                          0x00000000   Number         0  ferror_locked.o ABSOLUTE
    ../clib/stdio.c                          0x00000000   Number         0  ferror.o ABSOLUTE
    ../clib/stdlib.c                         0x00000000   Number         0  exit.o ABSOLUTE
    ../clib/string.c                         0x00000000   Number         0  strlen.o ABSOLUTE
    ../clib/string.c                         0x00000000   Number         0  strcpy.o ABSOLUTE
    ../fplib/dretinf.s                       0x00000000   Number         0  dretinf.o ABSOLUTE
    ../fplib/f2d.s                           0x00000000   Number         0  f2d.o ABSOLUTE
    ../fplib/faddsub.s                       0x00000000   Number         0  faddsub_clz.o ABSOLUTE
    ../fplib/fdiv.s                          0x00000000   Number         0  fdiv.o ABSOLUTE
    ../fplib/ffixu.s                         0x00000000   Number         0  ffixu.o ABSOLUTE
    ../fplib/fflt.s                          0x00000000   Number         0  fflt_clz.o ABSOLUTE
    ../fplib/fmul.s                          0x00000000   Number         0  fmul.o ABSOLUTE
    ../fplib/fnaninf.s                       0x00000000   Number         0  fnaninf.o ABSOLUTE
    ../fplib/fpinit.s                        0x00000000   Number         0  fpinit.o ABSOLUTE
    ../fplib/fretinf.s                       0x00000000   Number         0  fretinf.o ABSOLUTE
    ../fplib/istatus.s                       0x00000000   Number         0  istatus.o ABSOLUTE
    ../fplib/printf1.s                       0x00000000   Number         0  printf1.o ABSOLUTE
    ../fplib/usenofp.s                       0x00000000   Number         0  usenofp.o ABSOLUTE
    ../mathlib/fpclassify.c                  0x00000000   Number         0  fpclassify.o ABSOLUTE
    ..\CORE\core_cm3.c                       0x00000000   Number         0  core_cm3.o ABSOLUTE
    ..\CORE\startup_stm32f10x_hd.s           0x00000000   Number         0  startup_stm32f10x_hd.o ABSOLUTE
    ..\CRC16\CRC16.c                         0x00000000   Number         0  crc16.o ABSOLUTE
    ..\FreeRTOS\app\Task_IdleTask.c          0x00000000   Number         0  task_idletask.o ABSOLUTE
    ..\FreeRTOS\app\Task_Motor1_Dir.c        0x00000000   Number         0  task_motor1_dir.o ABSOLUTE
    ..\FreeRTOS\app\Task_Motor1_PID.c        0x00000000   Number         0  task_motor1_pid.o ABSOLUTE
    ..\FreeRTOS\app\Task_Motor1_PWM.c        0x00000000   Number         0  task_motor1_pwm.o ABSOLUTE
    ..\FreeRTOS\app\Task_Motor2_Dir.c        0x00000000   Number         0  task_motor2_dir.o ABSOLUTE
    ..\FreeRTOS\app\Task_Motor2_PID.c        0x00000000   Number         0  task_motor2_pid.o ABSOLUTE
    ..\FreeRTOS\app\Task_Motor2_PWM.c        0x00000000   Number         0  task_motor2_pwm.o ABSOLUTE
    ..\FreeRTOS\app\Task_WIFI.c              0x00000000   Number         0  task_wifi.o ABSOLUTE
    ..\FreeRTOS\app\Task_WIFI_send.c         0x00000000   Number         0  task_wifi_send.o ABSOLUTE
    ..\FreeRTOS\croutine.c                   0x00000000   Number         0  croutine.o ABSOLUTE
    ..\FreeRTOS\event_groups.c               0x00000000   Number         0  event_groups.o ABSOLUTE
    ..\FreeRTOS\list.c                       0x00000000   Number         0  list.o ABSOLUTE
    ..\FreeRTOS\portable\MemMang\heap_4.c    0x00000000   Number         0  heap_4.o ABSOLUTE
    ..\FreeRTOS\portable\RVDS\ARM_CM3\port.c 0x00000000   Number         0  port.o ABSOLUTE
    ..\FreeRTOS\queue.c                      0x00000000   Number         0  queue.o ABSOLUTE
    ..\FreeRTOS\tasks.c                      0x00000000   Number         0  tasks.o ABSOLUTE
    ..\FreeRTOS\timers.c                     0x00000000   Number         0  timers.o ABSOLUTE
    ..\HARDWARE\BSP_Init\Bsp_init.c          0x00000000   Number         0  bsp_init.o ABSOLUTE
    ..\HARDWARE\GPIO\Motor_Dir_Output.c      0x00000000   Number         0  motor_dir_output.o ABSOLUTE
    ..\HARDWARE\KEY\key.c                    0x00000000   Number         0  key.o ABSOLUTE
    ..\HARDWARE\LED\led.c                    0x00000000   Number         0  led.o ABSOLUTE
    ..\HARDWARE\PWM\pwm.c                    0x00000000   Number         0  pwm.o ABSOLUTE
    ..\HARDWARE\Timer\timer_read_encoder.c   0x00000000   Number         0  timer_read_encoder.o ABSOLUTE
    ..\HARDWARE\Timer_Encoder\timer_Encoder.c 0x00000000   Number         0  timer_encoder.o ABSOLUTE
    ..\HARDWARE\WIFI\wifi.c                  0x00000000   Number         0  wifi.o ABSOLUTE
    ..\STM32F10x_FWLib\src\misc.c            0x00000000   Number         0  misc.o ABSOLUTE
    ..\STM32F10x_FWLib\src\stm32f10x_dbgmcu.c 0x00000000   Number         0  stm32f10x_dbgmcu.o ABSOLUTE
    ..\STM32F10x_FWLib\src\stm32f10x_dma.c   0x00000000   Number         0  stm32f10x_dma.o ABSOLUTE
    ..\STM32F10x_FWLib\src\stm32f10x_gpio.c  0x00000000   Number         0  stm32f10x_gpio.o ABSOLUTE
    ..\STM32F10x_FWLib\src\stm32f10x_rcc.c   0x00000000   Number         0  stm32f10x_rcc.o ABSOLUTE
    ..\STM32F10x_FWLib\src\stm32f10x_tim.c   0x00000000   Number         0  stm32f10x_tim.o ABSOLUTE
    ..\STM32F10x_FWLib\src\stm32f10x_usart.c 0x00000000   Number         0  stm32f10x_usart.o ABSOLUTE
    ..\SYSTEM\delay\delay.c                  0x00000000   Number         0  delay.o ABSOLUTE
    ..\SYSTEM\sys\sys.c                      0x00000000   Number         0  sys.o ABSOLUTE
    ..\SYSTEM\usart\usart.c                  0x00000000   Number         0  usart.o ABSOLUTE
    ..\\CORE\\core_cm3.c                     0x00000000   Number         0  core_cm3.o ABSOLUTE
    ..\\FreeRTOS\\portable\\RVDS\\ARM_CM3\\port.c 0x00000000   Number         0  port.o ABSOLUTE
    ..\\SYSTEM\\sys\\sys.c                   0x00000000   Number         0  sys.o ABSOLUTE
    OS_AppObjCreate.c                        0x00000000   Number         0  os_appobjcreate.o ABSOLUTE
    PID.c                                    0x00000000   Number         0  pid.o ABSOLUTE
    data_init.c                              0x00000000   Number         0  data_init.o ABSOLUTE
    dc.s                                     0x00000000   Number         0  dc.o ABSOLUTE
    main.c                                   0x00000000   Number         0  main.o ABSOLUTE
    protocol.c                               0x00000000   Number         0  protocol.o ABSOLUTE
    stm32f10x_it.c                           0x00000000   Number         0  stm32f10x_it.o ABSOLUTE
    system_stm32f10x.c                       0x00000000   Number         0  system_stm32f10x.o ABSOLUTE
    RESET                                    0x08000000   Section      304  startup_stm32f10x_hd.o(RESET)
    !!!main                                  0x08000130   Section        8  __main.o(!!!main)
    !!!scatter                               0x08000138   Section       52  __scatter.o(!!!scatter)
    !!dczerorl2                              0x0800016c   Section       90  __dczerorl2.o(!!dczerorl2)
    !!handler_zi                             0x080001c8   Section       28  __scatter_zi.o(!!handler_zi)
    .ARM.Collect$$_printf_percent$$00000000  0x080001e4   Section        0  _printf_percent.o(.ARM.Collect$$_printf_percent$$00000000)
    .ARM.Collect$$_printf_percent$$00000003  0x080001e4   Section        6  _printf_f.o(.ARM.Collect$$_printf_percent$$00000003)
    .ARM.Collect$$_printf_percent$$00000009  0x080001ea   Section        6  _printf_d.o(.ARM.Collect$$_printf_percent$$00000009)
    .ARM.Collect$$_printf_percent$$00000014  0x080001f0   Section        6  _printf_s.o(.ARM.Collect$$_printf_percent$$00000014)
    .ARM.Collect$$_printf_percent$$00000017  0x080001f6   Section        4  _printf_percent_end.o(.ARM.Collect$$_printf_percent$$00000017)
    .ARM.Collect$$libinit$$00000000          0x080001fa   Section        2  libinit.o(.ARM.Collect$$libinit$$00000000)
    .ARM.Collect$$libinit$$00000002          0x080001fc   Section        0  libinit2.o(.ARM.Collect$$libinit$$00000002)
    .ARM.Collect$$libinit$$00000004          0x080001fc   Section        0  libinit2.o(.ARM.Collect$$libinit$$00000004)
    .ARM.Collect$$libinit$$0000000A          0x080001fc   Section        0  libinit2.o(.ARM.Collect$$libinit$$0000000A)
    .ARM.Collect$$libinit$$0000000C          0x080001fc   Section        0  libinit2.o(.ARM.Collect$$libinit$$0000000C)
    .ARM.Collect$$libinit$$0000000E          0x080001fc   Section        0  libinit2.o(.ARM.Collect$$libinit$$0000000E)
    .ARM.Collect$$libinit$$0000000F          0x080001fc   Section        6  libinit2.o(.ARM.Collect$$libinit$$0000000F)
    .ARM.Collect$$libinit$$00000011          0x08000202   Section        0  libinit2.o(.ARM.Collect$$libinit$$00000011)
    .ARM.Collect$$libinit$$00000013          0x08000202   Section        0  libinit2.o(.ARM.Collect$$libinit$$00000013)
    .ARM.Collect$$libinit$$00000015          0x08000202   Section        0  libinit2.o(.ARM.Collect$$libinit$$00000015)
    .ARM.Collect$$libinit$$00000016          0x08000202   Section       10  libinit2.o(.ARM.Collect$$libinit$$00000016)
    .ARM.Collect$$libinit$$00000017          0x0800020c   Section        0  libinit2.o(.ARM.Collect$$libinit$$00000017)
    .ARM.Collect$$libinit$$00000019          0x0800020c   Section        0  libinit2.o(.ARM.Collect$$libinit$$00000019)
    .ARM.Collect$$libinit$$0000001B          0x0800020c   Section        0  libinit2.o(.ARM.Collect$$libinit$$0000001B)
    .ARM.Collect$$libinit$$0000001D          0x0800020c   Section        0  libinit2.o(.ARM.Collect$$libinit$$0000001D)
    .ARM.Collect$$libinit$$0000001F          0x0800020c   Section        0  libinit2.o(.ARM.Collect$$libinit$$0000001F)
    .ARM.Collect$$libinit$$00000021          0x0800020c   Section        0  libinit2.o(.ARM.Collect$$libinit$$00000021)
    .ARM.Collect$$libinit$$00000023          0x0800020c   Section        0  libinit2.o(.ARM.Collect$$libinit$$00000023)
    .ARM.Collect$$libinit$$00000025          0x0800020c   Section        0  libinit2.o(.ARM.Collect$$libinit$$00000025)
    .ARM.Collect$$libinit$$0000002C          0x0800020c   Section        0  libinit2.o(.ARM.Collect$$libinit$$0000002C)
    .ARM.Collect$$libinit$$0000002E          0x0800020c   Section        0  libinit2.o(.ARM.Collect$$libinit$$0000002E)
    .ARM.Collect$$libinit$$00000030          0x0800020c   Section        0  libinit2.o(.ARM.Collect$$libinit$$00000030)
    .ARM.Collect$$libinit$$00000032          0x0800020c   Section        0  libinit2.o(.ARM.Collect$$libinit$$00000032)
    .ARM.Collect$$libinit$$00000033          0x0800020c   Section        2  libinit2.o(.ARM.Collect$$libinit$$00000033)
    .ARM.Collect$$libshutdown$$00000000      0x0800020e   Section        2  libshutdown.o(.ARM.Collect$$libshutdown$$00000000)
    .ARM.Collect$$libshutdown$$00000003      0x08000210   Section        0  libshutdown2.o(.ARM.Collect$$libshutdown$$00000003)
    .ARM.Collect$$libshutdown$$00000006      0x08000210   Section        0  libshutdown2.o(.ARM.Collect$$libshutdown$$00000006)
    .ARM.Collect$$libshutdown$$00000009      0x08000210   Section        0  libshutdown2.o(.ARM.Collect$$libshutdown$$00000009)
    .ARM.Collect$$libshutdown$$0000000B      0x08000210   Section        0  libshutdown2.o(.ARM.Collect$$libshutdown$$0000000B)
    .ARM.Collect$$libshutdown$$0000000E      0x08000210   Section        0  libshutdown2.o(.ARM.Collect$$libshutdown$$0000000E)
    .ARM.Collect$$libshutdown$$0000000F      0x08000210   Section        2  libshutdown2.o(.ARM.Collect$$libshutdown$$0000000F)
    .ARM.Collect$$rtentry$$00000000          0x08000212   Section        0  __rtentry.o(.ARM.Collect$$rtentry$$00000000)
    .ARM.Collect$$rtentry$$00000002          0x08000212   Section        0  __rtentry2.o(.ARM.Collect$$rtentry$$00000002)
    .ARM.Collect$$rtentry$$00000004          0x08000212   Section        6  __rtentry4.o(.ARM.Collect$$rtentry$$00000004)
    .ARM.Collect$$rtentry$$00000009          0x08000218   Section        0  __rtentry2.o(.ARM.Collect$$rtentry$$00000009)
    .ARM.Collect$$rtentry$$0000000A          0x08000218   Section        4  __rtentry2.o(.ARM.Collect$$rtentry$$0000000A)
    .ARM.Collect$$rtentry$$0000000C          0x0800021c   Section        0  __rtentry2.o(.ARM.Collect$$rtentry$$0000000C)
    .ARM.Collect$$rtentry$$0000000D          0x0800021c   Section        8  __rtentry2.o(.ARM.Collect$$rtentry$$0000000D)
    .ARM.Collect$$rtexit$$00000000           0x08000224   Section        2  rtexit.o(.ARM.Collect$$rtexit$$00000000)
    .ARM.Collect$$rtexit$$00000002           0x08000226   Section        0  rtexit2.o(.ARM.Collect$$rtexit$$00000002)
    .ARM.Collect$$rtexit$$00000003           0x08000226   Section        4  rtexit2.o(.ARM.Collect$$rtexit$$00000003)
    .ARM.Collect$$rtexit$$00000004           0x0800022a   Section        6  rtexit2.o(.ARM.Collect$$rtexit$$00000004)
    .emb_text                                0x08000230   Section      150  port.o(.emb_text)
    .text                                    0x080002c8   Section       64  startup_stm32f10x_hd.o(.text)
    .text                                    0x08000308   Section        2  use_no_semi_2.o(.text)
    .text                                    0x0800030c   Section        0  noretval__2printf.o(.text)
    .text                                    0x08000324   Section        0  __printf.o(.text)
    .text                                    0x0800038c   Section        0  _printf_str.o(.text)
    .text                                    0x080003e0   Section        0  _printf_dec.o(.text)
    .text                                    0x08000458   Section      138  rt_memcpy_v6.o(.text)
    .text                                    0x080004e2   Section       16  aeabi_memset.o(.text)
    .text                                    0x080004f2   Section       68  rt_memclr.o(.text)
    .text                                    0x08000536   Section       78  rt_memclr_w.o(.text)
    .text                                    0x08000584   Section        0  heapauxi.o(.text)
    .text                                    0x0800058a   Section        2  use_no_semi.o(.text)
    .text                                    0x0800058c   Section        0  _printf_intcommon.o(.text)
    .text                                    0x0800063e   Section        0  _printf_fp_dec.o(.text)
    _fp_digits                               0x08000641   Thumb Code   428  _printf_fp_dec.o(.text)
    .text                                    0x08000a58   Section        0  _printf_char_common.o(.text)
    _printf_input_char                       0x08000a59   Thumb Code    10  _printf_char_common.o(.text)
    .text                                    0x08000a88   Section        0  _printf_char.o(.text)
    .text                                    0x08000ab4   Section        0  _printf_char_file.o(.text)
    .text                                    0x08000ad8   Section      100  rt_memcpy_w.o(.text)
    .text                                    0x08000b3c   Section        8  rt_locale_intlibspace.o(.text)
    .text                                    0x08000b44   Section      138  lludiv10.o(.text)
    .text                                    0x08000bd0   Section        0  _printf_fp_infnan.o(.text)
    .text                                    0x08000c50   Section        0  bigflt0.o(.text)
    .text                                    0x08000d2c   Section        0  ferror.o(.text)
    .text                                    0x08000d34   Section        8  libspace.o(.text)
    .text                                    0x08000d3c   Section       74  sys_stackheap_outer.o(.text)
    .text                                    0x08000d86   Section        0  exit.o(.text)
    .text                                    0x08000d94   Section      128  strcmpv7m.o(.text)
    CL$$btod_d2e                             0x08000e14   Section       62  btod.o(CL$$btod_d2e)
    CL$$btod_d2e_denorm_low                  0x08000e52   Section       70  btod.o(CL$$btod_d2e_denorm_low)
    CL$$btod_d2e_norm_op1                    0x08000e98   Section       96  btod.o(CL$$btod_d2e_norm_op1)
    CL$$btod_div_common                      0x08000ef8   Section      824  btod.o(CL$$btod_div_common)
    CL$$btod_e2e                             0x08001230   Section      198  btod.o(CL$$btod_e2e)
    CL$$btod_ediv                            0x080012f6   Section       40  btod.o(CL$$btod_ediv)
    CL$$btod_emul                            0x0800131e   Section       40  btod.o(CL$$btod_emul)
    CL$$btod_mult_common                     0x08001346   Section      580  btod.o(CL$$btod_mult_common)
    i.Bsp_init                               0x0800158a   Section        0  bsp_init.o(i.Bsp_init)
    i.BusFault_Handler                       0x080015c4   Section        0  stm32f10x_it.o(i.BusFault_Handler)
    i.CRC16                                  0x080015c8   Section        0  crc16.o(i.CRC16)
    i.CRC16_uch                              0x080015f0   Section        0  crc16.o(i.CRC16_uch)
    i.Combine_CRC_2Byte                      0x08001618   Section        0  crc16.o(i.Combine_CRC_2Byte)
    i.DMA1_Channel6_IRQHandler               0x08001628   Section        0  wifi.o(i.DMA1_Channel6_IRQHandler)
    i.DMA1_Channel7_IRQHandler               0x08001664   Section        0  wifi.o(i.DMA1_Channel7_IRQHandler)
    i.DMA_ClearFlag                          0x08001688   Section        0  stm32f10x_dma.o(i.DMA_ClearFlag)
    i.DMA_ClearITPendingBit                  0x080016a0   Section        0  stm32f10x_dma.o(i.DMA_ClearITPendingBit)
    i.DMA_Cmd                                0x080016b8   Section        0  stm32f10x_dma.o(i.DMA_Cmd)
    i.DMA_DeInit                             0x080016d0   Section        0  stm32f10x_dma.o(i.DMA_DeInit)
    i.DMA_GetCurrDataCounter                 0x080017b4   Section        0  stm32f10x_dma.o(i.DMA_GetCurrDataCounter)
    i.DMA_ITConfig                           0x080017ba   Section        0  stm32f10x_dma.o(i.DMA_ITConfig)
    i.DMA_Init                               0x080017ca   Section        0  stm32f10x_dma.o(i.DMA_Init)
    i.DMA_SetCurrDataCounter                 0x08001804   Section        0  stm32f10x_dma.o(i.DMA_SetCurrDataCounter)
    i.DMA_USART2_Init                        0x08001808   Section        0  wifi.o(i.DMA_USART2_Init)
    i.DebugMon_Handler                       0x080018cc   Section        0  stm32f10x_it.o(i.DebugMon_Handler)
    i.DeserializeBuffer                      0x080018ce   Section        0  protocol.o(i.DeserializeBuffer)
    i.Deserialize_Ctrl_obj                   0x080019e0   Section        0  protocol.o(i.Deserialize_Ctrl_obj)
    Deserialize_Ctrl_obj                     0x080019e1   Thumb Code    36  protocol.o(i.Deserialize_Ctrl_obj)
    i.Encoder1_data_init                     0x08001a04   Section        0  data_init.o(i.Encoder1_data_init)
    Encoder1_data_init                       0x08001a05   Thumb Code   142  data_init.o(i.Encoder1_data_init)
    i.Encoder1_init                          0x08001ac0   Section        0  timer_encoder.o(i.Encoder1_init)
    Encoder1_init                            0x08001ac1   Thumb Code   178  timer_encoder.o(i.Encoder1_init)
    i.Encoder2_Init                          0x08001b7c   Section        0  timer_encoder.o(i.Encoder2_Init)
    Encoder2_Init                            0x08001b7d   Thumb Code   180  timer_encoder.o(i.Encoder2_Init)
    i.Encoder_init                           0x08001c38   Section        0  timer_encoder.o(i.Encoder_init)
    i.GPIO_Init                              0x08001c5a   Section        0  stm32f10x_gpio.o(i.GPIO_Init)
    i.GPIO_PinRemapConfig                    0x08001cf8   Section        0  stm32f10x_gpio.o(i.GPIO_PinRemapConfig)
    i.GPIO_SetBits                           0x08001d50   Section        0  stm32f10x_gpio.o(i.GPIO_SetBits)
    i.HardFault_Handler                      0x08001d54   Section        0  stm32f10x_it.o(i.HardFault_Handler)
    i.Idle_task                              0x08001d58   Section        0  task_idletask.o(i.Idle_task)
    i.LED_Init                               0x08001d7c   Section        0  led.o(i.LED_Init)
    i.MemManage_Handler                      0x08001db0   Section        0  stm32f10x_it.o(i.MemManage_Handler)
    i.Motor_Init                             0x08001db4   Section        0  motor_dir_output.o(i.Motor_Init)
    i.NMI_Handler                            0x08001de8   Section        0  stm32f10x_it.o(i.NMI_Handler)
    i.NVIC_Init                              0x08001dec   Section        0  misc.o(i.NVIC_Init)
    i.NVIC_PriorityGroupConfig               0x08001e50   Section        0  misc.o(i.NVIC_PriorityGroupConfig)
    i.NVIC_cofig_Init                        0x08001e64   Section        0  wifi.o(i.NVIC_cofig_Init)
    i.OS_AppObjCreate                        0x08001ed4   Section        0  os_appobjcreate.o(i.OS_AppObjCreate)
    i.QueueCreate                            0x08001f38   Section        0  os_appobjcreate.o(i.QueueCreate)
    QueueCreate                              0x08001f39   Thumb Code   366  os_appobjcreate.o(i.QueueCreate)
    i.RCC_AHBPeriphClockCmd                  0x08002420   Section        0  stm32f10x_rcc.o(i.RCC_AHBPeriphClockCmd)
    i.RCC_APB1PeriphClockCmd                 0x08002438   Section        0  stm32f10x_rcc.o(i.RCC_APB1PeriphClockCmd)
    i.RCC_APB2PeriphClockCmd                 0x08002450   Section        0  stm32f10x_rcc.o(i.RCC_APB2PeriphClockCmd)
    i.RCC_GetClocksFreq                      0x08002468   Section        0  stm32f10x_rcc.o(i.RCC_GetClocksFreq)
    i.SerializeBuffer                        0x080024fc   Section        0  protocol.o(i.SerializeBuffer)
    i.SetSysClockTo72                        0x08002604   Section        0  system_stm32f10x.o(i.SetSysClockTo72)
    SetSysClockTo72                          0x08002605   Thumb Code   160  system_stm32f10x.o(i.SetSysClockTo72)
    i.SysTick_CLKSourceConfig                0x080026ac   Section        0  misc.o(i.SysTick_CLKSourceConfig)
    i.SysTick_Handler                        0x080026c4   Section        0  delay.o(i.SysTick_Handler)
    i.SystemInit                             0x080026d8   Section        0  system_stm32f10x.o(i.SystemInit)
    i.TI1_Config                             0x08002728   Section        0  stm32f10x_tim.o(i.TI1_Config)
    TI1_Config                               0x08002729   Thumb Code    88  stm32f10x_tim.o(i.TI1_Config)
    i.TI2_Config                             0x08002794   Section        0  stm32f10x_tim.o(i.TI2_Config)
    TI2_Config                               0x08002795   Thumb Code   102  stm32f10x_tim.o(i.TI2_Config)
    i.TIM2_IRQHandler                        0x08002810   Section        0  pwm.o(i.TIM2_IRQHandler)
    i.TIM2_PWM_Init                          0x08002830   Section        0  pwm.o(i.TIM2_PWM_Init)
    i.TIM3_IRQHandler                        0x080028bc   Section        0  pwm.o(i.TIM3_IRQHandler)
    i.TIM3_PWM_Init                          0x080028e0   Section        0  pwm.o(i.TIM3_PWM_Init)
    i.TIM4_IRQHandler                        0x08002978   Section        0  timer_encoder.o(i.TIM4_IRQHandler)
    i.TIM5_IRQHandler                        0x080029cc   Section        0  timer_encoder.o(i.TIM5_IRQHandler)
    i.TIM6_IRQHandler                        0x08002a1c   Section        0  timer_read_encoder.o(i.TIM6_IRQHandler)
    i.TIM6_Int_Init                          0x08002b08   Section        0  timer_read_encoder.o(i.TIM6_Int_Init)
    i.TIM_ClearFlag                          0x08002b70   Section        0  stm32f10x_tim.o(i.TIM_ClearFlag)
    i.TIM_ClearITPendingBit                  0x08002b76   Section        0  stm32f10x_tim.o(i.TIM_ClearITPendingBit)
    i.TIM_Cmd                                0x08002b7c   Section        0  stm32f10x_tim.o(i.TIM_Cmd)
    i.TIM_EncoderInterfaceConfig             0x08002b90   Section        0  stm32f10x_tim.o(i.TIM_EncoderInterfaceConfig)
    i.TIM_GetCounter                         0x08002bc2   Section        0  stm32f10x_tim.o(i.TIM_GetCounter)
    i.TIM_GetITStatus                        0x08002bc6   Section        0  stm32f10x_tim.o(i.TIM_GetITStatus)
    i.TIM_ICInit                             0x08002be0   Section        0  stm32f10x_tim.o(i.TIM_ICInit)
    i.TIM_ITConfig                           0x08002d0c   Section        0  stm32f10x_tim.o(i.TIM_ITConfig)
    i.TIM_OC2Init                            0x08002d1c   Section        0  stm32f10x_tim.o(i.TIM_OC2Init)
    i.TIM_OC2PreloadConfig                   0x08002d9c   Section        0  stm32f10x_tim.o(i.TIM_OC2PreloadConfig)
    i.TIM_OC3Init                            0x08002db0   Section        0  stm32f10x_tim.o(i.TIM_OC3Init)
    i.TIM_OC3PreloadConfig                   0x08002e2c   Section        0  stm32f10x_tim.o(i.TIM_OC3PreloadConfig)
    i.TIM_SetCompare2                        0x08002e38   Section        0  stm32f10x_tim.o(i.TIM_SetCompare2)
    i.TIM_SetCompare3                        0x08002e3c   Section        0  stm32f10x_tim.o(i.TIM_SetCompare3)
    i.TIM_SetCounter                         0x08002e40   Section        0  stm32f10x_tim.o(i.TIM_SetCounter)
    i.TIM_SetIC1Prescaler                    0x08002e44   Section        0  stm32f10x_tim.o(i.TIM_SetIC1Prescaler)
    i.TIM_SetIC2Prescaler                    0x08002e54   Section        0  stm32f10x_tim.o(i.TIM_SetIC2Prescaler)
    i.TIM_SetIC3Prescaler                    0x08002e6c   Section        0  stm32f10x_tim.o(i.TIM_SetIC3Prescaler)
    i.TIM_SetIC4Prescaler                    0x08002e7c   Section        0  stm32f10x_tim.o(i.TIM_SetIC4Prescaler)
    i.TIM_TimeBaseInit                       0x08002e94   Section        0  stm32f10x_tim.o(i.TIM_TimeBaseInit)
    i.TIM_TimeBaseStructInit                 0x08002f30   Section        0  stm32f10x_tim.o(i.TIM_TimeBaseStructInit)
    i.USART1_IRQHandler                      0x08002f44   Section        0  usart.o(i.USART1_IRQHandler)
    i.USART2_IRQHandler                      0x08002fa8   Section        0  wifi.o(i.USART2_IRQHandler)
    i.USART_ClearITPendingBit                0x080030a8   Section        0  stm32f10x_usart.o(i.USART_ClearITPendingBit)
    i.USART_Cmd                              0x080030b4   Section        0  stm32f10x_usart.o(i.USART_Cmd)
    i.USART_DMACmd                           0x080030c8   Section        0  stm32f10x_usart.o(i.USART_DMACmd)
    i.USART_GetITStatus                      0x080030d8   Section        0  stm32f10x_usart.o(i.USART_GetITStatus)
    i.USART_ITConfig                         0x08003116   Section        0  stm32f10x_usart.o(i.USART_ITConfig)
    i.USART_Init                             0x08003148   Section        0  stm32f10x_usart.o(i.USART_Init)
    i.USART_ReceiveData                      0x080031f4   Section        0  stm32f10x_usart.o(i.USART_ReceiveData)
    i.UsageFault_Handler                     0x080031fc   Section        0  stm32f10x_it.o(i.UsageFault_Handler)
    i.WIFI_send                              0x08003200   Section        0  wifi.o(i.WIFI_send)
    i.WIFI_task                              0x08003250   Section        0  task_wifi.o(i.WIFI_task)
    i.Wifi_send_task                         0x08003820   Section        0  task_wifi_send.o(i.Wifi_send_task)
    i.__ARM_fpclassify                       0x08003880   Section        0  fpclassify.o(i.__ARM_fpclassify)
    i._sys_exit                              0x080038a8   Section        0  usart.o(i._sys_exit)
    i.delay_init                             0x080038ac   Section        0  delay.o(i.delay_init)
    i.float_to_uchar                         0x080038f4   Section        0  protocol.o(i.float_to_uchar)
    i.fputc                                  0x08003904   Section        0  usart.o(i.fputc)
    i.init_set                               0x0800391c   Section        0  data_init.o(i.init_set)
    i.main                                   0x08003920   Section        0  main.o(i.main)
    i.motor1_PID_task                        0x08003968   Section        0  task_motor1_pid.o(i.motor1_PID_task)
    i.motor1_dir_task                        0x08003a4c   Section        0  task_motor1_dir.o(i.motor1_dir_task)
    i.motor1_pwm_task                        0x08003af0   Section        0  task_motor1_pwm.o(i.motor1_pwm_task)
    i.motor2_PID_task                        0x08003b4c   Section        0  task_motor2_pid.o(i.motor2_PID_task)
    i.motor2_dir_task                        0x08003c2c   Section        0  task_motor2_dir.o(i.motor2_dir_task)
    i.motor2_pwm_task                        0x08003cd0   Section        0  task_motor2_pwm.o(i.motor2_pwm_task)
    i.pid_init                               0x08003d28   Section        0  pid.o(i.pid_init)
    i.prvAddCurrentTaskToDelayedList         0x08003d5c   Section        0  tasks.o(i.prvAddCurrentTaskToDelayedList)
    prvAddCurrentTaskToDelayedList           0x08003d5d   Thumb Code   102  tasks.o(i.prvAddCurrentTaskToDelayedList)
    i.prvAddNewTaskToReadyList               0x08003dcc   Section        0  tasks.o(i.prvAddNewTaskToReadyList)
    prvAddNewTaskToReadyList                 0x08003dcd   Thumb Code   192  tasks.o(i.prvAddNewTaskToReadyList)
    i.prvCheckForValidListAndQueue           0x08003e9c   Section        0  timers.o(i.prvCheckForValidListAndQueue)
    prvCheckForValidListAndQueue             0x08003e9d   Thumb Code    62  timers.o(i.prvCheckForValidListAndQueue)
    i.prvCheckTasksWaitingTermination        0x08003eec   Section        0  tasks.o(i.prvCheckTasksWaitingTermination)
    prvCheckTasksWaitingTermination          0x08003eed   Thumb Code    74  tasks.o(i.prvCheckTasksWaitingTermination)
    i.prvCopyDataFromQueue                   0x08003f40   Section        0  queue.o(i.prvCopyDataFromQueue)
    prvCopyDataFromQueue                     0x08003f41   Thumb Code    38  queue.o(i.prvCopyDataFromQueue)
    i.prvCopyDataToQueue                     0x08003f66   Section        0  queue.o(i.prvCopyDataToQueue)
    prvCopyDataToQueue                       0x08003f67   Thumb Code   108  queue.o(i.prvCopyDataToQueue)
    i.prvDeleteTCB                           0x08003fd2   Section        0  tasks.o(i.prvDeleteTCB)
    prvDeleteTCB                             0x08003fd3   Thumb Code    20  tasks.o(i.prvDeleteTCB)
    i.prvHeapInit                            0x08003fe8   Section        0  heap_4.o(i.prvHeapInit)
    prvHeapInit                              0x08003fe9   Thumb Code    66  heap_4.o(i.prvHeapInit)
    i.prvIdleTask                            0x08004034   Section        0  tasks.o(i.prvIdleTask)
    prvIdleTask                              0x08004035   Thumb Code    30  tasks.o(i.prvIdleTask)
    i.prvInitialiseNewTask                   0x0800405c   Section        0  tasks.o(i.prvInitialiseNewTask)
    prvInitialiseNewTask                     0x0800405d   Thumb Code   154  tasks.o(i.prvInitialiseNewTask)
    i.prvInsertBlockIntoFreeList             0x0800411c   Section        0  heap_4.o(i.prvInsertBlockIntoFreeList)
    prvInsertBlockIntoFreeList               0x0800411d   Thumb Code    72  heap_4.o(i.prvInsertBlockIntoFreeList)
    i.prvInsertTimerInActiveList             0x08004168   Section        0  timers.o(i.prvInsertTimerInActiveList)
    prvInsertTimerInActiveList               0x08004169   Thumb Code    52  timers.o(i.prvInsertTimerInActiveList)
    i.prvIsQueueEmpty                        0x080041a0   Section        0  queue.o(i.prvIsQueueEmpty)
    prvIsQueueEmpty                          0x080041a1   Thumb Code    26  queue.o(i.prvIsQueueEmpty)
    i.prvNotifyQueueSetContainer             0x080041bc   Section        0  queue.o(i.prvNotifyQueueSetContainer)
    prvNotifyQueueSetContainer               0x080041bd   Thumb Code   108  queue.o(i.prvNotifyQueueSetContainer)
    i.prvProcessExpiredTimer                 0x0800424c   Section        0  timers.o(i.prvProcessExpiredTimer)
    prvProcessExpiredTimer                   0x0800424d   Thumb Code    86  timers.o(i.prvProcessExpiredTimer)
    i.prvProcessReceivedCommands             0x080042ac   Section        0  timers.o(i.prvProcessReceivedCommands)
    prvProcessReceivedCommands               0x080042ad   Thumb Code   196  timers.o(i.prvProcessReceivedCommands)
    i.prvProcessTimerOrBlockTask             0x0800439c   Section        0  timers.o(i.prvProcessTimerOrBlockTask)
    prvProcessTimerOrBlockTask               0x0800439d   Thumb Code    98  timers.o(i.prvProcessTimerOrBlockTask)
    i.prvResetNextTaskUnblockTime            0x08004408   Section        0  tasks.o(i.prvResetNextTaskUnblockTime)
    prvResetNextTaskUnblockTime              0x08004409   Thumb Code    26  tasks.o(i.prvResetNextTaskUnblockTime)
    i.prvSampleTimeNow                       0x08004428   Section        0  timers.o(i.prvSampleTimeNow)
    prvSampleTimeNow                         0x08004429   Thumb Code    36  timers.o(i.prvSampleTimeNow)
    i.prvSwitchTimerLists                    0x08004450   Section        0  timers.o(i.prvSwitchTimerLists)
    prvSwitchTimerLists                      0x08004451   Thumb Code   100  timers.o(i.prvSwitchTimerLists)
    i.prvTaskExitError                       0x080044bc   Section        0  port.o(i.prvTaskExitError)
    prvTaskExitError                         0x080044bd   Thumb Code    34  port.o(i.prvTaskExitError)
    i.prvTimerTask                           0x08004520   Section        0  timers.o(i.prvTimerTask)
    prvTimerTask                             0x08004521   Thumb Code    34  timers.o(i.prvTimerTask)
    i.prvUnlockQueue                         0x08004548   Section        0  queue.o(i.prvUnlockQueue)
    prvUnlockQueue                           0x08004549   Thumb Code   120  queue.o(i.prvUnlockQueue)
    i.pvPortMalloc                           0x080045c0   Section        0  heap_4.o(i.pvPortMalloc)
    i.pvTaskIncrementMutexHeldCount          0x080046d4   Section        0  tasks.o(i.pvTaskIncrementMutexHeldCount)
    i.pxPortInitialiseStack                  0x080046ec   Section        0  port.o(i.pxPortInitialiseStack)
    i.speed_pid_realize1                     0x08004710   Section        0  pid.o(i.speed_pid_realize1)
    i.speed_pid_realize2                     0x08004784   Section        0  pid.o(i.speed_pid_realize2)
    i.start_task                             0x080047f8   Section        0  main.o(i.start_task)
    i.timer6_my_init                         0x08004984   Section        0  timer_read_encoder.o(i.timer6_my_init)
    i.uart_init                              0x08004990   Section        0  usart.o(i.uart_init)
    i.uchar_to_float_PID                     0x08004a30   Section        0  protocol.o(i.uchar_to_float_PID)
    i.uchar_to_float_speed                   0x08004a76   Section        0  protocol.o(i.uchar_to_float_speed)
    i.usart2_init                            0x08004acc   Section        0  wifi.o(i.usart2_init)
    i.uxListRemove                           0x08004b98   Section        0  list.o(i.uxListRemove)
    i.vListInitialise                        0x08004bbc   Section        0  list.o(i.vListInitialise)
    i.vListInitialiseItem                    0x08004bd2   Section        0  list.o(i.vListInitialiseItem)
    i.vListInsert                            0x08004bd8   Section        0  list.o(i.vListInsert)
    i.vListInsertEnd                         0x08004c08   Section        0  list.o(i.vListInsertEnd)
    i.vPortEnterCritical                     0x08004c20   Section        0  port.o(i.vPortEnterCritical)
    i.vPortExitCritical                      0x08004c98   Section        0  port.o(i.vPortExitCritical)
    i.vPortFree                              0x08004cfc   Section        0  heap_4.o(i.vPortFree)
    i.vPortSetupTimerInterrupt               0x08004d98   Section        0  port.o(i.vPortSetupTimerInterrupt)
    i.vPortValidateInterruptPriority         0x08004db8   Section        0  port.o(i.vPortValidateInterruptPriority)
    i.vQueueAddToRegistry                    0x08004e44   Section        0  queue.o(i.vQueueAddToRegistry)
    i.vQueueWaitForMessageRestricted         0x08004e68   Section        0  queue.o(i.vQueueWaitForMessageRestricted)
    i.vTaskDelay                             0x08004eac   Section        0  tasks.o(i.vTaskDelay)
    i.vTaskDelete                            0x08004f18   Section        0  tasks.o(i.vTaskDelete)
    i.vTaskMissedYield                       0x08004fe4   Section        0  tasks.o(i.vTaskMissedYield)
    i.vTaskPlaceOnEventList                  0x08004ff0   Section        0  tasks.o(i.vTaskPlaceOnEventList)
    i.vTaskPlaceOnEventListRestricted        0x08005044   Section        0  tasks.o(i.vTaskPlaceOnEventListRestricted)
    i.vTaskPriorityInherit                   0x080050a0   Section        0  tasks.o(i.vTaskPriorityInherit)
    i.vTaskSetTimeOutState                   0x08005124   Section        0  tasks.o(i.vTaskSetTimeOutState)
    i.vTaskStartScheduler                    0x0800516c   Section        0  tasks.o(i.vTaskStartScheduler)
    i.vTaskSuspendAll                        0x08005200   Section        0  tasks.o(i.vTaskSuspendAll)
    i.vTaskSwitchContext                     0x08005210   Section        0  tasks.o(i.vTaskSwitchContext)
    i.wifi_init                              0x0800528c   Section        0  wifi.o(i.wifi_init)
    i.xPortStartScheduler                    0x080052a0   Section        0  port.o(i.xPortStartScheduler)
    i.xPortSysTickHandler                    0x08005318   Section        0  port.o(i.xPortSysTickHandler)
    i.xQueueGenericCreate                    0x08005344   Section        0  queue.o(i.xQueueGenericCreate)
    i.xQueueGenericReceive                   0x080053bc   Section        0  queue.o(i.xQueueGenericReceive)
    i.xQueueGenericReset                     0x08005540   Section        0  queue.o(i.xQueueGenericReset)
    i.xQueueGenericSend                      0x080055e8   Section        0  queue.o(i.xQueueGenericSend)
    i.xQueueGenericSendFromISR               0x08005770   Section        0  queue.o(i.xQueueGenericSendFromISR)
    i.xQueueGiveFromISR                      0x08005850   Section        0  queue.o(i.xQueueGiveFromISR)
    i.xQueuePeekFromISR                      0x08005918   Section        0  queue.o(i.xQueuePeekFromISR)
    i.xTaskCheckForTimeOut                   0x080059a4   Section        0  tasks.o(i.xTaskCheckForTimeOut)
    i.xTaskCreate                            0x08005a2c   Section        0  tasks.o(i.xTaskCreate)
    i.xTaskGetSchedulerState                 0x08005a84   Section        0  tasks.o(i.xTaskGetSchedulerState)
    i.xTaskGetTickCount                      0x08005aa0   Section        0  tasks.o(i.xTaskGetTickCount)
    i.xTaskIncrementTick                     0x08005aac   Section        0  tasks.o(i.xTaskIncrementTick)
    i.xTaskPriorityDisinherit                0x08005b94   Section        0  tasks.o(i.xTaskPriorityDisinherit)
    i.xTaskRemoveFromEventList               0x08005c48   Section        0  tasks.o(i.xTaskRemoveFromEventList)
    i.xTaskResumeAll                         0x08005ce0   Section        0  tasks.o(i.xTaskResumeAll)
    i.xTimerCreate                           0x08005dc4   Section        0  timers.o(i.xTimerCreate)
    i.xTimerCreateTimerTask                  0x08005e38   Section        0  timers.o(i.xTimerCreateTimerTask)
    i.xTimerGenericCommand                   0x08005eac   Section        0  timers.o(i.xTimerGenericCommand)
    locale$$code                             0x08005f3c   Section       44  lc_numeric_c.o(locale$$code)
    x$fpl$dretinf                            0x08005f68   Section       12  dretinf.o(x$fpl$dretinf)
    x$fpl$f2d                                0x08005f74   Section       86  f2d.o(x$fpl$f2d)
    x$fpl$fadd                               0x08005fcc   Section      196  faddsub_clz.o(x$fpl$fadd)
    _fadd1                                   0x08005fdb   Thumb Code     0  faddsub_clz.o(x$fpl$fadd)
    x$fpl$fdiv                               0x08006090   Section      388  fdiv.o(x$fpl$fdiv)
    _fdiv1                                   0x08006091   Thumb Code     0  fdiv.o(x$fpl$fdiv)
    x$fpl$ffixu                              0x08006214   Section       62  ffixu.o(x$fpl$ffixu)
    x$fpl$fflt                               0x08006254   Section       48  fflt_clz.o(x$fpl$fflt)
    x$fpl$ffltu                              0x08006284   Section       38  fflt_clz.o(x$fpl$ffltu)
    x$fpl$fmul                               0x080062ac   Section      258  fmul.o(x$fpl$fmul)
    x$fpl$fnaninf                            0x080063ae   Section      140  fnaninf.o(x$fpl$fnaninf)
    x$fpl$fretinf                            0x0800643a   Section       10  fretinf.o(x$fpl$fretinf)
    x$fpl$fsub                               0x08006444   Section      234  faddsub_clz.o(x$fpl$fsub)
    _fsub1                                   0x08006453   Thumb Code     0  faddsub_clz.o(x$fpl$fsub)
    x$fpl$printf1                            0x0800652e   Section        4  printf1.o(x$fpl$printf1)
    .constdata                               0x08006532   Section      512  crc16.o(.constdata)
    x$fpl$usenofp                            0x08006532   Section        0  usenofp.o(x$fpl$usenofp)
    s_CRCHi                                  0x08006532   Data         256  crc16.o(.constdata)
    .constdata                               0x08006734   Section      148  bigflt0.o(.constdata)
    tenpwrs_x                                0x08006734   Data          60  bigflt0.o(.constdata)
    tenpwrs_i                                0x08006770   Data          64  bigflt0.o(.constdata)
    locale$$data                             0x080067e8   Section       28  lc_numeric_c.o(locale$$data)
    __lcnum_c_name                           0x080067ec   Data           2  lc_numeric_c.o(locale$$data)
    __lcnum_c_start                          0x080067f4   Data           0  lc_numeric_c.o(locale$$data)
    __lcnum_c_point                          0x08006800   Data           0  lc_numeric_c.o(locale$$data)
    __lcnum_c_thousands                      0x08006802   Data           0  lc_numeric_c.o(locale$$data)
    __lcnum_c_grouping                       0x08006803   Data           0  lc_numeric_c.o(locale$$data)
    __lcnum_c_end                            0x08006804   Data           0  lc_numeric_c.o(locale$$data)
    .data                                    0x20000000   Section        4  main.o(.data)
    .data                                    0x20000004   Section        4  main.o(.data)
    .data                                    0x20000008   Section        4  main.o(.data)
    .data                                    0x2000000c   Section        4  main.o(.data)
    .data                                    0x20000010   Section        4  main.o(.data)
    .data                                    0x20000014   Section        4  main.o(.data)
    .data                                    0x20000018   Section        4  main.o(.data)
    .data                                    0x2000001c   Section        4  main.o(.data)
    .data                                    0x20000020   Section        4  main.o(.data)
    .data                                    0x20000024   Section        4  main.o(.data)
    .data                                    0x20000028   Section        4  main.o(.data)
    .data                                    0x2000002c   Section        4  main.o(.data)
    .data                                    0x20000030   Section        4  main.o(.data)
    .data                                    0x20000034   Section        4  main.o(.data)
    .data                                    0x20000038   Section        4  main.o(.data)
    .data                                    0x2000003c   Section        4  main.o(.data)
    .data                                    0x20000040   Section        4  main.o(.data)
    .data                                    0x20000044   Section        4  main.o(.data)
    .data                                    0x20000048   Section       40  main.o(.data)
    .data                                    0x20000070   Section       20  system_stm32f10x.o(.data)
    .data                                    0x20000084   Section        4  os_appobjcreate.o(.data)
    .data                                    0x20000088   Section        4  os_appobjcreate.o(.data)
    .data                                    0x2000008c   Section        4  os_appobjcreate.o(.data)
    .data                                    0x20000090   Section        4  os_appobjcreate.o(.data)
    .data                                    0x20000094   Section        2  os_appobjcreate.o(.data)
    .data                                    0x20000096   Section        2  os_appobjcreate.o(.data)
    .data                                    0x20000098   Section        8  timer_encoder.o(.data)
    .data                                    0x200000a0   Section       28  timer_read_encoder.o(.data)
    .data                                    0x200000bc   Section        4  delay.o(.data)
    fac_us                                   0x200000bc   Data           1  delay.o(.data)
    fac_ms                                   0x200000be   Data           2  delay.o(.data)
    .data                                    0x200000c0   Section        2  usart.o(.data)
    .data                                    0x200000c4   Section        4  usart.o(.data)
    .data                                    0x200000c8   Section       20  stm32f10x_rcc.o(.data)
    ADCPrescTable                            0x200000c8   Data           4  stm32f10x_rcc.o(.data)
    APBAHBPrescTable                         0x200000cc   Data          16  stm32f10x_rcc.o(.data)
    .data                                    0x200000dc   Section       60  tasks.o(.data)
    uxDeletedTasksWaitingCleanUp             0x200000e0   Data           4  tasks.o(.data)
    uxCurrentNumberOfTasks                   0x200000e4   Data           4  tasks.o(.data)
    xTickCount                               0x200000e8   Data           4  tasks.o(.data)
    uxTopReadyPriority                       0x200000ec   Data           4  tasks.o(.data)
    xSchedulerRunning                        0x200000f0   Data           4  tasks.o(.data)
    uxPendedTicks                            0x200000f4   Data           4  tasks.o(.data)
    xYieldPending                            0x200000f8   Data           4  tasks.o(.data)
    xNumOfOverflows                          0x200000fc   Data           4  tasks.o(.data)
    uxTaskNumber                             0x20000100   Data           4  tasks.o(.data)
    xNextTaskUnblockTime                     0x20000104   Data           4  tasks.o(.data)
    xIdleTaskHandle                          0x20000108   Data           4  tasks.o(.data)
    uxSchedulerSuspended                     0x2000010c   Data           4  tasks.o(.data)
    pxDelayedTaskList                        0x20000110   Data           4  tasks.o(.data)
    pxOverflowDelayedTaskList                0x20000114   Data           4  tasks.o(.data)
    .data                                    0x20000118   Section       20  timers.o(.data)
    xTimerQueue                              0x20000118   Data           4  timers.o(.data)
    xTimerTaskHandle                         0x2000011c   Data           4  timers.o(.data)
    xLastTime                                0x20000120   Data           4  timers.o(.data)
    pxCurrentTimerList                       0x20000124   Data           4  timers.o(.data)
    pxOverflowTimerList                      0x20000128   Data           4  timers.o(.data)
    .data                                    0x2000012c   Section       24  heap_4.o(.data)
    pxEnd                                    0x2000012c   Data           4  heap_4.o(.data)
    xFreeBytesRemaining                      0x20000130   Data           4  heap_4.o(.data)
    xMinimumEverFreeBytesRemaining           0x20000134   Data           4  heap_4.o(.data)
    xBlockAllocatedBit                       0x20000138   Data           4  heap_4.o(.data)
    xStart                                   0x2000013c   Data           8  heap_4.o(.data)
    .data                                    0x20000144   Section       12  port.o(.data)
    ucMaxSysCallPriority                     0x20000144   Data           1  port.o(.data)
    uxCriticalNesting                        0x20000148   Data           4  port.o(.data)
    ulMaxPRIGROUPValue                       0x2000014c   Data           4  port.o(.data)
    .bss                                     0x20000150   Section       12  os_appobjcreate.o(.bss)
    .bss                                     0x2000015c   Section       12  os_appobjcreate.o(.bss)
    .bss                                     0x20000168   Section      260  os_appobjcreate.o(.bss)
    .bss                                     0x2000026c   Section      512  wifi.o(.bss)
    DMA_Send_Buf                             0x2000026c   Data         256  wifi.o(.bss)
    DMA_Receive_Buf                          0x2000036c   Data         256  wifi.o(.bss)
    .bss                                     0x2000046c   Section      200  usart.o(.bss)
    .bss                                     0x20000534   Section       64  queue.o(.bss)
    .bss                                     0x20000574   Section      740  tasks.o(.bss)
    pxReadyTasksLists                        0x20000574   Data         640  tasks.o(.bss)
    xDelayedTaskList1                        0x200007f4   Data          20  tasks.o(.bss)
    xDelayedTaskList2                        0x20000808   Data          20  tasks.o(.bss)
    xPendingReadyList                        0x2000081c   Data          20  tasks.o(.bss)
    xTasksWaitingTermination                 0x20000830   Data          20  tasks.o(.bss)
    xSuspendedTaskList                       0x20000844   Data          20  tasks.o(.bss)
    .bss                                     0x20000858   Section       40  timers.o(.bss)
    xActiveTimerList1                        0x20000858   Data          20  timers.o(.bss)
    xActiveTimerList2                        0x2000086c   Data          20  timers.o(.bss)
    .bss                                     0x20000880   Section    20480  heap_4.o(.bss)
    ucHeap                                   0x20000880   Data       20480  heap_4.o(.bss)
    .bss                                     0x20005880   Section       36  task_motor1_pid.o(.bss)
    .bss                                     0x200058a4   Section       36  task_motor2_pid.o(.bss)
    .bss                                     0x200058c8   Section       96  libspace.o(.bss)
    HEAP                                     0x20005928   Section      512  startup_stm32f10x_hd.o(HEAP)
    Heap_Mem                                 0x20005928   Data         512  startup_stm32f10x_hd.o(HEAP)
    STACK                                    0x20005b28   Section     1024  startup_stm32f10x_hd.o(STACK)
    Stack_Mem                                0x20005b28   Data        1024  startup_stm32f10x_hd.o(STACK)
    __initial_sp                             0x20005f28   Data           0  startup_stm32f10x_hd.o(STACK)

    Global Symbols

    Symbol Name                              Value     Ov Type        Size  Object(Section)

    BuildAttributes$$THM_ISAv4$P$D$K$B$S$PE$A:L22UL41UL21$X:L11$S22US41US21$IEEE1$IW$USESV6$~STKCKD$USESV7$~SHL$OTIME$ROPI$IEEEJ$EBA8$UX$STANDARDLIB$REQ8$PRES8$EABIv2 0x00000000   Number         0  anon$$obj.o ABSOLUTE
    __ARM_use_no_argv                        0x00000000   Number         0  main.o ABSOLUTE
    __ARM_exceptions_init                     - Undefined Weak Reference
    __alloca_initialize                       - Undefined Weak Reference
    __arm_preinit_                            - Undefined Weak Reference
    __cpp_initialize__aeabi_                  - Undefined Weak Reference
    __cxa_finalize                            - Undefined Weak Reference
    __sigvec_lookup                           - Undefined Weak Reference
    _atexit_init                              - Undefined Weak Reference
    _call_atexit_fns                          - Undefined Weak Reference
    _clock_init                               - Undefined Weak Reference
    _fp_trap_init                             - Undefined Weak Reference
    _fp_trap_shutdown                         - Undefined Weak Reference
    _get_lc_collate                           - Undefined Weak Reference
    _get_lc_ctype                             - Undefined Weak Reference
    _get_lc_monetary                          - Undefined Weak Reference
    _get_lc_time                              - Undefined Weak Reference
    _getenv_init                              - Undefined Weak Reference
    _handle_redirection                       - Undefined Weak Reference
    _init_alloc                               - Undefined Weak Reference
    _init_user_alloc                          - Undefined Weak Reference
    _initio                                   - Undefined Weak Reference
    _mutex_acquire                            - Undefined Weak Reference
    _mutex_release                            - Undefined Weak Reference
    _printf_mbtowc                            - Undefined Weak Reference
    _printf_post_padding                      - Undefined Weak Reference
    _printf_pre_padding                       - Undefined Weak Reference
    _printf_truncate_signed                   - Undefined Weak Reference
    _printf_truncate_unsigned                 - Undefined Weak Reference
    _rand_init                                - Undefined Weak Reference
    _signal_finish                            - Undefined Weak Reference
    _signal_init                              - Undefined Weak Reference
    _terminate_alloc                          - Undefined Weak Reference
    _terminate_user_alloc                     - Undefined Weak Reference
    _terminateio                              - Undefined Weak Reference
    __Vectors_Size                           0x00000130   Number         0  startup_stm32f10x_hd.o ABSOLUTE
    __Vectors                                0x08000000   Data           4  startup_stm32f10x_hd.o(RESET)
    __Vectors_End                            0x08000130   Data           0  startup_stm32f10x_hd.o(RESET)
    __main                                   0x08000131   Thumb Code     8  __main.o(!!!main)
    __scatterload                            0x08000139   Thumb Code     0  __scatter.o(!!!scatter)
    __scatterload_rt2                        0x08000139   Thumb Code    44  __scatter.o(!!!scatter)
    __scatterload_rt2_thumb_only             0x08000139   Thumb Code     0  __scatter.o(!!!scatter)
    __scatterload_null                       0x08000147   Thumb Code     0  __scatter.o(!!!scatter)
    __decompress                             0x0800016d   Thumb Code    90  __dczerorl2.o(!!dczerorl2)
    __decompress1                            0x0800016d   Thumb Code     0  __dczerorl2.o(!!dczerorl2)
    __scatterload_zeroinit                   0x080001c9   Thumb Code    28  __scatter_zi.o(!!handler_zi)
    _printf_f                                0x080001e5   Thumb Code     0  _printf_f.o(.ARM.Collect$$_printf_percent$$00000003)
    _printf_percent                          0x080001e5   Thumb Code     0  _printf_percent.o(.ARM.Collect$$_printf_percent$$00000000)
    _printf_d                                0x080001eb   Thumb Code     0  _printf_d.o(.ARM.Collect$$_printf_percent$$00000009)
    _printf_s                                0x080001f1   Thumb Code     0  _printf_s.o(.ARM.Collect$$_printf_percent$$00000014)
    _printf_percent_end                      0x080001f7   Thumb Code     0  _printf_percent_end.o(.ARM.Collect$$_printf_percent$$00000017)
    __rt_lib_init                            0x080001fb   Thumb Code     0  libinit.o(.ARM.Collect$$libinit$$00000000)
    __rt_lib_init_fp_1                       0x080001fd   Thumb Code     0  libinit2.o(.ARM.Collect$$libinit$$00000002)
    __rt_lib_init_heap_1                     0x080001fd   Thumb Code     0  libinit2.o(.ARM.Collect$$libinit$$0000000A)
    __rt_lib_init_lc_common                  0x080001fd   Thumb Code     0  libinit2.o(.ARM.Collect$$libinit$$0000000F)
    __rt_lib_init_preinit_1                  0x080001fd   Thumb Code     0  libinit2.o(.ARM.Collect$$libinit$$00000004)
    __rt_lib_init_rand_1                     0x080001fd   Thumb Code     0  libinit2.o(.ARM.Collect$$libinit$$0000000E)
    __rt_lib_init_user_alloc_1               0x080001fd   Thumb Code     0  libinit2.o(.ARM.Collect$$libinit$$0000000C)
    __rt_lib_init_lc_collate_1               0x08000203   Thumb Code     0  libinit2.o(.ARM.Collect$$libinit$$00000011)
    __rt_lib_init_lc_ctype_1                 0x08000203   Thumb Code     0  libinit2.o(.ARM.Collect$$libinit$$00000013)
    __rt_lib_init_lc_monetary_1              0x08000203   Thumb Code     0  libinit2.o(.ARM.Collect$$libinit$$00000015)
    __rt_lib_init_lc_numeric_2               0x08000203   Thumb Code     0  libinit2.o(.ARM.Collect$$libinit$$00000016)
    __rt_lib_init_alloca_1                   0x0800020d   Thumb Code     0  libinit2.o(.ARM.Collect$$libinit$$0000002E)
    __rt_lib_init_argv_1                     0x0800020d   Thumb Code     0  libinit2.o(.ARM.Collect$$libinit$$0000002C)
    __rt_lib_init_atexit_1                   0x0800020d   Thumb Code     0  libinit2.o(.ARM.Collect$$libinit$$0000001B)
    __rt_lib_init_clock_1                    0x0800020d   Thumb Code     0  libinit2.o(.ARM.Collect$$libinit$$00000021)
    __rt_lib_init_cpp_1                      0x0800020d   Thumb Code     0  libinit2.o(.ARM.Collect$$libinit$$00000032)
    __rt_lib_init_exceptions_1               0x0800020d   Thumb Code     0  libinit2.o(.ARM.Collect$$libinit$$00000030)
    __rt_lib_init_fp_trap_1                  0x0800020d   Thumb Code     0  libinit2.o(.ARM.Collect$$libinit$$0000001F)
    __rt_lib_init_getenv_1                   0x0800020d   Thumb Code     0  libinit2.o(.ARM.Collect$$libinit$$00000023)
    __rt_lib_init_lc_numeric_1               0x0800020d   Thumb Code     0  libinit2.o(.ARM.Collect$$libinit$$00000017)
    __rt_lib_init_lc_time_1                  0x0800020d   Thumb Code     0  libinit2.o(.ARM.Collect$$libinit$$00000019)
    __rt_lib_init_return                     0x0800020d   Thumb Code     0  libinit2.o(.ARM.Collect$$libinit$$00000033)
    __rt_lib_init_signal_1                   0x0800020d   Thumb Code     0  libinit2.o(.ARM.Collect$$libinit$$0000001D)
    __rt_lib_init_stdio_1                    0x0800020d   Thumb Code     0  libinit2.o(.ARM.Collect$$libinit$$00000025)
    __rt_lib_shutdown                        0x0800020f   Thumb Code     0  libshutdown.o(.ARM.Collect$$libshutdown$$00000000)
    __rt_lib_shutdown_fp_trap_1              0x08000211   Thumb Code     0  libshutdown2.o(.ARM.Collect$$libshutdown$$00000006)
    __rt_lib_shutdown_heap_1                 0x08000211   Thumb Code     0  libshutdown2.o(.ARM.Collect$$libshutdown$$0000000E)
    __rt_lib_shutdown_return                 0x08000211   Thumb Code     0  libshutdown2.o(.ARM.Collect$$libshutdown$$0000000F)
    __rt_lib_shutdown_signal_1               0x08000211   Thumb Code     0  libshutdown2.o(.ARM.Collect$$libshutdown$$00000009)
    __rt_lib_shutdown_stdio_1                0x08000211   Thumb Code     0  libshutdown2.o(.ARM.Collect$$libshutdown$$00000003)
    __rt_lib_shutdown_user_alloc_1           0x08000211   Thumb Code     0  libshutdown2.o(.ARM.Collect$$libshutdown$$0000000B)
    __rt_entry                               0x08000213   Thumb Code     0  __rtentry.o(.ARM.Collect$$rtentry$$00000000)
    __rt_entry_presh_1                       0x08000213   Thumb Code     0  __rtentry2.o(.ARM.Collect$$rtentry$$00000002)
    __rt_entry_sh                            0x08000213   Thumb Code     0  __rtentry4.o(.ARM.Collect$$rtentry$$00000004)
    __rt_entry_li                            0x08000219   Thumb Code     0  __rtentry2.o(.ARM.Collect$$rtentry$$0000000A)
    __rt_entry_postsh_1                      0x08000219   Thumb Code     0  __rtentry2.o(.ARM.Collect$$rtentry$$00000009)
    __rt_entry_main                          0x0800021d   Thumb Code     0  __rtentry2.o(.ARM.Collect$$rtentry$$0000000D)
    __rt_entry_postli_1                      0x0800021d   Thumb Code     0  __rtentry2.o(.ARM.Collect$$rtentry$$0000000C)
    __rt_exit                                0x08000225   Thumb Code     0  rtexit.o(.ARM.Collect$$rtexit$$00000000)
    __rt_exit_ls                             0x08000227   Thumb Code     0  rtexit2.o(.ARM.Collect$$rtexit$$00000003)
    __rt_exit_prels_1                        0x08000227   Thumb Code     0  rtexit2.o(.ARM.Collect$$rtexit$$00000002)
    __rt_exit_exit                           0x0800022b   Thumb Code     0  rtexit2.o(.ARM.Collect$$rtexit$$00000004)
    SVC_Handler                              0x08000231   Thumb Code    32  port.o(.emb_text)
    __asm___6_port_c_39a90d8d__prvStartFirstTask 0x08000255   Thumb Code    28  port.o(.emb_text)
    PendSV_Handler                           0x08000275   Thumb Code    72  port.o(.emb_text)
    vPortGetIPSR                             0x080002c1   Thumb Code     6  port.o(.emb_text)
    Reset_Handler                            0x080002c9   Thumb Code     8  startup_stm32f10x_hd.o(.text)
    ADC1_2_IRQHandler                        0x080002e3   Thumb Code     0  startup_stm32f10x_hd.o(.text)
    ADC3_IRQHandler                          0x080002e3   Thumb Code     0  startup_stm32f10x_hd.o(.text)
    CAN1_RX1_IRQHandler                      0x080002e3   Thumb Code     0  startup_stm32f10x_hd.o(.text)
    CAN1_SCE_IRQHandler                      0x080002e3   Thumb Code     0  startup_stm32f10x_hd.o(.text)
    DMA1_Channel1_IRQHandler                 0x080002e3   Thumb Code     0  startup_stm32f10x_hd.o(.text)
    DMA1_Channel2_IRQHandler                 0x080002e3   Thumb Code     0  startup_stm32f10x_hd.o(.text)
    DMA1_Channel3_IRQHandler                 0x080002e3   Thumb Code     0  startup_stm32f10x_hd.o(.text)
    DMA1_Channel4_IRQHandler                 0x080002e3   Thumb Code     0  startup_stm32f10x_hd.o(.text)
    DMA1_Channel5_IRQHandler                 0x080002e3   Thumb Code     0  startup_stm32f10x_hd.o(.text)
    DMA2_Channel1_IRQHandler                 0x080002e3   Thumb Code     0  startup_stm32f10x_hd.o(.text)
    DMA2_Channel2_IRQHandler                 0x080002e3   Thumb Code     0  startup_stm32f10x_hd.o(.text)
    DMA2_Channel3_IRQHandler                 0x080002e3   Thumb Code     0  startup_stm32f10x_hd.o(.text)
    DMA2_Channel4_5_IRQHandler               0x080002e3   Thumb Code     0  startup_stm32f10x_hd.o(.text)
    EXTI0_IRQHandler                         0x080002e3   Thumb Code     0  startup_stm32f10x_hd.o(.text)
    EXTI15_10_IRQHandler                     0x080002e3   Thumb Code     0  startup_stm32f10x_hd.o(.text)
    EXTI1_IRQHandler                         0x080002e3   Thumb Code     0  startup_stm32f10x_hd.o(.text)
    EXTI2_IRQHandler                         0x080002e3   Thumb Code     0  startup_stm32f10x_hd.o(.text)
    EXTI3_IRQHandler                         0x080002e3   Thumb Code     0  startup_stm32f10x_hd.o(.text)
    EXTI4_IRQHandler                         0x080002e3   Thumb Code     0  startup_stm32f10x_hd.o(.text)
    EXTI9_5_IRQHandler                       0x080002e3   Thumb Code     0  startup_stm32f10x_hd.o(.text)
    FLASH_IRQHandler                         0x080002e3   Thumb Code     0  startup_stm32f10x_hd.o(.text)
    FSMC_IRQHandler                          0x080002e3   Thumb Code     0  startup_stm32f10x_hd.o(.text)
    I2C1_ER_IRQHandler                       0x080002e3   Thumb Code     0  startup_stm32f10x_hd.o(.text)
    I2C1_EV_IRQHandler                       0x080002e3   Thumb Code     0  startup_stm32f10x_hd.o(.text)
    I2C2_ER_IRQHandler                       0x080002e3   Thumb Code     0  startup_stm32f10x_hd.o(.text)
    I2C2_EV_IRQHandler                       0x080002e3   Thumb Code     0  startup_stm32f10x_hd.o(.text)
    PVD_IRQHandler                           0x080002e3   Thumb Code     0  startup_stm32f10x_hd.o(.text)
    RCC_IRQHandler                           0x080002e3   Thumb Code     0  startup_stm32f10x_hd.o(.text)
    RTCAlarm_IRQHandler                      0x080002e3   Thumb Code     0  startup_stm32f10x_hd.o(.text)
    RTC_IRQHandler                           0x080002e3   Thumb Code     0  startup_stm32f10x_hd.o(.text)
    SDIO_IRQHandler                          0x080002e3   Thumb Code     0  startup_stm32f10x_hd.o(.text)
    SPI1_IRQHandler                          0x080002e3   Thumb Code     0  startup_stm32f10x_hd.o(.text)
    SPI2_IRQHandler                          0x080002e3   Thumb Code     0  startup_stm32f10x_hd.o(.text)
    SPI3_IRQHandler                          0x080002e3   Thumb Code     0  startup_stm32f10x_hd.o(.text)
    TAMPER_IRQHandler                        0x080002e3   Thumb Code     0  startup_stm32f10x_hd.o(.text)
    TIM1_BRK_IRQHandler                      0x080002e3   Thumb Code     0  startup_stm32f10x_hd.o(.text)
    TIM1_CC_IRQHandler                       0x080002e3   Thumb Code     0  startup_stm32f10x_hd.o(.text)
    TIM1_TRG_COM_IRQHandler                  0x080002e3   Thumb Code     0  startup_stm32f10x_hd.o(.text)
    TIM1_UP_IRQHandler                       0x080002e3   Thumb Code     0  startup_stm32f10x_hd.o(.text)
    TIM7_IRQHandler                          0x080002e3   Thumb Code     0  startup_stm32f10x_hd.o(.text)
    TIM8_BRK_IRQHandler                      0x080002e3   Thumb Code     0  startup_stm32f10x_hd.o(.text)
    TIM8_CC_IRQHandler                       0x080002e3   Thumb Code     0  startup_stm32f10x_hd.o(.text)
    TIM8_TRG_COM_IRQHandler                  0x080002e3   Thumb Code     0  startup_stm32f10x_hd.o(.text)
    TIM8_UP_IRQHandler                       0x080002e3   Thumb Code     0  startup_stm32f10x_hd.o(.text)
    UART4_IRQHandler                         0x080002e3   Thumb Code     0  startup_stm32f10x_hd.o(.text)
    UART5_IRQHandler                         0x080002e3   Thumb Code     0  startup_stm32f10x_hd.o(.text)
    USART3_IRQHandler                        0x080002e3   Thumb Code     0  startup_stm32f10x_hd.o(.text)
    USBWakeUp_IRQHandler                     0x080002e3   Thumb Code     0  startup_stm32f10x_hd.o(.text)
    USB_HP_CAN1_TX_IRQHandler                0x080002e3   Thumb Code     0  startup_stm32f10x_hd.o(.text)
    USB_LP_CAN1_RX0_IRQHandler               0x080002e3   Thumb Code     0  startup_stm32f10x_hd.o(.text)
    WWDG_IRQHandler                          0x080002e3   Thumb Code     0  startup_stm32f10x_hd.o(.text)
    __user_initial_stackheap                 0x080002e5   Thumb Code     0  startup_stm32f10x_hd.o(.text)
    __use_no_semihosting                     0x08000309   Thumb Code     2  use_no_semi_2.o(.text)
    __2printf                                0x0800030d   Thumb Code    20  noretval__2printf.o(.text)
    __printf                                 0x08000325   Thumb Code   104  __printf.o(.text)
    _printf_str                              0x0800038d   Thumb Code    82  _printf_str.o(.text)
    _printf_int_dec                          0x080003e1   Thumb Code   104  _printf_dec.o(.text)
    __aeabi_memcpy                           0x08000459   Thumb Code     0  rt_memcpy_v6.o(.text)
    __rt_memcpy                              0x08000459   Thumb Code   138  rt_memcpy_v6.o(.text)
    _memcpy_lastbytes                        0x080004bf   Thumb Code     0  rt_memcpy_v6.o(.text)
    __aeabi_memset                           0x080004e3   Thumb Code    16  aeabi_memset.o(.text)
    __aeabi_memclr                           0x080004f3   Thumb Code     0  rt_memclr.o(.text)
    __rt_memclr                              0x080004f3   Thumb Code    68  rt_memclr.o(.text)
    _memset                                  0x080004f7   Thumb Code     0  rt_memclr.o(.text)
    __aeabi_memclr4                          0x08000537   Thumb Code     0  rt_memclr_w.o(.text)
    __aeabi_memclr8                          0x08000537   Thumb Code     0  rt_memclr_w.o(.text)
    __rt_memclr_w                            0x08000537   Thumb Code    78  rt_memclr_w.o(.text)
    _memset_w                                0x0800053b   Thumb Code     0  rt_memclr_w.o(.text)
    __use_two_region_memory                  0x08000585   Thumb Code     2  heapauxi.o(.text)
    __rt_heap_escrow$2region                 0x08000587   Thumb Code     2  heapauxi.o(.text)
    __rt_heap_expand$2region                 0x08000589   Thumb Code     2  heapauxi.o(.text)
    __I$use$semihosting                      0x0800058b   Thumb Code     0  use_no_semi.o(.text)
    __use_no_semihosting_swi                 0x0800058b   Thumb Code     2  use_no_semi.o(.text)
    _printf_int_common                       0x0800058d   Thumb Code   178  _printf_intcommon.o(.text)
    __lib_sel_fp_printf                      0x0800063f   Thumb Code     2  _printf_fp_dec.o(.text)
    _printf_fp_dec_real                      0x080007ed   Thumb Code   620  _printf_fp_dec.o(.text)
    _printf_char_common                      0x08000a63   Thumb Code    32  _printf_char_common.o(.text)
    _printf_cs_common                        0x08000a89   Thumb Code    20  _printf_char.o(.text)
    _printf_char                             0x08000a9d   Thumb Code    16  _printf_char.o(.text)
    _printf_string                           0x08000aad   Thumb Code     8  _printf_char.o(.text)
    _printf_char_file                        0x08000ab5   Thumb Code    32  _printf_char_file.o(.text)
    __aeabi_memcpy4                          0x08000ad9   Thumb Code     0  rt_memcpy_w.o(.text)
    __aeabi_memcpy8                          0x08000ad9   Thumb Code     0  rt_memcpy_w.o(.text)
    __rt_memcpy_w                            0x08000ad9   Thumb Code   100  rt_memcpy_w.o(.text)
    _memcpy_lastbytes_aligned                0x08000b21   Thumb Code     0  rt_memcpy_w.o(.text)
    __rt_locale                              0x08000b3d   Thumb Code     8  rt_locale_intlibspace.o(.text)
    _ll_udiv10                               0x08000b45   Thumb Code   138  lludiv10.o(.text)
    _printf_fp_infnan                        0x08000bd1   Thumb Code   112  _printf_fp_infnan.o(.text)
    _btod_etento                             0x08000c51   Thumb Code   216  bigflt0.o(.text)
    ferror                                   0x08000d2d   Thumb Code     8  ferror.o(.text)
    __user_libspace                          0x08000d35   Thumb Code     8  libspace.o(.text)
    __user_perproc_libspace                  0x08000d35   Thumb Code     0  libspace.o(.text)
    __user_perthread_libspace                0x08000d35   Thumb Code     0  libspace.o(.text)
    __user_setup_stackheap                   0x08000d3d   Thumb Code    74  sys_stackheap_outer.o(.text)
    exit                                     0x08000d87   Thumb Code    12  exit.o(.text)
    strcmp                                   0x08000d95   Thumb Code   128  strcmpv7m.o(.text)
    _btod_d2e                                0x08000e15   Thumb Code    62  btod.o(CL$$btod_d2e)
    _d2e_denorm_low                          0x08000e53   Thumb Code    70  btod.o(CL$$btod_d2e_denorm_low)
    _d2e_norm_op1                            0x08000e99   Thumb Code    96  btod.o(CL$$btod_d2e_norm_op1)
    __btod_div_common                        0x08000ef9   Thumb Code   696  btod.o(CL$$btod_div_common)
    _e2e                                     0x08001231   Thumb Code   198  btod.o(CL$$btod_e2e)
    _btod_ediv                               0x080012f7   Thumb Code    40  btod.o(CL$$btod_ediv)
    _btod_emul                               0x0800131f   Thumb Code    40  btod.o(CL$$btod_emul)
    __btod_mult_common                       0x08001347   Thumb Code   580  btod.o(CL$$btod_mult_common)
    Bsp_init                                 0x0800158b   Thumb Code    58  bsp_init.o(i.Bsp_init)
    BusFault_Handler                         0x080015c5   Thumb Code     2  stm32f10x_it.o(i.BusFault_Handler)
    CRC16                                    0x080015c9   Thumb Code    36  crc16.o(i.CRC16)
    CRC16_uch                                0x080015f1   Thumb Code    36  crc16.o(i.CRC16_uch)
    Combine_CRC_2Byte                        0x08001619   Thumb Code    14  crc16.o(i.Combine_CRC_2Byte)
    DMA1_Channel6_IRQHandler                 0x08001629   Thumb Code    50  wifi.o(i.DMA1_Channel6_IRQHandler)
    DMA1_Channel7_IRQHandler                 0x08001665   Thumb Code    30  wifi.o(i.DMA1_Channel7_IRQHandler)
    DMA_ClearFlag                            0x08001689   Thumb Code    16  stm32f10x_dma.o(i.DMA_ClearFlag)
    DMA_ClearITPendingBit                    0x080016a1   Thumb Code    16  stm32f10x_dma.o(i.DMA_ClearITPendingBit)
    DMA_Cmd                                  0x080016b9   Thumb Code    22  stm32f10x_dma.o(i.DMA_Cmd)
    DMA_DeInit                               0x080016d1   Thumb Code   218  stm32f10x_dma.o(i.DMA_DeInit)
    DMA_GetCurrDataCounter                   0x080017b5   Thumb Code     6  stm32f10x_dma.o(i.DMA_GetCurrDataCounter)
    DMA_ITConfig                             0x080017bb   Thumb Code    16  stm32f10x_dma.o(i.DMA_ITConfig)
    DMA_Init                                 0x080017cb   Thumb Code    58  stm32f10x_dma.o(i.DMA_Init)
    DMA_SetCurrDataCounter                   0x08001805   Thumb Code     4  stm32f10x_dma.o(i.DMA_SetCurrDataCounter)
    DMA_USART2_Init                          0x08001809   Thumb Code   178  wifi.o(i.DMA_USART2_Init)
    DebugMon_Handler                         0x080018cd   Thumb Code     2  stm32f10x_it.o(i.DebugMon_Handler)
    DeserializeBuffer                        0x080018cf   Thumb Code   274  protocol.o(i.DeserializeBuffer)
    Encoder_init                             0x08001c39   Thumb Code    34  timer_encoder.o(i.Encoder_init)
    GPIO_Init                                0x08001c5b   Thumb Code   156  stm32f10x_gpio.o(i.GPIO_Init)
    GPIO_PinRemapConfig                      0x08001cf9   Thumb Code    82  stm32f10x_gpio.o(i.GPIO_PinRemapConfig)
    GPIO_SetBits                             0x08001d51   Thumb Code     4  stm32f10x_gpio.o(i.GPIO_SetBits)
    HardFault_Handler                        0x08001d55   Thumb Code     2  stm32f10x_it.o(i.HardFault_Handler)
    Idle_task                                0x08001d59   Thumb Code    32  task_idletask.o(i.Idle_task)
    LED_Init                                 0x08001d7d   Thumb Code    48  led.o(i.LED_Init)
    MemManage_Handler                        0x08001db1   Thumb Code     2  stm32f10x_it.o(i.MemManage_Handler)
    Motor_Init                               0x08001db5   Thumb Code    48  motor_dir_output.o(i.Motor_Init)
    NMI_Handler                              0x08001de9   Thumb Code     2  stm32f10x_it.o(i.NMI_Handler)
    NVIC_Init                                0x08001ded   Thumb Code    94  misc.o(i.NVIC_Init)
    NVIC_PriorityGroupConfig                 0x08001e51   Thumb Code    10  misc.o(i.NVIC_PriorityGroupConfig)
    NVIC_cofig_Init                          0x08001e65   Thumb Code   102  wifi.o(i.NVIC_cofig_Init)
    OS_AppObjCreate                          0x08001ed5   Thumb Code    78  os_appobjcreate.o(i.OS_AppObjCreate)
    RCC_AHBPeriphClockCmd                    0x08002421   Thumb Code    18  stm32f10x_rcc.o(i.RCC_AHBPeriphClockCmd)
    RCC_APB1PeriphClockCmd                   0x08002439   Thumb Code    18  stm32f10x_rcc.o(i.RCC_APB1PeriphClockCmd)
    RCC_APB2PeriphClockCmd                   0x08002451   Thumb Code    18  stm32f10x_rcc.o(i.RCC_APB2PeriphClockCmd)
    RCC_GetClocksFreq                        0x08002469   Thumb Code   132  stm32f10x_rcc.o(i.RCC_GetClocksFreq)
    SerializeBuffer                          0x080024fd   Thumb Code   264  protocol.o(i.SerializeBuffer)
    SysTick_CLKSourceConfig                  0x080026ad   Thumb Code    24  misc.o(i.SysTick_CLKSourceConfig)
    SysTick_Handler                          0x080026c5   Thumb Code    20  delay.o(i.SysTick_Handler)
    SystemInit                               0x080026d9   Thumb Code    64  system_stm32f10x.o(i.SystemInit)
    TIM2_IRQHandler                          0x08002811   Thumb Code    30  pwm.o(i.TIM2_IRQHandler)
    TIM2_PWM_Init                            0x08002831   Thumb Code   134  pwm.o(i.TIM2_PWM_Init)
    TIM3_IRQHandler                          0x080028bd   Thumb Code    30  pwm.o(i.TIM3_IRQHandler)
    TIM3_PWM_Init                            0x080028e1   Thumb Code   140  pwm.o(i.TIM3_PWM_Init)
    TIM4_IRQHandler                          0x08002979   Thumb Code    70  timer_encoder.o(i.TIM4_IRQHandler)
    TIM5_IRQHandler                          0x080029cd   Thumb Code    68  timer_encoder.o(i.TIM5_IRQHandler)
    TIM6_IRQHandler                          0x08002a1d   Thumb Code   192  timer_read_encoder.o(i.TIM6_IRQHandler)
    TIM6_Int_Init                            0x08002b09   Thumb Code    98  timer_read_encoder.o(i.TIM6_Int_Init)
    TIM_ClearFlag                            0x08002b71   Thumb Code     6  stm32f10x_tim.o(i.TIM_ClearFlag)
    TIM_ClearITPendingBit                    0x08002b77   Thumb Code     6  stm32f10x_tim.o(i.TIM_ClearITPendingBit)
    TIM_Cmd                                  0x08002b7d   Thumb Code    20  stm32f10x_tim.o(i.TIM_Cmd)
    TIM_EncoderInterfaceConfig               0x08002b91   Thumb Code    50  stm32f10x_tim.o(i.TIM_EncoderInterfaceConfig)
    TIM_GetCounter                           0x08002bc3   Thumb Code     4  stm32f10x_tim.o(i.TIM_GetCounter)
    TIM_GetITStatus                          0x08002bc7   Thumb Code    24  stm32f10x_tim.o(i.TIM_GetITStatus)
    TIM_ICInit                               0x08002be1   Thumb Code   278  stm32f10x_tim.o(i.TIM_ICInit)
    TIM_ITConfig                             0x08002d0d   Thumb Code    16  stm32f10x_tim.o(i.TIM_ITConfig)
    TIM_OC2Init                              0x08002d1d   Thumb Code   120  stm32f10x_tim.o(i.TIM_OC2Init)
    TIM_OC2PreloadConfig                     0x08002d9d   Thumb Code    20  stm32f10x_tim.o(i.TIM_OC2PreloadConfig)
    TIM_OC3Init                              0x08002db1   Thumb Code   116  stm32f10x_tim.o(i.TIM_OC3Init)
    TIM_OC3PreloadConfig                     0x08002e2d   Thumb Code    12  stm32f10x_tim.o(i.TIM_OC3PreloadConfig)
    TIM_SetCompare2                          0x08002e39   Thumb Code     4  stm32f10x_tim.o(i.TIM_SetCompare2)
    TIM_SetCompare3                          0x08002e3d   Thumb Code     4  stm32f10x_tim.o(i.TIM_SetCompare3)
    TIM_SetCounter                           0x08002e41   Thumb Code     4  stm32f10x_tim.o(i.TIM_SetCounter)
    TIM_SetIC1Prescaler                      0x08002e45   Thumb Code    16  stm32f10x_tim.o(i.TIM_SetIC1Prescaler)
    TIM_SetIC2Prescaler                      0x08002e55   Thumb Code    24  stm32f10x_tim.o(i.TIM_SetIC2Prescaler)
    TIM_SetIC3Prescaler                      0x08002e6d   Thumb Code    16  stm32f10x_tim.o(i.TIM_SetIC3Prescaler)
    TIM_SetIC4Prescaler                      0x08002e7d   Thumb Code    24  stm32f10x_tim.o(i.TIM_SetIC4Prescaler)
    TIM_TimeBaseInit                         0x08002e95   Thumb Code   114  stm32f10x_tim.o(i.TIM_TimeBaseInit)
    TIM_TimeBaseStructInit                   0x08002f31   Thumb Code    18  stm32f10x_tim.o(i.TIM_TimeBaseStructInit)
    USART1_IRQHandler                        0x08002f45   Thumb Code    88  usart.o(i.USART1_IRQHandler)
    USART2_IRQHandler                        0x08002fa9   Thumb Code   226  wifi.o(i.USART2_IRQHandler)
    USART_ClearITPendingBit                  0x080030a9   Thumb Code    12  stm32f10x_usart.o(i.USART_ClearITPendingBit)
    USART_Cmd                                0x080030b5   Thumb Code    20  stm32f10x_usart.o(i.USART_Cmd)
    USART_DMACmd                             0x080030c9   Thumb Code    16  stm32f10x_usart.o(i.USART_DMACmd)
    USART_GetITStatus                        0x080030d9   Thumb Code    62  stm32f10x_usart.o(i.USART_GetITStatus)
    USART_ITConfig                           0x08003117   Thumb Code    48  stm32f10x_usart.o(i.USART_ITConfig)
    USART_Init                               0x08003149   Thumb Code   166  stm32f10x_usart.o(i.USART_Init)
    USART_ReceiveData                        0x080031f5   Thumb Code     8  stm32f10x_usart.o(i.USART_ReceiveData)
    UsageFault_Handler                       0x080031fd   Thumb Code     2  stm32f10x_it.o(i.UsageFault_Handler)
    WIFI_send                                0x08003201   Thumb Code    66  wifi.o(i.WIFI_send)
    WIFI_task                                0x08003251   Thumb Code  1478  task_wifi.o(i.WIFI_task)
    Wifi_send_task                           0x08003821   Thumb Code    86  task_wifi_send.o(i.Wifi_send_task)
    __ARM_fpclassify                         0x08003881   Thumb Code    40  fpclassify.o(i.__ARM_fpclassify)
    _sys_exit                                0x080038a9   Thumb Code     2  usart.o(i._sys_exit)
    delay_init                               0x080038ad   Thumb Code    60  delay.o(i.delay_init)
    float_to_uchar                           0x080038f5   Thumb Code    16  protocol.o(i.float_to_uchar)
    fputc                                    0x08003905   Thumb Code    18  usart.o(i.fputc)
    init_set                                 0x0800391d   Thumb Code     4  data_init.o(i.init_set)
    main                                     0x08003921   Thumb Code    50  main.o(i.main)
    motor1_PID_task                          0x08003969   Thumb Code   176  task_motor1_pid.o(i.motor1_PID_task)
    motor1_dir_task                          0x08003a4d   Thumb Code   112  task_motor1_dir.o(i.motor1_dir_task)
    motor1_pwm_task                          0x08003af1   Thumb Code    76  task_motor1_pwm.o(i.motor1_pwm_task)
    motor2_PID_task                          0x08003b4d   Thumb Code   172  task_motor2_pid.o(i.motor2_PID_task)
    motor2_dir_task                          0x08003c2d   Thumb Code   112  task_motor2_dir.o(i.motor2_dir_task)
    motor2_pwm_task                          0x08003cd1   Thumb Code    76  task_motor2_pwm.o(i.motor2_pwm_task)
    pid_init                                 0x08003d29   Thumb Code    44  pid.o(i.pid_init)
    pvPortMalloc                             0x080045c1   Thumb Code   214  heap_4.o(i.pvPortMalloc)
    pvTaskIncrementMutexHeldCount            0x080046d5   Thumb Code    18  tasks.o(i.pvTaskIncrementMutexHeldCount)
    pxPortInitialiseStack                    0x080046ed   Thumb Code    32  port.o(i.pxPortInitialiseStack)
    speed_pid_realize1                       0x08004711   Thumb Code   106  pid.o(i.speed_pid_realize1)
    speed_pid_realize2                       0x08004785   Thumb Code   106  pid.o(i.speed_pid_realize2)
    start_task                               0x080047f9   Thumb Code   218  main.o(i.start_task)
    timer6_my_init                           0x08004985   Thumb Code    10  timer_read_encoder.o(i.timer6_my_init)
    uart_init                                0x08004991   Thumb Code   152  usart.o(i.uart_init)
    uchar_to_float_PID                       0x08004a31   Thumb Code    70  protocol.o(i.uchar_to_float_PID)
    uchar_to_float_speed                     0x08004a77   Thumb Code    84  protocol.o(i.uchar_to_float_speed)
    usart2_init                              0x08004acd   Thumb Code   196  wifi.o(i.usart2_init)
    uxListRemove                             0x08004b99   Thumb Code    36  list.o(i.uxListRemove)
    vListInitialise                          0x08004bbd   Thumb Code    22  list.o(i.vListInitialise)
    vListInitialiseItem                      0x08004bd3   Thumb Code     6  list.o(i.vListInitialiseItem)
    vListInsert                              0x08004bd9   Thumb Code    48  list.o(i.vListInsert)
    vListInsertEnd                           0x08004c09   Thumb Code    24  list.o(i.vListInsertEnd)
    vPortEnterCritical                       0x08004c21   Thumb Code    50  port.o(i.vPortEnterCritical)
    vPortExitCritical                        0x08004c99   Thumb Code    34  port.o(i.vPortExitCritical)
    vPortFree                                0x08004cfd   Thumb Code    94  heap_4.o(i.vPortFree)
    vPortSetupTimerInterrupt                 0x08004d99   Thumb Code    26  port.o(i.vPortSetupTimerInterrupt)
    vPortValidateInterruptPriority           0x08004db9   Thumb Code    70  port.o(i.vPortValidateInterruptPriority)
    vQueueAddToRegistry                      0x08004e45   Thumb Code    32  queue.o(i.vQueueAddToRegistry)
    vQueueWaitForMessageRestricted           0x08004e69   Thumb Code    68  queue.o(i.vQueueWaitForMessageRestricted)
    vTaskDelay                               0x08004ead   Thumb Code    62  tasks.o(i.vTaskDelay)
    vTaskDelete                              0x08004f19   Thumb Code   152  tasks.o(i.vTaskDelete)
    vTaskMissedYield                         0x08004fe5   Thumb Code     8  tasks.o(i.vTaskMissedYield)
    vTaskPlaceOnEventList                    0x08004ff1   Thumb Code    44  tasks.o(i.vTaskPlaceOnEventList)
    vTaskPlaceOnEventListRestricted          0x08005045   Thumb Code    52  tasks.o(i.vTaskPlaceOnEventListRestricted)
    vTaskPriorityInherit                     0x080050a1   Thumb Code   124  tasks.o(i.vTaskPriorityInherit)
    vTaskSetTimeOutState                     0x08005125   Thumb Code    30  tasks.o(i.vTaskSetTimeOutState)
    vTaskStartScheduler                      0x0800516d   Thumb Code    96  tasks.o(i.vTaskStartScheduler)
    vTaskSuspendAll                          0x08005201   Thumb Code    10  tasks.o(i.vTaskSuspendAll)
    vTaskSwitchContext                       0x08005211   Thumb Code    80  tasks.o(i.vTaskSwitchContext)
    wifi_init                                0x0800528d   Thumb Code    18  wifi.o(i.wifi_init)
    xPortStartScheduler                      0x080052a1   Thumb Code   108  port.o(i.xPortStartScheduler)
    xPortSysTickHandler                      0x08005319   Thumb Code    38  port.o(i.xPortSysTickHandler)
    xQueueGenericCreate                      0x08005345   Thumb Code    82  queue.o(i.xQueueGenericCreate)
    xQueueGenericReceive                     0x080053bd   Thumb Code   348  queue.o(i.xQueueGenericReceive)
    xQueueGenericReset                       0x08005541   Thumb Code   128  queue.o(i.xQueueGenericReset)
    xQueueGenericSend                        0x080055e9   Thumb Code   350  queue.o(i.xQueueGenericSend)
    xQueueGenericSendFromISR                 0x08005771   Thumb Code   188  queue.o(i.xQueueGenericSendFromISR)
    xQueueGiveFromISR                        0x08005851   Thumb Code   162  queue.o(i.xQueueGiveFromISR)
    xQueuePeekFromISR                        0x08005919   Thumb Code   104  queue.o(i.xQueuePeekFromISR)
    xTaskCheckForTimeOut                     0x080059a5   Thumb Code    94  tasks.o(i.xTaskCheckForTimeOut)
    xTaskCreate                              0x08005a2d   Thumb Code    86  tasks.o(i.xTaskCreate)
    xTaskGetSchedulerState                   0x08005a85   Thumb Code    22  tasks.o(i.xTaskGetSchedulerState)
    xTaskGetTickCount                        0x08005aa1   Thumb Code     6  tasks.o(i.xTaskGetTickCount)
    xTaskIncrementTick                       0x08005aad   Thumb Code   188  tasks.o(i.xTaskIncrementTick)
    xTaskPriorityDisinherit                  0x08005b95   Thumb Code   136  tasks.o(i.xTaskPriorityDisinherit)
    xTaskRemoveFromEventList                 0x08005c49   Thumb Code   102  tasks.o(i.xTaskRemoveFromEventList)
    xTaskResumeAll                           0x08005ce1   Thumb Code   180  tasks.o(i.xTaskResumeAll)
    xTimerCreate                             0x08005dc5   Thumb Code    74  timers.o(i.xTimerCreate)
    xTimerCreateTimerTask                    0x08005e39   Thumb Code    58  timers.o(i.xTimerCreateTimerTask)
    xTimerGenericCommand                     0x08005ead   Thumb Code    98  timers.o(i.xTimerGenericCommand)
    _get_lc_numeric                          0x08005f3d   Thumb Code    44  lc_numeric_c.o(locale$$code)
    __fpl_dretinf                            0x08005f69   Thumb Code    12  dretinf.o(x$fpl$dretinf)
    __aeabi_f2d                              0x08005f75   Thumb Code     0  f2d.o(x$fpl$f2d)
    _f2d                                     0x08005f75   Thumb Code    86  f2d.o(x$fpl$f2d)
    __aeabi_fadd                             0x08005fcd   Thumb Code     0  faddsub_clz.o(x$fpl$fadd)
    _fadd                                    0x08005fcd   Thumb Code   196  faddsub_clz.o(x$fpl$fadd)
    __aeabi_fdiv                             0x08006091   Thumb Code     0  fdiv.o(x$fpl$fdiv)
    _fdiv                                    0x08006091   Thumb Code   384  fdiv.o(x$fpl$fdiv)
    __aeabi_f2uiz                            0x08006215   Thumb Code     0  ffixu.o(x$fpl$ffixu)
    _ffixu                                   0x08006215   Thumb Code    62  ffixu.o(x$fpl$ffixu)
    __aeabi_i2f                              0x08006255   Thumb Code     0  fflt_clz.o(x$fpl$fflt)
    _fflt                                    0x08006255   Thumb Code    48  fflt_clz.o(x$fpl$fflt)
    __aeabi_ui2f                             0x08006285   Thumb Code     0  fflt_clz.o(x$fpl$ffltu)
    _ffltu                                   0x08006285   Thumb Code    38  fflt_clz.o(x$fpl$ffltu)
    __aeabi_fmul                             0x080062ad   Thumb Code     0  fmul.o(x$fpl$fmul)
    _fmul                                    0x080062ad   Thumb Code   258  fmul.o(x$fpl$fmul)
    __fpl_fnaninf                            0x080063af   Thumb Code   140  fnaninf.o(x$fpl$fnaninf)
    __fpl_fretinf                            0x0800643b   Thumb Code    10  fretinf.o(x$fpl$fretinf)
    __aeabi_fsub                             0x08006445   Thumb Code     0  faddsub_clz.o(x$fpl$fsub)
    _fsub                                    0x08006445   Thumb Code   234  faddsub_clz.o(x$fpl$fsub)
    _printf_fp_dec                           0x0800652f   Thumb Code     4  printf1.o(x$fpl$printf1)
    __I$use$fp                               0x08006532   Number         0  usenofp.o(x$fpl$usenofp)
    s_CRCLo                                  0x08006632   Data         256  crc16.o(.constdata)
    Region$$Table$$Base                      0x080067c8   Number         0  anon$$obj.o(Region$$Table)
    Region$$Table$$Limit                     0x080067e8   Number         0  anon$$obj.o(Region$$Table)
    Motor1_Direction_Queue                   0x20000000   Data           4  main.o(.data)
    Motor1_PWM_Queue                         0x20000004   Data           4  main.o(.data)
    Motor2_Direction_Queue                   0x20000008   Data           4  main.o(.data)
    Motor2_PWM_Queue                         0x2000000c   Data           4  main.o(.data)
    Wifi_buffer_Queue                        0x20000010   Data           4  main.o(.data)
    Encoder1_Overflow_Queue                  0x20000014   Data           4  main.o(.data)
    Encoder2_Overflow_Queue                  0x20000018   Data           4  main.o(.data)
    Encoder1_Status_Queue                    0x2000001c   Data           4  main.o(.data)
    Encoder2_Status_Queue                    0x20000020   Data           4  main.o(.data)
    Motor1_PID_Parameter_Queue               0x20000024   Data           4  main.o(.data)
    Motor2_PID_Parameter_Queue               0x20000028   Data           4  main.o(.data)
    Motor1_Ctrl_Parameter_Queue              0x2000002c   Data           4  main.o(.data)
    Motor2_Ctrl_Parameter_Queue              0x20000030   Data           4  main.o(.data)
    BinarySemaphore_Motor1_DirChange         0x20000034   Data           4  main.o(.data)
    BinarySemaphore_Motor1_SpeedChange       0x20000038   Data           4  main.o(.data)
    BinarySemaphore_Motor2_DirChange         0x2000003c   Data           4  main.o(.data)
    BinarySemaphore_Motor2_SpeedChange       0x20000040   Data           4  main.o(.data)
    BinarySemaphore_USART2ISR                0x20000044   Data           4  main.o(.data)
    StartTask_Handler                        0x20000048   Data           4  main.o(.data)
    MOTOR1Task_Handler                       0x2000004c   Data           4  main.o(.data)
    MOTOR1_PWM_TASK_Handler                  0x20000050   Data           4  main.o(.data)
    MOTOR2Task_Handler                       0x20000054   Data           4  main.o(.data)
    MOTOR2_PWM_TASK_Handler                  0x20000058   Data           4  main.o(.data)
    MOTOR1_PID_TASK_Handler                  0x2000005c   Data           4  main.o(.data)
    MOTOR2_PID_TASK_Handler                  0x20000060   Data           4  main.o(.data)
    WIFI_SEND_Task_Handler                   0x20000064   Data           4  main.o(.data)
    WIFITask_Handler                         0x20000068   Data           4  main.o(.data)
    IdleTask_Handler                         0x2000006c   Data           4  main.o(.data)
    SystemCoreClock                          0x20000070   Data           4  system_stm32f10x.o(.data)
    AHBPrescTable                            0x20000074   Data          16  system_stm32f10x.o(.data)
    Encoder1_struct_init                     0x20000084   Data           4  os_appobjcreate.o(.data)
    Encoder2_struct_init                     0x20000088   Data           4  os_appobjcreate.o(.data)
    Motor1_ctrl_struct_init                  0x2000008c   Data           4  os_appobjcreate.o(.data)
    Motor2_ctrl_struct_init                  0x20000090   Data           4  os_appobjcreate.o(.data)
    Motor1_Direction_struct_init             0x20000094   Data           2  os_appobjcreate.o(.data)
    Motor2_Direction_struct_init             0x20000096   Data           2  os_appobjcreate.o(.data)
    overflow_count_Encoder1                  0x20000098   Data           4  timer_encoder.o(.data)
    overflow_count_Encoder2                  0x2000009c   Data           4  timer_encoder.o(.data)
    Encoder1_last_count                      0x200000a0   Data           4  timer_read_encoder.o(.data)
    Encoder1_Overflow_count                  0x200000a4   Data           4  timer_read_encoder.o(.data)
    Encoder1_capture_count                   0x200000a8   Data           4  timer_read_encoder.o(.data)
    Encoder2_last_count                      0x200000ac   Data           4  timer_read_encoder.o(.data)
    Encoder2_Overflow_count                  0x200000b0   Data           4  timer_read_encoder.o(.data)
    Encoder2_capture_count                   0x200000b4   Data           4  timer_read_encoder.o(.data)
    S_K                                      0x200000b8   Data           4  timer_read_encoder.o(.data)
    USART_RX_STA                             0x200000c0   Data           2  usart.o(.data)
    __stdout                                 0x200000c4   Data           4  usart.o(.data)
    pxCurrentTCB                             0x200000dc   Data           4  tasks.o(.data)
    Motor1_PID_struct_init                   0x20000150   Data          12  os_appobjcreate.o(.bss)
    Motor2_PID_struct_init                   0x2000015c   Data          12  os_appobjcreate.o(.bss)
    wifibuff_struct_init                     0x20000168   Data         260  os_appobjcreate.o(.bss)
    USART_RX_BUF                             0x2000046c   Data         200  usart.o(.bss)
    xQueueRegistry                           0x20000534   Data          64  queue.o(.bss)
    M1_S_PID                                 0x20005880   Data          36  task_motor1_pid.o(.bss)
    M2_S_PID                                 0x200058a4   Data          36  task_motor2_pid.o(.bss)
    __libspace_start                         0x200058c8   Data          96  libspace.o(.bss)
    __temporary_stack_top$libspace           0x20005928   Data           0  libspace.o(.bss)



==============================================================================

Memory Map of the image

  Image Entry point : 0x080002c9

  Load Region LR_1 (Base: 0x08000000, Size: 0x00006954, Max: 0xffffffff, ABSOLUTE, COMPRESSED[0x0000682c])

    Execution Region ER_RO (Base: 0x08000000, Size: 0x00006804, Max: 0xffffffff, ABSOLUTE)

    Base Addr    Size         Type   Attr      Idx    E Section Name        Object

    0x08000000   0x00000130   Data   RO          881    RESET               startup_stm32f10x_hd.o
    0x08000130   0x00000008   Code   RO         3211  * !!!main             c_w.l(__main.o)
    0x08000138   0x00000034   Code   RO         3464    !!!scatter          c_w.l(__scatter.o)
    0x0800016c   0x0000005a   Code   RO         3462    !!dczerorl2         c_w.l(__dczerorl2.o)
    0x080001c6   0x00000002   PAD
    0x080001c8   0x0000001c   Code   RO         3466    !!handler_zi        c_w.l(__scatter_zi.o)
    0x080001e4   0x00000000   Code   RO         3196    .ARM.Collect$$_printf_percent$$00000000  c_w.l(_printf_percent.o)
    0x080001e4   0x00000006   Code   RO         3195    .ARM.Collect$$_printf_percent$$00000003  c_w.l(_printf_f.o)
    0x080001ea   0x00000006   Code   RO         3193    .ARM.Collect$$_printf_percent$$00000009  c_w.l(_printf_d.o)
    0x080001f0   0x00000006   Code   RO         3192    .ARM.Collect$$_printf_percent$$00000014  c_w.l(_printf_s.o)
    0x080001f6   0x00000004   Code   RO         3254    .ARM.Collect$$_printf_percent$$00000017  c_w.l(_printf_percent_end.o)
    0x080001fa   0x00000002   Code   RO         3340    .ARM.Collect$$libinit$$00000000  c_w.l(libinit.o)
    0x080001fc   0x00000000   Code   RO         3342    .ARM.Collect$$libinit$$00000002  c_w.l(libinit2.o)
    0x080001fc   0x00000000   Code   RO         3344    .ARM.Collect$$libinit$$00000004  c_w.l(libinit2.o)
    0x080001fc   0x00000000   Code   RO         3347    .ARM.Collect$$libinit$$0000000A  c_w.l(libinit2.o)
    0x080001fc   0x00000000   Code   RO         3349    .ARM.Collect$$libinit$$0000000C  c_w.l(libinit2.o)
    0x080001fc   0x00000000   Code   RO         3351    .ARM.Collect$$libinit$$0000000E  c_w.l(libinit2.o)
    0x080001fc   0x00000006   Code   RO         3352    .ARM.Collect$$libinit$$0000000F  c_w.l(libinit2.o)
    0x08000202   0x00000000   Code   RO         3354    .ARM.Collect$$libinit$$00000011  c_w.l(libinit2.o)
    0x08000202   0x00000000   Code   RO         3356    .ARM.Collect$$libinit$$00000013  c_w.l(libinit2.o)
    0x08000202   0x00000000   Code   RO         3358    .ARM.Collect$$libinit$$00000015  c_w.l(libinit2.o)
    0x08000202   0x0000000a   Code   RO         3359    .ARM.Collect$$libinit$$00000016  c_w.l(libinit2.o)
    0x0800020c   0x00000000   Code   RO         3360    .ARM.Collect$$libinit$$00000017  c_w.l(libinit2.o)
    0x0800020c   0x00000000   Code   RO         3362    .ARM.Collect$$libinit$$00000019  c_w.l(libinit2.o)
    0x0800020c   0x00000000   Code   RO         3364    .ARM.Collect$$libinit$$0000001B  c_w.l(libinit2.o)
    0x0800020c   0x00000000   Code   RO         3366    .ARM.Collect$$libinit$$0000001D  c_w.l(libinit2.o)
    0x0800020c   0x00000000   Code   RO         3368    .ARM.Collect$$libinit$$0000001F  c_w.l(libinit2.o)
    0x0800020c   0x00000000   Code   RO         3370    .ARM.Collect$$libinit$$00000021  c_w.l(libinit2.o)
    0x0800020c   0x00000000   Code   RO         3372    .ARM.Collect$$libinit$$00000023  c_w.l(libinit2.o)
    0x0800020c   0x00000000   Code   RO         3374    .ARM.Collect$$libinit$$00000025  c_w.l(libinit2.o)
    0x0800020c   0x00000000   Code   RO         3378    .ARM.Collect$$libinit$$0000002C  c_w.l(libinit2.o)
    0x0800020c   0x00000000   Code   RO         3380    .ARM.Collect$$libinit$$0000002E  c_w.l(libinit2.o)
    0x0800020c   0x00000000   Code   RO         3382    .ARM.Collect$$libinit$$00000030  c_w.l(libinit2.o)
    0x0800020c   0x00000000   Code   RO         3384    .ARM.Collect$$libinit$$00000032  c_w.l(libinit2.o)
    0x0800020c   0x00000002   Code   RO         3385    .ARM.Collect$$libinit$$00000033  c_w.l(libinit2.o)
    0x0800020e   0x00000002   Code   RO         3413    .ARM.Collect$$libshutdown$$00000000  c_w.l(libshutdown.o)
    0x08000210   0x00000000   Code   RO         3423    .ARM.Collect$$libshutdown$$00000003  c_w.l(libshutdown2.o)
    0x08000210   0x00000000   Code   RO         3426    .ARM.Collect$$libshutdown$$00000006  c_w.l(libshutdown2.o)
    0x08000210   0x00000000   Code   RO         3429    .ARM.Collect$$libshutdown$$00000009  c_w.l(libshutdown2.o)
    0x08000210   0x00000000   Code   RO         3431    .ARM.Collect$$libshutdown$$0000000B  c_w.l(libshutdown2.o)
    0x08000210   0x00000000   Code   RO         3434    .ARM.Collect$$libshutdown$$0000000E  c_w.l(libshutdown2.o)
    0x08000210   0x00000002   Code   RO         3435    .ARM.Collect$$libshutdown$$0000000F  c_w.l(libshutdown2.o)
    0x08000212   0x00000000   Code   RO         3241    .ARM.Collect$$rtentry$$00000000  c_w.l(__rtentry.o)
    0x08000212   0x00000000   Code   RO         3265    .ARM.Collect$$rtentry$$00000002  c_w.l(__rtentry2.o)
    0x08000212   0x00000006   Code   RO         3277    .ARM.Collect$$rtentry$$00000004  c_w.l(__rtentry4.o)
    0x08000218   0x00000000   Code   RO         3267    .ARM.Collect$$rtentry$$00000009  c_w.l(__rtentry2.o)
    0x08000218   0x00000004   Code   RO         3268    .ARM.Collect$$rtentry$$0000000A  c_w.l(__rtentry2.o)
    0x0800021c   0x00000000   Code   RO         3270    .ARM.Collect$$rtentry$$0000000C  c_w.l(__rtentry2.o)
    0x0800021c   0x00000008   Code   RO         3271    .ARM.Collect$$rtentry$$0000000D  c_w.l(__rtentry2.o)
    0x08000224   0x00000002   Code   RO         3386    .ARM.Collect$$rtexit$$00000000  c_w.l(rtexit.o)
    0x08000226   0x00000000   Code   RO         3393    .ARM.Collect$$rtexit$$00000002  c_w.l(rtexit2.o)
    0x08000226   0x00000004   Code   RO         3394    .ARM.Collect$$rtexit$$00000003  c_w.l(rtexit2.o)
    0x0800022a   0x00000006   Code   RO         3395    .ARM.Collect$$rtexit$$00000004  c_w.l(rtexit2.o)
    0x08000230   0x00000096   Code   RO         2924    .emb_text           port.o
    0x080002c6   0x00000002   PAD
    0x080002c8   0x00000040   Code   RO          882  * .text               startup_stm32f10x_hd.o
    0x08000308   0x00000002   Code   RO         3155    .text               c_w.l(use_no_semi_2.o)
    0x0800030a   0x00000002   PAD
    0x0800030c   0x00000018   Code   RO         3161    .text               c_w.l(noretval__2printf.o)
    0x08000324   0x00000068   Code   RO         3165    .text               c_w.l(__printf.o)
    0x0800038c   0x00000052   Code   RO         3167    .text               c_w.l(_printf_str.o)
    0x080003de   0x00000002   PAD
    0x080003e0   0x00000078   Code   RO         3169    .text               c_w.l(_printf_dec.o)
    0x08000458   0x0000008a   Code   RO         3201    .text               c_w.l(rt_memcpy_v6.o)
    0x080004e2   0x00000010   Code   RO         3203    .text               c_w.l(aeabi_memset.o)
    0x080004f2   0x00000044   Code   RO         3205    .text               c_w.l(rt_memclr.o)
    0x08000536   0x0000004e   Code   RO         3207    .text               c_w.l(rt_memclr_w.o)
    0x08000584   0x00000006   Code   RO         3209    .text               c_w.l(heapauxi.o)
    0x0800058a   0x00000002   Code   RO         3239    .text               c_w.l(use_no_semi.o)
    0x0800058c   0x000000b2   Code   RO         3242    .text               c_w.l(_printf_intcommon.o)
    0x0800063e   0x0000041a   Code   RO         3244    .text               c_w.l(_printf_fp_dec.o)
    0x08000a58   0x00000030   Code   RO         3246    .text               c_w.l(_printf_char_common.o)
    0x08000a88   0x0000002c   Code   RO         3250    .text               c_w.l(_printf_char.o)
    0x08000ab4   0x00000024   Code   RO         3252    .text               c_w.l(_printf_char_file.o)
    0x08000ad8   0x00000064   Code   RO         3255    .text               c_w.l(rt_memcpy_w.o)
    0x08000b3c   0x00000008   Code   RO         3282    .text               c_w.l(rt_locale_intlibspace.o)
    0x08000b44   0x0000008a   Code   RO         3284    .text               c_w.l(lludiv10.o)
    0x08000bce   0x00000002   PAD
    0x08000bd0   0x00000080   Code   RO         3286    .text               c_w.l(_printf_fp_infnan.o)
    0x08000c50   0x000000dc   Code   RO         3290    .text               c_w.l(bigflt0.o)
    0x08000d2c   0x00000008   Code   RO         3315    .text               c_w.l(ferror.o)
    0x08000d34   0x00000008   Code   RO         3326    .text               c_w.l(libspace.o)
    0x08000d3c   0x0000004a   Code   RO         3329    .text               c_w.l(sys_stackheap_outer.o)
    0x08000d86   0x0000000c   Code   RO         3331    .text               c_w.l(exit.o)
    0x08000d92   0x00000002   PAD
    0x08000d94   0x00000080   Code   RO         3333    .text               c_w.l(strcmpv7m.o)
    0x08000e14   0x0000003e   Code   RO         3293    CL$$btod_d2e        c_w.l(btod.o)
    0x08000e52   0x00000046   Code   RO         3295    CL$$btod_d2e_denorm_low  c_w.l(btod.o)
    0x08000e98   0x00000060   Code   RO         3294    CL$$btod_d2e_norm_op1  c_w.l(btod.o)
    0x08000ef8   0x00000338   Code   RO         3303    CL$$btod_div_common  c_w.l(btod.o)
    0x08001230   0x000000c6   Code   RO         3300    CL$$btod_e2e        c_w.l(btod.o)
    0x080012f6   0x00000028   Code   RO         3297    CL$$btod_ediv       c_w.l(btod.o)
    0x0800131e   0x00000028   Code   RO         3296    CL$$btod_emul       c_w.l(btod.o)
    0x08001346   0x00000244   Code   RO         3302    CL$$btod_mult_common  c_w.l(btod.o)
    0x0800158a   0x0000003a   Code   RO          507    i.Bsp_init          bsp_init.o
    0x080015c4   0x00000002   Code   RO          263    i.BusFault_Handler  stm32f10x_it.o
    0x080015c6   0x00000002   PAD
    0x080015c8   0x00000028   Code   RO         3126    i.CRC16             crc16.o
    0x080015f0   0x00000028   Code   RO         3127    i.CRC16_uch         crc16.o
    0x08001618   0x0000000e   Code   RO         3128    i.Combine_CRC_2Byte  crc16.o
    0x08001626   0x00000002   PAD
    0x08001628   0x0000003c   Code   RO          658    i.DMA1_Channel6_IRQHandler  wifi.o
    0x08001664   0x00000024   Code   RO          659    i.DMA1_Channel7_IRQHandler  wifi.o
    0x08001688   0x00000018   Code   RO         1440    i.DMA_ClearFlag     stm32f10x_dma.o
    0x080016a0   0x00000018   Code   RO         1441    i.DMA_ClearITPendingBit  stm32f10x_dma.o
    0x080016b8   0x00000016   Code   RO         1442    i.DMA_Cmd           stm32f10x_dma.o
    0x080016ce   0x00000002   PAD
    0x080016d0   0x000000e4   Code   RO         1443    i.DMA_DeInit        stm32f10x_dma.o
    0x080017b4   0x00000006   Code   RO         1444    i.DMA_GetCurrDataCounter  stm32f10x_dma.o
    0x080017ba   0x00000010   Code   RO         1447    i.DMA_ITConfig      stm32f10x_dma.o
    0x080017ca   0x0000003a   Code   RO         1448    i.DMA_Init          stm32f10x_dma.o
    0x08001804   0x00000004   Code   RO         1449    i.DMA_SetCurrDataCounter  stm32f10x_dma.o
    0x08001808   0x000000c4   Code   RO          660    i.DMA_USART2_Init   wifi.o
    0x080018cc   0x00000002   Code   RO          264    i.DebugMon_Handler  stm32f10x_it.o
    0x080018ce   0x00000112   Code   RO          432    i.DeserializeBuffer  protocol.o
    0x080019e0   0x00000024   Code   RO          433    i.Deserialize_Ctrl_obj  protocol.o
    0x08001a04   0x000000bc   Code   RO          414    i.Encoder1_data_init  data_init.o
    0x08001ac0   0x000000bc   Code   RO          620    i.Encoder1_init     timer_encoder.o
    0x08001b7c   0x000000bc   Code   RO          621    i.Encoder2_Init     timer_encoder.o
    0x08001c38   0x00000022   Code   RO          622    i.Encoder_init      timer_encoder.o
    0x08001c5a   0x0000009c   Code   RO          928    i.GPIO_Init         stm32f10x_gpio.o
    0x08001cf6   0x00000002   PAD
    0x08001cf8   0x00000058   Code   RO          930    i.GPIO_PinRemapConfig  stm32f10x_gpio.o
    0x08001d50   0x00000004   Code   RO          936    i.GPIO_SetBits      stm32f10x_gpio.o
    0x08001d54   0x00000002   Code   RO          265    i.HardFault_Handler  stm32f10x_it.o
    0x08001d56   0x00000002   PAD
    0x08001d58   0x00000024   Code   RO         3085    i.Idle_task         task_idletask.o
    0x08001d7c   0x00000034   Code   RO          535    i.LED_Init          led.o
    0x08001db0   0x00000002   Code   RO          266    i.MemManage_Handler  stm32f10x_it.o
    0x08001db2   0x00000002   PAD
    0x08001db4   0x00000034   Code   RO          608    i.Motor_Init        motor_dir_output.o
    0x08001de8   0x00000002   Code   RO          267    i.NMI_Handler       stm32f10x_it.o
    0x08001dea   0x00000002   PAD
    0x08001dec   0x00000064   Code   RO          886    i.NVIC_Init         misc.o
    0x08001e50   0x00000014   Code   RO          887    i.NVIC_PriorityGroupConfig  misc.o
    0x08001e64   0x00000070   Code   RO          661    i.NVIC_cofig_Init   wifi.o
    0x08001ed4   0x00000064   Code   RO          363    i.OS_AppObjCreate   os_appobjcreate.o
    0x08001f38   0x000004e8   Code   RO          364    i.QueueCreate       os_appobjcreate.o
    0x08002420   0x00000018   Code   RO         1061    i.RCC_AHBPeriphClockCmd  stm32f10x_rcc.o
    0x08002438   0x00000018   Code   RO         1062    i.RCC_APB1PeriphClockCmd  stm32f10x_rcc.o
    0x08002450   0x00000018   Code   RO         1064    i.RCC_APB2PeriphClockCmd  stm32f10x_rcc.o
    0x08002468   0x00000094   Code   RO         1072    i.RCC_GetClocksFreq  stm32f10x_rcc.o
    0x080024fc   0x00000108   Code   RO          434    i.SerializeBuffer   protocol.o
    0x08002604   0x000000a8   Code   RO          334    i.SetSysClockTo72   system_stm32f10x.o
    0x080026ac   0x00000018   Code   RO          890    i.SysTick_CLKSourceConfig  misc.o
    0x080026c4   0x00000014   Code   RO          757    i.SysTick_Handler   delay.o
    0x080026d8   0x00000050   Code   RO          336    i.SystemInit        system_stm32f10x.o
    0x08002728   0x0000006c   Code   RO         2342    i.TI1_Config        stm32f10x_tim.o
    0x08002794   0x0000007c   Code   RO         2343    i.TI2_Config        stm32f10x_tim.o
    0x08002810   0x0000001e   Code   RO          547    i.TIM2_IRQHandler   pwm.o
    0x0800282e   0x00000002   PAD
    0x08002830   0x0000008c   Code   RO          549    i.TIM2_PWM_Init     pwm.o
    0x080028bc   0x00000024   Code   RO          550    i.TIM3_IRQHandler   pwm.o
    0x080028e0   0x00000098   Code   RO          552    i.TIM3_PWM_Init     pwm.o
    0x08002978   0x00000054   Code   RO          623    i.TIM4_IRQHandler   timer_encoder.o
    0x080029cc   0x00000050   Code   RO          624    i.TIM5_IRQHandler   timer_encoder.o
    0x08002a1c   0x000000ec   Code   RO          715    i.TIM6_IRQHandler   timer_read_encoder.o
    0x08002b08   0x00000068   Code   RO          716    i.TIM6_Int_Init     timer_read_encoder.o
    0x08002b70   0x00000006   Code   RO         2350    i.TIM_ClearFlag     stm32f10x_tim.o
    0x08002b76   0x00000006   Code   RO         2351    i.TIM_ClearITPendingBit  stm32f10x_tim.o
    0x08002b7c   0x00000014   Code   RO         2356    i.TIM_Cmd           stm32f10x_tim.o
    0x08002b90   0x00000032   Code   RO         2365    i.TIM_EncoderInterfaceConfig  stm32f10x_tim.o
    0x08002bc2   0x00000004   Code   RO         2375    i.TIM_GetCounter    stm32f10x_tim.o
    0x08002bc6   0x00000018   Code   RO         2377    i.TIM_GetITStatus   stm32f10x_tim.o
    0x08002bde   0x00000002   PAD
    0x08002be0   0x0000012c   Code   RO         2379    i.TIM_ICInit        stm32f10x_tim.o
    0x08002d0c   0x00000010   Code   RO         2381    i.TIM_ITConfig      stm32f10x_tim.o
    0x08002d1c   0x00000080   Code   RO         2390    i.TIM_OC2Init       stm32f10x_tim.o
    0x08002d9c   0x00000014   Code   RO         2393    i.TIM_OC2PreloadConfig  stm32f10x_tim.o
    0x08002db0   0x0000007c   Code   RO         2395    i.TIM_OC3Init       stm32f10x_tim.o
    0x08002e2c   0x0000000c   Code   RO         2398    i.TIM_OC3PreloadConfig  stm32f10x_tim.o
    0x08002e38   0x00000004   Code   RO         2418    i.TIM_SetCompare2   stm32f10x_tim.o
    0x08002e3c   0x00000004   Code   RO         2419    i.TIM_SetCompare3   stm32f10x_tim.o
    0x08002e40   0x00000004   Code   RO         2421    i.TIM_SetCounter    stm32f10x_tim.o
    0x08002e44   0x00000010   Code   RO         2422    i.TIM_SetIC1Prescaler  stm32f10x_tim.o
    0x08002e54   0x00000018   Code   RO         2423    i.TIM_SetIC2Prescaler  stm32f10x_tim.o
    0x08002e6c   0x00000010   Code   RO         2424    i.TIM_SetIC3Prescaler  stm32f10x_tim.o
    0x08002e7c   0x00000018   Code   RO         2425    i.TIM_SetIC4Prescaler  stm32f10x_tim.o
    0x08002e94   0x0000009c   Code   RO         2427    i.TIM_TimeBaseInit  stm32f10x_tim.o
    0x08002f30   0x00000012   Code   RO         2428    i.TIM_TimeBaseStructInit  stm32f10x_tim.o
    0x08002f42   0x00000002   PAD
    0x08002f44   0x00000064   Code   RO          824    i.USART1_IRQHandler  usart.o
    0x08002fa8   0x00000100   Code   RO          662    i.USART2_IRQHandler  wifi.o
    0x080030a8   0x0000000c   Code   RO         1261    i.USART_ClearITPendingBit  stm32f10x_usart.o
    0x080030b4   0x00000014   Code   RO         1264    i.USART_Cmd         stm32f10x_usart.o
    0x080030c8   0x00000010   Code   RO         1265    i.USART_DMACmd      stm32f10x_usart.o
    0x080030d8   0x0000003e   Code   RO         1268    i.USART_GetITStatus  stm32f10x_usart.o
    0x08003116   0x00000030   Code   RO         1270    i.USART_ITConfig    stm32f10x_usart.o
    0x08003146   0x00000002   PAD
    0x08003148   0x000000ac   Code   RO         1271    i.USART_Init        stm32f10x_usart.o
    0x080031f4   0x00000008   Code   RO         1278    i.USART_ReceiveData  stm32f10x_usart.o
    0x080031fc   0x00000002   Code   RO          268    i.UsageFault_Handler  stm32f10x_it.o
    0x080031fe   0x00000002   PAD
    0x08003200   0x00000050   Code   RO          663    i.WIFI_send         wifi.o
    0x08003250   0x000005d0   Code   RO         3097    i.WIFI_task         task_wifi.o
    0x08003820   0x00000060   Code   RO         3113    i.Wifi_send_task    task_wifi_send.o
    0x08003880   0x00000028   Code   RO         3324    i.__ARM_fpclassify  m_ws.l(fpclassify.o)
    0x080038a8   0x00000002   Code   RO          825    i._sys_exit         usart.o
    0x080038aa   0x00000002   PAD
    0x080038ac   0x00000048   Code   RO          758    i.delay_init        delay.o
    0x080038f4   0x00000010   Code   RO          435    i.float_to_uchar    protocol.o
    0x08003904   0x00000018   Code   RO          826    i.fputc             usart.o
    0x0800391c   0x00000004   Code   RO          415    i.init_set          data_init.o
    0x08003920   0x00000048   Code   RO            1    i.main              main.o
    0x08003968   0x000000e4   Code   RO         3027    i.motor1_PID_task   task_motor1_pid.o
    0x08003a4c   0x000000a4   Code   RO         3001    i.motor1_dir_task   task_motor1_dir.o
    0x08003af0   0x0000005c   Code   RO         3014    i.motor1_pwm_task   task_motor1_pwm.o
    0x08003b4c   0x000000e0   Code   RO         3069    i.motor2_PID_task   task_motor2_pid.o
    0x08003c2c   0x000000a4   Code   RO         3043    i.motor2_dir_task   task_motor2_dir.o
    0x08003cd0   0x00000058   Code   RO         3056    i.motor2_pwm_task   task_motor2_pwm.o
    0x08003d28   0x00000034   Code   RO          476    i.pid_init          pid.o
    0x08003d5c   0x00000070   Code   RO         1877    i.prvAddCurrentTaskToDelayedList  tasks.o
    0x08003dcc   0x000000d0   Code   RO         1878    i.prvAddNewTaskToReadyList  tasks.o
    0x08003e9c   0x00000050   Code   RO         2222    i.prvCheckForValidListAndQueue  timers.o
    0x08003eec   0x00000054   Code   RO         1879    i.prvCheckTasksWaitingTermination  tasks.o
    0x08003f40   0x00000026   Code   RO         1659    i.prvCopyDataFromQueue  queue.o
    0x08003f66   0x0000006c   Code   RO         1660    i.prvCopyDataToQueue  queue.o
    0x08003fd2   0x00000014   Code   RO         1880    i.prvDeleteTCB      tasks.o
    0x08003fe6   0x00000002   PAD
    0x08003fe8   0x0000004c   Code   RO         2875    i.prvHeapInit       heap_4.o
    0x08004034   0x00000028   Code   RO         1881    i.prvIdleTask       tasks.o
    0x0800405c   0x000000c0   Code   RO         1882    i.prvInitialiseNewTask  tasks.o
    0x0800411c   0x0000004c   Code   RO         2876    i.prvInsertBlockIntoFreeList  heap_4.o
    0x08004168   0x00000038   Code   RO         2223    i.prvInsertTimerInActiveList  timers.o
    0x080041a0   0x0000001a   Code   RO         1661    i.prvIsQueueEmpty   queue.o
    0x080041ba   0x00000002   PAD
    0x080041bc   0x00000090   Code   RO         1662    i.prvNotifyQueueSetContainer  queue.o
    0x0800424c   0x00000060   Code   RO         2224    i.prvProcessExpiredTimer  timers.o
    0x080042ac   0x000000f0   Code   RO         2225    i.prvProcessReceivedCommands  timers.o
    0x0800439c   0x0000006c   Code   RO         2226    i.prvProcessTimerOrBlockTask  timers.o
    0x08004408   0x00000020   Code   RO         1884    i.prvResetNextTaskUnblockTime  tasks.o
    0x08004428   0x00000028   Code   RO         2227    i.prvSampleTimeNow  timers.o
    0x08004450   0x0000006c   Code   RO         2228    i.prvSwitchTimerLists  timers.o
    0x080044bc   0x00000064   Code   RO         2925    i.prvTaskExitError  port.o
    0x08004520   0x00000028   Code   RO         2229    i.prvTimerTask      timers.o
    0x08004548   0x00000078   Code   RO         1663    i.prvUnlockQueue    queue.o
    0x080045c0   0x00000114   Code   RO         2877    i.pvPortMalloc      heap_4.o
    0x080046d4   0x00000018   Code   RO         1886    i.pvTaskIncrementMutexHeldCount  tasks.o
    0x080046ec   0x00000024   Code   RO         2926    i.pxPortInitialiseStack  port.o
    0x08004710   0x00000074   Code   RO          477    i.speed_pid_realize1  pid.o
    0x08004784   0x00000074   Code   RO          478    i.speed_pid_realize2  pid.o
    0x080047f8   0x0000018c   Code   RO            2    i.start_task        main.o
    0x08004984   0x0000000a   Code   RO          717    i.timer6_my_init    timer_read_encoder.o
    0x0800498e   0x00000002   PAD
    0x08004990   0x000000a0   Code   RO          827    i.uart_init         usart.o
    0x08004a30   0x00000046   Code   RO          436    i.uchar_to_float_PID  protocol.o
    0x08004a76   0x00000054   Code   RO          437    i.uchar_to_float_speed  protocol.o
    0x08004aca   0x00000002   PAD
    0x08004acc   0x000000cc   Code   RO          664    i.usart2_init       wifi.o
    0x08004b98   0x00000024   Code   RO         1622    i.uxListRemove      list.o
    0x08004bbc   0x00000016   Code   RO         1623    i.vListInitialise   list.o
    0x08004bd2   0x00000006   Code   RO         1624    i.vListInitialiseItem  list.o
    0x08004bd8   0x00000030   Code   RO         1625    i.vListInsert       list.o
    0x08004c08   0x00000018   Code   RO         1626    i.vListInsertEnd    list.o
    0x08004c20   0x00000078   Code   RO         2928    i.vPortEnterCritical  port.o
    0x08004c98   0x00000064   Code   RO         2929    i.vPortExitCritical  port.o
    0x08004cfc   0x0000009c   Code   RO         2878    i.vPortFree         heap_4.o
    0x08004d98   0x00000020   Code   RO         2930    i.vPortSetupTimerInterrupt  port.o
    0x08004db8   0x0000008c   Code   RO         2931    i.vPortValidateInterruptPriority  port.o
    0x08004e44   0x00000024   Code   RO         1669    i.vQueueAddToRegistry  queue.o
    0x08004e68   0x00000044   Code   RO         1673    i.vQueueWaitForMessageRestricted  queue.o
    0x08004eac   0x0000006c   Code   RO         1894    i.vTaskDelay        tasks.o
    0x08004f18   0x000000cc   Code   RO         1896    i.vTaskDelete       tasks.o
    0x08004fe4   0x0000000c   Code   RO         1900    i.vTaskMissedYield  tasks.o
    0x08004ff0   0x00000054   Code   RO         1902    i.vTaskPlaceOnEventList  tasks.o
    0x08005044   0x0000005c   Code   RO         1903    i.vTaskPlaceOnEventListRestricted  tasks.o
    0x080050a0   0x00000084   Code   RO         1905    i.vTaskPriorityInherit  tasks.o
    0x08005124   0x00000048   Code   RO         1909    i.vTaskSetTimeOutState  tasks.o
    0x0800516c   0x00000094   Code   RO         1910    i.vTaskStartScheduler  tasks.o
    0x08005200   0x00000010   Code   RO         1912    i.vTaskSuspendAll   tasks.o
    0x08005210   0x0000007c   Code   RO         1913    i.vTaskSwitchContext  tasks.o
    0x0800528c   0x00000012   Code   RO          665    i.wifi_init         wifi.o
    0x0800529e   0x00000002   PAD
    0x080052a0   0x00000078   Code   RO         2932    i.xPortStartScheduler  port.o
    0x08005318   0x0000002c   Code   RO         2933    i.xPortSysTickHandler  port.o
    0x08005344   0x00000078   Code   RO         1678    i.xQueueGenericCreate  queue.o
    0x080053bc   0x00000184   Code   RO         1679    i.xQueueGenericReceive  queue.o
    0x08005540   0x000000a8   Code   RO         1680    i.xQueueGenericReset  queue.o
    0x080055e8   0x00000188   Code   RO         1681    i.xQueueGenericSend  queue.o
    0x08005770   0x000000e0   Code   RO         1682    i.xQueueGenericSendFromISR  queue.o
    0x08005850   0x000000c8   Code   RO         1683    i.xQueueGiveFromISR  queue.o
    0x08005918   0x0000008c   Code   RO         1687    i.xQueuePeekFromISR  queue.o
    0x080059a4   0x00000088   Code   RO         1914    i.xTaskCheckForTimeOut  tasks.o
    0x08005a2c   0x00000056   Code   RO         1915    i.xTaskCreate       tasks.o
    0x08005a82   0x00000002   PAD
    0x08005a84   0x0000001c   Code   RO         1919    i.xTaskGetSchedulerState  tasks.o
    0x08005aa0   0x0000000c   Code   RO         1920    i.xTaskGetTickCount  tasks.o
    0x08005aac   0x000000e8   Code   RO         1922    i.xTaskIncrementTick  tasks.o
    0x08005b94   0x000000b4   Code   RO         1925    i.xTaskPriorityDisinherit  tasks.o
    0x08005c48   0x00000098   Code   RO         1926    i.xTaskRemoveFromEventList  tasks.o
    0x08005ce0   0x000000e4   Code   RO         1928    i.xTaskResumeAll    tasks.o
    0x08005dc4   0x00000074   Code   RO         2232    i.xTimerCreate      timers.o
    0x08005e38   0x00000074   Code   RO         2233    i.xTimerCreateTimerTask  timers.o
    0x08005eac   0x00000090   Code   RO         2234    i.xTimerGenericCommand  timers.o
    0x08005f3c   0x0000002c   Code   RO         3320    locale$$code        c_w.l(lc_numeric_c.o)
    0x08005f68   0x0000000c   Code   RO         3257    x$fpl$dretinf       fz_ws.l(dretinf.o)
    0x08005f74   0x00000056   Code   RO         3213    x$fpl$f2d           fz_ws.l(f2d.o)
    0x08005fca   0x00000002   PAD
    0x08005fcc   0x000000c4   Code   RO         3215    x$fpl$fadd          fz_ws.l(faddsub_clz.o)
    0x08006090   0x00000184   Code   RO         3222    x$fpl$fdiv          fz_ws.l(fdiv.o)
    0x08006214   0x0000003e   Code   RO         3225    x$fpl$ffixu         fz_ws.l(ffixu.o)
    0x08006252   0x00000002   PAD
    0x08006254   0x00000030   Code   RO         3230    x$fpl$fflt          fz_ws.l(fflt_clz.o)
    0x08006284   0x00000026   Code   RO         3229    x$fpl$ffltu         fz_ws.l(fflt_clz.o)
    0x080062aa   0x00000002   PAD
    0x080062ac   0x00000102   Code   RO         3235    x$fpl$fmul          fz_ws.l(fmul.o)
    0x080063ae   0x0000008c   Code   RO         3259    x$fpl$fnaninf       fz_ws.l(fnaninf.o)
    0x0800643a   0x0000000a   Code   RO         3261    x$fpl$fretinf       fz_ws.l(fretinf.o)
    0x08006444   0x000000ea   Code   RO         3217    x$fpl$fsub          fz_ws.l(faddsub_clz.o)
    0x0800652e   0x00000004   Code   RO         3237    x$fpl$printf1       fz_ws.l(printf1.o)
    0x08006532   0x00000000   Code   RO         3263    x$fpl$usenofp       fz_ws.l(usenofp.o)
    0x08006532   0x00000200   Data   RO         3129    .constdata          crc16.o
    0x08006732   0x00000002   PAD
    0x08006734   0x00000094   Data   RO         3291    .constdata          c_w.l(bigflt0.o)
    0x080067c8   0x00000020   Data   RO         3460    Region$$Table       anon$$obj.o
    0x080067e8   0x0000001c   Data   RO         3319    locale$$data        c_w.l(lc_numeric_c.o)


    Execution Region ER_RW (Base: 0x20000000, Size: 0x00000150, Max: 0xffffffff, ABSOLUTE, COMPRESSED[0x00000028])

    Base Addr    Size         Type   Attr      Idx    E Section Name        Object

    0x20000000   0x00000004   Data   RW            3    .data               main.o
    0x20000004   0x00000004   Data   RW            4    .data               main.o
    0x20000008   0x00000004   Data   RW            5    .data               main.o
    0x2000000c   0x00000004   Data   RW            6    .data               main.o
    0x20000010   0x00000004   Data   RW            7    .data               main.o
    0x20000014   0x00000004   Data   RW            8    .data               main.o
    0x20000018   0x00000004   Data   RW            9    .data               main.o
    0x2000001c   0x00000004   Data   RW           10    .data               main.o
    0x20000020   0x00000004   Data   RW           11    .data               main.o
    0x20000024   0x00000004   Data   RW           12    .data               main.o
    0x20000028   0x00000004   Data   RW           13    .data               main.o
    0x2000002c   0x00000004   Data   RW           14    .data               main.o
    0x20000030   0x00000004   Data   RW           15    .data               main.o
    0x20000034   0x00000004   Data   RW           16    .data               main.o
    0x20000038   0x00000004   Data   RW           17    .data               main.o
    0x2000003c   0x00000004   Data   RW           18    .data               main.o
    0x20000040   0x00000004   Data   RW           19    .data               main.o
    0x20000044   0x00000004   Data   RW           20    .data               main.o
    0x20000048   0x00000028   Data   RW           21    .data               main.o
    0x20000070   0x00000014   Data   RW          337    .data               system_stm32f10x.o
    0x20000084   0x00000004   Data   RW          381    .data               os_appobjcreate.o
    0x20000088   0x00000004   Data   RW          382    .data               os_appobjcreate.o
    0x2000008c   0x00000004   Data   RW          383    .data               os_appobjcreate.o
    0x20000090   0x00000004   Data   RW          384    .data               os_appobjcreate.o
    0x20000094   0x00000002   Data   RW          385    .data               os_appobjcreate.o
    0x20000096   0x00000002   Data   RW          386    .data               os_appobjcreate.o
    0x20000098   0x00000008   Data   RW          625    .data               timer_encoder.o
    0x200000a0   0x0000001c   Data   RW          718    .data               timer_read_encoder.o
    0x200000bc   0x00000004   Data   RW          762    .data               delay.o
    0x200000c0   0x00000002   Data   RW          829    .data               usart.o
    0x200000c2   0x00000002   PAD
    0x200000c4   0x00000004   Data   RW          830    .data               usart.o
    0x200000c8   0x00000014   Data   RW         1092    .data               stm32f10x_rcc.o
    0x200000dc   0x0000003c   Data   RW         1931    .data               tasks.o
    0x20000118   0x00000014   Data   RW         2242    .data               timers.o
    0x2000012c   0x00000018   Data   RW         2883    .data               heap_4.o
    0x20000144   0x0000000c   Data   RW         2934    .data               port.o


    Execution Region ER_ZI (Base: 0x20000150, Size: 0x00005dd8, Max: 0xffffffff, ABSOLUTE)

    Base Addr    Size         Type   Attr      Idx    E Section Name        Object

    0x20000150   0x0000000c   Zero   RW          365    .bss                os_appobjcreate.o
    0x2000015c   0x0000000c   Zero   RW          366    .bss                os_appobjcreate.o
    0x20000168   0x00000104   Zero   RW          367    .bss                os_appobjcreate.o
    0x2000026c   0x00000200   Zero   RW          666    .bss                wifi.o
    0x2000046c   0x000000c8   Zero   RW          828    .bss                usart.o
    0x20000534   0x00000040   Zero   RW         1693    .bss                queue.o
    0x20000574   0x000002e4   Zero   RW         1930    .bss                tasks.o
    0x20000858   0x00000028   Zero   RW         2241    .bss                timers.o
    0x20000880   0x00005000   Zero   RW         2882    .bss                heap_4.o
    0x20005880   0x00000024   Zero   RW         3028    .bss                task_motor1_pid.o
    0x200058a4   0x00000024   Zero   RW         3070    .bss                task_motor2_pid.o
    0x200058c8   0x00000060   Zero   RW         3327    .bss                c_w.l(libspace.o)
    0x20005928   0x00000200   Zero   RW          880    HEAP                startup_stm32f10x_hd.o
    0x20005b28   0x00000400   Zero   RW          879    STACK               startup_stm32f10x_hd.o


==============================================================================

Image component sizes


      Code (inc. data)   RO Data    RW Data    ZI Data      Debug   Object Name

        58          0          0          0          0        487   bsp_init.o
        94          8        512          0          0       2102   crc16.o
       192         46          0          0          0       1999   data_init.o
        92         12          0          4          0       1143   delay.o
         0          0          0          0          0      10256   event_groups.o
       584        138          0         24      20480       3555   heap_4.o
        52          4          0          0          0        475   led.o
       136          0          0          0          0       2714   list.o
       468        200          0        112          0     280921   main.o
       144         16          0          0          0       1869   misc.o
        52          4          0          0          0        505   motor_dir_output.o
      1356        912          0         20        284       5983   os_appobjcreate.o
       284         28          0          0          0       1421   pid.o
       842        312          0         12          0       9765   port.o
       744          6          0          0          0       5459   protocol.o
       358         24          0          0          0       2280   pwm.o
      2172        310          0          0         64      12517   queue.o
        64         26        304          0       1536        780   startup_stm32f10x_hd.o
       382         26          0          0          0       5755   stm32f10x_dma.o
       248          6          0          0          0       2877   stm32f10x_gpio.o
        12          0          0          0          0       2345   stm32f10x_it.o
       220         34          0         20          0       4770   stm32f10x_rcc.o
      1208        122          0          0          0      13740   stm32f10x_tim.o
       338          6          0          0          0       5531   stm32f10x_usart.o
         0          0          0          0          0         32   sys.o
       248         24          0         20          0       1649   system_stm32f10x.o
        36          4          0          0          0        468   task_idletask.o
       164         52          0          0          0       1132   task_motor1_dir.o
       228         52          0          0         36       1995   task_motor1_pid.o
        92         16          0          0          0        570   task_motor1_pwm.o
       164         52          0          0          0       1132   task_motor2_dir.o
       224         52          0          0         36       1995   task_motor2_pid.o
        88         12          0          0          0        570   task_motor2_pwm.o
      1488        414          0          0          0       3186   task_wifi.o
        96         10          0          0          0       1230   task_wifi_send.o
      2758        670          0         60        740      26803   tasks.o
       574         44          0          8          0       4175   timer_encoder.o
       350         50          0         28          0       4511   timer_read_encoder.o
      1144        260          0         20         40       8314   timers.o
       286         26          0          6        200       3948   usart.o
       962         96          0          0        512       5239   wifi.o

    ----------------------------------------------------------------------
     19042       4074        850        336      23928     446198   Object Totals
         0          0         32          0          0          0   (incl. Generated)
        40          0          2          2          0          0   (incl. Padding)

    ----------------------------------------------------------------------

      Code (inc. data)   RO Data    RW Data    ZI Data      Debug   Library Member Name

        90          0          0          0          0          0   __dczerorl2.o
         8          0          0          0          0         68   __main.o
       104          0          0          0          0         84   __printf.o
         0          0          0          0          0          0   __rtentry.o
        12          0          0          0          0          0   __rtentry2.o
         6          0          0          0          0          0   __rtentry4.o
        52          8          0          0          0          0   __scatter.o
        28          0          0          0          0          0   __scatter_zi.o
        44          0          0          0          0        108   _printf_char.o
        48          6          0          0          0         96   _printf_char_common.o
        36          4          0          0          0         80   _printf_char_file.o
         6          0          0          0          0          0   _printf_d.o
       120         16          0          0          0         92   _printf_dec.o
         6          0          0          0          0          0   _printf_f.o
      1050          0          0          0          0        216   _printf_fp_dec.o
       128         16          0          0          0         84   _printf_fp_infnan.o
       178          0          0          0          0         88   _printf_intcommon.o
         0          0          0          0          0          0   _printf_percent.o
         4          0          0          0          0          0   _printf_percent_end.o
         6          0          0          0          0          0   _printf_s.o
        82          0          0          0          0         80   _printf_str.o
        16          0          0          0          0         68   aeabi_memset.o
       220          4        148          0          0         96   bigflt0.o
      1910        128          0          0          0        672   btod.o
        12          0          0          0          0         72   exit.o
         8          0          0          0          0         68   ferror.o
         6          0          0          0          0        152   heapauxi.o
        44         10         28          0          0         76   lc_numeric_c.o
         2          0          0          0          0          0   libinit.o
        18          0          0          0          0          0   libinit2.o
         2          0          0          0          0          0   libshutdown.o
         2          0          0          0          0          0   libshutdown2.o
         8          4          0          0         96         68   libspace.o
       138          0          0          0          0         80   lludiv10.o
        24          4          0          0          0         84   noretval__2printf.o
         8          4          0          0          0         68   rt_locale_intlibspace.o
        68          0          0          0          0         68   rt_memclr.o
        78          0          0          0          0         80   rt_memclr_w.o
       138          0          0          0          0         68   rt_memcpy_v6.o
       100          0          0          0          0         80   rt_memcpy_w.o
         2          0          0          0          0          0   rtexit.o
        10          0          0          0          0          0   rtexit2.o
       128          0          0          0          0         68   strcmpv7m.o
        74          0          0          0          0         80   sys_stackheap_outer.o
         2          0          0          0          0         68   use_no_semi.o
         2          0          0          0          0         68   use_no_semi_2.o
        12          0          0          0          0         68   dretinf.o
        86          4          0          0          0         84   f2d.o
       430          8          0          0          0        168   faddsub_clz.o
       388         76          0          0          0         96   fdiv.o
        62          4          0          0          0         84   ffixu.o
        86          0          0          0          0        136   fflt_clz.o
       258          4          0          0          0         84   fmul.o
       140          4          0          0          0         84   fnaninf.o
        10          0          0          0          0         68   fretinf.o
         4          0          0          0          0         68   printf1.o
         0          0          0          0          0          0   usenofp.o
        40          0          0          0          0         68   fpclassify.o

    ----------------------------------------------------------------------
      6560        304        176          0         96       4088   Library Totals
        16          0          0          0          0          0   (incl. Padding)

    ----------------------------------------------------------------------

      Code (inc. data)   RO Data    RW Data    ZI Data      Debug   Library Name

      5028        204        176          0         96       3080   c_w.l
      1476        100          0          0          0        940   fz_ws.l
        40          0          0          0          0         68   m_ws.l

    ----------------------------------------------------------------------
      6560        304        176          0         96       4088   Library Totals

    ----------------------------------------------------------------------

==============================================================================


      Code (inc. data)   RO Data    RW Data    ZI Data      Debug   

     25602       4378       1026        336      24024     438738   Grand Totals
     25602       4378       1026         40      24024     438738   ELF Image Totals (compressed)
     25602       4378       1026         40          0          0   ROM Totals

==============================================================================

    Total RO  Size (Code + RO Data)                26628 (  26.00kB)
    Total RW  Size (RW Data + ZI Data)             24360 (  23.79kB)
    Total ROM Size (Code + RO Data + RW Data)      26668 (  26.04kB)

==============================================================================

