:020000040800F2
:10000000705D002089020008DD1B00082D1B000820
:10001000A51B00087B150008B52B00080000000098
:10002000000000000000000000000000F1010008D6
:100030007D1800080000000035020008D1210008EA
:10004000A3020008A3020008A3020008A3020008FC
:10005000A3020008A3020008A3020008A3020008EC
:10006000A3020008A3020008A3020008A3020008DC
:10007000A3020008A3020008A3020008A3020008CC
:10008000DD15000819160008A3020008A3020008E5
:10009000A3020008A3020008A3020008A3020008AC
:1000A000A3020008A3020008A3020008A30200089C
:1000B000A30200081D230008A3020008A3020008F1
:1000C000A3020008A3020008A3020008A30200087C
:1000D000A3020008FD28000861290008A302000807
:1000E000A3020008A3020008A3020008A30200085C
:1000F000A3020008A3020008A3020008A30200084C
:10010000A3020008A3020008E9230008A3020008D4
:10011000A3020008A302000839240008A302000873
:10012000A3020008A3020008A3020008A30200081B
:1001300000F002F800F04DF80AA090E8000C8244AC
:100140008344AAF10107DA4501D100F042F8AFF289
:10015000090EBAE80F0013F0010F18BFFB1A43F0A5
:1001600001031847005D0000205D0000103A24BF25
:1001700078C878C1FAD8520724BF30C830C144BF0C
:1001800004680C607047000000230024002500264E
:10019000103A28BF78C1FBD8520728BF30C148BFEA
:1001A0000B607047662905F01085642900F0F8801F
:1001B000732900F05B84002070471FB500F09EFC9F
:1001C00004000020002104F085FFE0601FBD10B591
:1001D00010BD00F093FD1146FFF7EFFF02F028FE7F
:1001E00000F0B1FD03B4FFF7F2FF03BC02F0BCFD69
:1001F000224B19680868B0E8F00F80F30988BFF354
:100200006F8F4FF0000080F311884EF00D0E704795
:100210000000000006480068006880F3088862B6A5
:1002200061B6BFF34F8FBFF36F8F00DF00BF00BF1A
:1002300008ED00E0EFF30980BFF36F8F0F4B1A68F2
:1002400020E9F00F106008B54FF0500080F31188DE
:10025000BFF34F8FBFF36F8F04F04CF84FF00000E7
:1002600080F31188BDE8084019680868B0E8F00F0D
:1002700080F30988BFF36F8F704700BF84000020B0
:10028000EFF30580704700000948804709480047A0
:10029000FEE7FEE7FEE7FEE7FEE7FEE7FEE7FEE736
:1002A000FEE7FEE704480549054A064B7047000093
:1002B000E52100083101000870570020705D002022
:1002C0007059002070590020704700000FB4044995
:1002D00010B503AA029800F0CDFB10BC5DF814FB2A
:1002E0006C0000202DE9F0410E46044600202062FB
:1002F0002046E168884730B3252805D0D4E901219C
:100300009047206A401CF2E7E168204600278847B2
:10031000050018D0A5F14100192802D820354FF466
:1003200000673246294620462760FFF73BFF40B171
:10033000012804D0F61D26F007060836D8E7361D3A
:10034000D6E72846DAE7206ABDE8F08170B50C46AA
:100350000546012A05D02878800600D5EA690023E1
:1003600002E0012305E05B1C934202D2E05C00281E
:10037000F9D1A869E618C01AA861286A1844286249
:100380002846AFF3008004E0D5E9012114F8010B01
:100390009047B442F8D32846AFF3008070BD000008
:1003A0002DE9F0410646002410687529314616A54E
:1003B00010D0AFF30080002802DA404213A507E016
:1003C00031688A0701D512A502E0490704D511A5B5
:1003D000012401E0AFF3008000210A2206F1240786
:1003E00009E0B0FBF2FCB0FBF2F302FB1C00303082
:1003F00078541846491C0028F3D123462A46304633
:10040000BDE8F04100F0A2B8000000002D0000009F
:100410002B00000020000000032A40F2308010F082
:10042000030C00F0158011F8013BBCF1020F62448F
:1004300098BF11F801CB00F8013B38BF11F8013B20
:10044000A2F1040298BF00F801CB38BF00F8013BCD
:1004500011F0030300F02083083AC0F0088051F83F
:10046000043B083A51F804CBA0E80810F5E7121D48
:100470005CBF51F8043B40F8043BAFF30080D20767
:1004800024BF11F8013B11F801CB48BF11F8012B33
:1004900024BF00F8013B00F801CB48BF00F8012B56
:1004A000704702F0FF0343EA032242EA024200F0EF
:1004B00002B84FF000020429C0F0128010F0030CC3
:1004C00000F01B80CCF1040CBCF1020F18BF00F847
:1004D000012BA8BF20F8022BA1EB0C0100F00DB8F6
:1004E0005FEAC17C24BF00F8012B00F8012B48BF54
:1004F00000F8012B70474FF0000200B513469446F8
:100500009646203922BFA0E80C50A0E80C50B1F16B
:100510002001BFF4F7AF090728BFA0E80C5048BF7F
:100520000CC05DF804EB890028BF40F8042B08BF1D
:10053000704748BF20F8022B11F0804F18BF00F819
:10054000012B704770477047704770472DE9F0479F
:100550000D4699469246044600F124080168880633
:1005600004D5E06921F01001216000E00120A842DB
:1005700001DD471B00E00027A1697A1902EB0900A1
:10058000081AA0612078C00602D42046AFF300808C
:10059000002608E0D4E901211AF806009047206AF5
:1005A000401C761C20624E45F4DB2078C0060AD53C
:1005B0002046AFF3008006E0D4E9012130209047C7
:1005C000206A401C2062381EA7F10107F4DC07E016
:1005D000D4E9012118F805009047206A401C2062E8
:1005E000281EA5F10105F3DC2046AFF3008020783A
:1005F000000602D50220BDE8F0870120FBE7704726
:100600002DE9FF4F0C461E464FF0FF378BB0D2E965
:100610000001DDF860800A908A46C1F30A5505B9E9
:100620003D46002108464FF00000BAF1000F00F4EB
:10063000400005DA00EB80004FF4400101EA500071
:100640004FEA9059B9F1010F00DDB9460A9850EA16
:100650004A000ED044F61050A5F2FF3545432F1442
:10066000B8F1000F1ED07542291E1EDDC9F100022F
:100670001CE0B8F1010F4FF0000001D0302103E081
:10068000F24305E02154401CB042FBDB304600221F
:10069000002121540B99C1F80880C1E900200FB056
:1006A000BDE8F08FBD1B6D1CDEE74A4600DA6942EB
:1006B00006A800F0ADFA06AB93E8070003AB83E8A9
:1006C000070050460A9900F085FB8DE80700A0F569
:1006D00000501F3800900398002D09DD42F21F01E1
:1006E0004A46084403A90390684600F0E4FD08E088
:1006F000A0F500504A461F3803A90390684600F051
:10070000EEFD8DE807000004000C03D04FF0FF3031
:10071000410800E01046B8F1000F03D0002200921B
:1007200015461EE0751E05D400F0ECF93032625516
:100730006D1EF9D5B3460122084302D000227F1C6A
:1007400004E02078302801D100227F1E002A09977A
:1007500086D01DE0112D07DA00F0D4F93032625551
:100760006D1C50EA0102F5D1084302D00098C8B1CF
:100770000EE00021681E05E0235C625C6354225495
:10078000401E491C8142F7DBAB46A81B401E099066
:10079000002004F80B000B98099AC0F80880C0E903
:1007A000002B7CE711264FF0000859E72DE9F04FA8
:1007B00088460446D21D22F0070191B0D1E900011C
:1007C000CDE90A0102F0BCFA02460B98C00F01D035
:1007D0002D2007E02068810701D52B2002E0202191
:1007E00001EAC000032A099001D0072A05DB03466D
:1007F0004146204600F0CCF90BE12078800601D577
:10080000E06900E00620B8F1650F814606D0B8F136
:10081000660F18D0B8F1670F70D131E00020B9F140
:10082000110F009001DB112301E009F101030AAA75
:1008300001A90CA8FFF7E4FEDDE90C70002609F120
:100840000105834647E001204B4600904FF00047EA
:100850000AAA01A90CA8FFF7D3FEDDE90DB00C9997
:100860005D46002610B909F101000D18B9EB05002D
:1008700003D4C0F1FF3609F10105A5EB09002BE017
:10088000B9F1010F01DA4FF001090020B9F1110FA0
:100890000090484601DD112300E003460AAA01A9A1
:1008A0000CA8FFF7ADFEDDE90C704D46002683462F
:1008B000207800070AD4AB4500DA5D4601A8012D77
:1008C00004DD411911F8011C302907D04F4502DA27
:1008D00017F1040F04DA012082460FE06D1EEEE7E7
:1008E000002F02DCED1B3E4403E0781CA84200DD33
:1008F0007D1CB81B00F1010A4FF00047207800076B
:1009000003D4AA4501DB4FF0FF3A0021B7F1004FB5
:100910000DF143088DF8431024D002202B23002F23
:1009200001DA7F422D230A21021EA0F1010000DC22
:100930005FB197FBF1FC97FBF1F201FB1C7C1746C2
:100940000CF1300C08F801CDEEE7A8F101000370BE
:100950002188090501D5452100E06521A0F10108A4
:1009600000F8011C09980FA9A1EB0807FF1D00B1B1
:100970000120411901EBEA70A1693844081A401EB0
:10098000A0612078C00602D42046AFF30080099809
:1009900028B1D4E901219047206A401C20622078C8
:1009A000C00622D52046AFF300801EE0002E04DBF7
:1009B000B34502DD01A8805D00E03020D4E90121CB
:1009C0009047206A401C2062761CAAF101005FEA71
:1009D000000A0AD100F092F8C0680168405CD4E9CE
:1009E00001219047206A401C2062281EA5F10105C4
:1009F000DCDC07E0D4E9012118F8010B9047206AFC
:100A0000401C2062381EA7F10107F3DC2046AFF33B
:100A10000080032011B043E601694A1C0261087896
:100A2000704700B58FB0CDE901310021059105492E
:100A30007944CDE9031011466846FFF753FC0FB027
:100A400000BD0000E5FFFFFF10B5436913B1AFF330
:100A5000008001E0FFF77AFC012010BD127800F160
:100A600024010A7000224A700122EDE711684FF05C
:100A7000FF32E9E7074B70B50D467B44FFF7D1FF26
:100A80000446284600F032F910B14FF0FF3070BD37
:100A9000204670BD4723000010B5203AC0F00B80FF
:100AA000B1E81850203AA0E81850B1E81850A0E872
:100AB0001850BFF4F5AF5FEA027C24BFB1E81850CC
:100AC000A0E8185044BF18C918C0BDE810405FEA3C
:100AD000827C24BF51F8043B40F8043B08BF7047B8
:100AE000D20728BF31F8023B48BF11F8012B28BFBD
:100AF00020F8023B48BF00F8012B704700487047C0
:100B00002C57002030B5B0F10A024FEA900E71F177
:100B100000034EEA817EB0EB0E0061EB91014FEADB
:100B2000101E4EEA017E10EB0E0041EB11114FEA50
:100B3000102E4EEA016E10EB0E0041EB11214FEA30
:100B4000104E4EEA014E10EB0E0041EB11414018E1
:100B500041F100014FEAD00040EA41704FEAD10173
:100B600010EB80054FEA810444EA907444EB0104E1
:100B70006D1944EB0404521BA3414FF0000348BF1E
:100B80000A3200D530BD401C41F1000130BD0000EB
:100B90002DE9F0411F46044603260168072A01F4A7
:100BA000006004DB08B116A505E016A503E008B156
:100BB00015A500E015A521F010002060A069C01E59
:100BC000A0610FB1401EA0612046AFF300804FB17D
:100BD000D4E9012138469047206A401C2062C01C9D
:100BE000206206E0206AFAE7D4E9012115F8010B3A
:100BF0009047761EF8D22046AFF30080BDE8F08122
:100C00004E414E006E616E00494E4600696E6600B0
:100C10002DE9F047814616468AB0334878440DC81E
:100C20008DE80D0030487844801C03AC0DC884E882
:100C30000D0041F69B300844372190FBF1F290FB08
:100C4000F1F5A5F1800501FB12041B3C02D56442BD
:100C5000012000E00020DFF890A080460027FA4441
:100C6000AAF1BE0A0DE0E00709D03246684607EB5C
:100C700047010AEB810100F032FB8DE807006410A8
:100C80007F1C002CEFD1184F7F44AC3F18E0E807E1
:100C900014D007EB04100DF1180A90E80E008AE852
:100CA0000E00C068F04201D198190890324606A99A
:100CB00003A800F014FB03AB83E807006D10641C6D
:100CC000002DE4D132466946B8F1000F03A802D0E6
:100CD00000F0F1FA01E000F002FBC9E90001C9F8F7
:100CE00008200AB0BDE8F0872C520000007B00F01D
:100CF00080007047004870470C5700207546FFF78A
:100D0000F9FFAE4605006946534620F007008546C8
:100D100018B020B5FFF7C6FABDE820404FF0000636
:100D20004FF000074FF000084FF0000B21F00701D3
:100D3000AC46ACE8C009ACE8C009ACE8C009ACE816
:100D4000C0098D4670470446AFF300802046FFF788
:100D500049FA00004FF0013C50F8042B51F8043BD5
:100D60009A4221D1A2EB0C03934313EACC1317D17F
:100D700050F8042B51F8043B9A4215D1A2EB0C0316
:100D8000934313EACC130BD150F8042B51F8043BD6
:100D90009A4209D1A2EB0C03934313EACC13DBD0A4
:100DA0004FF00000704700BFD01A01BAB1FA81F1CC
:100DB00001F0180122FA01F0CB40C1F12001DBB2B1
:100DC000C0B2C01A2CFA01F3D11A914311EAC3112F
:100DD000E6D170475FEA400C08BF91F0000F4FEA80
:100DE0008C234FEAC12243EA51514FEA1C5018BFED
:100DF00000F5F0404FEA300018BF41F000415FEAD3
:100E00006C5C00F02980BCF1FF3F08BF40F08040DF
:100E10007047130C06BF12044FF0100C4FF0000C7B
:100E2000130E04BF12020CF1080C130F04BF1201C1
:100E30000CF1040C930F04BF92000CF1020CD30FC1
:100E400004BF52000CF1010C11464FF00002A0F15A
:100E50001F00A0EB0C00704711F0004F08BF704757
:100E600031F000413FF4D5AF0B0C06BF09044FF041
:100E7000100C4FF0000C0B0E04BF09020CF1080C13
:100E80000B0F04BF09010CF1040C8B0F04BF890088
:100E90000CF1020CCB0F04BF49000CF1010CCCF19A
:100EA0002003A0EB0C0022FA03F302FA0CF241EA51
:100EB000030100F10100704720F07F4C80EA03003D
:100EC00023F07F47ACEB070303F57C5300F00040B1
:100ED00003F1FF032DE980494FEA154B09B44FEAAE
:100EE000144325EA0B4E24EA03480FF2042606EBCE
:100EF000132749083E785FEA320203FB0667C7F50D
:100F0000000707FB06F64FEA54374FEAD64606F1CC
:100F1000020607FB066CCCF1005C4FEA1C472CEA8A
:100F2000074C07FB06F40CFB06F504EB15464FEAED
:100F3000961634BF00204FF000404FEAD13706FB31
:100F400007FC4FEA1C4C0CFB0BF7D21B03FB0CF706
:100F500061EB07010CFB0EF7B0EB074072EB174299
:100F60000CFB08F734BFA2EB0742B2EB074261EB80
:100F700017414FEA0C444FEA910706FB07FC4FEA82
:100F80001C4C0CFB0BF7B0EBC74072EB573203FB6A
:100F90000CF734BFA2EBC742B2EBC74261EB57314B
:100FA0000CFB0EF7B0EBC70072EB57720CFB08F7A7
:100FB00034BFA2EBC702B2EBC70261EB5771039FCC
:100FC0004FEA816141EA921104EBCC044FEAD13738
:100FD0004FEA826206FB07FC42EA90124FEA806009
:100FE0004FEA1C4C0CFB0BF7D21B03FB0CF761EB1D
:100FF00007010CFB0EF7B0EB074072EB17420CFB3E
:1010000008F734BFA2EB0742B2EB074261EB17418E
:101010004FEA8C554FEA910704EB9C2406FB07FC32
:101020004FEA1C4C0CFB0BF7B0EBC74072EB57328E
:1010300003FB0CF734BFA2EBC742B2EBC74261EB34
:1010400057310CFB0EF7B0EBC70072EB57720CFB7D
:1010500008F734BFA2EBC702B2EBC70261EB5771CE
:1010600015EB4C254FEA816141EA92114FEA826209
:101070004FEAD13742EA901206FB07FC44F1000424
:101080004FEA80604FEA1C4C0CFB0BF7D21B03FBB2
:101090000CF761EB07010CFB0EF7B0EB074072EBAE
:1010A00017420CFB08F734BFA2EB0742B2EB074232
:1010B00061EB174115EB1C154FEA813141EA924172
:1010C0004FEA823242EA90424FEA80304FEA0C7691
:1010D00044F1000448EA03434EEA0B484FF0000E87
:1010E000B2EB080C71EB030724BF624639464EEBA6
:1010F0000E0E4FF0000B0018524149414BEB0B0B09
:10110000B2EB080C71EB03077BF1000B24BF6246C6
:1011100039464EEB0E0E4FF0000B0018524149417C
:101120004BEB0B0BB2EB080C71EB03077BF1000BE5
:1011300024BF624639464EEB0E0E51EA020718BF35
:1011400046F0010616EB0E7655F1000254F100014F
:1011500003D5BDE88901BDE80088BDE88901BDE887
:101160000048B619524141EB0101A3F10103704758
:1011700080807F7E7D7C7B7A7978777676757473D4
:10118000727171706F6E6E6D6C6C6B6A6A69686893
:10119000676666656464636362616160605F5F5E29
:1011A0005E5D5D5C5C5B5B5A5A595958585757569F
:1011B0005655555554545353525252515150505004
:1011C0004F4F4F4E4E4D4D4D4C4C4C4B4B4B4A4A56
:1011D0004A4949494848484747474746464645459A
:1011E00045444444444343434342424242414141D3
:1011F000002B26D4770021D01CB54FEA370703B463
:101200004FF010004FF010014FF000000FBCBDE890
:1012100010400BF1010BBBF1010F08BF5FEA17078C
:1012200022BF12F1010211F101014FF0004143F11F
:10123000000300F0004043EA00007047F9D357086C
:10124000DAE746EA064613F1400F4FEA16461FDD7D
:1012500013F1200FDFBF16430A46002120335B4203
:10126000C8D0C3F1200746EA064602FA07F74FEA5C
:10127000164646EA0706C3F1200722FA03F201FAEE
:1012800007F721FA03F14FF0000342EA0702B1E742
:1012900046EA020646EA06464FEA164646EA0106CE
:1012A000BCBF46EA0646360C4FF000034FF0000282
:1012B0004FF000019EE72DE9C048934630B491E815
:1012C000380007C831EA400C48BF34EA430C03D564
:1012D000FFF7F2FDFFF78CFFF0BCBDE800882DE9B9
:1012E000C048934630B491E8380007C810F0804FEA
:1012F00008BF13F0804F03D100F005F8FFF778FF27
:10130000F0BCBDE8008820F07F4780EA030023F0AE
:101310007F4C07EB0C03A3F57C5300F00040A3F1D6
:10132000FE0392F0000F00F0B38095F0000F00F084
:1013300077802DE901494FEA11404FEA144621EA2E
:10134000004800FB06FC24EA064708FB06F607FBFC
:1013500008F800FB07F718EB06484CEB164C4FEA71
:10136000124B18EB07484FEA15464CEB174022EAA0
:101370000B4E0BFB06FC25EA06470EFB06F607FBA9
:101380000EFE0BFB07F71EEB064E4CEB164C4FF018
:1013900000061EEB074E4CEB174B18EB0B0840F109
:1013A000000018EB0E0B58EB000840F100008F1AFC
:1013B0004FF000013CBFC943661B14BFB5EB040CE2
:1013C00000213CBFC943F61B4FEA17444EEA8E0E7C
:1013D00027EA04454FEA1C4704FB07622CEA074C46
:1013E00005FB07F70CFB05F604FB0CFC16EB0746A8
:1013F00042EB174216EB0C4642EB1C421BEB060677
:1014000058EB0202414146EA9E0601D5BDE801893A
:10141000B619524141EB0101A3F10103BDE8018975
:101420004FEA14454FEA114724EA054621EA074CE2
:1014300005FB07F406FB07F70CFB06F105FB0CFCAC
:1014400011EB074144EB17444FEA124711EB0C41F3
:1014500044EB1C4422EA074C05FB07F206FB07F7A6
:101460000CFB06F605FB0CFC16EB074642EB17429D
:1014700016EB0C4642EB1C456A1854F1000148BFBC
:101480007047B619524141EB0101A3F101037047C6
:1014900095F0000F37D04FEA11424FEA144721EA86
:1014A000024624EA074C02FB07F106FB07F70CFB98
:1014B00006F402FB0CFC14EB074441EB17414FEA26
:1014C000154714EB0C4441EB1C4125EA074C02FB89
:1014D00007F506FB07F70CFB06F602FB0CFC16EB08
:1014E000074645EB174516EB0C4645EB1C42121917
:1014F00051F1000148BF7047B619524141EB01015B
:10150000A3F1010370474FEA14454FEA114724EA5B
:10151000054621EA074C05FB07F106FB07F70CFB24
:1015200006F24FF0000605FB0CFC12EB074241EB04
:10153000174112EB0C4251EB1C4148BF7047921807
:1015400041EB0101A3F10103704710B54FF4E13401
:10155000204602F07DFA00F0FDFA00F025FB0021A4
:1015600040F2833000F0F4FE00F05EFA204602F014
:10157000FFFEBDE8104002F065BAFEE770B5084D09
:10158000FF22134605F5807605E010F8014B544024
:101590002A5D5A40335D491EF7D243EA022070BDEE
:1015A000CE5B0008F0B5084EFF231C4606F5807799
:1015B00005E010F8015B5D40735D63407C5D491E92
:1015C000F7D213705470F0BDCE5B00084FF6FF7277
:1015D00002EA0020084480B27047000010B50C4CAD
:1015E0004FF4001000F036F84FF4000000F032F82D
:1015F0000021204600F03AF8A11561600548FEF789
:1016000058FF2046BDE81040012100F02FB800002F
:101610006C000240F801002010B54FF0007000F09F
:1016200019F84FF0006000F015F8BDE810400021F7
:10163000014800F01BB8000080000240C10002D544
:10164000024908607047024948607047040402403C
:1016500000000240C10002D50249086070470249FB
:1016600048607047040402400000024000290168FD
:1016700002D041F0010102E04FF6FE72114001601C
:101680007047000001684FF6FE72114001600021B2
:10169000016041608160C1603149314A083990423E
:1016A00003D1486840F00F0006E02D4A1432904202
:1016B00004D1486840F0F00048607047284A28325A
:1016C000904203D1486840F47060F5E7244A3C3208
:1016D000904203D1486840F47040EDE7204A503210
:1016E000904203D1486840F47020E5E71C4A643218
:1016F000904203D1486840F47000DDE7184A783220
:10170000904203D1486840F07060D5E7154A111F38
:10171000904203D1086840F00F0006E0114A1432ED
:10172000904204D1086840F0F000086070470D4A0C
:101730002832904203D1086840F47060F5E7094A06
:101740003C32904203D1086840F47040EDE7054A0E
:1017500050329042EAD1086840F47020E5E700007A
:101760000800024008040240406880B27047002A26
:10177000026801D00A4300E08A430260704730B536
:10178000026847F6F0739A430C6A8B682343D1E9E9
:1017900004452C4323438C692343CC6923434C6A7F
:1017A00023438C6A234313430360CA6842600A6878
:1017B00082604968C16030BD2DE9F04101218CB0E3
:1017C000084600F009FCDFF8A4804046FFF75AFF06
:1017D0002848274ECDE90060002410200701079417
:1017E000CDE902078025CDE904450002CDE9084096
:1017F0000694694640460A94FFF7C1FF0122022180
:101800004046FFF7B4FF012208214046FFF7AFFF33
:1018100001214046FFF72AFF00214046FFF726FF3F
:10182000DFF84880A8F114084046FFF72BFF124864
:1018300001A9009681E89100CDE90445A801CDE910
:10184000084006940794694640460A94FFF797FFBC
:10185000012202214046FFF78AFF0122082140466B
:10186000FFF785FF0CB0BDE8F0810000800002406A
:1018700004440040F8000020F801002070472DE9E2
:10188000F0470546407800270C460F2802D00F701D
:10189000BDE8F087012626700E212846FFF76EFE70
:1018A0008146297CE87BFFF791FE814526D1667051
:1018B00028780328ECD2DFE800F002031700E7E7FE
:1018C000A6704146284600F01BF8E070E878012831
:1018D00002D0022805D102E04FF0010801E04FF0EC
:1018E000020884F80480D3E70220A070414628460D
:1018F00000F006F8E070E8782071C9E76770C7E784
:10190000827852B1012A04D0022A04D0032A07D1D6
:1019100005E0012104E0022102E0002100E00321B2
:1019200008467047F0B50F46054689B016460121B6
:10193000082000F05DFB0121042000F065FB03207E
:10194000ADF8100004218DF813108DF8120004A9D1
:10195000214800F06FF8684600F0C6FF0024ADF89B
:1019600004501E4DADF80040ADF80640ADF8024001
:101970006946284600F06AFF33463A460321284666
:1019800000F028FE05A9284600F04CFE002128465C
:1019900000F032FF0121284600F00CFE32208DF8C5
:1019A0000C000E208DF80D008DF80E4001208DF8F2
:1019B0000F0003A800F014F90121284600F000FEF2
:1019C0000021284600F018FF01221146284600F0A9
:1019D000BFFE09B0F0BD000000080140000C00404F
:1019E0000F488CB0006802F015FC08A800250D4CCB
:1019F0006E1E4FF4FA7702900123324602A9206846
:101A000002F04EFD02984068CDE900056B460122C8
:101A1000002103A800F04EFB384602F051FAEBE734
:101A2000340000201800002000220A214FF6FF7029
:101A3000FFF778BFF0B5CC78002204F00F03E4067E
:101A400001D58C7823430C784FF00F0C14F0FF0F66
:101A50004FF0010E1BD005680E880EFA02F42640E6
:101A6000A64210D196000CFA06F725EA070703FAFA
:101A700006F5CE783D43282E02D0482E02D002E053
:101A8000446100E00461521C082AE5D305600A881D
:101A9000FF2A1CD94468002202F108060EFA06F556
:101AA0000E882E40AE420ED196000CFA06F7BC43CB
:101AB00003FA06F7CE783C43282E00D14561CE7854
:101AC000482E00D10561521C082AE5D34460F0BDC0
:101AD000F0B5144C002801DAE36900E06368450DB5
:101AE0002E0185B2C0F30157B540C0F30342032F66
:101AF00005D0C6020AD503269640B34307E023F07B
:101B00007062636823F07063636002E0AB4343F08C
:101B1000706201B12A43002801DAE261F0BD62601F
:101B2000F0BD00000000014001617047FEE70000C9
:101B30000026074C4FF4FA750127C4F89461284633
:101B400002F0BEF9C4F89471284602F0B9F9F4E73E
:101B50000000234238B50121482000F055FA202426
:101B6000ADF8004010208DF8030003200B4D8DF8D8
:101B7000020069462846FFF75DFF20212846FFF74F
:101B8000D3FFADF80040064C69462046FFF752FFF0
:101B900020212046FFF7C8FF38BD0000000C01409F
:101BA00000180140FEE7000038B50121102000F0C8
:101BB0002BFA0320ADF8000010218DF80310064C1D
:101BC0008DF8020069462046FFF734FF03212046C6
:101BD000FFF7AAFF38BD0000001001407047000069
:101BE00030B50F23C27801780125F2B1144A12688A
:101BF00001F1E02102F4E062C2F5E062120AC2F1F2
:101C00000404D3404278A24084781C40144322014B
:101C100081F80024007800F01F018D404009800009
:101C200000F1E020C0F8005130BD01F01F008540F8
:101C30004809800000F1E020C0F8805130BD00006C
:101C40000CED00E0024908430249086070470000BB
:101C50000000FA050CED00E0F8B526208DF8000034
:101C600001248DF803400D208DF8010000258DF82A
:101C700002506846FFF7B4FF11208DF800000E26D1
:101C80008DF801608DF802508DF803406846FFF72B
:101C9000A7FF10208DF800008DF801608DF802502C
:101CA0008DF803406846FFF79BFF0122402104485E
:101CB00000F0E6FE01210348FFF7D8FCF8BD000064
:101CC000004400406C00024010B500F01DF80322F3
:101CD0000021012002F0A8FB08490322086000212E
:101CE000012002F0A1FB0649032208600021012027
:101CF00002F09AFB0349086010BD00001C000020A0
:101D0000200000202400002010B5012100220846F8
:101D100002F08AFB2D49002808604AD02CA0FEF76B
:101D2000D5FA00220421012002F07EFB3049002870
:101D3000086040D02FA0FEF7C9FA0022042101203C
:101D400002F072FB34490028086036D033A0FEF759
:101D5000BDFA00220421012002F066FB3849002868
:101D600008602CD037A0FEF7B1FA00220421012030
:101D700002F05AFB3C490028086022D03BA0FEF745
:101D8000A5FA00220421052002F04EFB424900285A
:101D9000086018D041A0FEF799FA00220421012022
:101DA00002F042FB48490860BDE8104047A0FEF73A
:101DB0008DBA50A0B3E757A0BDE75FA0C7E767A003
:101DC000D1E76FA0DBE779A0E5E700000000002085
:101DD0005B5741524E5DB0B4BCFCCFFBCFA2B6D333
:101DE000C1D0B4B4BDA8B3C9B9A60D0A00000000A3
:101DF000040000205B5741524E5DB5E7BBFA31B796
:101E0000BDCFF2CFFBCFA2B6D3C1D0B4B4BDA8B37F
:101E1000C9B9A60D0A000000080000205B57415216
:101E20004E5DB5E7BBFA3150574DCFFBCFA2B6D3CD
:101E3000C1D0B4B4BDA8B3C9B9A60D0A0000000052
:101E40000C0000205B5741524E5D57494649BDD3B7
:101E5000CAD5CFFBCFA2B6D3C1D0B4B4BDA8B3C945
:101E6000B9A60D0A00000000100000205B57415287
:101E70004E5D456E636F646572315FD2E7B3F6BC49
:101E8000C6CAFDCFFBCFA2B6D3C1D0B4B4BDA8B3F0
:101E9000C9B9A60D0A000000140000205B5741528A
:101EA0004E5D456E636F64657231BCC6CAFDBBBAD8
:101EB000B4E6CFFBCFA2B6D3C1D0B4B4BDA8B3C9EA
:101EC000B9A60D0A00000000180000205B5741521F
:101ED0004E5D456E636F646572315F5374617475F6
:101EE00073CFFBCFA2B6D3C1D0B4B4BDA8B3C9B928
:101EF000A60D0A005B5741524E5DB0B4BCFCCFFB4F
:101F0000CFA2B6D3C1D0B4B4BDA8CAA7B0DC0D0A65
:101F1000000000005B5741524E5DB5E7BBFA31B798
:101F2000BDCFF2CFFBCFA2B6D3C1D0B4B4BDA8CA47
:101F3000A7B0DC0D0A0000005B5741524E5DB5E7CB
:101F4000BBFA3150574DCFFBCFA2B6D3C1D0B4B4FA
:101F5000BDA8CAA7B0DC0D0A000000005B574152C3
:101F60004E5D57494649BDD3CAD5CFFBCFA2B6D3A4
:101F7000C1D0B4B4BDA8CAA7B0DC0D0A00000000EF
:101F80005B5741524E5D456E636F646572315FD23F
:101F9000E7B3F6BCC6CAFDCFFBCFA2B6D3C1D0B45F
:101FA000B4BDA8CAA7B0DC0D0A0000005B574152BF
:101FB0004E5D456E636F64657231BCC6CAFDBBBAC7
:101FC000B4E6CFFBCFA2B6D3C1D0B4B4BDA8CAA7E4
:101FD000B0DC0D0A00000000044A0029516901D05C
:101FE000014300E08143516170470000001002404E
:101FF000044A0029D16901D0014300E08143D16145
:102000007047000000100240044A0029916901D085
:10201000014300E0814391617047000000100240DD
:1020200030B5204A5168204B11F00C0103D004292F
:1020300001D0082901D0036012E05168536801F40F
:1020400070114FF0020413F4803F04EB914102D071
:1020500053689B0301D5154B00E0134B59430160B6
:1020600051680F2303EA1111114B5C5C0168E140D8
:1020700041605468072505EA14241C5D21FA04F424
:102080008460546805EAD4241B5DD940C16052685D
:10209000032303EA9232064B1B1F9A5CB1FBF2F159
:1020A000016130BD0010024000127A0000093D00BD
:1020B000740000207CB50446002927D10025257036
:1020C000012A23D10F2060700120A0706946186892
:1020D00000F070FE9DF80000E0709DF80100207196
:1020E0009DF8020060719DF80300A071072025543F
:1020F000401C0E28FBDD01AA0E212046FFF752FAF4
:102100009DF80400E0739DF8050020747CBD00007C
:102110000CB50022264800920192016841F48031FA
:1021200001604FF4A063016801F40031019100994E
:10213000491C0091019911B900999942F3D10168A4
:10214000890333D5012101911A490A6842F010022E
:102150000A600A6822F003020A600A6842F002027A
:102160000A604168416041684160416841F48061B2
:102170004160416821F47C114160416841F4E811FB
:102180004160016841F08071016001688901FCD5FE
:10219000416821F003014160416841F00201416062
:1021A0004168C1F381010229FAD10CBD01920CBD35
:1021B00000100240002002404FF0E021042808698E
:1021C00003D020F004000861704740F00400FAE7F3
:1021D00010B502F023FD012803D0BDE8104002F045
:1021E0000DB910BD0F4810B5016841F00101016043
:1021F00041680D4A1140416001680C4A114001607C
:10220000016821F480210160416821F4FE014160F0
:102210004FF41F018160FFF77BFF05494FF000601D
:10222000086010BD001002400000FFF8FFFFF6FE3E
:1022300008ED00E070B5048C24F001040484058BE3
:10224000048C4FF6FF7606EA0313134325F0F305DB
:102250000E4A2B4390420ED00D4A90420BD0B0F163
:10226000804F08D00B4A904205D00B4A904202D0D2
:102270000A4A904202D124F0020201E024F00A024C
:102280000A4342F001010383018470BD002C014028
:10229000003401400004004000080040000C0040F1
:1022A000F0B5048C24F010040484078B048C4FF6E2
:1022B000FF7527F4734705EA03333B4305EA02221F
:1022C0001A43114B05EA011698420ED00F4B984263
:1022D0000BD0B0F1804F08D00D4B984205D00D4B7C
:1022E000984202D00C4B984205D124F02001314392
:1022F00041F0100104E024F0A0030B4343F010016F
:1023000002830184F0BD0000002C01400034014034
:102310000004004000080040000C004010B50A4CCA
:102320000121204600F071F900280AD00121204641
:1023300000F043F90549D1F8940118B10020C1F823
:10234000940110BD0120FAE7000400400000234280
:1023500030B50D46044689B001210220FFF748FE42
:1023600001210920FFF750FE01211C48FFF7B0FBB7
:102370002022ADF81C2018228DF81F2003208DF894
:102380001E0007A91648FFF755FBADF804400020D2
:10239000ADF80050134CADF80600ADF802006946E8
:1023A000204600F053FA7021ADF80C100121ADF871
:1023B0000E100221ADF8141003A9204600F0D0F948
:1023C0000821204600F00CFA0121204600F0F8F820
:1023D0000021204600F00EFA09B030BD00081A00B6
:1023E000000C01400004004038B5104C012120468B
:1023F00000F00BF9002815D020880D4900090D4D7B
:10240000C00710D02088C00608D50868401E0860A4
:1024100002236A460649286802F01CFA0121204678
:1024200000F0CBF838BD0868401CF0E7000C004015
:1024300054000020100000202DE9F04786B002A8CB
:10244000DFF8E0A001900121504600F0DEF80028FE
:1024500062D0364E6A463449306802F015FB344883
:102460003149091D006802F0C9FA324D284600F0D2
:10247000CAF82D4C0146002360686A46C0EB004054
:102480000844A06004F10801306802F0E3F9206814
:1024900003F02EFA0646A06803F02AFA8146314678
:1024A00003F01EFB03F0B4F8234E244F32463B46A4
:1024B00002F0B0FF0022224B02F0ACFFDFF8848074
:1024C0000022434602F04EFE21F0004102F018FEC9
:1024D000019C6060484603F09BF832463B4602F0A0
:1024E00099FF0022434602F03DFE02F009FEA06083
:1024F00028880009C00712D02888C00601D500200E
:102500002070114802236A4601A9006802F0A2F96E
:102510000121504600F051F806B0BDE8F0870120D7
:10252000EEE70000001000405800002014000020DA
:1025300010000020000C0040793BC269C18BBE3FF7
:102540000000494000609840180000207FB50D460B
:10255000044601211020FFF74BFDADF80440ADF813
:1025600000500024124DADF80640ADF80240694617
:10257000284600F06BF90121284600F01BF83621AF
:102580008DF80C100F208DF80D008DF80E400120F5
:102590008DF80F0003A8FFF723FB01221146284600
:1025A00000F0D6F80121284600F00AF87FBD0000AF
:1025B00000100040C94301827047C943018270473F
:1025C0000029018802D041F0010101E021F0010160
:1025D0000180704770B50589048B068C25F00705CE
:1025E0000D434FF6FC410C4040F201110C434FF6F5
:1025F000FF7101EA031126F02206114331430581E0
:102600000483018470BD808C704702460020138AC9
:1026100092890B4202EA010202D0002A00D0012076
:10262000704700002DE9F84F0D4604460888434FD7
:10263000DFF80CC1DFF80C81DFF80C914988AA881B
:102640002B894FF0804A48B3042830D04FF6FF76EC
:102650000828934634D0208C9E4620F48050208455
:10266000A38B208C06EA0132009223F4734306EA1E
:102670000B221A4306EA0E331343BC420AD06445C8
:1026800008D0544506D0444504D04C4502D02F4ACA
:10269000944245D120F40050009943E02046FFF7D2
:1026A000C9FDE9882046BDE8F84F00F0A7B82046EC
:1026B000FFF7F6FDE9882046BDE8F84F00F0A6B820
:1026C000208C20F480702084B4F81CE0208C06EA72
:1026D000031306EA01222EF0F30E43EA0B0343EA4A
:1026E0000E030092BC420AD0644508D0544506D07F
:1026F000444504D04C4502D0144A944203D120F4FE
:102700000070009901E020F42060084340F48070DC
:10271000A3832084E9882046BDE8F84F00F082B802
:1027200020F40240084340F48050A3832084E988C9
:102730002046BDE8F84F00F07DB80000002C0140B5
:10274000003401400004004000080040000C00403C
:10275000002A828901D00A4300E08A4382817047BF
:1027600070B5028C22F010020284028C8388048BE4
:102770000D8824F4E6464FF6FF7404EA0525354338
:102780000E8922F0200204EA061616434A8804EA5B
:1027900002123243104EB04202D0104EB04215D158
:1027A00022F080064A8923F4406304EA021232438D
:1027B00022F040068A8804EA021232438E8904EA33
:1027C00086061E43CB8904EA830333438380058353
:1027D000C9880187028470BD002C0140003401408B
:1027E000028B4FF6FF7322F4006203EA01211143CA
:1027F000018370470187704781847047028B22F004
:102800000C020283028B0A4302837047028B22F47C
:1028100040620283028B4FF6FF7303EA01210A43F1
:1028200002837047828B22F00C028283828B0A43E0
:1028300082837047828B22F440628283828B4FF6C0
:10284000FF7303EA01210A438283704730B502888F
:102850001B4C1C4DA0420DD0A8420BD0B0F1804FB4
:1028600008D0194B984205D0184B984202D0184B0B
:10287000984203D122F070034A881A43154B9842BC
:1028800006D0154B984203D022F44073CA881A43ED
:1028900002808A8882850A880285A0420AD0A842DE
:1028A00008D00E4A904205D00D4A904202D00D4AFF
:1028B000904201D1097A01860121818230BD000058
:1028C000002C01400034014000040040000800409A
:1028D000000C004000100040001400400040014087
:1028E00000440140004801404FF6FF718180002103
:1028F0000180C180418001727047000070B5154CA5
:1029000040F22551204600F0C3F800280ED02046A2
:1029100000F04CF9104AC1B21088030406D44404F4
:102920004FF0000306D50A2901D0138070BD40F492
:1029300000400DE00D2909D0C0F30D04074D401CE7
:1029400080B229551080C728EFD870BD40F4804070
:10295000108070BD0038014068000020F80200209F
:102960002DE9F043C3B00020374ECDF804D1014625
:102970000090364C3046FEF779FE40F22449494635
:10298000204600F085F8A71590B34FF47000FEF7CD
:1029900055FE3046FEF7E8FEC0F5807005B2681EB1
:1029A000FF2836D800213046FEF760FE7760419858
:1029B0003946001DFDF79FFD41983A46244920C045
:1029C000FDF72AFD2348022342AA41A9006801F02D
:1029D00041FF214842A9006801F0ACFF4298C0B114
:1029E0001E49A0040860BFF34F8FBFF36F8F10E044
:1029F000FFE74FF45A7841462546204600F048F854
:102A000038B141462C46284600F02AF82088A08894
:102A100001E02088A08800213046FEF727FE3946D5
:102A200077600B48FDF745FD01213046FEF71EFE9D
:102A300040F22661204600F013F84946204600F097
:102A40000FF843B0BDE8F0836C0002400044004042
:102A5000F80100200C0000202400002004ED00E01C
:102A60000A0A01219140C9430180704700298189E8
:102A700002D041F4005101E021F4005181817047FE
:102A8000002A828A01D00A4300E08A43828270478A
:102A900070B501F01F0501260024C1F3421306FAA8
:102AA00005F2012B0FD0022B0FD0838A4FEA1121A0
:102AB0000088134206FA01F600EA060001D000B1D0
:102AC0000124204670BD8389F0E7038AEEE710B544
:102AD000C1F3421301F01F040121A140012B07D0D3
:102AE000022B07D01430002A026805D00A4304E004
:102AF0000C30F8E71030F6E78A43026010BD0000A2
:102B000030B50446008A85B00D464CF6FF7108408A
:102B1000E98801432182A0894EF6F3110840A98873
:102B20002A8911436A8902431143A181A08A4FF681
:102B3000FF410840A9890143A1826846FFF770FA66
:102B40001948844201D1039800E00298A189090440
:102B500000EBC00101EB0010296801D5490000E03D
:102B60008900B0FBF1F06422B0FBF2F109010B091E
:102B70006FF018056B4300EB8300A3891D044FF031
:102B8000320306D503EBC000B0FBF2F000F0070003
:102B900005E003EB0010B0FBF2F000F00F0008437B
:102BA000208105B030BD0000003801408088C0F3AE
:102BB00008007047FEE70000C8B04448006801F014
:102BC00029FB46A8002443906846CDE94404DFF879
:102BD0000091404E404F4FF0FF3801250023424600
:102BE0001946D9F8000001F05BFC012850D13B48A0
:102BF0000123424644A9006801F052FCC2B2449845
:102C00000021491C1029FCDD002A41D041A9001DEA
:102C1000FEF735FE9DF80401012839D130A0FDF7FB
:102C200055FB9DF80501012832D133A0FDF74EFB7D
:102C30009DF80601012802D0022829D124E09DF840
:102C40000701012824D19DF80801012802D002289B
:102C500007D01DE02DA0FDF739FB439845700470A7
:102C600005E02DA0FDF732FB439844700570022368
:102C7000002243A9306801F029FD00231A461946B5
:102C8000386801F023FD03E09DF80701012803D017
:102C9000142001F015F9A1E79DF8081121A0FDF716
:102CA00015FB9DF8080102F03BFE224902F03EFDB3
:102CB000459021480223002245A9006801F006FD45
:102CC0001E4800231A4619460068DAE7380000203B
:102CD00024000020040000201C0000200C00002024
:102CE0005B5741524E5DCAA3D3E0B3A4B6C8D0A38C
:102CF000D1E9B3C9B9A600005B5741524E5D4352BA
:102D000043D0A3D1E9B3C9B9A60000005B57415233
:102D10004E5DB7BDCFF231005B5741524E5DB7BD3E
:102D2000CFF232005B5741524E5D6172675B345D9A
:102D30003D2564000000C84208000020200000205B
:102D4000490050EAC12018BF04204A0D18BF40F0C6
:102D5000010040F2FF72B2EB515F08BF40F0020089
:102D6000012808BF052070477047000010B50420F7
:102D7000FFF722FA0C480D490D4A0068B0FBF1F349
:102D8000B0FBF1F14FF47A70414313700120508091
:102D90004FF0E020026942F00202026141610169E4
:102DA00041F00101016110BD4000002040420F00D0
:102DB000640000200870020A4A70020C8A70000E3B
:102DC000C870704704490A885206FCD5024AC1B24D
:102DD000121D1180704700000038014010B586B008
:102DE00003A80024CDE900040E480223224601A9CD
:102DF000006801F06BFC0C48002302945A1E02A9E3
:102E0000006801F063FC0098032101708460446055
:102E10000648022300226946006801F057FC06B00C
:102E200010BD000010000020140000201800002039
:102E30001CB54FF44070FEF705FFFFF797FFFEF754
:102E400084FBFEF741FF07490120CDE90001002383
:102E5000802205A1074801F0B5FE01F091F900209C
:102E60001CBD00002800002073746172745F7461DF
:102E7000736B0000553900081CB501A8DFF86880A5
:102E8000DFF8689000251A4C4FF0FF3701260090BC
:102E900000233A461946D8F8000001F001FB01284A
:102EA0001ED101233A466946D9F8000001F0F8FA2C
:102EB00000984178012901D041B111E0007878B93A
:102EC000C4F88051C4F884610AA007E000780128A2
:102ED00006D1C4F88061C4F884510BA0FDF7F6F95F
:102EE000142000F0EDFFD3E71C00002004000020B8
:102EF000000022425B5741524E5DB5E7BBFAB7B4C2
:102F0000CFF20D0A000000005B5741524E5DB5E75D
:102F1000BBFAD5FDCFF20D0A0000000008B5002075
:102F2000154D164E164FDFF85C80441E00900023AE
:102F300022461946286801F0B3FA012818D1012366
:102F400022466946306801F0ABFA3946009802F033
:102F5000FBFC009002F0ACFC81B24046FFF74AFC5B
:102F6000009802F055FB02460B4607A0FDF7AEF9AC
:102F7000142000F0A5FFDAE7200000200800002060
:102F800000C06044000400405B5741524E5DB5E70D
:102F9000BBFACBD9B6C8B2CECAFD3A25660D0A0037
:102FA0002DE9F041184E0F460446F5683068001DC3
:102FB00000F0FCFD38B9306890F82C1001208840F2
:102FC000316981433161601C07D137B13168BDE897
:102FD000F0410E48091D00F021BE30682C44AC427F
:102FE0004460316805D2B06BBDE8F041091D00F0C6
:102FF000FDBD706B091D00F0F9FDB06A844200D27E
:10300000B462BDE8F081000084000020D0060020FA
:103010002DE9F041054600F00DFE2D4EB068401C34
:10302000B06030682B4F10B1706930B32BE0356061
:10303000B068012827D1002404EB840007EB80004E
:1030400000F0C6FD641C202CF6D3234800F0C0FD20
:103050002148143000F0BCFD1F48283000F0B8FDB6
:103060001D483C3000F0B4FD1B48503000F0B0FD6E
:10307000194870631430B06305E03068E96AC06ACB
:10308000884200D83560706A0121401C7062686413
:10309000E86A326981401143316100EB800007EB3F
:1030A0008000291D00F0BAFD00F000FE70690028C4
:1030B0000CD03068E96AC06A884207D207494FF0ED
:1030C00080500860BFF34F8FBFF36F8FBDE8F08172
:1030D00084000020000400208006002004ED00E0B1
:1030E00010B500F0A7FD0E4C2068A0B90D4800F007
:1030F0006FFD0C48143000F06BFD0A48E06014309E
:10310000206100221021052001F08EF9206010B10D
:1031100005A100F0A1FEBDE8104000F0C7BD000011
:10312000C0000020E4060020546D72510000000031
:1031300070B5124E124D1CE001F0D4F8306820B189
:10314000002401F099FEA4B901E00124F9E700F0A0
:1031500071FDF068C468201D00F028FDA868401EBD
:10316000A8606868401E686000F0A0FD204600F07E
:1031700052F868680028DFD170BD0000BC0600204E
:103180008400002030B4026C0B46002A0BD0C168CA
:103190001144C1604468A14201D30168C16030BCE0
:1031A0001846FDF739B930BC70472DE9F041856B01
:1031B000174604460026026C82B1C7B1E068FDF7ED
:1031C0002BF9E168206C091AE1602268914202D271
:1031D0006168081AE060022F16D017E02068A8B9CD
:1031E000606801F0A3FD0646002060600EE0A06864
:1031F000FDF712F9216CA0680844A060616888425C
:1032000004D32068A06001E005B16D1E6D1CA563AC
:103210003046BDE8F08110B50446006B00F078FD43
:103220002046BDE8104000F073BD000010484FF488
:10323000A041420706D0C01D0D4920F00700411AE9
:10324000C1F5A0410B4A00230144C2E9000308393B
:10325000103A21F0070111604B600B600B1AC0E9B6
:10326000001393604FF000405360D060704700003F
:103270000C070020E4000020074E4FF08054074D5B
:10328000FFF756FF30680128FAD92C60BFF34F8F43
:10329000BFF36F8FF4E700000004002004ED00E0AE
:1032A0002DE9F047DDE909840E4617468246910074
:1032B0009946089DA522206BFDF7F3F86FF00301F6
:1032C000206B01EB8701084420F00707780705D041
:1032D00040F22B3219A11EA0FCF7F8FF00202218A3
:1032E000315C82F83410315C11B1401C1028F6D3E7
:1032F000002684F84360202D00D31F25E562C4E931
:103300001356201D00F06FFC04F1180000F06BFC58
:103310002461C5F120006462A061666584F858608C
:103320004A465146384600F003FB2060B8F1000FD2
:1033300001D0C8F80040BDE8F08700002E2E5C46A2
:1033400072656552544F535C7461736B732E6300E6
:103350004572726F723A25732C25640D0A000000C5
:1033600030B5114900E011460A688242FBD34B6830
:103370005C18844203D1406818444860084643689A
:103380001C18944209D1084C103C2468A24209D070
:1033900052681A4442600A6812680260814200D092
:1033A000086030BD0460F9E7E400002070B5002437
:1033B00041600B4D0061914206D8D11A8269914259
:1033C00006D2011D286907E09A4203D2994201D32F
:1033D000012403E0011DE86800F008FC204670BDF0
:1033E000C000002010B5044600F024FCA06B20B102
:1033F000002400F05BFC204610BD0124F9E700002A
:103400002DE9F34100980F460026846C2CB940F654
:10341000CE1216A11AA0FCF759FFA06BE16B8842EF
:1034200005D340F6CF1211A115A0FCF74FFFA06BFA
:10343000E16B88420CD294F945503A4669462046E1
:10344000FFF7B3FE0646681C05D06D1C84F8455096
:103450003046BDE8FC81606A0028F9D004F1240000
:1034600001F0BEFC0028F3D00126F1E72E2E5C46C9
:1034700072656552544F535C71756575652E6300B6
:103480004572726F723A25732C25640D0A00000094
:10349000F8B5054614480E46C068C068C468201DCB
:1034A00000F084FBE069012817D1A0692B4641197F
:1034B00032462046FFF77AFF78B1002003460146E6
:1034C00000902A46204601F0BDFD30B907494FF46F
:1034D000027201F11800FCF7F9FE616A01B02046A2
:1034E000BDE8F04008470000C0000020A84F0008D9
:1034F00070B586B02F4E53E00198002806DADDE95A
:103500000301029A90470198002849DB039C6069F7
:1035100010B1201D00F04AFB05A800F0A7F80546F1
:1035200001980A283CD2DFE800F00505053B273862
:1035300005053B270298A169034601442A46204617
:10354000FFF734FF00282BD0616A20468847E069E6
:10355000012825D1002000900298A169002342187B
:103560001946204601F06EFDD0B940F2213212A179
:1035700017A0FCF7ABFE13E00298A06128B94FF446
:103580004E720DA112A0FCF7A1FEA0692B464119B5
:103590001A462046FFF70AFF02E0204600F0B8FB7B
:1035A00000231A4601A9306800F07AFF0028A3D151
:1035B00006B070BDC00000202E2E5C4672656552BC
:1035C000544F535C74696D6572732E630000000084
:1035D0004572726F723A25732C25640D0A00000043
:1035E000F8B50D46064600F07DFE684600F03EF850
:1035F0000446009810B101F03FFCF8BD1148ADB190
:1036000001690968D9B10025311B2A46006800F01C
:1036100035FC01F031FC0028EFD10B494FF0805010
:103620000860BFF34F8FBFF36F8FF8BDA642EBD892
:1036300001F022FC21463046FFF72AFFF8BD0125A4
:10364000E2E70000C000002004ED00E00648416B06
:10365000096829B1416BC968C968496881627047C6
:103660004FF0FF31FAE700008400002070B50546F6
:1036700001F0E2FA064E0446B068844203D200F03C
:1036800009F8012000E0002028602046B46070BDE9
:10369000C0000020F8B5184E26E0C068C468056870
:1036A000201D00F083FA616A20468847E0690128FE
:1036B0001AD1A0692844A84206D924616060211D5E
:1036C000F06800F093FA0FE00020034601460090F6
:1036D0002A46204601F0B6FC30B9084940F2923241
:1036E00001F11800FCF7F2FDF06801680029D4D15F
:1036F0003169C6E90310F8BDC0000020A84F0008DA
:1037000008484068401C04D0F42207A111A0FCF72F
:10371000DDFD502080F31188BFF34F8FBFF36F8F13
:10372000FEE70000EC0000202E2E5C46726565521C
:10373000544F535C706F727461626C655C52564496
:10374000535C41524D5F434D335C706F72742E6316
:10375000000000004572726F723A25732C25640DCB
:103760000A000000084CE068016839B1002139B155
:103770000020FFF735FFFFF7BBFEF4E70121F6E776
:10378000C0680068F5E70000C00000202DE9F041A6
:10379000044600F04FFA94F9455004F1240610E075
:1037A000A06C20B100212046FFF72AFE04E0606AE9
:1037B00048B1304601F014FB08B100F01DFC6D1E4D
:1037C0006DB2002DECDC4FF0FF3684F8456000F060
:1037D0006DFA00F02FFA94F9445004F1100709E053
:1037E000206948B1384601F0FBFA08B100F004FC4A
:1037F0006D1E6DB2002DF3DC84F84460BDE8F0412D
:1038000000F054BA2DE9F0410546002600F06AFDAB
:10381000324F386808B9FFF709FDF86805424FD103
:10382000002D4DD0083568070BD005F00700C0F11A
:1038300008000544680704D0BF2229A132A0FCF784
:1038400045FD002D3CD07868854239D82349103198
:103850000846046801E0214604466068A84202D296
:1038600020680028F7D13868B846844228D00E680E
:103870002068086060680836401B10280ED9671958
:10388000780704D0EC2216A11FA0FCF71FFD60688A
:10389000401B786038466560FFF762FD6168D8F8C4
:1038A00004004246401AC8F80400D8F8083098428C
:1038B00000D29060D8F80C0001430020C4E9000158
:1038C00001F0DAFA700705D04FF4967204A10EA049
:1038D000FCF7FCFC3046BDE8F0810000D40000207D
:1038E0002E2E5C4672656552544F535C706F727435
:1038F00061626C655C4D656D4D616E675C686561AC
:10390000705F342E630000004572726F723A257347
:103910002C25640D0A0000000449086818B10868E5
:10392000026D521C02650868704700008400002088
:1039300010B5031F4FF080741C601B1F21F00101A4
:103940001960191F024B0B60143940380A6010BD12
:10395000013700081CB5FFF741FA00F06BF90420AD
:103960001F498401CDE90001002322461DA1214801
:1039700001F028F91A490220091DCDE900010023B0
:1039800022461DA1214801F01DF9154901200831E9
:10399000CDE90001002322461DA1214801F012F9C2
:1039A0000F4903200C31CDE90001002362001DA165
:1039B0001F4801F007F90A4900201031CDE9000144
:1039C000034622461BA11E4801F0FCF80448001FD4
:1039D000006800F0ABFABDE81C4000F067B90000D9
:1039E0002C0000206D6F746F72315F6469725F74B8
:1039F00061736B00792E00086D6F746F72315F73A5
:103A0000706565645F7461736B0000001D2F0008B2
:103A1000456E636F646572315F7461736B000000A3
:103A2000E1190008776966695F7461736B000000D3
:103A3000B92B000849646C655F7461736B0000000A
:103A4000311B000840F2572041F61F41FEF77EBDB2
:103A500070B5054686B0012144F20400FEF7D4FAA1
:103A60004FF40070ADF8100003248DF812401820B8
:103A70001D4E8DF8130004A93046FDF7DBFF30150D
:103A8000ADF8100004208DF8130004A93046FDF7AE
:103A9000D1FF25208DF814008DF815408DF81640C3
:103AA00001208DF8170005A8FEF79AF80020ADF860
:103AB0000400ADF80600ADF80800ADF80C000C20CD
:103AC0000A4CADF80A00009569462046FFF718F841
:103AD000012240F225512046FEF7F9FF0121204640
:103AE000FEF7C4FF06B070BD000801400038014079
:103AF00070B5012186B04804FEF77AFA012104204E
:103B0000FEF782FA18208DF813000425254EADF833
:103B1000105003248DF8124004A93046FDF78AFFA7
:103B20008DF813500820ADF810008DF8124004A94C
:103B30003046FDF77FFF4FF4E130009000200C216C
:103B4000ADF80A10ADF80600174CADF80C00ADF852
:103B50000800ADF8040069462046FEF7D1FF0022B8
:103B600040F226612046FEF7B2FF002240F22551C6
:103B70002046FEF7ACFF012240F224412046FEF72A
:103B8000A6FF012260212046FEF7A1FF0122282185
:103B90002046FEF79CFF01212046FEF767FF06B096
:103BA00070BD00000008014000440040D0E901322F
:103BB00001699A60D0E901235A604A68824201D1C2
:103BC00082684A60002202610868401E08607047EF
:103BD00000F108014FF0FF32C0E90112C16001613C
:103BE00000210160704700210161704730B50C6809
:103BF000621C02D000F1080202E0026904E01A46E9
:103C000053681D68A542FAD953684B6099608A6071
:103C1000516008610168491C016030BD42684A601A
:103C200093688B6093685960916008610168491CD2
:103C300001607047502080F31188BFF34F8FBFF3AE
:103C40006F8F09494868401C486001280AD107481D
:103C5000006810F0FF0F05D04FF4BD7204A10FA053
:103C6000FCF734BB70470000EC00002004ED00E0DE
:103C70002E2E5C4672656552544F535C706F7274A1
:103C800061626C655C525644535C41524D5F434DDA
:103C9000335C706F72742E63000000004572726FA7
:103CA000723A25732C25640D0A00000010B5084CEB
:103CB000606828B940F2811206A111A0FCF706FB4A
:103CC0006068401E606001D180F3118810BD000063
:103CD000EC0000202E2E5C4672656552544F535CFA
:103CE000706F727461626C655C525644535C4152F1
:103CF0004D5F434D335C706F72742E6300000000A3
:103D00004572726F723A25732C25640D0A0000000B
:103D100070B500282AD0164DA0F108046068E96843
:103D2000084205D14FF4A07212A11CA0FCF7CEFAF4
:103D3000206828B140F241120EA118A0FCF7C6FA83
:103D40006068E968084211D02268002A0ED18843D1
:103D5000606000F0C7FA60686968084468602046DF
:103D6000FFF7FEFABDE8704001F086B870BD0000B4
:103D7000D40000202E2E5C4672656552544F535C71
:103D8000706F727461626C655C4D656D4D616E67DC
:103D90005C686561705F342E630000004572726F6D
:103DA000723A25732C25640D0A00000006484FF472
:103DB0007A710068B0FBF1F14FF0E020491E4161DB
:103DC00007210161704700004000002010B5FCF79A
:103DD00057FA104C10280CD300F1E02090F8F003B3
:103DE0002178884205D24FF42A720BA115A0FCF766
:103DF0006DFA18480068A16800F4E060884207D9AD
:103E0000BDE810404FF42E7203A10EA0FCF75EBA7D
:103E100010BD0000EC0000202E2E5C46726565523D
:103E2000544F535C706F727461626C655C5256449F
:103E3000535C41524D5F434D335C706F72742E631F
:103E4000000000004572726F723A25732C25640DD4
:103E50000A0000000CED00E010B5074B002253F8FB
:103E600032401CB1521C082AF9D310BD43F832105D
:103E700003EBC201486010BDC003002070B51546B9
:103E80000E460446FFF7D6FE94F944100020491C64
:103E900001D184F8440094F94510491C01D184F8FB
:103EA0004500FFF703FFA06B28B92A46314604F10D
:103EB000240000F0D1F82046BDE87040FFF766BC52
:103EC00010B5040012D00E49096B29B140F2CF425F
:103ED0000CA111A0FCF7FAF900F004FA0021204629
:103EE000FFF75EF800F0C8FF002807D10E494FF039
:103EF00080500860BFF34F8FBFF36F8F10BD00007D
:103F0000840000202E2E5C4672656552544F535C2F
:103F10007461736B732E63004572726F723A25730E
:103F20002C25640D0A00000004ED00E070B5044685
:103F3000FFF780FE234D04B92C68201DFFF736FEE5
:103F400058B9E06A204A00EB800152F8211021B9EB
:103F500001218140286988432861A06A18B104F1D1
:103F60001800FFF723FE686A401C686228688442D4
:103F700007D1211D1548FFF751FE6868401C686095
:103F800007E0A868401EA8602046FFF744F9FFF745
:103F90005DFBFFF78BFE6869002812D02868844219
:103FA0000FD1286B28B140F2654209A10DA0FCF7A2
:103FB0008DF910494FF080500860BFF34F8FBFF369
:103FC0006F8F70BD8400002000040020BC0600201C
:103FD0002E2E5C4672656552544F535C7461736B50
:103FE000732E63004572726F723A25732C25640D2F
:103FF0000A00000004ED00E001490120C86170479B
:104000008400002070B50D46040005D140F606324C
:1040100007A10CA0FCF75AF90E4801682046183198
:10402000FFF7E4FD2846BDE870400121FEF7B8BF68
:104030002E2E5C4672656552544F535C7461736BEF
:10404000732E63004572726F723A25732C25640DCE
:104050000A0000008400002070B514460E460500DA
:1040600005D140F6313209A10DA0FCF72FF9104817
:10407000016828461831FFF7D1FD0CB14FF0FF362B
:1040800021463046BDE87040FEF78ABF2E2E5C46C2
:1040900072656552544F535C7461736B732E630089
:1040A0004572726F723A25732C25640D0A00000068
:1040B0008400002070B5040039D01D4DE06A2968E5
:1040C000C96A884233D2A069002804DB2868C06A24
:1040D000C0F12000A061E06A164E00EB800061692B
:1040E00006EB800081421FD1201DFFF75FFD0121FB
:1040F00050B9E06A00EB800256F8222022B92A6902
:1041000001FA00F082432A612868C06AE0622A69E5
:1041100081401143296100EB800006EB8000211DE6
:10412000BDE87040FFF77ABD2868C06AE06270BDE4
:10413000840000200004002010B5040005D140F6E2
:10414000C13205A109A0FCF7C1F80C48016A216041
:10415000C068606010BD00002E2E5C46726565521E
:10416000544F535C7461736B732E63004572726FAE
:10417000723A25732C25640D0A000000840000208B
:104180001CB517480024CDE900402346822215A122
:10419000164800F017FD012803D100F019FF01288F
:1041A0000AD0401C1BD102B040F28472BDE810401E
:1041B0000FA114A0FCF78AB8502080F31188BFF338
:1041C0004F8FBFF36F8F06484FF0FF312C3881625D
:1041D00001214161C460BDE81C4000F0D3B81CBDA2
:1041E000B000002049444C4500000000793200082E
:1041F0002E2E5C4672656552544F535C7461736B2E
:10420000732E63004572726F723A25732C25640D0C
:104210000A00000070B50446FFF70CFD244D04B9F8
:104220002C68201DFFF7C2FC58B9E06A214A00EB58
:10423000800152F8211021B9012181402869884369
:104240002861A06A18B104F11800FFF7AFFC211D26
:104250001948FFF7E3FCFFF729FD686928B1FFF76C
:10426000E9FCFFF7F3F9FFF721FD2868844211D13B
:10427000686980B1286B28B140F257620FA114A081
:10428000FCF724F816494FF080500860BFF34F8FB9
:10429000BFF36F8F70BD0848A9680068884202D1DB
:1042A0000020286070BDBDE8704000F023B8000019
:1042B0008400002000040020D00600202E2E5C4642
:1042C00072656552544F535C7461736B732E630057
:1042D0004572726F723A25732C25640D0A00000036
:1042E00004ED00E00248016B491C016370470000C7
:1042F0008400002070B5134D286B10B10120E861D7
:1043000070BD0020E86128690F4EB0FA80F0C0F15E
:104310001F0000EB800456F8240028B940F6F6226E
:104320000AA10FA0FBF7D2FF06EB840000F1080200
:10433000416849684160914201D149684160C8685B
:10434000286070BD84000020000400202E2E5C46F2
:1043500072656552544F535C7461736B732E6300C6
:104360004572726F723A25732C25640D0A000000A5
:1043700010B5FFF7BDFBFDF71FFABDE81040FDF7D4
:104380006BBC00001CB51A4908780190FF2008702A
:1043900008788DF800009DF80000164A00F05000E3
:1043A00010700720906007E09068401E90609DF8B4
:1043B000000040008DF800009DF800000006F3D4D6
:1043C000107A000200F4E0609060019808700A48DA
:1043D000016841F470010160016841F070410160C1
:1043E000FFF7E4FC00205060FBF714FF00201CBD29
:1043F00000E400E0EC00002020ED00E010B55020CB
:1044000080F31188BFF34F8FBFF36F8F00F01AFC5A
:1044100018B104494FF080500860002080F31188E3
:1044200010BD000004ED00E02DE9F04117460E46F6
:10443000050005D14FF4C47210A115A0FBF746FF8B
:10444000BEB105FB06F05430FFF7DCF904000ED0D6
:1044500004F154007EB12060C4E90F5620460121CA
:1044600000F0E0F884F8507000212046A164BDE817
:10447000F0810020E7E72460EEE700002E2E5C4686
:1044800072656552544F535C71756575652E630096
:104490004572726F723A25732C25640D0A00000074
:1044A0002DE9FF4F83B09B468A4604004FF000067B
:1044B00005D140F2DC4251A155A0FBF707FFBAF14C
:1044C000000F07D1206C28B140F2DD424BA150A073
:1044D000FBF7FCFE00F0A2FB38B9059828B14FF4B9
:1044E0009C6246A14AA0FBF7F1FE4FF000094FF095
:1044F0008057DFF82C81FFF79DFBA56B45B3514634
:104500002046E668FEF73EFEBBF1000F13D0E660E2
:10451000606A50B104F1240000F062FC28B1C8F8D0
:104520000070BFF34F8FBFF36F8FFFF7BFFB01200A
:1045300007B0BDE8F08F6D1EA563206810B9FFF7C6
:10454000EBF9606020690028EFD004F11000E3E788
:10455000059808B11EB106E0FFF7A8FB27E0684602
:10456000FFF7EAFD0126FFF7A1FBFFF7BBFEFFF710
:1045700061FB94F94400401C01D184F8449094F903
:104580004500401C01D184F84590FFF78FFB05A939
:10459000684600F0D3FA002820460AD0FFF7F6F864
:1045A00000F06AFC2046FEF71DFF0028A3D0002083
:1045B000BEE7FEF717FFD8B1206830B9FFF73AFB26
:1045C0006068FFF777FDFFF771FB04F124000599A0
:1045D000FFF718FD2046FFF7D9F800F04DFC002842
:1045E00089D1C8F80070BFF34F8FBFF36F8F82E798
:1045F0002046FFF7CBF800F03FFC7CE72E2E5C4610
:1046000072656552544F535C71756575652E630014
:104610004572726F723A25732C25640D0A000000F2
:1046200004ED00E070B50D46040005D140F21B1208
:104630001CA121A0FBF74AFEFFF7FCFAD4E90F20EA
:10464000216802FB001161600021A1632168A16063
:104650000A46D4E90F01401E00FB0121E16021461A
:104660004FF0FF3001F8440F487004F110004DB1D5
:10467000FFF7AEFA04F12400FFF7AAFAFFF716FBE2
:10468000012070BD21690029F8D000F0A9FB0028A5
:10469000F4D00D494FF080500860BFF34F8FBFF347
:1046A0006F8FEBE72E2E5C4672656552544F535C5C
:1046B00071756575652E63004572726F723A257368
:1046C0002C25640D0A00000004ED00E02DE9FF4FE9
:1046D00083B099468B4604004FF0000605D140F2A6
:1046E000D92252A156A0FBF7F1FDBBF1000F07D173
:1046F000206C28B140F2DA224CA151A0FBF7E6FD74
:10470000B9F1020F08D1E06B012805D040F2DB229D
:1047100046A14BA0FBF7DAFD00F080FA38B9059806
:1047200028B140F2DE2241A145A0FBF7CFFD4FF0BA
:10473000000A4FF08057DFF81881FFF77BFAA06B73
:10474000E16B884206D3B9F1020F03D0059800B39C
:1047500016B325E04A4659462046FEF726FDA16CD1
:1047600021B149462046FEF74BFE05E0616A19B1CA
:1047700004F1240000F034FB28B1C8F80070BFF346
:104780004F8FBFF36F8FFFF791FA012007B0BDE89D
:10479000F08FFFF78BFA21E06846FFF7CDFC01268A
:1047A000FFF784FAFFF79EFDFFF744FA94F94400FF
:1047B000401C01D184F844A094F94500401C01D16B
:1047C00084F845A0FFF772FA05A9684600F0B6F92B
:1047D00030B12046FEF7DAFF00F04EFB0020D5E7AF
:1047E000FFF728FAA06BE16B884201D1012500E0B8
:1047F0000025FFF75BFA95B104F110000599FFF76A
:1048000001FC2046FEF7C2FF00F036FB002894D1E1
:10481000C8F80070BFF34F8FBFF36F8F8DE720464E
:10482000FEF7B4FF00F028FB87E700002E2E5C4661
:1048300072656552544F535C71756575652E6300E2
:104840004572726F723A25732C25640D0A000000C0
:1048500004ED00E02DE9F04798461546894604002E
:1048600005D140F29F322AA12EA0FBF72FFDB9F10E
:10487000000F07D1206C28B14FF4687224A129A041
:10488000FBF724FDB8F1020F08D1E06B012805D039
:1048900040F2A1321EA123A0FBF718FDFFF796FA04
:1048A0005020EFF3118780F31188BFF34F8FBFF3D0
:1048B0006F8FA06BE16B884207D3B8F1020F04D071
:1048C000002087F31188BDE8F08794F945604246DF
:1048D00049462046FEF769FC701C04D0761C84F81B
:1048E00045600120EDE7A06C012620B1414620463D
:1048F000FEF786FD06E0606A0028F2D004F124008D
:1049000000F06EFA0028ECD0002DEAD02E60E8E727
:104910002E2E5C4672656552544F535C71756575F9
:10492000652E63004572726F723A25732C25640DF3
:104930000A0000002DE9F0410D46040005D140F2C7
:104940003C4225A129A0FBF7C1FC206C28B14FF403
:10495000886221A125A0FBF7B9FC206838B96068FE
:1049600028B140F245421CA120A0FBF7AFFCFFF7A5
:104970002DFA5020EFF3118680F31188BFF34F8F8B
:10498000BFF36F8FA16BE06B88421FD994F945008C
:10499000491CA163411C04D0401C84F8450001203F
:1049A00015E0A06C012720B100212046FEF728FD6C
:1049B00006E0606A0028F2D004F1240000F010FA4A
:1049C0000028ECD0002DEAD02F60E8E7002086F325
:1049D0001188BDE8F08100002E2E5C46726565529C
:1049E000544F535C71756575652E63004572726F27
:1049F000723A25732C25640D0A0000002DE9F04160
:104A00000E46040005D140F2FC5216A11AA0FBF795
:104A10005DFC3EB9206C38B140F2FD5211A116A0E8
:104A2000FBF754FC206C28B940F2FE520DA112A0F5
:104A3000FBF74CFCFFF7CAF95020EFF3118580F328
:104A40001188BFF34F8FBFF36F8FA06B30B131462A
:104A50002046E768FEF796FB0120E76085F31188A2
:104A6000BDE8F0812E2E5C4672656552544F535C52
:104A700071756575652E63004572726F723A2573A4
:104A80002C25640D0A0000002DE9F0479046894668
:104A9000040005D14FF4B4621FA124A0FBF716FC5B
:104AA000B9F1000F07D1206C28B140F2A1521AA130
:104AB0001EA0FBF70BFCFFF789F95020EFF31187DD
:104AC00080F31188BFF34F8FBFF36F8FA66BF6B1E2
:104AD00094F9445049462046FEF754FB761EA663DF
:104AE000681C04D06D1C84F84450012010E020693B
:104AF0000028FAD004F1100000F072F90028F4D078
:104B0000B8F1000FF1D00121C8F80010EDE7002046
:104B100087F31188BDE8F0872E2E5C4672656552DA
:104B2000544F535C71756575652E63004572726FE5
:104B3000723A25732C25640D0A00000070B50D46ED
:104B4000040005D140F6CB3214A119A0FBF7BEFB3F
:104B50002DB940F6CC3211A115A0FBF7B7FBFFF73A
:104B600069F8174AD06829684B1C0FD02368126A6D
:104B7000934202D0626882420AD96268801A8842EF
:104B800006D2081A28602046FFF7D6FA002400E073
:104B90000124FFF78BF8204670BD00002E2E5C46E6
:104BA00072656552544F535C7461736B732E63006E
:104BB0004572726F723A25732C25640D0A0000004D
:104BC000840000202DE9FF5F8346DDE90E879946CA
:104BD00016468A469000FEF715FE05001AD05C20A6
:104BE000FEF710FE040012D025630021CDE902413A
:104BF000CDE900874B46324651465846FEF750FBFA
:104C00002046FEF705FA012004B0BDE8F09F2846D3
:104C1000FFF77EF84FF0FF30F6E7000005484169E6
:104C200019B1006B18B100207047012070470220B5
:104C300070470000840000200148C06870470000F1
:104C4000840000202DE9F0412D4F0026386B40B143
:104C5000B869401CB861F86900B101263046BDE86A
:104C6000F081FD686D1CFD6011D1786B006828B182
:104C700040F6D91223A128A0FBF728FB786BB96B6B
:104C80007963B863386A401C3862FEF7DFFCB86AA3
:104C9000DFF89480854209D3786B006880B1786B27
:104CA000C068C468606885420DD2B8623868C06A5E
:104CB00000EB800158F821000128CCD90126CAE771
:104CC0004FF0FF30F1E7201DFEF770FFA06A18B12A
:104CD00004F11800FEF76AFFE06A01213A69814099
:104CE0001143396100EB800108EB8100211DFEF7C3
:104CF00095FFE06A3968C96A8842CDD30126CBE7BF
:104D0000840000202E2E5C4672656552544F535C21
:104D10007461736B732E63004572726F723A257300
:104D20002C25640D0A0000000004002070B504006A
:104D30004FF000063CD01F4D2868844205D040F655
:104D4000C7621DA121A0FBF7C1FA206D28B940F66A
:104D5000C96219A11DA0FBF7B9FA206D401E20659C
:104D6000E26CE16A914223D010BB201DFEF71EFFCA
:104D70001A49012250B9E06A00EB800351F8233050
:104D800023B92B6902FA00F083432B61E06CE062E7
:104D9000C0F12000A061E06A2B6982401A432A61B9
:104DA00000EB800001EB8000211DFEF737FF01269C
:104DB000304670BD840000202E2E5C467265655220
:104DC000544F535C7461736B732E63004572726F42
:104DD000723A25732C25640D0A000000000400209F
:104DE0002DE9F041C068C4682CB940F6613216A1C3
:104DF0001AA0FBF76BFA04F118000746FEF7D6FE7F
:104E00001A4D286B012660B139461948FEF706FF96
:104E1000E06A2968C96A884213D90120EE61BDE8B9
:104E2000F081201DFEF7C2FEE06A2A6906FA00F151
:104E3000114329610F4900EB800001EB8000211D27
:104E4000E4E70020EBE700002E2E5C467265655219
:104E5000544F535C7461736B732E63004572726FB1
:104E6000723A25732C25640D0A000000840000208E
:104E7000A8060020000400202DE9F0472B4D002457
:104E80002746286B28B94FF4FD6229A12DA0FBF716
:104E90001DFAFEF7CFFE286B401E2863286BE8BB87
:104EA000A8682C490126C8B3A1F52A798846D8F804
:104EB0000010E9B1D8F80C00C46804F11800FEF73E
:104EC00075FE201DFEF772FEE06A2A6906FA00F1FF
:104ED0001143296100EB800109EB8100211DFEF7E0
:104EE0009DFEE06A2968C96A8842E0D3EE61DEE788
:104EF0000CB1FEF7ABFBAC693CB1FFF7A3FE00B110
:104F0000EE61641EF9D10020A861E86930B1124950
:104F1000012738070860BFF34F8F00E001E0BFF3BF
:104F20006F8FFEF7C3FE3846BDE8F087840000208F
:104F30002E2E5C4672656552544F535C7461736BE0
:104F4000732E63004572726F723A25732C25640DBF
:104F50000A000000A806002004ED00E02DE9F0475B
:104F60000746994616460D462C20DDF820A0FEF790
:104F700049FC040014D0B8464F46D1462DB94FF431
:104F8000C67209A10EA0FBF7A1F9FEF7A9F804F17A
:104F90001801C4F8008081E8E002201DFEF723FE1E
:104FA0002046BDE8F08700002E2E5C4672656552F3
:104FB000544F535C74696D6572732E63000000007A
:104FC0004572726F723A25732C25640D0A00000039
:104FD0001CB50024FEF784F80C48006868B10B4942
:104FE0001F20091DCDE9000100234FF4827208A1A2
:104FF0000948FFF7E7FD040005D140F2331207A18D
:105000000CA0FBF763F920461CBD0000C000002087
:10501000546D722053766300653700082E2E5C466F
:1050200072656552544F535C74696D6572732E637B
:10503000000000004572726F723A25732C25640DD2
:105040000A0000002DE9FF47DDF830A099469046A0
:105050000D4606004FF0000705D14FF4D37212A1A0
:1050600017A0FBF733F91A4C206880B1CDE900583E
:105070000296062D11DAFFF7D1FD02284FF000034A
:1050800009D0002269462068FFF720FB074604B0DC
:105090003846BDE8F0875246F4E700234A466946A1
:1050A000FFF7D8FBF2E700002E2E5C4672656552D2
:1050B000544F535C74696D6572732E630000000079
:1050C0004572726F723A25732C25640D0A00000038
:1050D000C000002010B500290AD00878002807D0A9
:1050E00005487844FBF736FE002801D0002010BDAB
:1050F0000248784410BD0000A20D00009A0D000087
:1051000021F00042A2F16052B2F5801F01F000438D
:1051100028BFD2F17F6C0BD95FEA001C43EAC202C0
:1051200042EB507018BF704728BF20F00100704755
:10513000B2F5801FBCBF184670474FEA410C1CF502
:10514000001F02D2084600F0C6BC70B500F00CFA91
:1051500000000089FFF7F6BF4FF00040A0F5800087
:10516000704700002DE9C04130B4DFF8A0C23CEA2E
:10517000111418BF3CEA131400F0EC8081EA030517
:105180001CEA111444EAD57418BF1CEA131500F088
:10519000C780A4EB05044FF0004545EAC12145EA6C
:1051A000C32341EA505143EA525304F17F749942B8
:1051B00004F500344FEAC0204FEAC22208BF9042F3
:1051C00000F09C804FEA13650FF24016765D4FEABF
:1051D000134506FB05F7C7F1807706FB07F74FEA93
:1051E000D737A7FB03687642C8F58038A7FB06CE01
:1051F00038BFA8F1010807FB08E64FF0000EA6FB38
:10520000028CE6FB03CEDCF1000CCEF1004E38BF81
:10521000AEF1010EA6FB0C584FF000074FF0000551
:10522000E6FB0E87A1FB08C6A0FB07CE16EB0E0619
:1052300045F10005E1FB076515F1E04E7EBFA4F5E1
:1052400080345FEA46066D4116F1800745F100059E
:105250004FEA17274FEA066647EA0567A6F1DE46DA
:10526000B6F1805F4FEA15251FD9384624F0010CAE
:1052700005EBC471BCF1FE6F01EB0C1102D8F0BC60
:10528000BDE8008124425CBF01F5801E9EEAC47F18
:1052900002D4F0BCBDE80081244238D4F0BCA1F1B6
:1052A000C041BDE8004100F0ADB94FEAD22242EA68
:1052B00043524FEAD323A7FB02864FEAD02040EAAD
:1052C000415007FB03661EEA0E0F4FEAD12105FB92
:1052D000026658BFA6EB0056B6EB00564FEA520ED8
:1052E0004EEAC37E18EB0E0E56EB530EBDD518EBEF
:1052F00002085E417F1C55F10005B6E74FF48015AA
:105300004FF000074FF000064FF00008ADE7F0BC8B
:105310004FF0000001F1C04101F00041BDE8008103
:1053200011EA0C1F0CEA131500D00CE013EA0C1F55
:1053300000F025804FF00000F0BC81EA030101F08D
:105340000041BDE80081F0BCBDE8004181EA0301F5
:1053500000F058B9F0BCBDE8004170B500F004F9A8
:10536000097EFC3E00F007B881EA03014FF000001F
:1053700001F00041704781EA030100F043B9F0BC3D
:10538000BDE800414FF0000021497047FFFDFBF9E7
:10539000F7F5F4F2F0EEEDEBE9E8E6E4E3E1E0DE68
:1053A000DDDBDAD8D7D5D4D3D1D0CFCDCCCBCAC8DA
:1053B000C7C6C5C4C2C1C0BFBEBDBCBBBAB9B8B701
:1053C000B6B5B4B3B2B1B0AFAEADACABAAA9A8A8F4
:1053D000A7A6A5A4A3A3A2A1A09F9F9E9D9C9C9BC2
:1053E0009A9999989797969595949393929191906D
:1053F0008F8F8E8E8D8C8C8B8B8A898988888787FE
:105400008685858484838382828181800000FF0772
:105410000000F87FDFF848C170B51CEA111E1EBFFE
:105420001CEA13159EEA0C0F95EA0C0F00F06F8032
:1054300081EA030423EA4C134EEAD47E21EA4C119C
:1054400041F4801143F48013AE44A1FB024CA0FB55
:105450000365AEF17F7E361955EB0C05A1FB034CBD
:105460004CF10003A0FB021C16EB0C06654153F146
:105470000003094218BF46F0010613F4007F0BD168
:105480004FEA03314FEA0530340341EA155140EA4F
:1054900016506FF003020AE04FEAC3214FEAC5201D
:1054A000F40241EA555140EA56506FF0020202EB15
:1054B0002E4201EB025585EACE710AD05FEA440C18
:1054C00018BF24F0004450F1000041F1000120EA2F
:1054D000D47040F2FE7C624500D270BDA84214BF79
:1054E0004FF080444FF04044002E08BF0024BEF12E
:1054F000806FA8BFA1F1C041BDE8704080F28280FA
:105500004FF0000001F1C04101F0004170479EEAF8
:105510000C0F0CEA131518BF95EA0C0F06D04FF0CC
:10552000000081EA030E0EF0004170BD00F01CF88F
:105530008900013E00F007B800F009B84FEA430CBB
:105540005FEA5C5C08D081EA030100F05BB84FEAD7
:10555000410C5FEA5C5CF6D14FF0000001497047F6
:105560000000FF070000F87F0EF1020E2EF0030E80
:105570005EF8046B364205D4012A43EB030515F5AA
:10558000001F12D8012841EB010C1CF5001F0CD89C
:105590000ED14FEAD17C15F5001F0CEB4C0C0CF131
:1055A000020C08BF4CEBD37C04E04FF0080C01E088
:1055B0004FEAD37C0CEB4C0526FA05F606F00706FD
:1055C000B6F1040C06D20EEB860CBDE870404CF030
:1055D000010C6047DFE80CF0090B02024FF00041BC
:1055E0004FF00000A1F5002170BD194610460128BA
:1055F00051EB010418BFD4F5001484BF002001F062
:10560000004170BD0808A0F500114FEA3101704754
:1056100043004FEAD30C4FEA3C0C43401FBF400706
:105620000CF1605113F0FE4F70471CF0006F03D176
:1056300000200CF0004170470CF0004343EA50702A
:1056400010B540EACC0000F000FA00BF0000009264
:105650004FEA0001FFF7D6BF4FF000414FF00000C6
:10566000A1F500217047000090EA010F48BF81F0CA
:10567000004100F13C82421A3CBF801A89184FEA6F
:10568000D0524FF07F4C1CEA410FA2EBD15318BF10
:105690009CEA026F00F03B804FF0004C4CEA002087
:1056A0004CEA012121FA03FC10EB0C0C1ED202F192
:1056B000FF325FEA1C2040EBC25038BF70471CF03D
:1056C0007F0F4FEA400C18BFBCF17F4F38BF7047C7
:1056D000C3F12003994008BF20F00100BCF17F4FC7
:1056E00038BF7047A0F1C04000F0F5B94FEA3C0068
:1056F000000A40EBC25028BF1CF0FF0F4FEA400CDD
:10570000E6D018BFBCF17F4F38BF7047EAE79CEA8C
:10571000026F05D010EA5C0F08BF00F00040704730
:1057200010B500F092F900BF64FBBE3E4FF47F0C51
:105730001CEAD0121EBF1CEAD11392EA0C0F93EAA6
:105740000C0F00F0858090EA010F48BF42F4807290
:1057500040F4000C41F400002CF07F4120F07F4029
:1057600000B58142A2EB03020FF2081CACEB504ED5
:10577000C0F100009EF800E04FEA4E0E00FB0EFC68
:1057800038BF49004FEA2C1C02F5FA020CFB0EF35D
:105790004FEACE1E4FEA112C4FEAC1210EEB635E99
:1057A00042EB22420EFB0CFC4FEA1C5300FB0311A0
:1057B0004FEA112C4FEA01310EFB0CFC4FEADC4C96
:1057C00000FB0C11C14228BF09184CEB03335DF8F4
:1057D00004EB10EB410143EBC250B2F57C0F38BF34
:1057E000704729D512F0F00F1CBF00F1C04000F047
:1057F00000407047008182838485868788898B8CEE
:105800008D8E8F919293959697999A9C9D9FA0A229
:10581000A3A5A7A8AAACAEB0B2B3B5B7B9BCBEC079
:10582000C2C5C7C9CCCED1D4D7D9DCDFE2E6E9EC1A
:10583000F0F3F7FAFE0000004FEA400C0CF1807C18
:10584000BCF17E4F28BF7047B0F1C04000F043B9B3
:1058500090EA010F0CEAD11348BF42F4807262450E
:1058600038BF634507D213F47F0F16D080EA0100DA
:1058700000F00040704710B500F0E7F8097EFC3EEC
:1058800000F005B880EA010000F00040704780EAAF
:10589000010000F0004000F01EB912F47F0F04BFB9
:1058A0000248704780EA010000F015B90000C07F8F
:1058B000C10DD1F19E0206DB4FEA002343F0004305
:1058C00023FA02F07047004207D54FEA4001B1F1D8
:1058D000FE4F02D24FF00000704710B500F0B5F84F
:1058E00049922480002070476FEA20007047000032
:1058F00010F0004148BF4042B0FA80F310FA03F2C2
:10590000C3F19D030BD051EAC35101EB12205306A2
:1059100038BF704700F1010008BF20F00100704758
:10592000B0FA80F310FA03F2C3F19D030AD0D9054F
:1059300001EB1220530638BF704700F1010008BF89
:1059400020F00100704700004FF47F0C1CEAD012D9
:105950001EBF1CEAD11392EA0C0F93EA0C0F00F061
:10596000478090EA010F48BF42F480724FF0004C2C
:105970004CEA00204CEA012102EB0302A0FB0113D8
:10598000A2F50002002918BF43F001035B0028BF05
:105990004FEA330342EB22425FEA132C4CEBC25036
:1059A0002EBFBCEB436FB2F57C0F70474FEA036C20
:1059B000BCF1004F08BF20F00100B2F57C0F38BFEA
:1059C00070470BD582F0FF0212F5803FC8BF7047C9
:1059D00000F1C040D8BF00F00040704700F5000C57
:1059E0005FEA4C0C48BF7047B0F1C04000F073B89C
:1059F00090EA010F0CEAD11348BF42F4807262456D
:105A000038BF634504D280EA010000F000407047CF
:105A100010B500F01AF800BF8900013E00F007B889
:105A200000F009B85FEA410C5FEA1C6C08D080EA1C
:105A3000010000F050B85FEA400C5FEA1C6CF6D140
:105A40004FF00040A0F5800070470EF1020E2EF0DE
:105A5000030E5EF8044B244204D44FEA4102B2F133
:105A60007F4F11D84FEA4003B3F17F4F0CD80ED1CE
:105A70004FEAD07CB2F17F4F0CEB4C0C0CF1020CD6
:105A800008BF4CEBD17C04E04FF0080C01E04FEA7A
:105A9000D17C0CEB4C0324FA03F404F00704B4F1BA
:105AA000040C06D20EEB840CBDE810404CF0010C47
:105AB0006047DFE80CF0070802024FF00040A0F555
:105AC000800010BD0846420018BFD2F1807288BF26
:105AD00000F0004010BDFF2141EAD050C0057047E2
