:020000040800F2
:1000000070730020C90200088D280008A520000890
:100010005528000879180008DD3C000800000000A1
:100020000000000000000000000000003102000895
:10003000811B0008000000007502000869310008FB
:10004000E3020008E3020008E3020008E3020008FC
:10005000E3020008E3020008E3020008E3020008EC
:10006000E3020008E3020008E3020008E3020008DC
:10007000E3020008E3020008E3020008E3020008CC
:10008000DD18000819190008E3020008E30200085F
:10009000E3020008E3020008E3020008E3020008AC
:1000A000E3020008E3020008E3020008E30200089C
:1000B000B53200086D33000835340008E30200084B
:1000C000E3020008E3020008E3020008E30200087C
:1000D000E3020008253A0008893A0008E302000814
:1000E000E3020008E3020008E3020008E30200085C
:1000F000E3020008E3020008E3020008E30200084C
:10010000E3020008E302000889340008E302000863
:10011000E3020008E3020008D9340008E302000803
:10012000E3020008E3020008E3020008E30200081B
:1001300000F002F800F06DF80AA090E8000C82448C
:100140008344AAF10107DA4501D100F062F8AFF269
:10015000090EBAE80F0013F0010F18BFFB1A43F0A5
:100160000103184768B3000088B300000A444FF049
:10017000000C10F8013B13F0070408BF10F8014B06
:100180001D1108BF10F8015B641E05D010F8016B4B
:10019000641E01F8016BF9D113F0080F1EBF10F8AF
:1001A000014BAD1C0C1B09D16D1E58BF01F801CBD2
:1001B000FAD505E014F8016B01F8016B6D1EF9D555
:1001C0009142D6D37047000000230024002500266A
:1001D000103A28BF78C1FBD8520728BF30C148BFAA
:1001E0000B60704766290AF0BA80642900F0E88045
:1001F000732900F09585002070471FB500F0D8FDE9
:1002000004000020002109F069F8E0601FBD10B56E
:1002100010BD00F0D1FE1146FFF7EFFF05F02AFDFB
:1002200000F0EFFE03B4FFF7F2FF03BC04F02BFA7B
:10023000224B19680868B0E8F00F80F30988BFF313
:100240006F8F4FF0000080F311884EF00D0E704755
:100250000000000006480068006880F3088862B665
:1002600061B6BFF34F8FBFF36F8F00DF00BF00BFDA
:1002700008ED00E0EFF30980BFF36F8F0F4B1A68B2
:1002800020E9F00F106008B54FF0500080F311889E
:10029000BFF34F8FBFF36F8F08F08AF94FF0000064
:1002A00080F31188BDE8084019680868B0E8F00FCD
:1002B00080F30988BFF36F8F704700BF14010020DF
:1002C000EFF3058070470000094880470948004760
:1002D000FEE7FEE7FEE7FEE7FEE7FEE7FEE7FEE7F6
:1002E000FEE7FEE704480549054A064B7047000053
:1002F0007D31000831010008706D0020707300200E
:10030000706F0020706F0020704710B54C1084EAA9
:10031000530404D54042C1F1000138BF491E1B42BD
:1003200004D55242C3F1000338BF5B1E00F0E6F96A
:1003300014F0804F04D04042C1F1000138BF491E83
:1003400014F0004F04D05242C3F1000338BF5B1ECB
:1003500010BD00000FB4044910B503AA029800F0C4
:10036000E3FC10BC5DF814FBFC00002070B50C46EB
:100370000546012A05D02878800600D5EA690023C1
:1003800002E0012305E05B1C934202D2E05C0028FE
:10039000F9D1A869E618C01AA861286A1844286229
:1003A0002846AFF3008004E0D5E9012114F8010BE1
:1003B0009047B442F8D32846AFF3008070BD0000E8
:1003C0002DE9F0410646002410687529314616A52E
:1003D00010D0AFF30080002802DA404213A507E0F6
:1003E00031688A0701D512A502E0490704D511A595
:1003F000012401E0AFF3008000210A2206F1240766
:1004000009E0B0FBF2FCB0FBF2F302FB1C00303061
:1004100078541846491C0028F3D123462A46304612
:10042000BDE8F04100F0ECB9000000002D00000034
:100430002B000000200000002DE9F05F89460446F3
:100440004FF0000ADFF824B1FB44C0F820A020469A
:10045000E168884700287DD0252806D0D4E901210D
:100460009047206A401C2062F1E700255F46204645
:10047000E16888472028064607DB312E05D2B819E7
:1004800010F8200C08B10543F1E7A80701D525F0C5
:100490000405C4F81CA00027C4F818A02A2E09D00F
:1004A000304604F0E9F838B304EB8708303EC8F86A
:1004B000186019E059F8041B204604EB870291618B
:1004C000E1688847012F064618D1E069002820DA44
:1004D00025F020051DE0D8F8180000EB800006EBA1
:1004E00040003038C8F818002046E16888470646C2
:1004F00004F0C2F80028EED1012F0AD02E2E08D128
:100500002046E16888477F1C0646022F45F02005FB
:10051000C4DBA069002803DA404245F00105A06170
:10052000E80701D025F01005A6B1A6F14100192871
:1005300002D8203645F400654A46314620462560FB
:100540004D46FFF74FFE60B1012807D0ED1D25F0A5
:10055000070000E007E000F1080978E705F1040969
:1005600075E730467AE7206ABDE8F09F9AAE000052
:1005700040EA010310B59B070FD1042A0DD310C820
:1005800008C9121F9C42F8D020BA19BA884201D972
:10059000012010BD4FF0FF3010BD1AB1D30703D0BA
:1005A000521C07E0002010BD10F8013B11F8014B70
:1005B0001B1B07D110F8013B11F8014B1B1B01D18C
:1005C000921EF1D1184610BD032A40F2308010F07F
:1005D000030C00F0158011F8013BBCF1020F6244DE
:1005E00098BF11F801CB00F8013B38BF11F8013B6F
:1005F000A2F1040298BF00F801CB38BF00F8013B1C
:1006000011F0030300F0A283083AC0F0088051F80B
:10061000043B083A51F804CBA0E80810F5E7121D96
:100620005CBF51F8043B40F8043BAFF30080D207B5
:1006300024BF11F8013B11F801CB48BF11F8012B81
:1006400024BF00F8013B00F801CB48BF00F8012BA4
:10065000704702F0FF0343EA032242EA024200F03D
:1006600002B84FF000020429C0F0128010F0030C11
:1006700000F01B80CCF1040CBCF1020F18BF00F895
:10068000012BA8BF20F8022BA1EB0C0100F00DB844
:100690005FEAC17C24BF00F8012B00F8012B48BFA2
:1006A00000F8012B70474FF0000200B51346944646
:1006B0009646203922BFA0E80C50A0E80C50B1F1BA
:1006C0002001BFF4F7AF090728BFA0E80C5048BFCE
:1006D0000CC05DF804EB890028BF40F8042B08BF6C
:1006E000704748BF20F8022B11F0804F18BF00F868
:1006F000012B7047704770477047704753EA020CF0
:1007000000F069802DE9F04B4FF00006002B1FBF71
:10071000B3FA83F503FA05F424FA05F65E4012BF36
:100720001643B2FA82F502FA05F4C5F120051EBFA0
:1007300022FA05FC44EA0C04203556EA044C4FEA40
:10074000144418BF641C4FF000084FF00009904299
:1007500071EB030C39D3002919BFB1FA81F701FA03
:1007600007F6B0FA80F700FA07F6C7F120071EBFB8
:1007700020FA07FC46EA0C062037B6FBF4FCA7EB90
:100780000507103F07F01F0BCBF120060CFA0BFBFF
:100790002CFA06F644BFB3460026202FA4BF5E46BF
:1007A0004FF0000B5BEA060C08BF4FF0010B19EB92
:1007B0000B09ABFB027C48EB0608C01B06FB02CC16
:1007C0000BFB03CC71EB0C01C1E70B460246414623
:1007D0004846BDE8F08B13B54FF000004FF0000124
:1007E000AFF30080BDE81C40704710B500F0E4FA9C
:1007F000006810BD10B5044600F0DEFA046010BDBC
:100800002DE9F0470D4699469246044600F124082A
:100810000168880604D5E06921F01001216000E03C
:100820000120A84201DD471B00E00027A1697A19D9
:1008300002EB0900081AA0612078C00602D4204605
:10084000AFF30080002608E0D4E901211AF8060081
:100850009047206A401C761C20624E45F4DB2078CD
:10086000C0060AD52046AFF3008006E0D4E9012196
:1008700030209047206A401C2062381EA7F10107F3
:10088000F4DC07E0D4E9012118F805009047206A5C
:10089000401C2062281EA5F10105F3DC2046AFF3C1
:1008A00000802078000602D50220BDE8F0870120F4
:1008B000FBE770472DE9FF4F0C461E464FF0FF3710
:1008C0008BB0D2E90001DDF860800A908A46C1F35E
:1008D0000A5505B93D46002108464FF00000BAF11F
:1008E000000F00F4400005DA00EB80004FF44001F7
:1008F00001EA50004FEA9059B9F1010F00DDB94605
:100900000A9850EA4A000ED044F61050A5F2FF357E
:1009100045432F14B8F1000F1ED07542291E1EDD6D
:10092000C9F100021CE0B8F1010F4FF0000001D046
:10093000302103E0F24305E02154401CB042FBDBD0
:1009400030460022002121540B99C1F80880C1E9EA
:1009500000200FB0BDE8F08FBD1B6D1CDEE74A46DE
:1009600000DA694206A800F0B1FA06AB93E8070086
:1009700003AB83E8070050460A9900F089FB8DE835
:100980000700A0F500501F3800900398002D09DDE6
:1009900042F21F014A46084403A90390684600F04A
:1009A000E8FD08E0A0F500504A461F3803A903906F
:1009B000684600F0F2FD8DE807000004000C03D04B
:1009C0004FF0FF30410800E01046B8F1000F03D0AF
:1009D0000022009215461EE0751E05D400F0F0F9C5
:1009E000303262556D1EF9D5B3460122084302D05C
:1009F00000227F1C04E02078302801D100227F1ED5
:100A0000002A099786D01DE0112D07DA00F0D8F9E9
:100A1000303262556D1C50EA0102F5D1084302D014
:100A20000098C8B10EE00021681E05E0235C625CFE
:100A300063542254401E491C8142F7DBAB46A81B7D
:100A4000401E0990002004F80B000B98099AC0F88A
:100A50000880C0E9002B7CE711264FF0000859E719
:100A60002DE9F04F88460446D21D22F0070191B0CF
:100A7000D1E90001CDE90A0103F082FD02460B989D
:100A8000C00F01D02D2007E02068810701D52B2061
:100A900002E0202101EAC000032A099001D0072AC0
:100AA00005DB03464146204600F0D0F90BE12078F3
:100AB000800601D5E06900E00620B8F1650F8146A7
:100AC00006D0B8F1660F18D0B8F1670F70D131E0D9
:100AD0000020B9F1110F009001DB112301E009F1B1
:100AE00001030AAA01A90CA8FFF7E4FEDDE90C70D6
:100AF000002609F10105834647E001204B4600909E
:100B00004FF000470AAA01A90CA8FFF7D3FEDDE9C0
:100B10000DB00C995D46002610B909F101000D18C1
:100B2000B9EB050003D4C0F1FF3609F10105A5EBCF
:100B300009002BE0B9F1010F01DA4FF001090020A3
:100B4000B9F1110F0090484601DD112300E0034682
:100B50000AAA01A90CA8FFF7ADFEDDE90C704D460D
:100B600000268346207800070AD4AB4500DA5D46AC
:100B700001A8012D04DD411911F8011C302907D00D
:100B80004F4502DA17F1040F04DA012082460FE024
:100B90006D1EEEE7002F02DCED1B3E4403E0781CE7
:100BA000A84200DD7D1CB81B00F1010A4FF0004790
:100BB0002078000703D4AA4501DB4FF0FF3A00215B
:100BC000B7F1004F0DF143088DF8431024D00220F7
:100BD0002B23002F01DA7F422D230A21021EA0F1D0
:100BE000010000DC5FB197FBF1FC97FBF1F201FB28
:100BF0001C7C17460CF1300C08F801CDEEE7A8F18B
:100C0000010003702188090501D5452100E0652117
:100C1000A0F1010800F8011C09980FA9A1EB080731
:100C2000FF1D00B10120411901EBEA70A1693844B0
:100C3000081A401EA0612078C00602D42046AFF3F7
:100C40000080099828B1D4E901219047206A401C0E
:100C500020622078C00622D52046AFF300801EE037
:100C6000002E04DBB34502DD01A8805D00E03020EA
:100C7000D4E901219047206A401C2062761CAAF129
:100C800001005FEA000A0AD100F092F8C06801682A
:100C9000405CD4E901219047206A401C2062281E54
:100CA000A5F10105DCDC07E0D4E9012118F8010B0E
:100CB0009047206A401C2062381EA7F10107F3DC30
:100CC0002046AFF30080032011B043E601694A1CBF
:100CD00002610878704700B58FB0CDE9013100217D
:100CE000059105497944CDE9031011466846FFF79F
:100CF000A3FB0FB000BD0000E5FFFFFF10B5436987
:100D000013B1AFF3008001E0FFF730FB012010BD0D
:100D1000127800F124010A7000224A700122EDE7E6
:100D200011684FF0FF32E9E7074B70B50D467B4481
:100D3000FFF7D1FF0446284600F036F910B14FF016
:100D4000FF3070BD204670BDDF49000010B5203A6D
:100D5000C0F00B80B1E81850203AA0E81850B1E874
:100D60001850A0E81850BFF4F5AF5FEA027C24BF2A
:100D7000B1E81850A0E8185044BF18C918C0BDE821
:100D800010405FEA827C24BF51F8043B40F8043BEA
:100D900008BF7047D20728BF31F8023B48BF11F89F
:100DA000012B28BF20F8023B48BF00F8012B7047F9
:100DB00000487047306D002000487047106D0020DB
:100DC00030B5B0F10A024FEA900E71F100034EEA1D
:100DD000817EB0EB0E0061EB91014FEA101E4EEAEE
:100DE000017E10EB0E0041EB11114FEA102E4EEA7E
:100DF000016E10EB0E0041EB11214FEA104E4EEA4E
:100E0000014E10EB0E0041EB1141401841F1000181
:100E10004FEAD00040EA41704FEAD10110EB800563
:100E20004FEA810444EA907444EB01046D1944EBE9
:100E30000404521BA3414FF0000348BF0A3200D5FF
:100E400030BD401C41F1000130BD00002DE9F041F2
:100E50001F46044603260168072A01F4006004DBEC
:100E600008B116A505E016A503E008B115A500E038
:100E700015A521F010002060A069C01EA0610FB16F
:100E8000401EA0612046AFF300804FB1D4E901219C
:100E900038469047206A401C2062C01C206206E051
:100EA000206AFAE7D4E9012115F8010B9047761E74
:100EB000F8D22046AFF30080BDE8F0814E414E00ED
:100EC0006E616E00494E4600696E66002DE9F0477E
:100ED000814616468AB0334878440DC88DE80D0027
:100EE00030487844801C03AC0DC884E80D0041F6FE
:100EF0009B300844372190FBF1F290FBF1F5A5F10E
:100F0000800501FB12041B3C02D56442012000E075
:100F10000020DFF890A080460027FA44AAF1BE0A1C
:100F20000DE0E00709D03246684607EB47010AEBBF
:100F3000810100F032FB8DE8070064107F1C002C5B
:100F4000EFD1184F7F44AC3F18E0E80714D007EB0F
:100F500004100DF1180A90E80E008AE80E00C0682F
:100F6000F04201D198190890324606A903A800F072
:100F700014FB03AB83E807006D10641C002DE4D163
:100F800032466946B8F1000F03A802D000F0F1FA2A
:100F900001E000F002FBC9E90001C9F808200AB02D
:100FA000BDE8F08788A50000007B00F08000704756
:100FB00000487047106D00207546FFF7F9FFAE46F8
:100FC00005006946534620F00700854618B020B555
:100FD000FFF788F9BDE820404FF000064FF000070A
:100FE0004FF000084FF0000B21F00701AC46ACE8D1
:100FF000C009ACE8C009ACE8C009ACE8C0098D463E
:1010000070470446AFF300802046FFF70BF900005D
:101010004FF0013C50F8042B51F8043B9A4221D187
:10102000A2EB0C03934313EACC1317D150F8042B13
:1010300051F8043B9A4215D1A2EB0C03934313EAF7
:10104000CC130BD150F8042B51F8043B9A4209D130
:10105000A2EB0C03934313EACC13DBD04FF0000058
:10106000704700BFD01A01BAB1FA81F101F018013E
:1010700022FA01F0CB40C1F12001DBB2C0B2C01AAC
:101080002CFA01F3D11A914311EAC311E6D170474A
:101090005FEA400C08BF91F0000F4FEA8C234FEA43
:1010A000C12243EA51514FEA1C5018BF00F5F040ED
:1010B0004FEA300018BF41F000415FEA6C5C00F07D
:1010C0002980BCF1FF3F08BF40F080407047130CFF
:1010D00006BF12044FF0100C4FF0000C130E04BFAB
:1010E00012020CF1080C130F04BF12010CF1040CD6
:1010F000930F04BF92000CF1020CD30F04BF5200F7
:101100000CF1010C11464FF00002A0F11F00A0EB02
:101110000C00704711F0004F08BF704731F00041DC
:101120003FF4D5AF0B0C06BF09044FF0100C4FF085
:10113000000C0B0E04BF09020CF1080C0B0F04BFCE
:1011400009010CF1040C8B0F04BF89000CF1020C97
:10115000CB0F04BF49000CF1010CCCF12003A0EB34
:101160000C0022FA03F302FA0CF241EA030100F147
:101170000100704720F07F4C80EA030023F07F4796
:10118000ACEB070303F57C5300F0004003F1FF03D1
:101190002DE980494FEA154B09B44FEA144325EA7B
:1011A0000B4E24EA03480FF2042606EB13274908E6
:1011B0003E785FEA320203FB0667C7F5000707FBCC
:1011C00006F64FEA54374FEAD64606F1020607FB09
:1011D000066CCCF1005C4FEA1C472CEA074C07FB7D
:1011E00006F40CFB06F504EB15464FEA961634BFE1
:1011F00000204FF000404FEAD13706FB07FC4FEAD2
:101200001C4C0CFB0BF7D21B03FB0CF761EB07012B
:101210000CFB0EF7B0EB074072EB17420CFB08F724
:1012200034BFA2EB0742B2EB074261EB17414FEA32
:101230000C444FEA910706FB07FC4FEA1C4C0CFBE1
:101240000BF7B0EBC74072EB573203FB0CF734BF20
:10125000A2EBC742B2EBC74261EB57310CFB0EF772
:10126000B0EBC70072EB57720CFB08F734BFA2EB70
:10127000C702B2EBC70261EB5771039F4FEA81616E
:1012800041EA921104EBCC044FEAD1374FEA826273
:1012900006FB07FC42EA90124FEA80604FEA1C4CC2
:1012A0000CFB0BF7D21B03FB0CF761EB07010CFBEC
:1012B0000EF7B0EB074072EB17420CFB08F734BF98
:1012C000A2EB0742B2EB074261EB17414FEA8C55A4
:1012D0004FEA910704EB9C2406FB07FC4FEA1C4CE9
:1012E0000CFB0BF7B0EBC74072EB573203FB0CF76C
:1012F00034BFA2EBC742B2EBC74261EB57310CFBE4
:101300000EF7B0EBC70072EB57720CFB08F734BF57
:10131000A2EBC702B2EBC70261EB577115EB4C258C
:101320004FEA816141EA92114FEA82624FEAD13776
:1013300042EA901206FB07FC44F100044FEA806089
:101340004FEA1C4C0CFB0BF7D21B03FB0CF761EBB9
:1013500007010CFB0EF7B0EB074072EB17420CFBDA
:1013600008F734BFA2EB0742B2EB074261EB17412B
:1013700015EB1C154FEA813141EA92414FEA823266
:1013800042EA90424FEA80304FEA0C7644F1000482
:1013900048EA03434EEA0B484FF0000EB2EB080C4C
:1013A00071EB030724BF624639464EEB0E0E4FF039
:1013B000000B0018524149414BEB0B0BB2EB080CF0
:1013C00071EB03077BF1000B24BF624639464EEBFD
:1013D0000E0E4FF0000B0018524149414BEB0B0B26
:1013E000B2EB080C71EB03077BF1000B24BF6246E4
:1013F00039464EEB0E0E51EA020718BF46F00106C1
:1014000016EB0E7655F1000254F1000103D5BDE84C
:101410008901BDE80088BDE88901BDE80048B6192A
:10142000524141EB0101A3F10103704780807F7EAF
:101430007D7C7B7A7978777676757473727171704A
:101440006F6E6E6D6C6C6B6A6A69686867666665FC
:101450006464636362616160605F5F5E5E5D5D5C8A
:101460005C5B5B5A5A5959585857575656555555FB
:101470005454535352525251515050504F4F4F4E5B
:101480004E4D4D4D4C4C4C4B4B4B4A4A4A494949A9
:1014900048484847474747464646454545444444EB
:1014A000444343434342424242414141002B26D4FC
:1014B000770021D01CB54FEA370703B44FF0100076
:1014C0004FF010014FF000000FBCBDE810400BF1D1
:1014D000010BBBF1010F08BF5FEA170722BF12F132
:1014E000010211F101014FF0004143F1000300F04E
:1014F000004043EA00007047F9D35708DAE746EAAC
:10150000064613F1400F4FEA16461FDD13F1200F78
:10151000DFBF16430A46002120335B42C8D0C3F127
:10152000200746EA064602FA07F74FEA164646EA59
:101530000706C3F1200722FA03F201FA07F721FA9E
:1015400003F14FF0000342EA0702B1E746EA020660
:1015500046EA06464FEA164646EA0106BCBF46EA98
:101560000646360C4FF000034FF000024FF000012A
:101570009EE72DE9C048934630B491E8380007C88B
:1015800031EA400C48BF34EA430C03D5FFF7F2FDC3
:10159000FFF78CFFF0BCBDE800882DE9C0489346FA
:1015A00030B491E8380007C810F0804F08BF13F03E
:1015B000804F03D100F005F8FFF778FFF0BCBDE8DD
:1015C000008820F07F4780EA030023F07F4C07EB80
:1015D0000C03A3F57C5300F00040A3F1FE0392F04E
:1015E000000F00F0B38095F0000F00F077802DE938
:1015F00001494FEA11404FEA144621EA004800FB36
:1016000006FC24EA064708FB06F607FB08F800FB81
:1016100007F718EB06484CEB164C4FEA124B18EB49
:1016200007484FEA15464CEB174022EA0B4E0BFBDE
:1016300006FC25EA06470EFB06F607FB0EFE0BFB33
:1016400007F71EEB064E4CEB164C4FF000061EEB58
:10165000074E4CEB174B18EB0B0840F1000018EB52
:101660000E0B58EB000840F100008F1A4FF00001FC
:101670003CBFC943661B14BFB5EB040C00213CBF43
:10168000C943F61B4FEA17444EEA8E0E27EA04457B
:101690004FEA1C4704FB07622CEA074C05FB07F7DF
:1016A0000CFB05F604FB0CFC16EB074642EB17425D
:1016B00016EB0C4642EB1C421BEB060658EB0202F3
:1016C000414146EA9E0601D5BDE80189B61952415D
:1016D00041EB0101A3F10103BDE801894FEA144583
:1016E0004FEA114724EA054621EA074C05FB07F4B7
:1016F00006FB07F70CFB06F105FB0CFC11EB0741A1
:1017000044EB17444FEA124711EB0C4144EB1C44E5
:1017100022EA074C05FB07F206FB07F70CFB06F66F
:1017200005FB0CFC16EB074642EB174216EB0C468A
:1017300042EB1C456A1854F1000148BF7047B619C6
:10174000524141EB0101A3F10103704795F0000FF5
:1017500037D04FEA11424FEA144721EA024624EA01
:10176000074C02FB07F106FB07F70CFB06F402FB34
:101770000CFC14EB074441EB17414FEA154714EBFF
:101780000C4441EB1C4125EA074C02FB07F506FB24
:1017900007F70CFB06F602FB0CFC16EB074645EBC5
:1017A000174516EB0C4645EB1C42121951F100018E
:1017B00048BF7047B619524141EB0101A3F1010343
:1017C00070474FEA14454FEA114724EA054621EADB
:1017D000074C05FB07F106FB07F70CFB06F24FF081
:1017E000000605FB0CFC12EB074241EB174112EB24
:1017F0000C4251EB1C4148BF7047921841EB01016C
:10180000A3F101037047000010B540F2A954002174
:10181000204601F0BDFD0021204601F05BFD4FF4A4
:10182000E134204606F01CFA00F0E2FE012801D067
:1018300009A000E00CA0FEF78DFD04F0F7FC00F01D
:1018400045FC01F009F800F097FB204606F0EEFE9B
:10185000BDE8104006F0FFB9494D55B3F5CABCBB11
:10186000AFB3C9B9A6000000494D55B3F5CABCBB1A
:10187000AFCAA7B0DC000000FEE7000070B5084D5D
:10188000FF22134605F5807605E010F8014B544021
:101890002A5D5A40335D491EF7D243EA022070BDEB
:1018A000E6B00008F0B5084EFF231C4606F5807729
:1018B00005E010F8015B5D40735D63407C5D491E8F
:1018C000F7D213705470F0BDE6B000084FF6FF7207
:1018D00002EA0020084480B27047000010B50C4CAA
:1018E0004FF4001000F036F84FF4000000F032F82A
:1018F0000021204600F03AF8A11561600548FEF786
:10190000B0FE2046BDE81040012100F02FB80000D5
:101910006C000240A403002010B54FF0007000F0EE
:1019200019F84FF0006000F015F8BDE810400021F4
:10193000014800F01BB8000080000240C10002D541
:101940000249086070470249486070470404024039
:1019500000000240C10002D50249086070470249F8
:1019600048607047040402400000024000290168FA
:1019700002D041F0010102E04FF6FE721140016019
:101980007047000001684FF6FE72114001600021AF
:10199000016041608160C1603149314A083990423B
:1019A00003D1486840F00F0006E02D4A14329042FF
:1019B00004D1486840F0F00048607047284A283257
:1019C000904203D1486840F47060F5E7244A3C3205
:1019D000904203D1486840F47040EDE7204A50320D
:1019E000904203D1486840F47020E5E71C4A643215
:1019F000904203D1486840F47000DDE7184A78321D
:101A0000904203D1486840F07060D5E7154A111F35
:101A1000904203D1086840F00F0006E0114A1432EA
:101A2000904204D1086840F0F000086070470D4A09
:101A30002832904203D1086840F47060F5E7094A03
:101A40003C32904203D1086840F47040EDE7054A0B
:101A500050329042EAD1086840F47020E5E7000077
:101A60000800024008040240406880B27047002A23
:101A7000026801D00A4300E08A430260704730B533
:101A8000026847F6F0739A430C6A8B682343D1E9E6
:101A900004452C4323438C692343CC6923434C6A7C
:101AA00023438C6A234313430360CA6842600A6875
:101AB00082604968C16030BD416070472DE9F041E6
:101AC00001218CB0084601F0FDF9DFF8A480404602
:101AD000FFF758FF2848274ECDE90060002410206A
:101AE00007010794CDE902078025CDE904450002EE
:101AF000CDE908400694694640460A94FFF7BFFFC7
:101B0000012202214046FFF7B2FF01220821404690
:101B1000FFF7ADFF01214046FFF728FF00214046B7
:101B2000FFF724FFDFF84880A8F114084046FFF7CC
:101B300029FF124801A9009681E89100CDE90445EA
:101B4000A801CDE9084006940794694640460A94E6
:101B5000FFF795FF012202214046FFF788FF01228F
:101B600008214046FFF783FF0CB0BDE8F08100007C
:101B70008000024004440040A4020020A40300208E
:101B800070472DE9F04305464078002787B090461E
:101B90000C460F2803D00F7007B0BDE8F083012674
:101BA00026700F212846FFF769FE8146297CE87BD5
:101BB000FFF78CFE81457ED1667028780828EBD22D
:101BC000DFE800F0040519234D040467E4E7A6707C
:101BD0004146284600F077F8E070E878012802D006
:101BE000022805D102E04FF0010801E04FF00208A1
:101BF00084F80480D0E70220A0704146284600F017
:101C000062F8E070E8782071C6E70320A0704146D2
:101C1000284600F058F8E070A878694630B10128ED
:101C200004D0022802D0032814D10CE0E8788DF803
:101C3000000028798DF8010068798DF80200A879F4
:101C40008DF8030006E000202A18D2780A54401CC0
:101C50000728F9DDE078424606F079F89CE7042091
:101C6000A0704146284600F02EF8E070AA7803A93B
:101C700000201AB1012A01D0022A05D12A18D278EF
:101C80000A54401C0B28F9DDE078424606F038F88B
:101C900082E70720A0704146284600F014F8E07063
:101CA00006AA6946284600F020F89DF81800207121
:101CB0009DF8190000E004E06071E0784246694652
:101CC000CAE7677068E7827852B1012A04D0022A15
:101CD00004D0032A07D105E0012104E0022102E03B
:101CE000002100E003210846704710B583788BB1CE
:101CF000012B0FD0022B0DD0032B0AD10023C418C7
:101D0000E478CC545B1C072BF9DDC17A1170007BA1
:101D1000507010BDC3780B7003794B7043798B7092
:101D20008379CB70C079107010BD000070B586B09B
:101D3000234900912349214801912349CDE902100B
:101D4000224C4FF080454FF07E5680E870002048CE
:101D50000223002203A9006806F016FE0098022361
:101D6000002280E870001B486946006806F00CFEFF
:101D70000024194804940223224604A9006806F0AE
:101D800003FE164805940223002205A9006806F008
:101D9000FBFD0198022300220460029801A904605F
:101DA0000F48006806F0F0FD0E480223002202A949
:101DB000006806F0E9FD06B070BD00008801002053
:101DC00094010020880000208C0000200000B04119
:101DD000240000202800002014000020180000200B
:101DE0001C00002020000020F0B50F46054689B0F9
:101DF00016460121082001F071F80121042001F0AC
:101E000079F80320ADF81C0004218DF81F108DF81F
:101E10001E0007A9244800F0C0F8684601F0F8FD4C
:101E20000024ADF80450214DADF80040ADF8064057
:101E3000ADF802406946284601F09CFD33463A461B
:101E40000321284601F002FC03A801F0BDFC092093
:101E5000ADF8140003A9284601F020FC0021284613
:101E600001F05EFD0121284601F0E0FB32208DF8F3
:101E700018000E208DF819008DF81A4001208DF8F9
:101E80001B0006A800F004FD0121284601F0D4FB48
:101E90000021284601F044FD01221146284601F0A8
:101EA0009BFC09B0F0BD000000080140000C0040A0
:101EB000F0B50F46054689B016460121042001F011
:101EC0000DF80121082001F015F8C020ADF81C0024
:101ED00004208DF81F0003208DF81E0007A9244858
:101EE00000F05BF8684601F093FD0024ADF8045063
:101EF000204DADF80040ADF80640ADF8024069460F
:101F0000284601F037FD33463A460321284601F0C2
:101F10009DFB03A801F058FC0820ADF8140003A9AC
:101F2000284601F0BBFB0021284601F0F9FC012105
:101F3000284601F07BFB1E208DF818000E208DF83E
:101F400019008DF81A4001208DF81B0006A800F03A
:101F50009FFC0121284601F06FFB0021284601F07B
:101F6000DFFC01221146284601F036FC09B0F0BD25
:101F7000000C01400008004070B50A2425464FF6C9
:101F8000FF762A4621463046FFF72EFF2A46214695
:101F90003046BDE87040FFF78BBFF0B5CC7800222B
:101FA00004F00F03E40601D58C7823430C784FF03E
:101FB0000F0C14F0FF0F4FF0010E1BD005680E88B8
:101FC0000EFA02F42640A64210D196000CFA06F74B
:101FD00025EA070703FA06F5CE783D43282E02D0FE
:101FE000482E02D002E0446100E00461521C082A3D
:101FF000E5D305600A88FF2A1CD94468002202F153
:1020000008060EFA06F50E882E40AE420ED1960056
:102010000CFA06F7BC4303FA06F7CE783C43282EA9
:1020200000D14561CE78482E00D10561521C082AA6
:10203000E5D34460F0BD0000F0B5144C002801DA8F
:10204000E36900E06368450D2E0185B2C0F30157D6
:10205000B540C0F30342032F05D0C6020AD50326BC
:102060009640B34307E023F07062636823F0706327
:10207000636002E0AB4343F0706201B12A43002881
:1020800001DAE261F0BD6260F0BD000000000140D5
:10209000016170474FF6FF710180022181700421B8
:1020A000C1707047FEE700000026074C4FF4FA7538
:1020B0000127C4F89461284606F060F8C4F89471CA
:1020C000284606F05BF8F4E70000234238B501210A
:1020D000402000F00FFF10208DF8030003208DF842
:1020E00002002020054CADF8000069462046FFF7AD
:1020F00054FF20212046FFF7CBFF38BD00180140D8
:102100008AB000F023F9044602AA01A9684600F04B
:10211000EBF805AA04A903A800F0FFF8204605F093
:1021200095FD0746BDF9000003F0FEFA8146BDF9B2
:10213000040003F0F9FA8046BDF9080003F0F4FA50
:102140000646BDF90C0003F003FB0546BDF910007F
:1021500003F0FEFA0446BDF9140003F0F9FA8246D2
:10216000384607F0FDFD02460B462CA0FEF7F2F8BC
:10217000484607F0F5FD02460B462CA0FEF7EAF8AC
:10218000404607F0EDFD02460B462DA0FEF7E2F8B3
:10219000304607F0E5FD02460B462EA0FEF7DAF8C2
:1021A000284607F0DDFD02460B462FA0FEF7D2F8C9
:1021B000204607F0D5FD02460B4630A0FEF7CAF8D0
:1021C000504607F0CDFD02460B4631A0FEF7C2F89F
:1021D00008AA07A906A803F05BFF30B131A0FEF7FB
:1021E000B9F8322005F0CAFF8BE7069807F0B8FD72
:1021F00002460B462EA0FEF7ADF8079807F0B0FD9B
:1022000002460B462FA0FEF7A5F8089807F0A8FD98
:1022100002460B4630A0FEF79DF8E2E74D5055CE42
:10222000C2B6C8CEAA3A25660D0A0000BCD3CBD9E7
:10223000B6C8CEAA3A616363783D25660D0A0000F0
:10224000BCD3CBD9B6C8CEAA3A616363793D2566C3
:102250000D0A0000BCD3CBD9B6C8CEAA3A616363DD
:102260007A3D25660D0A0000CDD3C2DDD2C7CEAAC5
:102270003A6779726F783D25660D0A00CDD3C2DDCD
:10228000D2C7CEAA3A6779726F793D25660D0A00EA
:10229000CDD3C2DDD2C7CEAA3A6779726F7A3D2517
:1022A000660D0A00444D50BBF1C8A1CAA7B0DC00BE
:1022B0007069746368BDC73A70697463683D256668
:1022C0000D0A0000726F6C6CBDC73A726F6C6C3D8A
:1022D00025660D0A00000000796177BDC73A796173
:1022E000773D25660D0A00007CB514460D4606466E
:1022F0006B4606223B21682000F0F7F900280BD13D
:10230000BDF8001049BA3180BDF8021049BA2980E1
:10231000BDF8041049BA21807CBD7CB514460D4639
:1023200006466B4606224321682000F0DEF90028AD
:102330000BD1BDF8001049BA3180BDF8021049BA7E
:102340002980BDF8041049BA21807CBD08B56B46D0
:1023500002224121682000F0C8F9BDF8000040BA0F
:1023600000B207F00BFA0022074B07F0AFF8074A5C
:10237000074B06F0FBFF06F0C7FF064907F0AEFE6D
:1023800007F044FE00B208BD00407540A4703D0A4D
:10239000D74342400000C84270B50D4C0025C4F838
:1023A000B8510C48416821F470014160416841F422
:1023B00040114160C4F8B451022004F5DA7402F00F
:1023C000E9FC01206060022002F0E4FC656070BD61
:1023D000000024420020014038B50121080200F02D
:1023E00089FD4FF4C044ADF8004010208DF8030083
:1023F0000320064D8DF8020069462846FFF7CDFD03
:1024000021462846FFF744FE38BD00000020014069
:1024100070B50D4C0026C4F8B8610C48416821F431
:1024200070014160416841F4401141600125C4F8E8
:10243000B451022004F5DA7402F0ACFC65600220AD
:1024400002F0A8FC666070BD00002442002001403C
:102450002DE9F047814617480024416821F47001B6
:102460004160416841F400014160134E2546274612
:102470004FF00108C6F8B871022002F08BFCC6F8D4
:10248000B8816006040ED6F8340108B1641CE4B2C9
:10249000022002F07FFC6D1CEDB2082DEAD3B9F1E9
:1024A000000F04D0FFF778FF2046BDE8F087FFF764
:1024B000AFFFF9E700200140000024422DE9F04180
:1024C00005461248416821F470014160416841F4B9
:1024D000401141600E4E0027C6F8B8713C464FF0DF
:1024E0000108E809C6F8B4016806050EC6F8B88107
:1024F000022002F04FFCC6F8B871022002F04AFC3C
:10250000641CE4B2082CECD3BDE8F081002001404B
:102510000000244270B50D48416821F4700141600B
:10252000416841F440114160094C0120C4F8B401F4
:10253000C4F8B801022004F5DA7402F02BFC00257F
:102540002560022002F026FC656070BD002001407D
:10255000000024420E4810B5416821F4700141602A
:10256000416841F4401141600A4C0020C4F8B801B0
:10257000C4F8B401022004F5DA7402F00BFC012067
:1025800060602060BDE81040022002F003BC000043
:10259000002001400000244270B513480024416827
:1025A00021F470014160416841F4000141600F4D28
:1025B0000126C5F8B461022002F0ECFBC5F8B86151
:1025C000022002F0E7FB07E0641CE4B2FA2C03D916
:1025D000FFF7C0FF012070BDD5F834010028F3D10A
:1025E000C5F8B80170BD0000002001400000244281
:1025F00008B50121084600F07DFC0121042000F00F
:1026000079FC4FF40040ADF8000010208DF8030075
:1026100003208DF8020069462248FFF7BEFC012125
:102620002148FFF709FD21490020C1F8BC01FFF74F
:10263000D3FE80216B2000F0C6F8642002F08EFBF0
:1026400000216B2000F0BFF8032000F088F8002084
:1026500000F080F8322000F09FF80021382000F0D0
:10266000B2F800216A2000F0AEF80021232000F02B
:10267000AAF88021372000F0A6F8752000F018F89D
:10268000682801D0012008BD01216B2000F09BF8D3
:1026900000216C2000F097F8322000F07DF8002037
:1026A00008BD000000080140000230000000214287
:1026B00010B50446FFF72EFFD020FFF7FFFEFFF70F
:1026C0006BFF2046FFF7FAFEFFF766FFFFF722FFDA
:1026D000D120FFF7F3FEFFF75FFF0020FFF7B8FE02
:1026E0000446FFF737FF204610BD2DE9F0411C4698
:1026F00015460F460646FFF70DFF7006000EFFF762
:10270000DDFEFFF749FF20B1FFF724FF0120BDE800
:10271000F0813846FFF7D2FEFFF73EFFFFF7FAFEE3
:10272000012000EB4600C0B2FFF7C8FEFFF734FF00
:1027300008E0012D0CD00120FFF78AFE6D1E04F881
:10274000010BEDB2002DF4D1FFF704FF0020DEE70E
:102750000020F1E7C006010E1C2000F034B8C006CE
:10276000010E1B2000F02FB8BC2801D3012110E07E
:10277000622801D302210CE02A2801D3032108E0BA
:10278000142801D3042104E00A2801D3052100E024
:1027900006211A2000F017B810B504464FF47A70DD
:1027A000844201D9044602E0042C00D20424B0FB88
:1027B000F4F0401EC1B2192000F005F86008BDE831
:1027C0001040FFF7D1BF70B50C460546FFF7A2FEDB
:1027D000D020FFF773FEFFF7DFFE50B92846FFF762
:1027E0006DFEFFF7D9FE2046FFF768FEFFF7D4FE27
:1027F00018B1FFF7AFFE012070BDFFF7ABFE002060
:1028000070BD2DE9F0411D4616460C460746FFF700
:1028100081FE7806000EFFF751FEFFF7BDFE60B99E
:102820002046FFF74BFEFFF7B7FE00240CE0285DC3
:10283000FFF744FEFFF7B0FE20B1FFF78BFE01204B
:10284000BDE8F081641CE4B2B442F0D3FFF782FE2D
:102850000020F5E7FEE7000038B50121102000F068
:1028600049FB0F20ADF8000010208DF80300032075
:10287000054C8DF8020069462046FFF78EFB0F21BC
:102880002046FFF705FC38BD0010014070470000EE
:1028900030B50F23C27801780125F2B1144A1268CD
:1028A00001F1E02102F4E062C2F5E062120AC2F135
:1028B0000404D3404278A24084781C40144322018F
:1028C00081F80024007800F01F018D40400980004D
:1028D00000F1E020C0F8005130BD01F01F0085403C
:1028E0004809800000F1E020C0F8805130BD0000B0
:1028F0000CED00E0024908430249086070470000FF
:102900000000FA050CED00E0F8B526208DF8000077
:1029100001248DF803400D208DF8010000258DF86D
:1029200002506846FFF7B4FF11208DF800000E2614
:102930008DF801608DF802508DF803406846FFF76E
:10294000A7FF10208DF800008DF801608DF802506F
:102950008DF803406846FFF79BFF012240210448A1
:1029600001F022F901210348FFF700F8F8BD00004B
:10297000004400406C00024010B500F02FF8032224
:102980000021012005F0AEFE0F490322086000215E
:10299000012005F0A7FE0D49032208600021012057
:1029A00005F0A0FE0A49032208600021012005F07D
:1029B00099FE0849032208600021012005F092FEDB
:1029C0000549086010BD00003400002038000020D8
:1029D0003C000020400000204400002010B50022F0
:1029E0000421012005F07EFE5849002808607DD0B2
:1029F00057A0FDF7AFFC00220421012005F072FE74
:102A00005C490028086072D05BA0FDF7A3FC00229F
:102A10000421012005F066FE60490028086067D0A7
:102A20005FA0FDF797FC00220421012005F05AFE6B
:102A300064490028086078D063A0FDF78BFC002271
:102A40000421012005F04EFE6849002808606ED080
:102A500067A0FDF77FFC00220421012005F042FE63
:102A60006C490028086064D06BA0FDF773FC00225D
:102A70000421012005F036FE7249002808605AD072
:102A800071A0FDF767FC00220421012005F02AFE59
:102A90007849086078A0FDF75DFC00220421012040
:102AA00005F020FE7E4908607EA0FDF753FC002261
:102AB0000421012005F016FE8449002808603CD05E
:102AC00083A0FDF747FC00220421012005F00AFE47
:102AD0008A490028086032D07DA0FDF73BFC002227
:102AE0000421012005F0FEFD854902E015E018E013
:102AF00019E00860002824D082A0FDF72BFC0022FA
:102B00000421012005F0EEFD8949002808601AD053
:102B10007CA0BDE81040FDF71DBC86A069E704E07D
:102B200005E08DA071E795A07BE79DA085E7A5A0B6
:102B30008FE7ADA099E7B7A0A3E7C1A0C1E7CBA0FD
:102B4000CBE7D5A0D9E7D4A0E3E700000000002040
:102B50005B5741524E5DB5E7BBFA31B7BDCFF2CFFF
:102B6000FBCFA2B6D3C1D0B4B4BDA8B3C9B9A60D2A
:102B70000A000000040000205B5741524E5DB5E79B
:102B8000BBFA3150574DCFFBCFA2B6D3C1D0B4B4AE
:102B9000BDA8B3C9B9A60D0A0000000008000020B6
:102BA0005B5741524E5DB5E7BBFA32B7BDCFF2CFAE
:102BB000FBCFA2B6D3C1D0B4B4BDA8B3C9B9A60DDA
:102BC0000A0000000C0000205B5741524E5DB5E743
:102BD000BBFA3250574DCFFBCFA2B6D3C1D0B4B45D
:102BE000BDA8B3C9B9A60D0A00000000100000205E
:102BF0005B5741524E5D57494649BDD3CAD5CFFBBD
:102C0000CFA2B6D3C1D0B4B4BDA8B3C9B9A60D0A7A
:102C100000000000140000205B5741524E5D456EDD
:102C2000636F646572315FD2E7B3F6BCC6CAFDCF8D
:102C3000FBCFA2B6D3C1D0B4B4BDA8B3C9B9A60D59
:102C40000A000000180000205B5741524E5D456E9F
:102C5000636F646572325FD2E7B3F6BCC6CAFDCF5C
:102C6000FBCFA2B6D3C1D0B4B4BDA8B3C9B9A60D29
:102C70000A0000001C0000205B5741524E5D456E6B
:102C8000636F646572315F537461747573CFFBCF8A
:102C9000A2B6D3C1D0B4B4BDA8B3C9B9A60D0A00B9
:102CA000200000205B5741524E5D456E636F6465A6
:102CB00072325F537461747573CFFBCFA2B6D3C108
:102CC000D0B4B4BDA8B3C9B9A60D0A002400002031
:102CD0005B5741524E5D4D6F746F72315F50494486
:102CE0005F506172616D65746572B6D3C1D0B4B462
:102CF000BDA8B3C9B9A60D0A000000002800002035
:102D00002C0000205B5741524E5D4374726C5F5043
:102D10006172616D657465725F5175657565B6D375
:102D2000C1D0B4B4BDA8B3C9B9A60D0A0000000053
:102D3000300000205B5741524E5DB5E7BBFA31B71A
:102D4000BDCFF2CFFBCFA2B6D3C1D0B4B4BDA8CA19
:102D5000A7B0DC0D0A0000005B5741524E5DB5E79D
:102D6000BBFA3150574DCFFBCFA2B6D3C1D0B4B4CC
:102D7000BDA8CAA7B0DC0D0A000000005B57415295
:102D80004E5DB5E7BBFA32B7BDCFF2CFFBCFA2B6EF
:102D9000D3C1D0B4B4BDA8CAA7B0DC0D0A000000EE
:102DA0005B5741524E5DB5E7BBFA3250574DCFFBF2
:102DB000CFA2B6D3C1D0B4B4BDA8CAA7B0DC0D0AA7
:102DC000000000005B5741524E5D57494649BDD354
:102DD000CAD5CFFBCFA2B6D3C1D0B4B4BDA8CAA7C1
:102DE000B0DC0D0A000000005B5741524E5D456E9D
:102DF000636F646572315FD2E7B3F6BCC6CAFDCFBC
:102E0000FBCFA2B6D3C1D0B4B4BDA8CAA7B0DC0D65
:102E10000A0000005B5741524E5D456E636F64656A
:102E200072325FD2E7B3F6BCC6CAFDCFFBCFA2B603
:102E3000D3C1D0B4B4BDA8CAA7B0DC0D0A0000004D
:102E40005B5741524E5D4D6F746F72315F50494414
:102E50005F506172616D65746572B6D3C1D0B4B4F0
:102E6000BDA8CAA7B0DC0D0A000000005B574152A4
:102E70004E5D4D6F746F72325F5049445F506172A6
:102E8000616D65746572B6D3C1D0B4B4BDA8CAA76C
:102E9000B0DC0D0A000000005B5741524E5D4374E8
:102EA000726C5F506172616D657465725F517565BA
:102EB0007565B6D3C1D0B4B4BDA8CAA7B0DC0D0A3D
:102EC00000000000044A0029516901D0014300E0DC
:102ED000814351617047000000100240044A0029FC
:102EE000D16901D0014300E08143D1617047000006
:102EF00000100240044A0029916901D0014300E01A
:102F000081439161704700000010024030B5204AB3
:102F10005168204B11F00C0103D0042901D008297D
:102F200001D0036012E05168536801F470114FF052
:102F3000020413F4803F04EB914102D053689B03D9
:102F400001D5154B00E0134B5943016051680F2325
:102F500003EA1111114B5C5C0168E1404160546867
:102F6000072505EA14241C5D21FA04F484605468E2
:102F700005EAD4241B5DD940C1605268032303EAEB
:102F80009232064B1B1F9A5CB1FBF2F1016130BD1E
:102F90000010024000127A0000093D0004010020E8
:102FA0007CB5044600294DD100260F202670002A4A
:102FB00062D0012A23D0022A45D0032A42D1607070
:102FC0000320A0706946186802F09AFB00206D4645
:102FD0002218295C401CD1700328F9DD2946586865
:102FE00002F08EFB00202218295C401CD1710328BE
:102FF000F9DD0B202654401C0E28FBDD17E0607025
:103000000120A0706946186802F07AFB9DF8000064
:10301000E0709DF8010020719DF8020060719DF83C
:103020000300A07107202654401C0E28FBDD01AAD6
:103030000F212046FEF736FC9DF80400E0739DF852
:10304000050020747CBD60700220A070694618687D
:1030500002F056FB9DF80000E0709DF80100207121
:103060009DF8020060719DF80300A07107202654AE
:10307000401C0E28FBDDDAE76070A6706946186810
:1030800002F03EFB9DF80000E0709DF80100207109
:103090009DF8020060719DF80300A071072026547E
:1030A000401C0E28FBDDC2E70CB50022264800922A
:1030B0000192016841F4803101604FF4A06301681E
:1030C00001F4003101910099491C0091019911B955
:1030D00000999942F3D10168890333D50121019107
:1030E0001A490A6842F010020A600A6822F00302D4
:1030F0000A600A6842F002020A6041684160416861
:103100004160416841F480614160416821F47C1173
:103110004160416841F4E8114160016841F080710B
:10312000016001688901FCD5416821F0030141601B
:10313000416841F0020141604168C1F38101022907
:10314000FAD10CBD01920CBD0010024000200240DB
:103150004FF0E0210428086903D020F00400086142
:10316000704740F00400FAE710B505F05BFE012857
:1031700003D0BDE8104005F09FBA10BD0F4810B550
:10318000016841F00101016041680D4A1140416050
:1031900001680C4A11400160016821F4802101603E
:1031A000416821F4FE0141604FF41F018160FFF787
:1031B0007BFF05494FF00060086010BD0010024021
:1031C0000000FFF8FFFFF6FE08ED00E070B5048C8C
:1031D00024F001040484058B048C4FF6FF7606EA84
:1031E0000313134325F0F3050E4A2B4390420ED0F0
:1031F0000D4A90420BD0B0F1804F08D00B4A90425C
:1032000005D00B4A904202D00A4A904202D124F0E3
:10321000020201E024F00A020A4342F001010383A2
:10322000018470BD002C01400034014000040040C6
:1032300000080040000C0040F0B5048C24F010049D
:103240000484078B048C4FF6FF7527F4734705EA57
:1032500003333B4305EA02221A43114B05EA0116E8
:1032600098420ED00F4B98420BD0B0F1804F08D04F
:103270000D4B984205D00D4B984202D00C4B984212
:1032800005D124F02001314341F0100104E024F085
:10329000A0030B4343F0100102830184F0BD000042
:1032A000002C0140003401400004004000080040B0
:1032B000000C004010B501218C07204600F0E1F918
:1032C000002805D02046BDE81040012100F0B1B92A
:1032D00010BD000030B50D460446012189B00846F6
:1032E000FFF7FCFD01210520FFF704FE07A8FEF70C
:1032F000D1FE0422ADF81C2018228DF81F200320D7
:103300008DF81E0007A91848FEF747FEADF81440D7
:103310000020ADF81050ADF81600ADF812004FF0D7
:10332000804404A9204600F025FB684600F0EAFA34
:103330007021ADF800100121ADF802100221ADF8A6
:1033400008106946204600F099FA0821204600F04E
:10335000D3FA0121204600F06FF90021204600F049
:10336000DDFA09B030BD00000008014010B5074C7F
:103370000121204600F085F9002805D02046BDE84F
:103380001040012100F055B910BD000000040040BC
:1033900030B50D46044689B001210220FFF79EFD9D
:1033A00001210920FFF7A6FD01211F48FEF744FE79
:1033B00007A8FEF76FFE2022ADF81C2018228DF81A
:1033C0001F2003208DF81E0007A91848FEF7E5FD11
:1033D000ADF814400020ADF81050154CADF81600B3
:1033E000ADF8120004A9204600F0C4FA684600F0C7
:1033F00089FA7021ADF800100121ADF80210022108
:10340000ADF808106946204600F0EEF90821204684
:1034100000F02AFA0121204600F00EF90021204692
:1034200000F07AFA09B030BD00081A00000C014023
:103430000004004038B5114C0121204600F021F96C
:10344000002816D020880E4900090E4DC00711D063
:103450002088C00609D54868401E486008490223F4
:103460006A46091D286805F053FB0121204600F03B
:10347000E0F838BD4868401CEFE700000008004055
:103480009C0000201800002038B5104C0121204677
:1034900000F0F7F8002815D020880D4900090D4DDF
:1034A000C00710D02088C00608D50868401E0860F4
:1034B00002236A460649286805F02AFB01212046B6
:1034C00000F0B7F838BD0868401CF0E7000C004079
:1034D0009C000020140000203EB52F4800902F488B
:1034E0002F4D01900121284600F0CBF8002852D042
:1034F0002C4C211DA06820606069E0602A480068AB
:1035000005F0DAFB294804F11001006805F0D4FB4E
:10351000274800F0B4F86168C1EB01410844A0609D
:10352000244800F0ACF82169C1EB01410844606116
:103530002168A068401A06F0A5FDA16906F0CEFD3D
:10354000009920F000400860E1686069401A06F0C8
:1035500099FDA16906F0C2FD019920F00040022307
:103560000860154802AA6946006805F0D1FA1348B8
:10357000022302AA01A9006805F0CAFA029830B134
:103580000F4928040860BFF34F8FBFF36F8F0121ED
:10359000284600F04EF83EBD880000208C00002038
:1035A00000100040A400002014000020180000209B
:1035B000000C0040000800401C00002020000020FB
:1035C00004ED00E07FB50D46044601211020FFF711
:1035D00085FCADF80440ADF800500024124DADF864
:1035E0000640ADF802406946284600F0C3F90121C3
:1035F000284600F01BF836218DF80C100E208DF8AF
:103600000D008DF80E4001208DF80F0003A8FFF784
:103610003FF901221146284600F0DEF80121284634
:1036200000F00AF87FBD000000100040C94301828D
:103630007047C943018270470029018802D041F0D8
:10364000010101E021F001010180704770B5058999
:10365000048B068C25F007050D434FF6FC410C400A
:1036600040F201110C434FF6FF7101EA031126F0FD
:1036700022061143314305810483018470BD808C8F
:10368000704702460020138A92890B4202EA010227
:1036900002D0002A00D00120704700002DE9F84F29
:1036A0000D4604460888434FDFF80CC1DFF80C8153
:1036B000DFF80C914988AA882B894FF0804A48B3DB
:1036C000042830D04FF6FF760828934634D0208C5B
:1036D0009E4620F480502084A38B208C06EA013281
:1036E000009223F4734306EA0B221A4306EA0E33D0
:1036F0001343BC420AD0644508D0544506D0444523
:1037000004D04C4502D02F4A944245D120F40050B9
:10371000009943E02046FFF759FDE9882046BDE8BF
:10372000F84F00F0FFB82046FFF786FDE9882046F5
:10373000BDE8F84F00F0FEB8208C20F480702084A3
:10374000B4F81CE0208C06EA031306EA01222EF0EE
:10375000F30E43EA0B0343EA0E030092BC420AD085
:10376000644508D0544506D0444504D04C4502D0A9
:10377000144A944203D120F40070009901E020F42F
:103780002060084340F48070A3832084E9882046A9
:10379000BDE8F84F00F0DAB820F40240084340F4E6
:1037A0008050A3832084E9882046BDE8F84F00F0CC
:1037B000D5B80000002C0140003401400004004056
:1037C00000080040000C00400021018041800122DF
:1037D0008280C18001817047002A828901D00A431A
:1037E00000E08A438281704770B5028C22F010029B
:1037F0000284028C8388048B0D8824F4E6464FF6FD
:10380000FF7404EA052535430E8922F0200204EAFC
:10381000061616434A8804EA02123243104EB0429A
:1038200002D0104EB04215D122F080064A8923F40E
:10383000406304EA0212324322F040068A8804EA16
:10384000021232438E8904EA86061E43CB8904EABB
:103850008303334383800583C9880187028470BD55
:10386000002C014000340140028B4FF6FF7322F41C
:10387000006203EA012111430183704770B5028C95
:1038800022F480720284028C8388848B0D8824F059
:10389000730425430E894FF6FF7422F4007204EA84
:1038A000062616434A8804EA02223243104EB042EA
:1038B00002D0104EB04215D122F400664A8923F49A
:1038C000405304EA0222324322F480668A8804EAE2
:1038D000022232438E8904EA06161E43CB8904EA8B
:1038E0000313334383808583C9888187028470BD35
:1038F000002C014000340140828B22F008020A4370
:10390000828370470021018041808180C1800181D4
:1039100041818181C18170470187704781877047EC
:1039200081847047028B22F00C020283028B0A43CF
:1039300002837047028B22F440620283028B4FF6AF
:10394000FF7303EA01210A4302837047828B22F04E
:103950000C028283828B0A4382837047828B22F41B
:1039600040628283828B4FF6FF7303EA01210A4390
:103970008283704730B502881B4C1C4DA0420DD08D
:10398000A8420BD0B0F1804F08D0194B984205D017
:10399000184B984202D0184B984203D122F0700382
:1039A0004A881A43154B984206D0154B984203D0CB
:1039B00022F44073CA881A4302808A8882850A8862
:1039C0000285A0420AD0A84208D00E4A904205D0F3
:1039D0000D4A904202D00D4A904201D1097A0186E7
:1039E0000121818230BD0000002C014000340140E3
:1039F0000004004000080040000C0040001000409F
:103A000000140040004001400044014000480140D3
:103A10004FF6FF71818000210180C18041800172D9
:103A20007047000070B5154C40F22551204600F05B
:103A3000C3F800280ED0204600F04CF9104AC1B25D
:103A40001088030406D444044FF0000306D50A2965
:103A500001D0138070BD40F400400DE00D2909D065
:103A6000C0F30D04074D401C80B229551080C728B3
:103A7000EFD870BD40F48040108070BD0038014028
:103A8000FA000020B40400202DE9FC473948374EE5
:103A9000002100900160364C3046FDF767FF40F290
:103AA00024494946204600F087F8A71590B34FF403
:103AB0007000FDF743FF3046FDF7D6FFC0F580707C
:103AC00005B2681EFF2836D800213046FDF74EFFAC
:103AD000776000983946001DFCF7E5FD00983A46EE
:103AE000254920C0FCF770FD2448022301AA69463D
:103AF000006805F00DF8224801A9006805F078F883
:103B00000198C0B11F49A0040860BFF34F8FBFF3F5
:103B10006F8F10E0FFE74FF45A7841462546204664
:103B200000F04AF838B141462C46284600F02CF8FF
:103B30002088A08801E02088A08800213046FDF779
:103B400015FF394677600C48FCF78BFD01213046A4
:103B5000FDF70CFF40F22661204600F015F84946BB
:103B6000204600F011F8BDE8FC8700006C00024020
:103B700000440040A0010020A40300201000002009
:103B80004400002004ED00E00A0A01219140C943ED
:103B9000018070470029818902D041F4005101E081
:103BA00021F4005181817047002A828A01D00A43A2
:103BB00000E08A438282704770B501F01F0501263C
:103BC0000024C1F3421306FA05F2012B0FD0022B99
:103BD0000FD0838A4FEA11210088134206FA01F6BA
:103BE00000EA060001D000B10124204670BD83899F
:103BF000F0E7038AEEE710B5C1F3421301F01F04AA
:103C00000121A140012B07D0022B07D01430002A3C
:103C1000026805D00A4304E00C30F8E71030F6E7FC
:103C20008A43026010BD000030B50446008A85B0AA
:103C30000D464CF6FF710840E98801432182A089B6
:103C40004EF6F3110840A9882A8911436A89024374
:103C50001143A181A08A4FF6FF410840A989014381
:103C6000A1826846FFF752F91948844201D10398AE
:103C700000E00298A189090400EBC00101EB0010EB
:103C8000296801D5490000E08900B0FBF1F0642209
:103C9000B0FBF2F109010B096FF018056B4300EB63
:103CA0008300A3891D044FF0320306D503EBC00047
:103CB000B0FBF2F000F0070005E003EB0010B0FBF2
:103CC000F2F000F00F000843208105B030BD000085
:103CD000003801408088C0F308007047FEE700000C
:103CE00070B50C4605464FF480710E48FCF7B9FCE0
:103CF000224629460B48FCF767FC012280210A482E
:103D0000FFF752FF094D00212846FDF72FFEA1B213
:103D10002846FDF7D1FE2846BDE870400121FDF799
:103D200025BE0000A40200200044004080000240A4
:103D300090B0F7480690F7480090F7480290F7488F
:103D40000390F7480190F74809900024F648F74E91
:103D5000F74FDFF8E083DFF8E093DFF8E0A3DFF868
:103D6000E0B30494012505940790F64800235A1EF9
:103D70001946006804F0F2FC01283DD1821EF24889
:103D8000012306A9006804F0E9FCC1B2069B0020EB
:103D9000401C1028FCDD00292ED00AAA0DA9181DF0
:103DA000FDF7EFFE9DF834000128E6D1E7A0FCF70F
:103DB000D1FA9DF835000128DFD1EAA0FCF7CAFA54
:103DC0009DF83600082817D2DFE800F016047ED1EF
:103DD000F61616F4E8A0FCF7BDFA9DF837000028A7
:103DE0003DD0012802D00228C7D11EE09DF838003E
:103DF000012802D0022807D077E1E4A0FCF7AAFA54
:103E000000984570047005E0E5A0FCF7A3FA00985F
:103E100044700570022300226946306804F0B4FD46
:103E200000231A46194638684BE09DF838000128EF
:103E300002D0022807D058E1DEA0FCF78BFA0298E6
:103E40004570047005E0E0A0FCF784FA0298447025
:103E500005700223002202A9D8F800002AE09DF88C
:103E60003800012802D002280AD03EE1DBA0FCF78E
:103E700071FA00984570047002984570047008E06B
:103E8000DBA0FCF767FA0098447005700298447054
:103E90000570022300226946306804F075FD022394
:103EA000002202A9D8F8000004F06EFD00231A4693
:103EB0001946386804F068FD00231A461946D9F8F7
:103EC000000004F061FD10E19DF8370028B30128DF
:103ED00002D0022890D113E09DF8380006F0EAF8ED
:103EE000C84905F0D1FF0490C7480223002204A965
:103EF000006804F049FD00231A461946C348E5E06E
:103F00009DF8380006F0D6F8BE4905F0BDFF022343
:103F10000590002205A9BE4821E09DF8380006F072
:103F2000C9F8B84905F0B0FF04909DF8380006F0D4
:103F3000C1F8B44905F0A8FF0590B3480223002258
:103F400004A9006804F020FDB1480223002205A95D
:103F5000006804F019FD0023AC481A4619460068B1
:103F600004F012FD00231A461946AA48AEE0AAA0A2
:103F7000FCF7F0F99DF8370070B1012804D0022851
:103F800006D003289FD17DE2A8A0FCF7E3F9A6E1C3
:103F9000A9A0FCF7DFF9DBE1AAA0FCF7DBF922E23C
:103FA000019902230022086003A9DAF8000004F056
:103FB000EBFCD8E18CE0FFE7A5A0FCF7CBF99DF87E
:103FC000370000284ED0012802D00228DAD126E09E
:103FD00096A0FCF7BFF90A9805F0C2FE02460B4610
:103FE0009FA0FCF7B7F90B9805F0BAFE02460B4606
:103FF0009EA0FCF7AFF90C9805F0B2FE02460B4606
:104000009DA0FCF7A7F9DDE90901022301600B99E6
:1040100041600C998160002209A99A4856E086A067
:10402000FCF798F90A9805F09BFE02460B468CA017
:10403000FCF790F90B9805F093FE02460B468BA017
:10404000FCF788F90C9805F08BFE02460B468AA017
:10405000FCF780F907980A9901600B9941600C9967
:1040600081602FE077A0FCF775F90A9805F078FEDB
:1040700002460B467AA0FCF76DF90B9805F070FE2E
:1040800002460B4679A0FCF765F90C9805F068FE2E
:1040900002460B4678A0FCF75DF9DDE90901022331
:1040A00001600B9941600C99816007980A99002280
:1040B00001600B9941600C998160724809A9006800
:1040C00004F062FC02237048002207A90068F8E6A9
:1040D0006EA0FCF73FF99DF83700002813D00128A7
:1040E00007D0022810D003280FD0142004F046F87F
:1040F0003BE64EA0FCF72EF99DF83800012805D0CC
:10410000022804D0EBE034E1FAE079E1CCE0D3E03E
:10411000A0010020980000209A00002090000020BC
:10412000940000208801002094010020000000205D
:1041300034000020080000203C0000202C0000205B
:104140003000002044000020100000205B57415246
:104150004E5DCAA3D3E0B3A4B6C8D0A3D1E9B3C916
:10416000B9A600005B5741524E5D435243D0A3D1E4
:10417000E9B3C9B9A60000005B5741524E5DB5E7EF
:10418000BBFAB7BDCFF2BFD8D6C600005B574152CD
:104190004E5DB5E7BBFA31B7BDCFF231000000008C
:1041A0005B5741524E5DB5E7BBFA31B7BDCFF23236
:1041B000000000005B5741524E5DB5E7BBFA32B7D5
:1041C000BDCFF231000000005B5741524E5DB5E7B4
:1041D000BBFA32B7BDCFF232000000005B5741524C
:1041E0004E5DB5E7BBFA426F7468B7BDCFF23100E0
:1041F0005B5741524E5DB5E7BBFA426F7468B7BD7D
:10420000CFF232000000C842040000203800002035
:104210000C000020400000205B5741524E5D63744B
:10422000726C5F7370656564000000005B574152FB
:104230004E5D4D31000000005B5741524E5D4D32E6
:10424000000000005B5741524E5D4D31264D32005B
:104250005B5741524E5D5049447365740000000045
:104260005B5741524E5D503D256600005B57415201
:104270004E5D493D256600005B5741524E5D443D11
:104280002566000024000020280000205B574152D2
:104290004E5D436F6E74726F6C5F737065656441E1
:1042A0006E64646972000000AFF22010FCF752F8EF
:1042B00000984570047006E0AFF21C10FCF74AF855
:1042C000009844700570022300226946306804F0AB
:1042D0005BFB00231A461946386804F055FB0A9820
:1042E00005F03EFD02460B4672A0FCF733F8039939
:1042F0000A9802230860002203A9DAF80000E0E52A
:10430000AFF2CC00FCF726F89DF83800012802D067
:10431000022808D01CE0AFF26410FCF71BF80298EA
:104320004570047006E0AFF26010FCF713F80298D5
:10433000447005700223002202A9D8F8000004F09E
:1043400023FB00231A461946D9F8000004F01CFB91
:104350000A9805F005FD02460B4656A0FBF7FAFF4A
:1043600001990A9808600223002201A9DBF80000E5
:10437000A7E5AFF23010FBF7EDFF9DF838000128FC
:1043800002D002280BD02EE0AFF2B010FBF7E2FF14
:1043900000984570047002984570047009E0AFF20F
:1043A000B010FBF7D7FF0098447005700298447076
:1043B0000570022300226946306804F0E5FA022302
:1043C000002202A9D8F8000004F0DEFA00231A4601
:1043D0001946386804F0D8FA00231A461946D9F865
:1043E000000004F0D1FA0A9805F0BAFC02460B4628
:1043F00030A0FBF7AFFF03990A9808600A98CFE551
:104400009DF83800012802D0022819D106E02DA01D
:10441000FBF7A0FF00984570047005E02EA0FBF7A5
:1044200099FF0098447005700223002269463068A5
:1044300004F0AAFA00231A461946386804F0A4FAD0
:104440009DF83900012802D002281BD106E027A0E0
:10445000FBF780FF02984570047005E028A0FBF789
:1044600079FF0298447005700223002202A9D8F84F
:10447000000004F089FA00231A461946D9F8000012
:1044800004F082FA23A0FBF765FF0A9805F068FCA8
:1044900002460B4607A0FBF75DFF0B9805F060FC9A
:1044A00002460B4603A0FBF755FF03990A980860E4
:1044B0000B9875E55B5741524E5D73706565643DC1
:1044C000256600005B5741524E5D4D315F444952B5
:1044D000B7BDCFF2310000005B5741524E5D4D3108
:1044E0005F444952B7BDCFF2320000005B574152E2
:1044F0004E5D4D325F444952B7BDCFF231000000EE
:104500005B5741524E5D4D325F444952B7BDCFF2C9
:10451000320000005B5741524E5D4D317C4D320000
:104520008CB009A807900AA8134D144E4FF0FF3421
:104530004FF4167708900123224607A9286804F053
:104540000DF90123224608A9306804F007F90798FD
:1045500005AB0322006805900898002100680690CA
:104560006846FEF71DFD11216846FFF7B9FB384686
:1045700003F004FEDFE700001C0000202000002004
:10458000490050EAC12018BF04204A0D18BF40F06E
:10459000010040F2FF72B2EB515F08BF40F0020031
:1045A000012808BF052070472DE9F0414F1E00EBA0
:1045B000C7010446D1E9000115461E4637F0060240
:1045C0000DD02A46334605F0F1F87F1E04EBC703F1
:1045D000D3E9002304F0CAFE37F00602F1D1022F1E
:1045E00025D0042F13D0062F18BFBDE8F0812A462E
:1045F000334605F0DBF8D4E90A2304F0B7FE2A4677
:10460000334605F0D3F8D4E9082304F0AFFE2A4678
:10461000334605F0CBF8D4E9062304F0A7FE2A467A
:10462000334605F0C3F8D4E9042304F09FFE2A467C
:10463000334605F0BBF8D4E9022304F097FE2A467E
:10464000334605F0B3F8D4E90023BDE8F04104F0A7
:104650008DBE012205F0B7BE04F088BE00221346CD
:104660001046114604F032BF024A0020110705F03F
:10467000AABE000001FDFFFF30380A2801D2012048
:1046800070470020704770472DE9FE4F80460F4667
:104690000025684601F06CF800246FF00F0AE94627
:1046A000012658F8240057F82410401A00D540423B
:1046B00005F0E8FC514605F0B4FE59F8241011F05D
:1046C000FF4F0BD005F0E0FB4FF07E5105F0D2FD1F
:1046D000094920F00040884205DC07E0074908440A
:1046E0000749884202D306FA04F00543641C032CF0
:1046F000D7DB2846BDE8FE8F295C0F3E666666C1A3
:104700009A99D9002DE9F04D8D4F21F0004A86B0DD
:1047100005460C46BA452ADBAAEB070028430AD017
:104720008848824501DC1AD1CDB106B02846BDE8E3
:10473000F04DFFF78EBF844A844B284605F036F8CB
:1047400007460E46824A834B2846214605F02EF83E
:1047500006B03A463346BDE8F04D04F007BE0120EE
:10476000FCF748F806B0BDE8F04DFFF777BF7A4890
:10477000824542DABAF1795F0BDA2846FFF700FF8B
:10478000042808BFFFF770FF284606B02146BDE8A1
:10479000F08D2A460B46104605F008F8834602467F
:1047A0006E480E460B4606217844FFF7FDFE5A463A
:1047B000334604F0FBFF804669488A465A46334632
:1047C00004217844FFF7F0FE5A46334604F0EEFF2A
:1047D00000223B4604F0CAFD02460B4640465146C5
:1047E00004F074FE2A46234604F0E0FF06B02A4691
:1047F0002346BDE8F04D04F0B9BD284624F0004141
:1048000000223D463B4605F0CFF84FF0FF3205F061
:10481000DAFD0646024653480F460B460621784409
:10482000FFF7C2FE32463B4604F0C0FFCDE900016F
:104830004D4832463B4604217844FFF7B5FE3246E8
:104840003B4604F0B3FF00222B4604F08FFD834665
:1048500002913046394603F0F9F8804643480D4648
:10486000504517DCDDE900015A46029B04F02EFE9C
:1048700042462B4604F09AFF42462B4604F076FD52
:10488000012205F0A0FD304A304B05F07FF9304A97
:10489000304B4CE04FF0000A52460B46404604F0C5
:1048A00065FDCDE9031052462B461046194604F02B
:1048B0007DFF32463B4605F077F8DDE9033204F030
:1048C00005FE06460F46DDE900015A46029B04F04C
:1048D000FDFD8346009101223046394605F073FD07
:1048E000194A1A4B05F060F806460F460122404669
:1048F000294605F068FD5A46009B04F057FF3246F2
:104900003B4605F043F906460F460122504629462C
:1049100005F059FD0E4DDFF858802A46434605F054
:1049200043F832463B4605F03FF82A46434605F039
:104930003BF8002CD8BF81F0004106B0BDE8F08DF7
:104940000000F03F0000F07F075C143326A6913C86
:10495000182D4454FB21F93F0000E03F4C6B000050
:10496000626B0000D66A0000EC6A00003333EF3F50
:10497000FB21E93F2DE9F84F04460D4621F00040A8
:1049800000917349814211DC7249884201DC06D1F1
:104990002CB120462946BDE8F84FFFF75ABE6E48B5
:1049A000002DCCBF6D496E49BDE8F88F6D4981423D
:1049B00011DD6D498142D8BF4FF0FF366DDD2046D5
:1049C0002946FFF7DDFD042808BFFFF74DFE20460E
:1049D0002946BDE8F88F6549654F25F000458142BD
:1049E00033DD6449814219DD002632464FF08043B1
:1049F0002046294604F0BAFC80468A460122204619
:104A0000294605F0E0FC00223B4605F0BFF842468F
:104A1000534604F05BFD04460D463EE001260022AD
:104A2000BA463B462046294604F0A0FC80460F4685
:104A3000002253462046294605F0A8F842463B4648
:104A400004F044FD04460D4627E04B4981421BDD3E
:104A5000DFF828A10226002253462046294604F00A
:104A6000A5FE00223B4604F081FC80460F46002252
:104A700053462046294605F089F842463B4604F055
:104A800025FD04460D4608E0032622462B4600205D
:104A90003B4904F01BFD04460D4622462B461046BA
:104AA000194604F083FE8B46824602460B4604F00C
:104AB0007DFE07460246334888460B460621784469
:104AC000FFF772FD52465B4604F070FE82462E48A8
:104AD0008B463A46434605217844FFF765FD3A4642
:104AE000434604F063FE02460B46002E50465946EC
:104AF0000CDA04F03BFC22462B4604F057FE01B0D2
:104B000022462B46BDE8F04F04F04EBF04F02EFCC9
:104B100022462B4604F04AFE1C4A7A4402EBC603A6
:104B2000D3E9002305F032F822462B4605F02EF893
:104B3000174A7A4402EBC603D3E9002304F034FF9A
:104B4000009A002AB8BF81F00041BDE8F88F00004C
:104B5000000010440000F07F182D4454FB21F93F61
:104B6000FB21F9BF0000DC3F0000203E0000F33FC6
:104B70000000F03F0000E63F008003400000F83FE7
:104B80000000F0BFEE680000AC6800004A6800005A
:104B9000126800002DE9F04D9446CCF1000423F09A
:104BA00000464CEA0404524F46EAD4749A468846BA
:104BB00021F00042BC4206D8454240EA050442EAE0
:104BC000D474BC4204D9BDE8F04D6246FFF744BD41
:104BD000AAF14055A5F17F6555EA0C040BD00224DB
:104BE00004EAAA74434DDFF810E144EAD87452EAAB
:104BF000000B04D00CE0BDE8F04DFFF7BBBE002C6D
:104C000014BF012CBDE8F08D022C30D0032C32D023
:104C100056EA0C0B0AD0BE4220D1BA4209D126F086
:104C2000804622F080423346114617E000291ADB05
:104C300025E0DFF8C8B0FB44002C04BFDBE900012D
:104C4000BDE8F08D012C02BFDBE9000181F00041DD
:104C5000BDE8F08D022C0AD0032C0CD0BA4212D140
:104C6000B8F1000F0BDA23482549BDE8F08D28463E
:104C70002449BDE8F08D28467146BDE8F08D1D48F9
:104C80002149BDE8F08D921B12153C2AC4BF19487A
:104C90001D490EDCBAF1000FBEBF12F13C0F00201F
:104CA000014606DB624604F011FC21F00041FFF7EB
:104CB00061FE002C08BFBDE8F08D012C04BF81F01F
:104CC0000041BDE8F08D114A114B022C07D004F0D1
:104CD0005DFF2A46BDE8F04D0A4B04F057BF04F0D3
:104CE00055FF2A46BDE8F04D064B04F05DBE0000BE
:104CF0000000F07F182D4454FB2109C0A667000076
:104D0000FB21F9BFFB210940FB21F93F075C14336C
:104D100026A6A13C10B50420FEF71AFA0C480D494E
:104D20000D4A0068B0FBF1F3B0FBF1F14FF47A707B
:104D300041431370012050804FF0E020026942F09F
:104D4000020202614161016941F00101016110BD8E
:104D50007400002040420F00F600002070B50446A9
:104D600004F060F801280CD0094D6888844203D310
:104D7000B4FBF0F003F002FA6888B4FBF0F100FB3A
:104D800011444FF47A706043BDE8704000F002B8FF
:104D9000F600002070B54FF0E02500216C69094A4B
:104DA000AB6912785043AA699A42FCD002D2A3EBB5
:104DB000020302E0A4EB0206334419441346814285
:104DC000F1D370BDF600002008B560B120208DF849
:104DD000000028208DF8010030208DF802003820D6
:104DE0008DF8030004E0A32204216846FBF731FCA0
:104DF0006A46042140F69E2002F02CF801F0F0FCF7
:104E000008BD00003EB5044602208DF80000CA200F
:104E10008DF80100E3208DF8020009208DF80300D1
:104E20006A460421682002F015F8A3208DF80000DE
:104E3000610609D5C0218DF80110C8218DF8021036
:104E4000C2218DF8031005E08DF801008DF80200F5
:104E50008DF8030014F4C07F09D0C4218DF804102C
:104E6000CC218DF80510C6218DF8061005E08DF8CF
:104E700004008DF805008DF806008DF808008DF807
:104E800007008DF809006A460A2140F6A72001F0C4
:104E9000E1FFA0074FF0D80503D020208DF80000D7
:104EA00001E08DF800506A46012140F6B62001F07D
:104EB000D1FFA00601D5012000E0002000F090F80D
:104EC00014F4C07F1ED0E0050AD5B2208DF8000092
:104ED0008B208DF80100B6208DF802009B2009E0A0
:104EE000B0208DF8000080208DF80100B4208DF8EE
:104EF000020090208DF803006A46042140F6A220AB
:104F000001F0A8FFE0074FF40B6323D0F8208DF8E1
:104F100000006A460121184601F09CFFFA21072093
:104F200000F03AFB072000F005FB012000F022FB17
:104F3000642000F0C5FB4FF4FA7000F0D1FBC821EB
:104F4000254800F0BFFA282000F0D4FA0A2000F02B
:104F5000E1FA06E08DF800506A460121184601F09A
:104F600079FFA00703D5D9208DF8000001E08DF866
:104F700000506A46012140F23D7001F06BFF60076E
:104F800001D5012000E0002000F046F8E00601D540
:104F9000012000E00020FFF717FF104D44F008004B
:104FA000688101F01DFC0020A873600601D5062071
:104FB000A87314F4C07F02D0A87B801DA87314F0DE
:104FC000140F02D0A87B1030A873A00702D0A87BD2
:104FD000001DA87300203EBD09E3CA02A4040020FE
:104FE0000EB54FF4976308B105A000E007A007C80D
:104FF0008DE807006A460921184601F02BFF0EBD17
:10500000B8AAB38DB4980D355D000000B8AAAAAA5D
:10501000B088C3C5C700000008B560B1C0208DF8D6
:105020000000C2208DF80100C4208DF80200C620C7
:105030008DF8030004E08B2204216846FBF709FB8E
:105040006A46042140F6982001F004FF01F0C8FBF5
:1050500008BD0000C8234FF48062024940F6F630D4
:1050600001F09EBAF0A400082DE9FF4F89B0164662
:10507000DDE916520024DFF834810F4681462C808A
:10508000A24698F80E00694601F038FB4FF0FF3B4E
:1050900018B158460DB0BDE8F08FB8F80A0010F00E
:1050A000140F3CD0009909BA21F0FF0C9DF80310B1
:1050B0004CEA010CC6F800C0019909BA21F0FF03BF
:1050C0009DF807100B43736002999DF80B2009BAF5
:1050D00021F0FF011143B160039A9DF80F4012BA0D
:1050E00022F0FF022243F2604FEA2C4609141B14FF
:1050F00012147643494303FB036302FB0211194474
:105100001024A1F17061B1F1007F04D901F068FBB6
:10511000A5F800A0BDE7298841F4807129804106E7
:105120006A460ED51119A41D0B885BBA3B804B88CB
:105130005BBA7B80898849BAB980298841F0080127
:10514000298010F4C07F11D01119A41D0B885BBAFF
:10515000A9F800304B885BBAA9F80230898849BAAF
:10516000A9F80410298841F070012980800718D01F
:105170001444E07800F0C00500F03F016078C007FB
:1051800007D0C80801F00701D8F80020491C02B177
:1051900090476078000704D5D8F8041009B1A80931
:1051A00088470C9800F08AFD002073E7A4040020D3
:1051B0002DE9FF41044603A801F0A8F8BDF80C0052
:1051C000420CC3032F48018901F003004D0754F836
:1051D000200000D54042C1F3C1058E0654F8255089
:1051E00000D56D42C1F38116C90554F8264000D59B
:1051F0006442A0FB0367C11701FB037100FB0210AF
:10520000810041EA9670A5FB0367E91701FB037172
:1052100005FB02118D0045EA9671A4FB0367E517B3
:1052200005FB037304FB0232930043EA9672030EFC
:105230008DF80030030C8DF80130030A8DF8023030
:105240008DF80300080E8DF80400080C8DF8050099
:10525000080A8DF80600100E8DF80800100C8DF865
:105260000900100A8DF80A008DF807108DF80B2040
:105270006A460C214FF4257001F0ECFD04B0BDE846
:10528000F0810000A404002030B5044613A185B0CD
:1052900007C98DE807004FF0FF35C82C16D8C82085
:1052A000B0FBF4F1491E080A8DF80C008DF80D10C2
:1052B00003AA022140F2162001F0CCFD30B96A4663
:1052C0000C2140F6C12001F0C5FD10B1284605B003
:1052D00030BD054884810020F9E70000FEF2ABC430
:1052E000AAF1DFDFBBAFDFDFA4040020F8B530494F
:1052F000098901F0030250F822404A0700D56442B0
:10530000C1F3C10250F822308A0600D55B42C1F3D6
:10531000811250F82220C80500D55242254984FB4D
:105320000140850045EA947083FB014382FB012123
:10533000950F45EA8105010E8DF80010010C8DF8DE
:105340000110010A8DF80210A40F8DF8030044EA41
:1053500083046A4604214FF4747001F07BFD4FF022
:10536000FF3688B9200E8DF80000200C8DF8010062
:10537000200A8DF802008DF803406A4604214FF49C
:10538000757001F067FD08B13046F8BD280E8DF844
:105390000000280C8DF80100280A8DF802008DF815
:1053A00003506A4604214FF4767001F053FDF8BDB6
:1053B000A404002009E3CA022DE9FF4104463CA0F1
:1053C00002AB006802903BA0006803903AA0066818
:1053D0003AA0056804F00300195C8DF80010C4F3CE
:1053E000C1015A5C8DF80120C4F381129B5C8DF8D9
:1053F000023003AB185C8DF80400585C8DF8050092
:10540000985C8DF806006A46032140F2264001F0C0
:1054100021FD4FF0FF37E0BB01AA032140F22A40F3
:1054200001F018FDA8BBCDE9006560070BD59DF81C
:10543000000040F001008DF800009DF8040040F0ED
:1054400001008DF80400A0060BD59DF8010040F086
:1054500001008DF801009DF8050040F001008DF875
:105460000500E0050BD59DF8020040F001008DF825
:1054700002009DF8060040F001008DF806006A4623
:1054800003214FF4886001F0E5FC10B901AA032163
:1054900000E004E040F2314001F0DCFC18B1384695
:1054A00004B0BDE8F081064804810020F8E7000060
:1054B0004CCD6C000CC92C00365676002646660092
:1054C000A40400204FF47A7290FBF2F008B5484330
:1054D000010E8DF80010010C8DF80110010A8DF8F5
:1054E00002108DF803006A4604214FF4AE7001F0FB
:1054F000B1FC08BD0521B0FBF1F008B5010A8DF83B
:1055000000108DF801006A4602214FF4AD7001F0E1
:10551000A1FC08BD0521B0FBF1F008B5010A8DF82A
:1055200000108DF801006A4602214FF4AC7001F0C2
:1055300091FC08BD08B500218DF80010C10702D00C
:1055400030218DF80010810705D59DF8001041F03D
:105550000C018DF80010400705D59DF8000040F0C3
:1055600003008DF800006A4601214FF4A47001F099
:1055700071FC08BD08B560B1042800D90420401EA4
:105580008DF800006A46012140F24F1001F062FCE4
:1055900008BD0120F3E700002DE9FC410546400766
:1055A0004FF0FF367CD0B1F5C86F79D8084604F0CB
:1055B00081FD3E4904F068FC074601A800F088FE22
:1055C0009DF80400022806D004280DD008282ED00B
:1055D000102865D134E00E21384604F022FF04F093
:1055E00031FD84B2324907E00D21384604F019FF3D
:1055F00004F028FD2F4984B2384604F06FFD04F012
:1056000021FD210A8DF8001080B28DF80140010AB9
:105610008DF802108DF80300E8076C4620D0224672
:1056200002214FF4EA7001F015FCC8BB11E00C2117
:10563000384604F0F6FE04F005FD84B21E49DBE7AF
:105640000B21384604F0EDFE04F0FCFC84B21B494B
:10565000D2E7A21C02214FF4927001F0FBFBF8B9D3
:10566000A8070DD56A4602214FF4EC7001F0F2FB59
:10567000B0B9A21C02214FF4947001F0EBFB78B991
:10568000680710D56A4602214FF4EE7001F0E2FB84
:1056900030B9A21C02214FF4967001F0DBFB10B16F
:1056A0003046BDE8FC810020FBE7000000004843D5
:1056B000000040460000C045000040450000C044D6
:1056C0000521B0FBF1F008B5010A8DF800108DF846
:1056D00001006A4602214FF4EF7001F0BBFB08BDE8
:1056E0000521B0FBF1F008B5010A8DF800108DF826
:1056F00001006A4602214FF4ED7001F0ABFB08BDDA
:10570000020E0A70020C4A70020A8A70C870704752
:1057100004490A885206FCD5024AC1B2121D118002
:10572000704700000038014010B504F027F8064A21
:10573000064B04F03BF86FF00E0204F044FEBDE8A7
:10574000104003F0E1BD00009A999999999933406E
:1057500010B504F013F8044A044B03F0B7FEBDE89B
:10576000104003F0D1BD0000FCA9F1D24D623040E1
:105770002DE9FC47054625486B46042240680D216B
:105780000078FCF7B2FF10B10720BDE8FC879DF858
:1057900000001C2101EAD0029DF80300DFF87090A0
:1057A000C0F301131A438DF804209DF80120C0F3C3
:1057B000810301EAD2021A438DF805209DF80220E8
:1057C00000F0030001EAD20101430024114F8DF8DB
:1057D0000610A04601AE305D10B145F8249009E0F6
:1057E00045F824800CE055F82400394604F076FC96
:1057F00045F82400305D401E10F0FF003055F2D116
:10580000641CE4B2032CE6D30020BEE7C0000020F5
:105810007B14AE3E1D5A843F2DE9FE4F0546012004
:10582000C14E8DF800004FF000088DF801803068FF
:105830000C461746817C70686B4602220078FCF7A4
:10584000E0FF4FF0FF3A00287AD1C820FFF786FA30
:105850008DF8008030686B460122C17B706800784B
:10586000FCF7CFFF0028EFD130686B460122417969
:1058700070680078FCF7C5FF0028E5D130686B46FA
:105880000122817C70680078FCF7BBFF0028DBD127
:1058900030686B460122C17D70680078FCF7B1FF6B
:1058A0000028D1D130686B460122017970680078F8
:1058B000FCF7A7FF0028C7D14FF00C098DF8009026
:1058C00030686B460122017970680078FCF799FF17
:1058D000002835D10F20FFF741FAB06A6B4601224C
:1058E000407A8DF800003068817870680078FCF7A5
:1058F00088FF002824D1B06A6B460122007A8DF817
:1059000000003068417870680078FCF77AFF002862
:1059100073D1B06A807A0FB140F0E0008DF80000DA
:1059200030686B460122817970680078FCF769FF66
:10593000002862D12FB1B06AC07A40F0E00001E0E7
:105940004AE018208DF8000030686B460122C179CA
:1059500070680078FCF755FFF0BB17B1C820FFF75F
:10596000FDF940208DF8000030686B460122017976
:1059700070680078FCF745FF70BB78208DF8000058
:1059800030686B460122417970680078FCF739FF76
:1059900010BB3220FFF7E2F98DF8008030684746EF
:1059A0006B464179706801220078FCF72AFF98B9AC
:1059B00031687068B046897A00786B460222FCF73D
:1059C00094FE48B9BDF80000AF6040BAB0FBF9F0F2
:1059D0006F60C6B22F6000E00FE0A76067602760CD
:1059E000002739E0D8F80010D8F804006B46C97ACF
:1059F00000780C22FCF779FE10B15046BDE8FE8F0E
:105A0000BDF80000236840BA02B2BDF802001A4493
:105A100040BA01B2BDF804002260626840BA114485
:105A20006160A16800B20844A060BDF806002B6860
:105A300040BA02B2BDF808001A4440BA01B2BDF83B
:105A40000A002A606A6840BA11446960A96800B215
:105A500008447F1CFFB2A860B742C3D328688322E2
:105A6000C117090441EA104100040023FAF74DFC74
:105A700032460023FAF749FC286068688322C11780
:105A8000090441EA104100040023FAF73EFC3246C3
:105A90000023FAF73AFC6860A8688322C11709045A
:105AA00041EA104100040023FAF72FFC324600239C
:105AB000FAF72BFCA86020684FF40065C1170904B1
:105AC00041EA104100042A460023FAF71EFC324640
:105AD0000023FAF71AFC206060682A46C1170904FF
