:020000040800F2
:10000000285F0020C9020008E91D0008551D0008EE
:10001000B11D0008C5150008FD31000800000000F2
:100020000000000000000000000000003102000895
:10003000CD1800080000000075020008C526000861
:10004000E3020008E3020008E3020008E3020008FC
:10005000E3020008E3020008E3020008E3020008EC
:10006000E3020008E3020008E3020008E3020008DC
:10007000E3020008E3020008E3020008E3020008CC
:100080002916000865160008E3020008E3020008CC
:10009000E3020008E3020008E3020008E3020008AC
:1000A000E3020008E3020008E3020008E30200089C
:1000B00011280008BD28000879290008E30200087B
:1000C000E3020008E3020008E3020008E30200087C
:1000D000E3020008452F0008A92F0008E3020008EA
:1000E000E3020008E3020008E3020008E30200085C
:1000F000E3020008E3020008E3020008E30200084C
:10010000E3020008E3020008CD290008E30200082A
:10011000E3020008E30200081D2A0008E3020008C9
:10012000E3020008E3020008E3020008E30200081B
:1001300000F002F800F06DF80AA090E8000C82448C
:100140008344AAF10107DA4501D100F062F8AFF269
:10015000090EBAE80F0013F0010F18BFFB1A43F0A5
:100160000103184764660000846600000A444FF0EB
:10017000000C10F8013B13F0070408BF10F8014B06
:100180001D1108BF10F8015B641E05D010F8016B4B
:10019000641E01F8016BF9D113F0080F1EBF10F8AF
:1001A000014BAD1C0C1B09D16D1E58BF01F801CBD2
:1001B000FAD505E014F8016B01F8016B6D1EF9D555
:1001C0009142D6D37047000000230024002500266A
:1001D000103A28BF78C1FBD8520728BF30C148BFAA
:1001E0000B607047662906F0A281642900F0F88050
:1001F000732900F05B84002070471FB500F09EFC5F
:1002000004000020002105F099FEE0601FBD10B53C
:1002100010BD00F093FD1146FFF7EFFF03F080FBE8
:1002200000F0B1FD03B4FFF7F2FF03BC03F03CFBA9
:10023000224B19680868B0E8F00F80F30988BFF313
:100240006F8F4FF0000080F311884EF00D0E704755
:100250000000000006480068006880F3088862B665
:1002600061B6BFF34F8FBFF36F8F00DF00BF00BFDA
:1002700008ED00E0EFF30980BFF36F8F0F4B1A68B2
:1002800020E9F00F106008B54FF0500080F311889E
:10029000BFF34F8FBFF36F8F04F0BAFF4FF0000032
:1002A00080F31188BDE8084019680868B0E8F00FCD
:1002B00080F30988BFF36F8F704700BFDC00002018
:1002C000EFF3058070470000094880470948004760
:1002D000FEE7FEE7FEE7FEE7FEE7FEE7FEE7FEE7F6
:1002E000FEE7FEE704480549054A064B7047000053
:1002F000D92600083101000828590020285F002075
:10030000285B0020285B0020704700000FB40449E0
:1003100010B503AA029800F0CDFB10BC5DF814FBE9
:10032000C40000202DE9F0410E4604460020206262
:100330002046E168884730B3252805D0D4E901215B
:100340009047206A401CF2E7E16820460027884772
:10035000050018D0A5F14100192802D820354FF426
:1003600000673246294620462760FFF73BFF40B131
:10037000012804D0F61D26F007060836D8E7361DFA
:10038000D6E72846DAE7206ABDE8F08170B50C466A
:100390000546012A05D02878800600D5EA690023A1
:1003A00002E0012305E05B1C934202D2E05C0028DE
:1003B000F9D1A869E618C01AA861286A1844286209
:1003C0002846AFF3008004E0D5E9012114F8010BC1
:1003D0009047B442F8D32846AFF3008070BD0000C8
:1003E0002DE9F0410646002410687529314616A50E
:1003F00010D0AFF30080002802DA404213A507E0D6
:1004000031688A0701D512A502E0490704D511A574
:10041000012401E0AFF3008000210A2206F1240745
:1004200009E0B0FBF2FCB0FBF2F302FB1C00303041
:1004300078541846491C0028F3D123462A463046F2
:10044000BDE8F04100F0A2B8000000002D0000005F
:100450002B00000020000000032A40F2308010F042
:10046000030C00F0158011F8013BBCF1020F62444F
:1004700098BF11F801CB00F8013B38BF11F8013BE0
:10048000A2F1040298BF00F801CB38BF00F8013B8D
:1004900011F0030300F02083083AC0F0088051F8FF
:1004A000043B083A51F804CBA0E80810F5E7121D08
:1004B0005CBF51F8043B40F8043BAFF30080D20727
:1004C00024BF11F8013B11F801CB48BF11F8012BF3
:1004D00024BF00F8013B00F801CB48BF00F8012B16
:1004E000704702F0FF0343EA032242EA024200F0AF
:1004F00002B84FF000020429C0F0128010F0030C83
:1005000000F01B80CCF1040CBCF1020F18BF00F806
:10051000012BA8BF20F8022BA1EB0C0100F00DB8B5
:100520005FEAC17C24BF00F8012B00F8012B48BF13
:1005300000F8012B70474FF0000200B513469446B7
:100540009646203922BFA0E80C50A0E80C50B1F12B
:100550002001BFF4F7AF090728BFA0E80C5048BF3F
:100560000CC05DF804EB890028BF40F8042B08BFDD
:10057000704748BF20F8022B11F0804F18BF00F8D9
:10058000012B704770477047704770472DE9F0475F
:100590000D4699469246044600F1240801688806F3
:1005A00004D5E06921F01001216000E00120A8429B
:1005B00001DD471B00E00027A1697A1902EB090061
:1005C000081AA0612078C00602D42046AFF300804C
:1005D000002608E0D4E901211AF806009047206AB5
:1005E000401C761C20624E45F4DB2078C0060AD5FC
:1005F0002046AFF3008006E0D4E901213020904787
:10060000206A401C2062381EA7F10107F4DC07E0D5
:10061000D4E9012118F805009047206A401C2062A7
:10062000281EA5F10105F3DC2046AFF300802078F9
:10063000000602D50220BDE8F0870120FBE77047E5
:100640002DE9FF4F0C461E464FF0FF378BB0D2E925
:100650000001DDF860800A908A46C1F30A5505B9A9
:100660003D46002108464FF00000BAF1000F00F4AB
:10067000400005DA00EB80004FF4400101EA500031
:100680004FEA9059B9F1010F00DDB9460A9850EAD6
:100690004A000ED044F61050A5F2FF3545432F1402
:1006A000B8F1000F1ED07542291E1EDDC9F10002EF
:1006B0001CE0B8F1010F4FF0000001D0302103E041
:1006C000F24305E02154401CB042FBDB30460022DF
:1006D000002121540B99C1F80880C1E900200FB016
:1006E000BDE8F08FBD1B6D1CDEE74A4600DA6942AB
:1006F00006A800F0ADFA06AB93E8070003AB83E869
:10070000070050460A9900F085FB8DE80700A0F528
:1007100000501F3800900398002D09DD42F21F01A0
:100720004A46084403A90390684600F0E4FD08E047
:10073000A0F500504A461F3803A90390684600F010
:10074000EEFD8DE807000004000C03D04FF0FF30F1
:10075000410800E01046B8F1000F03D000220092DB
:1007600015461EE0751E05D400F0ECF930326255D6
:100770006D1EF9D5B3460122084302D000227F1C2A
:1007800004E02078302801D100227F1E002A09973A
:1007900086D01DE0112D07DA00F0D4F93032625511
:1007A0006D1C50EA0102F5D1084302D00098C8B18F
:1007B0000EE00021681E05E0235C625C6354225455
:1007C000401E491C8142F7DBAB46A81B401E099026
:1007D000002004F80B000B98099AC0F80880C0E9C3
:1007E000002B7CE711264FF0000859E72DE9F04F68
:1007F00088460446D21D22F0070191B0D1E90001DC
:10080000CDE90A0103F03CF802460B98C00F01D075
:100810002D2007E02068810701D52B2002E0202150
:1008200001EAC000032A099001D0072A05DB03462C
:100830004146204600F0CCF90BE12078800601D536
:10084000E06900E00620B8F1650F814606D0B8F1F6
:10085000660F18D0B8F1670F70D131E00020B9F100
:10086000110F009001DB112301E009F101030AAA35
:1008700001A90CA8FFF7E4FEDDE90C70002609F1E0
:100880000105834647E001204B4600904FF00047AA
:100890000AAA01A90CA8FFF7D3FEDDE90DB00C9957
:1008A0005D46002610B909F101000D18B9EB0500ED
:1008B00003D4C0F1FF3609F10105A5EB09002BE0D7
:1008C000B9F1010F01DA4FF001090020B9F1110F60
:1008D0000090484601DD112300E003460AAA01A961
:1008E0000CA8FFF7ADFEDDE90C704D4600268346EF
:1008F000207800070AD4AB4500DA5D4601A8012D37
:1009000004DD411911F8011C302907D04F4502DAE6
:1009100017F1040F04DA012082460FE06D1EEEE7A6
:10092000002F02DCED1B3E4403E0781CA84200DDF2
:100930007D1CB81B00F1010A4FF00047207800072A
:1009400003D4AA4501DB4FF0FF3A0021B7F1004F75
:100950000DF143088DF8431024D002202B23002FE3
:1009600001DA7F422D230A21021EA0F1010000DCE2
:100970005FB197FBF1FC97FBF1F201FB1C7C174682
:100980000CF1300C08F801CDEEE7A8F1010003707E
:100990002188090501D5452100E06521A0F1010864
:1009A00000F8011C09980FA9A1EB0807FF1D00B171
:1009B0000120411901EBEA70A1693844081A401E70
:1009C000A0612078C00602D42046AFF300800998C9
:1009D00028B1D4E901219047206A401C2062207888
:1009E000C00622D52046AFF300801EE0002E04DBB7
:1009F000B34502DD01A8805D00E03020D4E901218B
:100A00009047206A401C2062761CAAF101005FEA30
:100A1000000A0AD100F092F8C0680168405CD4E98D
:100A200001219047206A401C2062281EA5F1010583
:100A3000DCDC07E0D4E9012118F8010B9047206ABB
:100A4000401C2062381EA7F10107F3DC2046AFF3FB
:100A50000080032011B043E601694A1C0261087856
:100A6000704700B58FB0CDE90131002105910549EE
:100A70007944CDE9031011466846FFF753FC0FB0E7
:100A800000BD0000E5FFFFFF10B5436913B1AFF3F0
:100A9000008001E0FFF77AFC012010BD127800F120
:100AA00024010A7000224A700122EDE711684FF01C
:100AB000FF32E9E7074B70B50D467B44FFF7D1FFE6
:100AC0000446284600F032F910B14FF0FF3070BDF7
:100AD000204670BD472E000010B5203AC0F00B80B4
:100AE000B1E81850203AA0E81850B1E81850A0E832
:100AF0001850BFF4F5AF5FEA027C24BFB1E818508C
:100B0000A0E8185044BF18C918C0BDE810405FEAFB
:100B1000827C24BF51F8043B40F8043B08BF704777
:100B2000D20728BF31F8023B48BF11F8012B28BF7C
:100B300020F8023B48BF00F8012B7047004870477F
:100B4000E858002030B5B0F10A024FEA900E71F17A
:100B500000034EEA817EB0EB0E0061EB91014FEA9B
:100B6000101E4EEA017E10EB0E0041EB11114FEA10
:100B7000102E4EEA016E10EB0E0041EB11214FEAF0
:100B8000104E4EEA014E10EB0E0041EB11414018A1
:100B900041F100014FEAD00040EA41704FEAD10133
:100BA00010EB80054FEA810444EA907444EB0104A1
:100BB0006D1944EB0404521BA3414FF0000348BFDE
:100BC0000A3200D530BD401C41F1000130BD0000AB
:100BD0002DE9F0411F46044603260168072A01F467
:100BE000006004DB08B116A505E016A503E008B116
:100BF00015A500E015A521F010002060A069C01E19
:100C0000A0610FB1401EA0612046AFF300804FB13C
:100C1000D4E9012138469047206A401C2062C01C5C
:100C2000206206E0206AFAE7D4E9012115F8010BF9
:100C30009047761EF8D22046AFF30080BDE8F081E1
:100C40004E414E006E616E00494E4600696E660070
:100C50002DE9F047814616468AB0334878440DC8DE
:100C60008DE80D0030487844801C03AC0DC884E842
:100C70000D0041F69B300844372190FBF1F290FBC8
:100C8000F1F5A5F1800501FB12041B3C02D564427D
:100C9000012000E00020DFF890A080460027FA4401
:100CA000AAF1BE0A0DE0E00709D03246684607EB1C
:100CB00047010AEB810100F032FB8DE80700641068
:100CC0007F1C002CEFD1184F7F44AC3F18E0E807A1
:100CD00014D007EB04100DF1180A90E80E008AE812
:100CE0000E00C068F04201D198190890324606A95A
:100CF00003A800F014FB03AB83E807006D10641C2D
:100D0000002DE4D132466946B8F1000F03A802D0A5
:100D100000F0F1FA01E000F002FBC9E90001C9F8B6
:100D200008200AB0BDE8F087505B0000007B00F0AF
:100D30008000704700487047C85800207546FFF78C
:100D4000F9FFAE4605006946534620F00700854688
:100D500018B020B5FFF7C6FABDE820404FF00006F6
:100D60004FF000074FF000084FF0000B21F0070193
:100D7000AC46ACE8C009ACE8C009ACE8C009ACE8D6
:100D8000C0098D4670470446AFF300802046FFF748
:100D900049FA00004FF0013C50F8042B51F8043B95
:100DA0009A4221D1A2EB0C03934313EACC1317D13F
:100DB00050F8042B51F8043B9A4215D1A2EB0C03D6
:100DC000934313EACC130BD150F8042B51F8043B96
:100DD0009A4209D1A2EB0C03934313EACC13DBD064
:100DE0004FF00000704700BFD01A01BAB1FA81F18C
:100DF00001F0180122FA01F0CB40C1F12001DBB271
:100E0000C0B2C01A2CFA01F3D11A914311EAC311EE
:100E1000E6D170475FEA400C08BF91F0000F4FEA3F
:100E20008C234FEAC12243EA51514FEA1C5018BFAC
:100E300000F5F0404FEA300018BF41F000415FEA92
:100E40006C5C00F02980BCF1FF3F08BF40F080409F
:100E50007047130C06BF12044FF0100C4FF0000C3B
:100E6000130E04BF12020CF1080C130F04BF120181
:100E70000CF1040C930F04BF92000CF1020CD30F81
:100E800004BF52000CF1010C11464FF00002A0F11A
:100E90001F00A0EB0C00704711F0004F08BF704717
:100EA00031F000413FF4D5AF0B0C06BF09044FF001
:100EB000100C4FF0000C0B0E04BF09020CF1080CD3
:100EC0000B0F04BF09010CF1040C8B0F04BF890048
:100ED0000CF1020CCB0F04BF49000CF1010CCCF15A
:100EE0002003A0EB0C0022FA03F302FA0CF241EA11
:100EF000030100F10100704720F07F4C80EA0300FD
:100F000023F07F47ACEB070303F57C5300F0004070
:100F100003F1FF032DE980494FEA154B09B44FEA6D
:100F2000144325EA0B4E24EA03480FF2042606EB8D
:100F3000132749083E785FEA320203FB0667C7F5CC
:100F4000000707FB06F64FEA54374FEAD64606F18C
:100F5000020607FB066CCCF1005C4FEA1C472CEA4A
:100F6000074C07FB06F40CFB06F504EB15464FEAAD
:100F7000961634BF00204FF000404FEAD13706FBF1
:100F800007FC4FEA1C4C0CFB0BF7D21B03FB0CF7C6
:100F900061EB07010CFB0EF7B0EB074072EB174259
:100FA0000CFB08F734BFA2EB0742B2EB074261EB40
:100FB00017414FEA0C444FEA910706FB07FC4FEA42
:100FC0001C4C0CFB0BF7B0EBC74072EB573203FB2A
:100FD0000CF734BFA2EBC742B2EBC74261EB57310B
:100FE0000CFB0EF7B0EBC70072EB57720CFB08F767
:100FF00034BFA2EBC702B2EBC70261EB5771039F8C
:101000004FEA816141EA921104EBCC044FEAD137F7
:101010004FEA826206FB07FC42EA90124FEA8060C8
:101020004FEA1C4C0CFB0BF7D21B03FB0CF761EBDC
:1010300007010CFB0EF7B0EB074072EB17420CFBFD
:1010400008F734BFA2EB0742B2EB074261EB17414E
:101050004FEA8C554FEA910704EB9C2406FB07FCF2
:101060004FEA1C4C0CFB0BF7B0EBC74072EB57324E
:1010700003FB0CF734BFA2EBC742B2EBC74261EBF4
:1010800057310CFB0EF7B0EBC70072EB57720CFB3D
:1010900008F734BFA2EBC702B2EBC70261EB57718E
:1010A00015EB4C254FEA816141EA92114FEA8262C9
:1010B0004FEAD13742EA901206FB07FC44F10004E4
:1010C0004FEA80604FEA1C4C0CFB0BF7D21B03FB72
:1010D0000CF761EB07010CFB0EF7B0EB074072EB6E
:1010E00017420CFB08F734BFA2EB0742B2EB0742F2
:1010F00061EB174115EB1C154FEA813141EA924132
:101100004FEA823242EA90424FEA80304FEA0C7650
:1011100044F1000448EA03434EEA0B484FF0000E46
:10112000B2EB080C71EB030724BF624639464EEB65
:101130000E0E4FF0000B0018524149414BEB0B0BC8
:10114000B2EB080C71EB03077BF1000B24BF624686
:1011500039464EEB0E0E4FF0000B0018524149413C
:101160004BEB0B0BB2EB080C71EB03077BF1000BA5
:1011700024BF624639464EEB0E0E51EA020718BFF5
:1011800046F0010616EB0E7655F1000254F100010F
:1011900003D5BDE88901BDE80088BDE88901BDE847
:1011A0000048B619524141EB0101A3F10103704718
:1011B00080807F7E7D7C7B7A797877767675747394
:1011C000727171706F6E6E6D6C6C6B6A6A69686853
:1011D000676666656464636362616160605F5F5EE9
:1011E0005E5D5D5C5C5B5B5A5A595958585757565F
:1011F00056555555545453535252525151505050C4
:101200004F4F4F4E4E4D4D4D4C4C4C4B4B4B4A4A15
:101210004A49494948484847474747464646454559
:101220004544444444434343434242424241414192
:10123000002B26D4770021D01CB54FEA370703B422
:101240004FF010004FF010014FF000000FBCBDE850
:1012500010400BF1010BBBF1010F08BF5FEA17074C
:1012600022BF12F1010211F101014FF0004143F1DF
:10127000000300F0004043EA00007047F9D357082C
:10128000DAE746EA064613F1400F4FEA16461FDD3D
:1012900013F1200FDFBF16430A46002120335B42C3
:1012A000C8D0C3F1200746EA064602FA07F74FEA1C
:1012B000164646EA0706C3F1200722FA03F201FAAE
:1012C00007F721FA03F14FF0000342EA0702B1E702
:1012D00046EA020646EA06464FEA164646EA01068E
:1012E000BCBF46EA0646360C4FF000034FF0000242
:1012F0004FF000019EE72DE9C048934630B491E8D5
:10130000380007C831EA400C48BF34EA430C03D523
:10131000FFF7F2FDFFF78CFFF0BCBDE800882DE978
:10132000C048934630B491E8380007C810F0804FA9
:1013300008BF13F0804F03D100F005F8FFF778FFE6
:10134000F0BCBDE8008820F07F4780EA030023F06E
:101350007F4C07EB0C03A3F57C5300F00040A3F196
:10136000FE0392F0000F00F0B38095F0000F00F044
:1013700077802DE901494FEA11404FEA144621EAEE
:10138000004800FB06FC24EA064708FB06F607FBBC
:1013900008F800FB07F718EB06484CEB164C4FEA31
:1013A000124B18EB07484FEA15464CEB174022EA60
:1013B0000B4E0BFB06FC25EA06470EFB06F607FB69
:1013C0000EFE0BFB07F71EEB064E4CEB164C4FF0D8
:1013D00000061EEB074E4CEB174B18EB0B0840F1C9
:1013E000000018EB0E0B58EB000840F100008F1ABC
:1013F0004FF000013CBFC943661B14BFB5EB040CA2
:1014000000213CBFC943F61B4FEA17444EEA8E0E3B
:1014100027EA04454FEA1C4704FB07622CEA074C05
:1014200005FB07F70CFB05F604FB0CFC16EB074667
:1014300042EB174216EB0C4642EB1C421BEB060636
:1014400058EB0202414146EA9E0601D5BDE80189FA
:10145000B619524141EB0101A3F10103BDE8018935
:101460004FEA14454FEA114724EA054621EA074CA2
:1014700005FB07F406FB07F70CFB06F105FB0CFC6C
:1014800011EB074144EB17444FEA124711EB0C41B3
:1014900044EB1C4422EA074C05FB07F206FB07F766
:1014A0000CFB06F605FB0CFC16EB074642EB17425D
:1014B00016EB0C4642EB1C456A1854F1000148BF7C
:1014C0007047B619524141EB0101A3F10103704786
:1014D00095F0000F37D04FEA11424FEA144721EA46
:1014E000024624EA074C02FB07F106FB07F70CFB58
:1014F00006F402FB0CFC14EB074441EB17414FEAE6
:10150000154714EB0C4441EB1C4125EA074C02FB48
:1015100007F506FB07F70CFB06F602FB0CFC16EBC7
:10152000074645EB174516EB0C4645EB1C421219D6
:1015300051F1000148BF7047B619524141EB01011A
:10154000A3F1010370474FEA14454FEA114724EA1B
:10155000054621EA074C05FB07F106FB07F70CFBE4
:1015600006F24FF0000605FB0CFC12EB074241EBC4
:10157000174112EB0C4251EB1C4148BF70479218C7
:1015800041EB0101A3F10103704770B54FF4E13461
:10159000204603F0FDF900F0F1FB00F00BFC4FF4E6
:1015A0007A750021284601F09BF90021284601F0B8
:1015B0003FF900F041FB204603F068FEBDE87040B3
:1015C00003F0E0B9FEE7000070B5084DFF221346B6
:1015D00005F5807605E010F8014B54402A5D5A402D
:1015E000335D491EF7D243EA022070BD3265000820
:1015F000F0B5084EFF231C4606F5807705E010F88D
:10160000015B5D40735D63407C5D491EF7D21370E2
:101610005470F0BD326500084FF6FF7202EA0020F8
:10162000084480B27047000010B50C4C4FF4001015
:1016300000F036F84FF4000000F032F800212046A8
:1016400000F03AF8A11561600548FEF752FF204608
:10165000BDE81040012100F02FB800006C000240EE
:101660006C03002010B54FF0007000F019F84FF037
:10167000006000F015F8BDE810400021014800F0BE
:101680001BB8000080000240C10002D5024908607A
:10169000704702494860704704040240000002405D
:1016A000C10002D50249086070470249486070478E
:1016B00004040240000002400029016802D041F009
:1016C000010102E04FF6FE72114001607047000018
:1016D00001684FF6FE721140016000210160416017
:1016E0008160C1603149314A0839904203D148686C
:1016F00040F00F0006E02D4A1432904204D14868B1
:1017000040F0F00048607047284A2832904203D1E8
:10171000486840F47060F5E7244A3C32904203D1B7
:10172000486840F47040EDE7204A5032904203D1BF
:10173000486840F47020E5E71C4A6432904203D1C7
:10174000486840F47000DDE7184A7832904203D1CF
:10175000486840F07060D5E7154A111F904203D1E8
:10176000086840F00F0006E0114A1432904204D19C
:10177000086840F0F000086070470D4A2832904237
:1017800003D1086840F47060F5E7094A3C329042A2
:1017900003D1086840F47040EDE7054A50329042AA
:1017A000EAD1086840F47020E5E700000800024034
:1017B00008040240406880B27047002A026801D0E5
:1017C0000A4300E08A430260704730B5026847F67A
:1017D000F0739A430C6A8B682343D1E904452C4388
:1017E00023438C692343CC6923434C6A23438C6A8B
:1017F000234313430360CA6842600A6882604968F1
:10180000C16030BD416070472DE9F04101218CB0CD
:10181000084600F005FEDFF8A4804046FFF758FFB9
:101820002848274ECDE900600024102007010794C6
:10183000CDE902078025CDE904450002CDE9084045
:101840000694694640460A94FFF7BFFF0122022131
:101850004046FFF7B2FF012208214046FFF7ADFFE7
:1018600001214046FFF728FF00214046FFF724FFF3
:10187000DFF84880A8F114084046FFF729FF124816
:1018800001A9009681E89100CDE90445A801CDE9C0
:10189000084006940794694640460A94FFF795FF6E
:1018A000012202214046FFF788FF0122082140461D
:1018B000FFF783FF0CB0BDE8F0810000800002401C
:1018C000044400406C0200206C03002070472DE9A6
:1018D000F04305464078002787B090460C460F2815
:1018E00003D00F7007B0BDE8F083012626700E21EB
:1018F0002846FFF769FE8146297CE87BFFF78CFECE
:1019000081456BD1667028780528EBD2DFE800F0BE
:10191000030418224C00E5E7A6704146284600F073
:101920005FF8E070E878012802D0022805D102E0D3
:101930004FF0010801E04FF0020884F80480D1E77D
:101940000220A0704146284600F04AF8E070E8788E
:101950002071C7E70320A0704146284600F040F8F8
:10196000E070A878694630B1012804D0022802D07E
:10197000032814D10CE0E8788DF8000028798DF860
:10198000010068798DF80200A8798DF8030006E05F
:1019900000202A18D2780A54401C0728F9DDE07884
:1019A000424603F068F89DE70420A07041462846AF
:1019B00000F016F8E070AA7803A900201AB1012AF5
:1019C00001D0022A05D12A18D2780A54401C0B28CB
:1019D000F9DDE078424603F02BF883E7677081E792
:1019E000827852B1012A04D0022A04D0032A07D1F6
:1019F00005E0012104E0022102E0002100E00321D2
:101A00000846704770B586B02349009123492148A4
:101A100001912349CDE90210224C4FF080454FF04F
:101A20007E5680E8700020480223002203A9006847
:101A300003F0DAFD00980223002280E870001B48C2
:101A40006946006803F0D0FD00241948049402237D
:101A5000224604A9006803F0C7FD16480594022336
:101A6000002205A9006803F0BFFD019802230022AF
:101A70000460029801A904600F48006803F0B4FDF7
:101A80000E480223002202A9006803F0ADFD06B053
:101A900070BD0000500100205C0100208400002087
:101AA000880000200000B041240000202800002011
:101AB00014000020180000201C000020200000203E
:101AC000F0B50F46054689B016460121082000F002
:101AD000B3FC0121042000F0BBFC0320ADF8100092
:101AE00004218DF813108DF8120004A9214800F08C
:101AF000B4F8684601F01CFA0024ADF804501E4DFD
:101B0000ADF80040ADF80640ADF802406946284601
:101B100001F0C0F933463A460321284601F038F86F
:101B200005A9284601F05CF80021284601F088F953
:101B30000121284601F01CF832208DF80C000E20FF
:101B40008DF80D008DF80E4001208DF80F0003A8D0
:101B500000F04CF90121284601F010F80021284638
:101B600001F06EF901221146284601F0CFF809B0C4
:101B7000F0BD000000080140000C0040F0B50F4629
:101B8000054689B016460121042000F055FC0121CC
:101B9000082000F05DFCC020ADF8100004208DF896
:101BA000130003208DF8120004A9214800F055F815
:101BB000684601F0BDF90024ADF804501D4DADF8A4
:101BC0000040ADF80640ADF802406946284601F0F5
:101BD00061F933463A460321284600F0D9FF05A9AA
:101BE000284600F0FDFF0021284601F029F90121D7
:101BF000284600F0BDFF1E208DF80C000E208DF849
:101C00000D008DF80E4001208DF80F0003A800F0A4
:101C1000EDF80121284600F0B1FF0021284601F02F
:101C20000FF901221146284601F070F809B0F0BD05
:101C3000000C01400008004070B500240A254FF652
:101C4000FF76224629463046FFF73AFF22462946CC
:101C50003046BDE87040FFF791BFF0B5CC78002268
:101C600004F00F03E40601D58C7823430C784FF081
:101C70000F0C14F0FF0F4FF0010E1BD005680E88FB
:101C80000EFA02F42640A64210D196000CFA06F78E
:101C900025EA070703FA06F5CE783D43282E02D041
:101CA000482E02D002E0446100E00461521C082A80
:101CB000E5D305600A88FF2A1CD94468002202F196
:101CC00008060EFA06F50E882E40AE420ED196009A
:101CD0000CFA06F7BC4303FA06F7CE783C43282EED
:101CE00000D14561CE78482E00D10561521C082AEA
:101CF000E5D34460F0BD0000F0B5144C002801DAD3
:101D0000E36900E06368450D2E0185B2C0F3015719
:101D1000B540C0F30342032F05D0C6020AD50326FF
:101D20009640B34307E023F07062636823F070636A
:101D3000636002E0AB4343F0706201B12A430028C4
:101D400001DAE261F0BD6260F0BD00000000014018
:101D500001617047FEE700000026074C4FF4FA755A
:101D60000127C4F89461284603F0A0F8C4F89471E0
:101D7000284603F09BF8F4E70000234238B5012120
:101D8000402000F065FB10208DF8030003208DF843
:101D900002002020054CADF8000069462046FFF700
:101DA0005CFF20212046FFF7D3FF38BD001801401B
:101DB000FEE7000038B50121102000F049FB0F209C
:101DC000ADF8000010208DF803000320054C8DF8BD
:101DD000020069462046FFF740FF0F212046FFF72B
:101DE000B7FF38BD001001407047000030B50F2329
:101DF000C27801780125F2B1144A126801F1E0219C
:101E000002F4E062C2F5E062120AC2F10404D340B7
:101E10004278A24084781C401443220181F80024B7
:101E2000007800F01F018D404009800000F1E020A3
:101E3000C0F8005130BD01F01F0085404809800006
:101E400000F1E020C0F8805130BD00000CED00E052
:101E50000249084302490860704700000000FA0583
:101E60000CED00E0F8B526208DF8000001248DF877
:101E700003400D208DF8010000258DF802506846C2
:101E8000FFF7B4FF11208DF800000E268DF80160D9
:101E90008DF802508DF803406846FFF7A7FF102029
:101EA0008DF800008DF801608DF802508DF8034028
:101EB0006846FFF79BFF01224021044801F004F926
:101EC00001210348FFF7F8FBF8BD00000044004083
:101ED0006C00024010B500F02FF803220021012011
:101EE00003F030FA0F49032208600021012003F0BB
:101EF00029FA0D49032208600021012003F022FA8B
:101F00000A49032208600021012003F01BFA084956
:101F1000032208600021012003F014FA054908603B
:101F200010BD000034000020380000203C000020DC
:101F3000400000204400002010B5002204210120B0
:101F400003F000FA5849002808607DD057A0FEF73A
:101F5000DDF900220421012003F0F4F95C49002896
:101F6000086072D05BA0FEF7D1F9002204210120A5
:101F700003F0E8F960490028086067D05FA0FEF729
:101F8000C5F900220421012003F0DCF9644900288E
:101F9000086078D063A0FEF7B9F90022042101207F
:101FA00003F0D0F96849002808606ED067A0FEF7FA
:101FB000ADF900220421012003F0C4F96C49002886
:101FC000086064D06BA0FEF7A1F900220421012073
:101FD00003F0B8F97249002808605AD071A0FEF7E2
:101FE00095F900220421012003F0ACF9784908603A
:101FF00078A0FEF78BF900220421012003F0A2F95A
:102000007E4908607EA0FEF781F9002204210120AC
:1020100003F098F98449002808603CD083A0FEF7BB
:1020200075F900220421012003F08CF98A49002867
:10203000086032D07DA0FEF769F90022042101205A
:1020400003F080F9854902E015E018E019E0086026
:10205000002824D082A0FEF759F900220421012093
:1020600003F070F98949002808601AD07CA0BDE807
:102070001040FEF74BB986A069E704E005E08DA0AB
:1020800071E795A07BE79DA085E7A5A08FE7ADA0B0
:1020900099E7B7A0A3E7C1A0C1E7CBA0CBE7D5A044
:1020A000D9E7D4A0E3E70000000000205B574152CD
:1020B0004E5DB5E7BBFA31B7BDCFF2CFFBCFA2B6CD
:1020C000D3C1D0B4B4BDA8B3C9B9A60D0A000000ED
:1020D000040000205B5741524E5DB5E7BBFA31501A
:1020E000574DCFFBCFA2B6D3C1D0B4B4BDA8B3C9AE
:1020F000B9A60D0A00000000080000205B574152FD
:102100004E5DB5E7BBFA32B7BDCFF2CFFBCFA2B67B
:10211000D3C1D0B4B4BDA8B3C9B9A60D0A0000009C
:102120000C0000205B5741524E5DB5E7BBFA3250C0
:10213000574DCFFBCFA2B6D3C1D0B4B4BDA8B3C95D
:10214000B9A60D0A00000000100000205B574152A4
:102150004E5D57494649BDD3CAD5CFFBCFA2B6D3B2
:10216000C1D0B4B4BDA8B3C9B9A60D0A000000001F
:10217000140000205B5741524E5D456E636F6465ED
:1021800072315FD2E7B3F6BCC6CAFDCFFBCFA2B6B1
:10219000D3C1D0B4B4BDA8B3C9B9A60D0A0000001C
:1021A000180000205B5741524E5D456E636F6465B9
:1021B00072325FD2E7B3F6BCC6CAFDCFFBCFA2B680
:1021C000D3C1D0B4B4BDA8B3C9B9A60D0A000000EC
:1021D0001C0000205B5741524E5D456E636F646585
:1021E00072315F537461747573CFFBCFA2B6D3C1E4
:1021F000D0B4B4BDA8B3C9B9A60D0A002000002010
:102200005B5741524E5D456E636F646572325F533A
:102210007461747573CFFBCFA2B6D3C1D0B4B4BD13
:10222000A8B3C9B9A60D0A00240000205B5741528B
:102230004E5D4D6F746F72315F5049445F506172F3
:10224000616D65746572B6D3C1D0B4B4BDA8B3C9AD
:10225000B9A60D0A00000000280000202C00002074
:102260005B5741524E5D4374726C5F506172616D99
:10227000657465725F5175657565B6D3C1D0B4B4C8
:10228000BDA8B3C9B9A60D0A0000000030000020A7
:102290005B5741524E5DB5E7BBFA31B7BDCFF2CFC8
:1022A000FBCFA2B6D3C1D0B4B4BDA8CAA7B0DC0DD1
:1022B0000A0000005B5741524E5DB5E7BBFA315052
:1022C000574DCFFBCFA2B6D3C1D0B4B4BDA8CAA7D7
:1022D000B0DC0D0A000000005B5741524E5DB5E7CF
:1022E000BBFA32B7BDCFF2CFFBCFA2B6D3C1D0B4C9
:1022F000B4BDA8CAA7B0DC0D0A0000005B5741526C
:102300004E5DB5E7BBFA3250574DCFFBCFA2B6D3E7
:10231000C1D0B4B4BDA8CAA7B0DC0D0A000000004B
:102320005B5741524E5D57494649BDD3CAD5CFFB95
:10233000CFA2B6D3C1D0B4B4BDA8CAA7B0DC0D0A31
:10234000000000005B5741524E5D456E636F64654F
:1023500072315FD2E7B3F6BCC6CAFDCFFBCFA2B6DF
:10236000D3C1D0B4B4BDA8CAA7B0DC0D0A00000028
:102370005B5741524E5D456E636F646572325FD24A
:10238000E7B3F6BCC6CAFDCFFBCFA2B6D3C1D0B46B
:10239000B4BDA8CAA7B0DC0D0A0000005B574152CB
:1023A0004E5D4D6F746F72315F5049445F50617282
:1023B000616D65746572B6D3C1D0B4B4BDA8CAA747
:1023C000B0DC0D0A000000005B5741524E5D4D6FBE
:1023D000746F72325F5049445F506172616D657411
:1023E0006572B6D3C1D0B4B4BDA8CAA7B0DC0D0A1B
:1023F000000000005B5741524E5D4374726C5F50A9
:102400006172616D657465725F5175657565B6D38E
:10241000C1D0B4B4BDA8CAA7B0DC0D0A000000004A
:10242000044A0029516901D0014300E08143516110
:102430007047000000100240044A0029D16901D011
:10244000014300E08143D161704700000010024069
:10245000044A0029916901D0014300E08143916160
:10246000704700000010024030B5204A5168204BF0
:1024700011F00C0103D0042901D0082901D0036018
:1024800012E05168536801F470114FF0020413F424
:10249000803F04EB914102D053689B0301D5154B5B
:1024A00000E0134B5943016051680F2303EA1111F7
:1024B000114B5C5C0168E14041605468072505EA06
:1024C00014241C5D21FA04F48460546805EAD424C1
:1024D0001B5DD940C1605268032303EA9232064B68
:1024E0001B1F9A5CB1FBF2F1016130BD001002408C
:1024F00000127A0000093D00CC0000207CB50446A3
:1025000000294DD100260F202670002A62D0012A12
:1025100023D0022A45D0032A42D160700320A07044
:102520006946186801F0E6F900206D462218295C1A
:10253000401CD1700328F9DD2946586801F0DAF90A
:1025400000202218295C401CD1710328F9DD0B20E2
:102550002654401C0E28FBDD17E060700120A0709F
:102560006946186801F0C6F99DF80000E0709DF812
:10257000010020719DF8020060719DF80300A071B8
:1025800007202654401C0E28FBDD01AA0E21204600
:10259000FFF72EF89DF80400E0739DF80500207405
:1025A0007CBD60700220A0706946186801F0A2F935
:1025B0009DF80000E0709DF8010020719DF8020078
:1025C00060719DF80300A07107202654401C0E285E
:1025D000FBDDDAE76070A6706946186801F08AF9D9
:1025E0009DF80000E0709DF8010020719DF8020048
:1025F00060719DF80300A07107202654401C0E282E
:10260000FBDDC2E70CB5002226480092019201686A
:1026100041F4803101604FF4A063016801F400319E
:1026200001910099491C0091019911B900999942B1
:10263000F3D10168890333D5012101911A490A6850
:1026400042F010020A600A6822F003020A600A6877
:1026500042F002020A60416841604168416041689D
:1026600041F480614160416821F47C11416041681E
:1026700041F4E8114160016841F080710160016836
:102680008901FCD5416821F003014160416841F0B6
:10269000020141604168C1F381010229FAD10CBDF8
:1026A00001920CBD00100240002002404FF0E021DA
:1026B0000428086903D020F004000861704740F046
:1026C0000400FAE710B503F0DDF9012803D0BDE8F6
:1026D000104002F021BE10BD0F4810B5016841F056
:1026E0000101016041680D4A1140416001680C4AD6
:1026F00011400160016821F480210160416821F4EA
:10270000FE0141604FF41F018160FFF77BFF054927
:102710004FF00060086010BD001002400000FFF89C
:10272000FFFFF6FE08ED00E070B5048C24F0010414
:102730000484058B048C4FF6FF7606EA03131343DB
:1027400025F0F3050E4A2B4390420ED00D4A9042DD
:102750000BD0B0F1804F08D00B4A904205D00B4A05
:10276000904202D00A4A904202D124F0020201E0D3
:1027700024F00A020A4342F001010383018470BD80
:10278000002C0140003401400004004000080040DB
:10279000000C0040F0B5048C24F010040484078B76
:1027A000048C4FF6FF7527F4734705EA03333B4368
:1027B00005EA02221A43114B05EA011698420ED08F
:1027C0000F4B98420BD0B0F1804F08D00D4B984280
:1027D00005D00D4B984202D00C4B984205D124F005
:1027E0002001314341F0100104E024F0A0030B4329
:1027F00043F0100102830184F0BD0000002C014071
:10280000003401400004004000080040000C00407B
:1028100010B501218C07204600F0D5F9002805D01D
:102820002046BDE81040012100F0A5B910BD000010
:1028300030B50D460446012189B00846FFF7FCFD7E
:1028400001210520FFF704FE0422ADF81C20182208
:102850008DF81F2003208DF81E0007A91648FFF7EA
:10286000FCF9ADF804400020ADF80050ADF80600CA
:10287000ADF802004FF080446946204600F00AFBA4
:102880007021ADF80C100121ADF80E100221ADF849
:10289000141003A9204600F08BFA0821204600F00E
:1028A000C5FA0121204600F069F90021204600F018
:1028B000C5FA09B030BD00000008014010B5074C52
:1028C0000121204600F07FF9002805D02046BDE810
:1028D0001040012100F04FB910BD0000000400407D
:1028E00030B50D46044689B001210220FFF7A4FD52
:1028F00001210920FFF7ACFD01211C48FFF7FCF97D
:102900002022ADF81C2018228DF81F2003208DF8FE
:102910001E0007A91648FFF7A0F9ADF804400020F3
:10292000ADF80050134CADF80600ADF80200694652
:10293000204600F0AFFA7021ADF80C100121ADF87F
:102940000E100221ADF8141003A9204600F0E6F99C
:102950000821204600F022FA0121204600F00EF95D
:102960000021204600F068FA09B030BD00081A00C6
:10297000000C01400004004038B5114C01212046F4
:1029800000F021F9002816D020880E4900090E4DCC
:10299000C00711D02088C00609D54868401E48608D
:1029A000084902236A46091D286802F0E1FE012158
:1029B000204600F0E0F838BD4868401CEFE7000012
:1029C00000080040980000201800002038B5104C86
:1029D0000121204600F0F7F8002815D020880D4985
:1029E00000090D4DC00710D02088C00608D5086822
:1029F000401E086002236A460649286802F0B8FEB5
:102A00000121204600F0B7F838BD0868401CF0E707
:102A1000000C004098000020140000203EB52F4814
:102A200000902F482F4D01900121284600F0CBF84F
:102A3000002852D02C4C211DA06820606069E06005
:102A40002A48006802F068FF294804F11001006874
:102A500002F062FF274800F0B4F86168C1EB014161
:102A60000844A060244800F0ACF82169C1EB0141A2
:102A7000084460612168A068401A03F0EBFBA1697B
:102A800003F014FC009920F000400860E1686069E0
:102A9000401A03F0DFFBA16903F008FC019920F064
:102AA000004002230860154802AA6946006802F047
:102AB0005FFE1348022302AA01A9006802F058FE33
:102AC000029830B10F4928040860BFF34F8FBFF35D
:102AD0006F8F0121284600F04EF83EBD8400002093
:102AE0008800002000100040A000002014000020FA
:102AF00018000020000C0040000800401C000020CE
:102B00002000002004ED00E07FB50D4604460121C1
:102B10001020FFF791FCADF80440ADF80050002400
:102B2000124DADF80640ADF802406946284600F067
:102B3000B1F90121284600F01BF836218DF80C1060
:102B40000E208DF80D008DF80E4001208DF80F003D
:102B500003A8FFF74BF901221146284600F0D6F8EA
:102B60000121284600F00AF87FBD00000010004057
:102B7000C94301827047C943018270470029018817
:102B800002D041F0010101E021F001010180704714
:102B900070B50589048B068C25F007050D434FF6AB
:102BA000FC410C4040F201110C434FF6FF7101EA69
:102BB000031126F022061143314305810483018469
:102BC00070BD808C704702460020138A92890B42A8
:102BD00002EA010202D0002A00D001207047000062
:102BE0002DE9F84F0D4604460888434FDFF80CC125
:102BF000DFF80C81DFF80C914988AA882B894FF007
:102C0000804A48B3042830D04FF6FF760828934610
:102C100034D0208C9E4620F480502084A38B208CBE
:102C200006EA0132009223F4734306EA0B221A43A8
:102C300006EA0E331343BC420AD0644508D054451B
:102C400006D0444504D04C4502D02F4A944245D189
:102C500020F40050009943E02046FFF765FDE98825
:102C60002046BDE8F84F00F0EDB82046FFF792FD92
:102C7000E9882046BDE8F84F00F0ECB8208C20F43D
:102C800080702084B4F81CE0208C06EA031306EA66
:102C900001222EF0F30E43EA0B0343EA0E030092E7
:102CA000BC420AD0644508D0544506D0444504D0FF
:102CB0004C4502D0144A944203D120F4007000998C
:102CC00001E020F42060084340F48070A383208456
:102CD000E9882046BDE8F84F00F0C8B820F402406B
:102CE000084340F48050A3832084E9882046BDE84F
:102CF000F84F00F0C3B80000002C01400034014040
:102D00000004004000080040000C0040002A8289B6
:102D100001D00A4300E08A438281704770B5028C7B
:102D200022F010020284028C8388048B0D8824F424
:102D3000E6464FF6FF7404EA052535430E8922F076
:102D4000200204EA061616434A8804EA02123243B5
:102D5000104EB04202D0104EB04215D122F0800683
:102D60004A8923F4406304EA0212324322F0400607
:102D70008A8804EA021232438E8904EA86061E43D8
:102D8000CB8904EA8303334383800583C9880187A1
:102D9000028470BD002C014000340140028B4FF6CC
:102DA000FF7322F4006203EA01211143018370479B
:102DB00070B5028C22F480720284028C8388848B2A
:102DC0000D8824F0730425430E894FF6FF7422F416
:102DD000007204EA062616434A8804EA02223243B5
:102DE000104EB04202D0104EB04215D122F400660F
:102DF0004A8923F4405304EA0222324322F48066D3
:102E00008A8804EA022232438E8904EA06161E43A7
:102E1000CB8904EA0313334383808583C988818780
:102E2000028470BD002C014000340140828B22F0EE
:102E300008020A4382837047018770478187704781
:102E400081847047028B22F00C020283028B0A43BA
:102E500002837047028B22F440620283028B4FF69A
:102E6000FF7303EA01210A4302837047828B22F039
:102E70000C028283828B0A4382837047828B22F406
:102E800040628283828B4FF6FF7303EA01210A437B
:102E90008283704730B502881B4C1C4DA0420DD078
:102EA000A8420BD0B0F1804F08D0194B984205D002
:102EB000184B984202D0184B984203D122F070036D
:102EC0004A881A43154B984206D0154B984203D0B6
:102ED00022F44073CA881A4302808A8882850A884D
:102EE0000285A0420AD0A84208D00E4A904205D0DE
:102EF0000D4A904202D00D4A904201D1097A0186D2
:102F00000121818230BD0000002C014000340140CD
:102F10000004004000080040000C00400010004089
:102F200000140040004001400044014000480140BE
:102F30004FF6FF71818000210180C18041800172C4
:102F40007047000070B5154C40F22551204600F046
:102F5000C3F800280ED0204600F04CF9104AC1B248
:102F60001088030406D444044FF0000306D50A2950
:102F700001D0138070BD40F400400DE00D2909D050
:102F8000C0F30D04074D401C80B229551080C7289E
:102F9000EFD870BD40F48040108070BD0038014013
:102FA000C00000206C0400202DE9FC473948374E52
:102FB000002100900160364C3046FEF77DFB40F268
:102FC00024494946204600F087F8A71590B34FF4EE
:102FD0007000FEF759FB3046FEF7ECFBC0F5807041
:102FE00005B2681EFF2836D800213046FEF764FB84
:102FF000776000983946001DFDF79DFA00983A4623
:10300000254920C0FDF728FA2448022301AA694671
:10301000006802F0ADFB224801A9006802F018FC2C
:103020000198C0B11F49A0040860BFF34F8FBFF3E0
:103030006F8F10E0FFE74FF45A784146254620464F
:1030400000F04AF838B141462C46284600F02CF8EA
:103050002088A08801E02088A08800213046FEF763
:103060002BFB394677600C48FDF743FA01213046C7
:10307000FEF722FB40F22661204600F015F8494693
:10308000204600F011F8BDE8FC8700006C0002400B
:1030900000440040680100206C0300201000002064
:1030A0004400002004ED00E00A0A01219140C943D8
:1030B000018070470029818902D041F4005101E06C
:1030C00021F4005181817047002A828A01D00A438D
:1030D00000E08A438282704770B501F01F05012627
:1030E0000024C1F3421306FA05F2012B0FD0022B84
:1030F0000FD0838A4FEA11210088134206FA01F6A5
:1031000000EA060001D000B10124204670BD838989
:10311000F0E7038AEEE710B5C1F3421301F01F0494
:103120000121A140012B07D0022B07D01430002A27
:10313000026805D00A4304E00C30F8E71030F6E7E7
:103140008A43026010BD000030B50446008A85B095
:103150000D464CF6FF710840E98801432182A089A1
:103160004EF6F3110840A9882A8911436A8902435F
:103170001143A181A08A4FF6FF410840A98901436C
:10318000A1826846FFF770F91948844201D103987B
:1031900000E00298A189090400EBC00101EB0010D6
:1031A000296801D5490000E08900B0FBF1F06422F4
:1031B000B0FBF2F109010B096FF018056B4300EB4E
:1031C0008300A3891D044FF0320306D503EBC00032
:1031D000B0FBF2F000F0070005E003EB0010B0FBDD
:1031E000F2F000F00F000843208105B030BD000070
:1031F000003801408088C0F308007047FEE70000F7
:1032000070B50C4605464FF480710E48FDF771F914
:10321000224629460B48FDF71FF9012280210A4862
:10322000FFF752FF094D00212846FEF745FAA1B2EB
:103230002846FEF7E7FA2846BDE870400121FEF770
:103240003BBA00006C0200200044004080000240B5
:1032500092B0FE480490FE480090FE480290FE485E
:103260000390FE480190FE4800240990FD48FE4E60
:10327000FE4FDFF8FC83DFF8FC93DFF8FCA3DFF8F8
:10328000FCB30F94012510940790FD4800235A1EAB
:103290001946006802F092F801283ED1821EF948D2
:1032A000012304A9006802F089F8C1B2049B002040
:1032B000401C1028FCDD00292FD00AAA0DA9181DDA
:1032C000FEF705FB9DF834000128E6D1EEA0FDF7DE
:1032D0001DF89DF835000128DFD1F1A0FDF716F8A3
:1032E0009DF83600012806D002287CD003287BD028
:1032F0000428D2D135E1EFA0FDF708F89DF837009A
:1033000000283DD0012802D00228C6D11EE09DF839
:103310003800012802D0022807D02DE1EAA0FCF7EE
:10332000F5FF00984570047005E0ECA0FCF7EEFF97
:10333000009844700570022300226946306802F04C
:1033400053F900231A46194638684BE09DF83800B7
:10335000012802D0022807D00EE1E5A0FCF7D6FF35
:1033600002984570047005E0E6A0FCF7CFFF0298D4
:10337000447005700223002202A9D8F800002AE058
:103380009DF83800012802D002280AD0F4E0E2A01B
:10339000FCF7BCFF009845700470029845700470FB
:1033A00008E0E2A0FCF7B2FF0098447005700298B4
:1033B00044700570022300226946306802F014F957
:1033C0000223002202A9D8F8000002F00DF9002320
:1033D0001A461946386802F007F900231A461946BA
:1033E000D9F8000001E003E055E002F0FDF8C3E089
:1033F0009DF8370028B3012802D002288DD113E0B0
:103400009DF8380002F03EFFCD4902F041FE0F90DA
:10341000CC48022300220FA9006802F0E5F800233F
:103420001A461946C848F4E19DF8380002F02AFF10
:10343000C34902F02DFE02231090002210A9C348B8
:1034400021E09DF8380002F01DFFBD4902F020FE8A
:103450000F909DF8380002F015FFB94902F018FEF0
:103460001090B848022300220FA9006802F0BCF8AF
:10347000B6480223002210A9006802F0B5F8002324
:10348000B1481A461946006802F0AEF800231A4601
:103490001946AF48BDE1AFA0FCF738FF9DF83700F3
:1034A00048B3012804D0022816D0032864D132E0A2
:1034B000ADA0FCF72BFF0A9802F05CFD02460B461C
:1034C000ACA0FCF723FF03990A98022308600022AE
:1034D00003A9DAF8000085E7AAA0FCF717FF0A980D
:1034E00002F048FD02460B46A2A0FCF70FFF01992F
:1034F0000A9808602FE0A6A0FCF708FF0A9802F0DF
:1035000039FD02460B469BA0FCF700FF03990A9881
:1035100008600A9816E0A1A0FCF7F8FE0A9802F0ED
:1035200029FD02460B4693A0FCF7F0FE0B9802F033
:1035300021FD02460B468FA0FCF7E8FE03990A988E
:1035400008600B98019902230022086003A9DAF8A9
:10355000000002F049F80223002201A9DBF8000074
:1035600040E791A0FCF7D2FE9DF83700002851D02B
:10357000012805D002282AD0142001F097FC84E607
:1035800079A0FCF7C3FE0A9802F0F4FC02460B4651
:1035900089A0FCF7BBFE0B9802F0ECFC02460B4640
:1035A00088A0FCF7B3FE0C9802F0E4FC02460B4640
:1035B00087A0FCF7ABFEDDE90901022301600B994E
:1035C00041600C998160002209A9844821E16DA025
:1035D000FCF79CFE0A9802F0CDFC02460B4676A052
:1035E000FCF794FE0B9802F0C5FC02460B4675A052
:1035F000FCF78CFE0C9802F0BDFC02460B4674A052
:10360000FCF784FE07980A9901600B9941600C99B8
:103610008160FAE05EA0FCF779FE0A9802F0AAFC4D
:1036200002460B4664A0FCF771FE0B9802F0A2FC68
:1036300002460B4663A0FCF769FE0C9802F09AFC68
:1036400002460B4662A0FCF761FEC9E0680100205B
:1036500094000020960000208C00002090000020A4
:10366000500100205C0100200000002034000020F8
:10367000080000203C0000202C000020300000202A
:1036800044000020100000205B5741524E5DCAA349
:10369000D3E0B3A4B6C8D0A3D1E9B3C9B9A600009A
:1036A0005B5741524E5D435243D0A3D1E9B3C9B9F0
:1036B000A60000005B5741524E5DB5E7BBFAB7BDAF
:1036C000CFF2BFD8D6C600005B5741524E5DB5E77A
:1036D000BBFA31B7BDCFF231000000005B57415259
:1036E0004E5DB5E7BBFA31B7BDCFF2320000000046
:1036F0005B5741524E5DB5E7BBFA32B7BDCFF231F1
:10370000000000005B5741524E5DB5E7BBFA32B78F
:10371000BDCFF232000000005B5741524E5DB5E76D
:10372000BBFA426F7468B7BDCFF231005B574152AC
:103730004E5DB5E7BBFA426F7468B7BDCFF2320099
:103740000000C84204000020380000200C000020C7
:10375000400000205B5741524E5D6374726C5F7392
:1037600070656564000000005B5741524E5D4D314D
:10377000000000005B5741524E5D73706565643D0B
:10378000256600005B5741524E5D4D32000000003F
:103790005B5741524E5D4D31264D32005B574152D1
:1037A0004E5D4D327C4D32005B5741524E5D50496B
:1037B00044736574000000005B5741524E5D503DFC
:1037C000256600005B5741524E5D493D256600006D
:1037D0005B5741524E5D443D2566000024000020A9
:1037E000DDE90901022301600B9941600C998160B8
:1037F00007980A99002201600B9941600C99816039
:10380000054809A9006801F0EFFE022303480022E1
:1038100007A90068E6E50000240000202800002039
:103820008CB009A807900AA8134D144E4FF0FF342E
:103830004FF4167708900123224607A9286801F063
:10384000BDFD0123224608A9306801F0B7FD0798A5
:1038500005AB0322006805900898002100680690D7
:103860006846FEF74BFE11216846FFF7C9FC384653
:1038700001F01CFBDFE700001C00002020000020FE
:10388000490050EAC12018BF04204A0D18BF40F07B
:10389000010040F2FF72B2EB515F08BF40F002003E
:1038A000012808BF052070477047000010B50420AC
:1038B000FEF7FCFE0C480D490D4A0068B0FBF1F321
:1038C000B0FBF1F14FF47A70414313700120508046
:1038D0004FF0E020026942F0020202614161016999
:1038E00041F00101016110BD7000002040420F0055
:1038F000BC0000200870020A4A70020C8A70000E98
:10390000C870704704490A885206FCD5024AC1B201
:10391000121D11807047000000380140FEF772B898
:103920001CB54FF44070FEF793FAFFF7BFFFFDF7A9
:103930002CFEFEF7CFFA07490120CDE90001002354
:10394000802205A1074802F071F801F00FFC002069
:103950001CBD00004800002073746172745F7461C4
:10396000736B0000F94700088AB00020009007A898
:10397000019008A8029004A8039000F0D5F9264E03
:10398000264FDFF89C80274DDFF89C90DFF89CA045
:103990004FF0FF3B01230A2201A9306801F00EFD20
:1039A00001230A2202A9386801F008FD01235A46C2
:1039B00003A9D8F8000001F001FD01980468204631
:1039C00002F0D8FA02460B4619A0FCF79FFC0298B9
:1039D0000268039801682961416869618068A8618B
:1039E0002146104600F094FE174902F051FB20F0EA
:1039F00000400090022300226946D9F8000001F03F
:103A0000F3FD00231A461946DAF8000001F0ECFD38
:103A1000642001F04BFABDE71C0000202C000020C0
:103A200024000020805800200400002038000020DE
:103A30005B5741524E5D41637475616C5F537065B5
:103A40006564313D2566000000007A441CB501A87C
:103A5000DFF86880DFF8689000251A4C4FF0FF37D8
:103A60000126009000233A461946D8F8000001F0DC
:103A7000A5FC01281ED101233A466946D9F8000069
:103A800001F09CFC00984178012901D041B111E07E
:103A9000007878B9C4F88051C4F884610AA007E0BE
:103AA0000078012806D1C4F88061C4F884510BA0C5
:103AB000FCF72CFC142001F0F9F9D3E734000020C6
:103AC00000000020000022425B5741524E5DB5E7E6
:103AD000BBFA31B7B4CFF20D0A0000005B57415278
:103AE0004E5DB5E7BBFA31D5FDCFF20D0A000000FF
:103AF00008B50020114D124E124FDFF84C80441EC5
:103B00000090002322461946286801F057FC01283E
:103B100010D1012322466946306801F04FFC394636
:103B2000009802F0C3FB009002F074FB81B24046A3
:103B3000FFF782F9142001F0B9F9E2E7380000201C
:103B40000400002000007A44000400408AB00020F5
:103B5000009007A8019008A8029004A8039000F024
:103B6000E3F8254E254FDFF89880264DDFF8989032
:103B7000DFF898A04FF0FF3B01230A2201A930682B
:103B800001F01CFC01230A2202A9386801F016FC8E
:103B900001235A4603A9D8F8000001F00FFC019850
:103BA0000468204602F0E6F902460B4618A0FCF72E
:103BB000ADFB029802680398016829614168696158
:103BC0008068A8612146104600F0DCFD164902F02D
:103BD0005FFA0090022300226946D9F8000001F044
:103BE00003FD00231A461946DAF8000001F0FCFC38
:103BF000642001F05BF9BFE72000002030000020C6
:103C000028000020A45800200C00002040000020C4
:103C10005B5741524E5D41637475616C5F537065D3
:103C20006564323D2566000000007A441CB501A899
:103C3000DFF86880DFF8689000251A4C4FF0FF37F6
:103C40000126009000233A461946D8F8000001F0FA
:103C5000B5FB01281ED101233A466946D9F8000078
:103C600001F0ACFB00984178012901D041B111E08D
:103C7000007878B9C4F88851C4F88C610AA007E0CC
:103C80000078012806D1C4F88861C4F88C510BA0D3
:103C9000FCF73CFB142001F009F9D3E73C000020BD
:103CA00008000020000022425B5741524E5DB5E7FC
:103CB000BBFA32B7B4CFF20D0A0000005B57415295
:103CC0004E5DB5E7BBFA32D5FDCFF20D0A0000001C
:103CD00008B50020114D124E124F441E4FF080487F
:103CE0000090002322461946286801F067FB01284E
:103CF00010D1012322466946306801F05FFB394646
:103D0000009802F0D3FA009002F084FA81B24046A3
:103D1000FFF794F8142001F0C9F8E2E74000002012
:103D20000C00002000007A440A4900200860486026
:103D30008860C860086148618861C8610862064996
:103D4000086048608860C860086148618861C8612F
:103D50000862704780580020A45800202DE9F041E7
:103D6000184E0F460446F5683068001D00F014FF39
:103D700038B9306890F82C100120884031698143AF
:103D80003161601C07D137B13168BDE8F0410E48A0
:103D9000091D00F039BF30682C44AC4244603168E2
:103DA00005D2B06BBDE8F041091D00F015BF706B86
:103DB000091D00F011FFB06A844200D2B462BDE870
:103DC000F0810000DC000020440800202DE9F041D3
:103DD000054600F025FF2D4EB068401CB0603068ED
:103DE0002B4F10B1706930B32BE03560B0680128FB
:103DF00027D1002404EB840007EB800000F0DEFEF6
:103E0000641C202CF6D3234800F0D8FE214814303F
:103E100000F0D4FE1F48283000F0D0FE1D483C3092
:103E200000F0CCFE1B48503000F0C8FE194870630B
:103E30001430B06305E03068E96AC06A884200D88F
:103E40003560706A0121401C70626864E86A3269FA
:103E500081401143316100EB800007EB8000291D98
:103E600000F0D2FE00F018FF706900280CD0306816
:103E7000E96AC06A884207D207494FF0805008605B
:103E8000BFF34F8FBFF36F8FBDE8F081DC000020E0
:103E900074050020F407002004ED00E010B500F0E8
:103EA000BFFE0E4C2068A0B90D4800F087FE0C48FC
:103EB000143000F083FE0A48E060143020610022D4
:103EC0001021052001F03EFA206010B105A100F09C
:103ED000B9FFBDE8104000F0DFBE0000180100206F
:103EE00058080020546D72510000000070B5124E49
:103EF000124D1CE001F084F9306820B1002401F07B
:103F0000EFFEA4B901E00124F9E700F089FEF068B2
:103F1000C468201D00F040FEA868401EA8606868C4
:103F2000401E686000F0B8FE204600F052F8686855
:103F30000028DFD170BD000030080020DC00002028
:103F400030B4026C0B46002A0BD0C1681144C1602A
:103F50004468A14201D30168C16030BC1846FCF737
:103F60007BBA30BC70472DE9F041856B174604469B
:103F70000026026C82B1C7B1E068FCF76DFAE16817
:103F8000206C091AE1602268914202D26168081A25
:103F9000E060022F16D017E02068A8B9606801F031
:103FA000F9FD0646002060600EE0A068FCF754FAB8
:103FB000216CA0680844A0606168884204D320682E
:103FC000A06001E005B16D1E6D1CA5633046BDE823
:103FD000F08110B50446006B00F090FE2046BDE86D
:103FE000104000F08BBE000010484FF4A041420783
:103FF00006D0C01D0D4920F00700411AC1F5A041AF
:104000000B4A00230144C2E900030839103A21F0A9
:10401000070111604B600B600B1AC0E9001393603D
:104020004FF000405360D0607047000080080020CF
:104030003C010020074E4FF08054074DFFF756FF1C
:1040400030680128FAD92C60BFF34F8FBFF36F8F10
:10405000F4E700007405002004ED00E02DE9F047CE
:10406000DDE909840E461746824691009946089D6F
:10407000A522206BFCF735FA6FF00301206B01EBF2
:104080008701084420F00707780705D040F22B325B
:1040900019A11EA0FCF73AF900202218315C82F821
:1040A0003410315C11B1401C1028F6D3002684F87E
:1040B0004360202D00D31F25E562C4E91356201D5F
:1040C00000F087FD04F1180000F083FD2461C5F1C4
:1040D00020006462A061666584F858604A465146D3
:1040E000384600F003FB2060B8F1000F01D0C8F89B
:1040F0000040BDE8F08700002E2E5C4672656552D8
:10410000544F535C7461736B732E63004572726F0E
:10411000723A25732C25640D0A00000030B5114950
:1041200000E011460A688242FBD34B685C18844267
:1041300003D1406818444860084643681C189442FC
:1041400009D1084C103C2468A24209D052681A4494
:1041500042600A6812680260814200D0086030BD87
:104160000460F9E73C01002070B5002441600B4D6C
:104170000061914206D8D11A8269914206D2011D8E
:10418000286907E09A4203D2994201D3012403E04F
:10419000011DE86800F020FD204670BD18010020D8
:1041A00010B5044600F03CFDA06B20B1002400F0E7
:1041B00073FD204610BD0124F9E700002DE9F3410D
:1041C00000980F460026846C2CB940F6CE1216A13A
:1041D0001AA0FCF79BF8A06BE16B884205D340F670
:1041E000CF1211A115A0FCF791F8A06BE16B8842EA
:1041F0000CD294F945503A4669462046FFF7B3FE83
:104200000646681C05D06D1C84F845503046BDE854
:10421000FC81606A0028F9D004F1240001F014FD4B
:104220000028F3D00126F1E72E2E5C467265655218
:10423000544F535C71756575652E63004572726FDE
:10424000723A25732C25640D0A000000F8B5054666
:1042500014480E46C068C068C468201D00F09CFC6D
:10426000E069012817D1A0692B4641193246204642
:10427000FFF77AFF78B100200346014600902A46F6
:10428000204601F013FE30B907494FF4027201F1E4
:104290001800FCF73BF8616A01B02046BDE8F04029
:1042A0000847000018010020105E000870B586B0B5
:1042B0002F4E53E00198002806DADDE90301029A47
:1042C00090470198002849DB039C606910B1201DCC
:1042D00000F062FC05A800F0A7F8054601980A283E
:1042E0003CD2DFE800F00505053B273805053B27F4
:1042F0000298A169034601442A462046FFF734FF8D
:1043000000282BD0616A20468847E069012825D122
:10431000002000900298A169002342181946204607
:1043200001F0C4FDD0B940F2213212A117A0FBF771
:10433000EDFF13E00298A06128B94FF44E720DA171
:1043400012A0FBF7E3FFA0692B4641191A4620464D
:10435000FFF70AFF02E0204600F0D0FC00231A46D7
:1043600001A9306801F02AF80028A3D106B070BD79
:10437000180100202E2E5C4672656552544F535C26
:1043800074696D6572732E63000000004572726F70
:10439000723A25732C25640D0A000000F8B50D460D
:1043A000064600F02DFF684600F03EF804460098EF
:1043B00010B101F095FCF8BD1148ADB10169096873
:1043C000D9B10025311B2A46006800F04DFD01F0EF
:1043D00087FC0028EFD10B494FF080500860BFF3F5
:1043E0004F8FBFF36F8FF8BDA642EBD801F078FC7A
:1043F00021463046FFF72AFFF8BD0125E2E700001D
:104400001801002004ED00E00648416B096829B15D
:10441000416BC968C9684968816270474FF0FF31D4
:10442000FAE70000DC00002070B5054601F038FB1B
:10443000064E0446B068844203D200F009F8012019
:1044400000E0002028602046B46070BD1801002004
:10445000F8B5184E26E0C068C4680568201D00F055
:104460009BFB616A20468847E06901281AD1A06950
:104470002844A84206D924616060211DF06800F03C
:10448000ABFB0FE000200346014600902A46204681
:1044900001F00CFD30B9084940F2923201F11800E8
:1044A000FBF734FFF06801680029D4D13169C6E90F
:1044B0000310F8BD18010020105E0008084840688D
:1044C000401C04D0F42207A111A0FBF71FFF5020CD
:1044D00080F31188BFF34F8FBFF36F8FFEE70000AB
:1044E000440100202E2E5C4672656552544F535C89
:1044F000706F727461626C655C525644535C4152D9
:104500004D5F434D335C706F72742E63000000008A
:104510004572726F723A25732C25640D0A000000F3
:10452000084CE068016839B1002139B10020FFF77B
:1045300035FFFFF7BBFEF4E70121F6E7C06800682E
:10454000F5E70000180100202DE9F041044600F0D5
:1045500067FB94F9455004F1240610E0A06C20B1EB
:1045600000212046FFF72AFE04E0606A48B1304689
:1045700001F06AFB08B100F035FD6D1E6DB2002D33
:10458000ECDC4FF0FF3684F8456000F085FB00F06E
:1045900047FB94F9445004F1100709E0206948B141
:1045A000384601F051FB08B100F01CFD6D1E6DB2E4
:1045B000002DF3DC84F84460BDE8F04100F06CBBF2
:1045C0002DE9F0410546002600F01AFE324F38680A
:1045D00008B9FFF709FDF86805424FD1002D4DD00D
:1045E000083568070BD005F00700C0F10800054446
:1045F000680704D0BF2229A132A0FBF787FE002D57
:104600003CD07868854239D823491031084604687F
:1046100001E0214604466068A84202D220680028D2
:10462000F7D13868B846844228D00E682068086000
:1046300060680836401B10280ED96719780704D027
:10464000EC2216A11FA0FBF761FE6068401B78609A
:1046500038466560FFF762FD6168D8F8040042469D
:10466000401AC8F80400D8F80830984200D2906088
:10467000D8F80C0001430020C4E9000101F030FB30
:10468000700705D04FF4967204A10EA0FBF73EFE12
:104690003046BDE8F08100002C0100202E2E5C4643
:1046A00072656552544F535C706F727461626C65D1
:1046B0005C4D656D4D616E675C686561705F342E41
:1046C000630000004572726F723A25732C25640DE9
:1046D0000A0000000449086818B10868026D521CFD
:1046E0000265086870470000DC00002010B5031F59
:1046F0004FF080741C601B1F21F001011960191F0D
:10470000024B0B60143940380A6010BDBD440008EC
:104710002DE9F041194CC4E9000101F093FE054672
:10472000A0602946206A01F051FC20620746284615
:10473000E16801F087FEA16901F0B8FD064639463F
:10474000606901F0B3FD07462946206901F0AEFD1E
:10475000394601F03BFC314601F038FC0849E56080
:10476000E061884201DDE16104E010F1FF4F01D317
:104770000020E061E069BDE8F08100008058002081
:1047800000007A442DE9F041194CC4E9000101F020
:1047900059FE0546A0602946206A01F017FC2062F8
:1047A00007462846E16801F04DFEA16901F07EFD53
:1047B00006463946606901F079FD074629462069B9
:1047C00001F074FD394601F001FC314601F0FEFBB9
:1047D0000849E560E061884201DDE16104E010F133
:1047E000FF4F01D30020E061E069BDE8F0810000E7
:1047F000A458002000007A442DE9FC41FFF78EF810
:1048000000F00EFA02243348E601CDE9004000230F
:10481000324631A1344801F009F92E480023001D29
:10482000CDE90040324631A1344801F0FFF8294873
:1048300000230830CDE90040324631A1344801F070
:10484000F5F8244800230C30CDE90040324631A170
:10485000344801F0EBF81F4803251030CDE9005033
:10486000270200233A4630A1334801F0DFF8194807
:1048700000231430CDE900503A4630A1334801F00E
:10488000D5F8144800231830CDE900403A4630A14D
:10489000334801F0CBF80F4800231C30CDE900501D
:1048A0003A4630A1324801F0C1F80A4900202031CF
:1048B000CDE90001034632462EA1314801F0B6F899
:1048C0000448001F006800F027FBBDE8FC4100F031
:1048D000E3B900004C0000206D6F746F72315F64AB
:1048E00069725F7461736B004D3A00086D6F746F8D
:1048F00072315F70776D5F7461736B00F13A00081D
:104900006D6F746F72325F6469725F7461736B0094
:104910002D3C00086D6F746F72325F70776D5F743D
:1049200061736B00D13C00086D6F746F72315F5022
:1049300049445F7461736B00693900086D6F746F6F
:1049400072325F5049445F7461736B004D3B0008E5
:10495000576966695F73656E645F7461736B0000AD
:1049600021380008776966695F7461736B00000025
:104970005132000849646C655F7461736B0000001C
:10498000591D0008C72041F61F41FEF7BDB80000C1
:1049900070B5054686B0012144F20400FDF758FDCC
:1049A0004FF40070ADF8100003248DF81240182069
:1049B0001D4E8DF8130004A93046FDF74EF9301551
:1049C000ADF8100004208DF8130004A93046FDF75F
:1049D00044F925208DF814008DF815408DF8164007
:1049E00001208DF8170005A8FDF700FA0020ADF8AA
:1049F0000400ADF80600ADF80800ADF80C000C207E
:104A00000A4CADF80A00009569462046FEF79CFB6B
:104A1000012240F225512046FEF77DFB0121204670
:104A2000FEF748FB06B070BD0008014000380140A9
:104A300018B50023012803D0022801D0002819D17D
:104A40006C46C85CE0545B1C032BFADD00981060D8
:104A500000200B181B792354401C0328F9DD009813
:104A6000506000200B181B7A2354401C0328F9DDEA
:104A70000098906018BD18B500236C4601281CD022
:104A800002281AD0C8B1C85CE0545B1C032BFADDC5
:104A90000098106000200B181B792354401C032839
:104AA000F9DD0098506000200B181B7A2354401C3D
:104AB0000328F9DD0098906018BDC85CE0545B1CC9
:104AC000032BFADD0098106018BD000030B50121FD
:104AD00085B04804FDF7B0FC01212020FDF7B8FCAB
:104AE00001210846FDF7B4FC01210820FDF704F977
:104AF00018208DF813002020ADF81000244D032459
:104B00008DF8124004A92846FDF7A7F804218DF876
:104B100013104020ADF810008DF8124004A928466B
:104B2000FDF79BF84FF4E130009000200C21ADF828
:104B30000A10ADF80600174CADF80C00ADF80800EF
:104B4000ADF8040069462046FEF7FEFA002240F266
:104B500026612046FEF7DFFA002240F2255120466A
:104B6000FEF7D9FA012240F224412046FEF7D3FA9B
:104B7000012260212046FEF7CEFA0122282120469C
:104B8000FEF7C9FA01212046FEF794FA05B030BDC0
:104B90000014014000440040D0E9013201699A60EC
:104BA000D0E901235A604A68824201D182684A6092
:104BB000002202610868401E0860704700F1080189
:104BC0004FF0FF32C0E90112C160016100210160B4
:104BD000704700210161704730B50C68621C02D03B
:104BE00000F1080202E0026904E01A4653681D68F9
:104BF000A542FAD953684B6099608A605160086198
:104C00000168491C016030BD42684A6093688B604E
:104C100093685960916008610168491C01607047A0
:104C2000502080F31188BFF34F8FBFF36F8F094976
:104C30004868401C486001280AD10748006810F005
:104C4000FF0F05D04FF4BD7204A10FA0FBF75EBBB0
:104C5000704700004401002004ED00E02E2E5C4669
:104C600072656552544F535C706F727461626C650B
:104C70005C525644535C41524D5F434D335C706F00
:104C800072742E63000000004572726F723A2573D1
:104C90002C25640D0A00000010B5084C606828B986
:104CA00040F2811206A111A0FBF730FB6068401EA4
:104CB000606001D180F3118810BD00004401002024
:104CC0002E2E5C4672656552544F535C706F727441
:104CD00061626C655C525644535C41524D5F434D7A
:104CE000335C706F72742E63000000004572726F47
:104CF000723A25732C25640D0A00000070B5002857
:104D00002AD0164DA0F108046068E968084205D170
:104D10004FF4A07212A11CA0FBF7F8FA206828B18A
:104D200040F241120EA118A0FBF7F0FA6068E968A2
:104D3000084211D02268002A0ED18843606000F03A
:104D40005FFA60686968084468602046FFF7E6F922
:104D5000BDE8704000F0C4BF70BD00002C01002011
:104D60002E2E5C4672656552544F535C706F7274A0
:104D700061626C655C4D656D4D616E675C68656117
:104D8000705F342E630000004572726F723A2573B3
:104D90002C25640D0A00000006484FF47A71006863
:104DA000B0FBF1F14FF0E020491E416107210161A4
:104DB000704700007000002010B5FBF781FA104C1E
:104DC00010280CD300F1E02090F8F00321788842FD
:104DD00005D24FF42A720BA115A0FBF797FA1848D9
:104DE0000068A16800F4E060884207D9BDE810407F
:104DF0004FF42E7203A10EA0FBF788BA10BD00007D
:104E0000440100202E2E5C4672656552544F535C5F
:104E1000706F727461626C655C525644535C4152AF
:104E20004D5F434D335C706F72742E630000000061
:104E30004572726F723A25732C25640D0A000000CA
:104E40000CED00E010B5074B002253F832401CB1C6
:104E5000521C082AF9D310BD43F8321003EBC201EB
:104E6000486010BD3405002070B515460E46044656
:104E7000FFF7D6FE94F944100020491C01D184F8B4
:104E8000440094F94510491C01D184F84500FFF70E
:104E900003FFA06B28B92A46314604F1240000F034
:104EA000D1F82046BDE87040FFF74EBB10B50400B6
:104EB00012D00E49096B29B140F2CF420CA111A0CA
:104EC000FBF724FA00F09CF900212046FEF746FF8C
:104ED00000F006FF002807D10E494FF0805008600F
:104EE000BFF34F8FBFF36F8F10BD0000DC000020B9
:104EF0002E2E5C4672656552544F535C7461736B21
:104F0000732E63004572726F723A25732C25640DFF
:104F10000A00000004ED00E070B50446FFF780FED3
:104F2000234D04B92C68201DFFF736FE58B9E06AFE
:104F3000204A00EB800152F8211021B90121814063
:104F4000286988432861A06A18B104F11800FFF7A6
:104F500023FE686A401C68622868844207D1211DCC
:104F60001548FFF751FE6868401C686007E0A868B4
:104F7000401EA8602046FFF72CF8FFF745FAFFF720
:104F80008BFE6869002812D0286884420FD1286BF4
:104F900028B140F2654209A10DA0FBF7B7F910490D
:104FA0004FF080500860BFF34F8FBFF36F8F70BD1D
:104FB000DC00002074050020300800202E2E5C4606
:104FC00072656552544F535C7461736B732E63004A
:104FD0004572726F723A25732C25640D0A00000029
:104FE00004ED00E001490120C8617047DC000020A9
:104FF00070B50D46040005D140F6063207A10CA09D
:10500000FBF784F90E48016820461831FFF7E4FDEC
:105010002846BDE870400121FEF7A0BE2E2E5C465A
:1050200072656552544F535C7461736B732E6300E9
:105030004572726F723A25732C25640D0A000000C8
:10504000DC00002070B514460E46050005D140F680
:10505000313209A10DA0FBF759F910480168284623
:105060001831FFF7D1FD0CB14FF0FF362146304625
:10507000BDE87040FEF772BE2E2E5C46726565522A
:10508000544F535C7461736B732E63004572726F7F
:10509000723A25732C25640D0A000000DC00002004
:1050A00070B5040039D01D4DE06A2968C96A88428C
:1050B00033D2A069002804DB2868C06AC0F1200050
:1050C000A061E06A164E00EB8000616906EB80008B
:1050D00081421FD1201DFFF75FFD012150B9E06A19
:1050E00000EB800256F8222022B92A6901FA00F06A
:1050F00082432A612868C06AE0622A6981401143BC
:10510000296100EB800006EB8000211DBDE87040A6
:10511000FFF77ABD2868C06AE06270BDDC0000203D
:105120007405002010B5040005D140F6C13205A178
:1051300009A0FBF7EBF80C48016A2160C0686060C9
:1051400010BD00002E2E5C4672656552544F535CB4
:105150007461736B732E63004572726F723A2573BC
:105160002C25640D0A000000DC0000201CB5174847
:105170000024CDE900402346822215A1164800F004
:1051800055FC012803D100F057FE01280AD0401C2D
:105190001BD102B040F28472BDE810400FA114A0F0
:1051A000FBF7B4B8502080F31188BFF34F8FBFF3E3
:1051B0006F8F06484FF0FF312C3881620121416129
:1051C000C460BDE81C4000F06BB81CBD08010020A5
:1051D00049444C4500000000354000082E2E5C4636
:1051E00072656552544F535C7461736B732E630028
:1051F0004572726F723A25732C25640D0A00000007
:105200000248016B491C016370470000DC0000206C
:1052100070B5134D286B10B10120E86170BD0020FE
:10522000E86128690F4EB0FA80F0C0F11F0000EB72
:10523000800456F8240028B940F6F6220AA10FA0EF
:10524000FBF764F806EB840000F108024168496846
:105250004160914201D149684160C868286070BDD1
:10526000DC000020740500202E2E5C46726565521D
:10527000544F535C7461736B732E63004572726F8D
:10528000723A25732C25640D0A00000010B5FFF753
:105290001DFCFCF7B9FABDE81040FCF7E3BD0000C7
:1052A0001CB51A4908780190FF20087008788DF81D
:1052B00000009DF80000164A00F050001070072012
:1052C000906007E09068401E90609DF800004000EC
:1052D0008DF800009DF800000006F3D4107A00025B
:1052E00000F4E0609060019808700A48016841F499
:1052F00070010160016841F070410160FFF74CFDF1
:1053000000205060FAF7A6FF00201CBD00E400E07A
:105310004401002020ED00E010B5502080F31188FA
:10532000BFF34F8FBFF36F8F00F0C0FB18B104497C
:105330004FF080500860002080F3118810BD0000FD
:1053400004ED00E02DE9F04117460E46050005D1B9
:105350004FF4C47210A115A0FAF7D8FFBEB105FB37
:1053600006F05430FFF72CF904000ED004F154007D
:105370007EB12060C4E90F562046012100F0E0F81C
:1053800084F8507000212046A164BDE8F08100201F
:10539000E7E72460EEE700002E2E5C46726565525A
:1053A000544F535C71756575652E63004572726F5D
:1053B000723A25732C25640D0A0000002DE9FF4F79
:1053C00083B09B468A4604004FF0000605D140F2A8
:1053D000DC4251A155A0FAF799FFBAF1000F07D1AD
:1053E000206C28B140F2DD424BA150A0FAF78EFFAD
:1053F00000F048FB38B9059828B14FF49C6246A1EB
:105400004AA0FAF783FF4FF000094FF08057DFF80A
:105410002C81FFF705FCA56B45B351462046E66895
:10542000FEF78EFDBBF1000F13D0E660606A50B14D
:1054300004F1240000F008FC28B1C8F80070BFF3A4
:105440004F8FBFF36F8FFFF727FC012007B0BDE838
:10545000F08F6D1EA563206810B9FFF73BF96060FF
:1054600020690028EFD004F11000E3E7059808B1A7
:105470001EB106E0FFF710FC27E06846FFF752FE7A
:105480000126FFF709FCFFF7BBFEFFF7C9FB94F904
:105490004400401C01D184F8449094F94500401C1C
:1054A00001D184F84590FFF7F7FB05A9684600F0A5
:1054B00079FA002820460AD0FFF746F800F010FCE1
:1054C0002046FEF76DFE0028A3D00020BEE7FEF7C1
:1054D00067FED8B1206830B9FFF7A2FB6068FFF71C
:1054E000DFFDFFF7D9FB04F124000599FFF780FDEC
:1054F0002046FFF729F800F0F3FB002889D1C8F80F
:105500000070BFF34F8FBFF36F8F82E72046FFF726
:105510001BF800F0E5FB7CE72E2E5C4672656552B9
:10552000544F535C71756575652E63004572726FDB
:10553000723A25732C25640D0A00000004ED00E08A
:1055400070B50D46040005D140F21B121CA121A02C
:10555000FAF7DCFEFFF764FBD4E90F20216802FBB9
:10556000001161600021A1632168A1600A46D4E9AD
:105570000F01401E00FB0121E16021464FF0FF308A
:1055800001F8440F487004F110004DB1FFF716FB0D
:1055900004F12400FFF712FBFFF77EFB012070BD32
:1055A00021690029F8D000F04FFB0028F4D00D4904
:1055B0004FF080500860BFF34F8FBFF36F8FEBE762
:1055C0002E2E5C4672656552544F535C717565753D
:1055D000652E63004572726F723A25732C25640D37
:1055E0000A00000004ED00E02DE9FF4F83B099466A
:1055F0008B4604004FF0000605D140F2D92252A19B
:1056000056A0FAF783FEBBF1000F07D1206C28B13A
:1056100040F2DA224CA151A0FAF778FEB9F1020F5C
:1056200008D1E06B012805D040F2DB2246A14BA057
:10563000FAF76CFE00F026FA38B9059828B140F266
:10564000DE2241A145A0FAF761FE4FF0000A4FF0BB
:105650008057DFF81881FFF7E3FAA06BE16B88420F
:1056600006D3B9F1020F03D0059800B316B325E0B5
:105670004A4659462046FEF776FCA16C21B14946C0
:105680002046FEF79BFD05E0616A19B104F1240094
:1056900000F0DAFA28B1C8F80070BFF34F8FBFF3FB
:1056A0006F8FFFF7F9FA012007B0BDE8F08FFFF721
:1056B000F3FA21E06846FFF735FD0126FFF7ECFA23
:1056C000FFF79EFDFFF7ACFA94F94400401C01D1AE
:1056D00084F844A094F94500401C01D184F845A009
:1056E000FFF7DAFA05A9684600F05CF930B1204608
:1056F000FEF72AFF00F0F4FA0020D5E7FFF790FA52
:10570000A06BE16B884201D1012500E00025FFF785
:10571000C3FA95B104F110000599FFF769FC204622
:10572000FEF712FF00F0DCFA002894D1C8F80070F0
:10573000BFF34F8FBFF36F8F8DE72046FEF704FF57
:1057400000F0CEFA87E700002E2E5C4672656552A7
:10575000544F535C71756575652E63004572726FA9
:10576000723A25732C25640D0A00000004ED00E058
:105770002DE9F047984615468946040005D140F2C8
:105780009F322AA12EA0FAF7C1FDB9F1000F07D16F
:10579000206C28B14FF4687224A129A0FAF7B6FD55
:1057A000B8F1020F08D1E06B012805D040F2A13218
:1057B0001EA123A0FAF7AAFDFFF7FEFA5020EFF38F
:1057C000118780F31188BFF34F8FBFF36F8FA06BEA
:1057D000E16B884207D3B8F1020F04D0002087F3B1
:1057E0001188BDE8F08794F9456042464946204655
:1057F000FEF7B9FB701C04D0761C84F845600120CC
:10580000EDE7A06C012620B141462046FEF7D6FC0C
:1058100006E0606A0028F2D004F1240000F014FAD7
:105820000028ECD0002DEAD02E60E8E72E2E5C4652
:1058300072656552544F535C71756575652E6300D2
:105840004572726F723A25732C25640D0A000000B0
:105850002DE9F0410D46040005D140F23C4225A15E
:1058600029A0FAF753FD206C28B14FF4886221A1DA
:1058700025A0FAF74BFD206838B9606828B140F2DE
:1058800045421CA120A0FAF741FDFFF795FA5020F0
:10589000EFF3118680F31188BFF34F8FBFF36F8F43
:1058A000A16BE06B88421FD994F94500491CA163A4
:1058B000411C04D0401C84F84500012015E0A06C78
:1058C000012720B100212046FEF778FC06E0606A3F
:1058D0000028F2D004F1240000F0B6F90028ECD042
:1058E000002DEAD02F60E8E7002086F31188BDE89C
:1058F000F08100002E2E5C4672656552544F535C59
:1059000071756575652E63004572726F723A257305
:105910002C25640D0A0000002DE9F0410E4604001C
:1059200005D140F2FC5216A11AA0FAF7EFFC3EB9DD
:10593000206C38B140F2FD5211A116A0FAF7E6FC36
:10594000206C28B940F2FE520DA112A0FAF7DEFC3D
:10595000FFF732FA5020EFF3118580F31188BFF37F
:105960004F8FBFF36F8FA06B30B131462046E76891
:10597000FEF7E6FA0120E76085F31188BDE8F081C3
:105980002E2E5C4672656552544F535C7175657579
:10599000652E63004572726F723A25732C25640D73
:1059A0000A00000070B50D46040005D140F6CB3268
:1059B00014A119A0FAF7AAFC2DB940F6CC3211A116
:1059C00015A0FAF7A3FCFFF72BF9174AD06829684E
:1059D0004B1C0FD02368126A934202D06268824245
:1059E0000AD96268801A884206D2081A28602046BE
:1059F000FFF798FB002400E00124FFF74DF9204653
:105A000070BD00002E2E5C4672656552544F535C8B
:105A10007461736B732E63004572726F723A2573F3
:105A20002C25640D0A000000DC0000202DE9FF5F3A
:105A30008346DDE90E87994616468A469000FEF7B2
:105A4000BFFD05001AD05C20FEF7BAFD040012D09D
:105A500025630021CDE90241CDE900874B4632465E
:105A600051465846FEF7FAFA2046FEF7AFF90120F4
:105A700004B0BDE8F09F2846FFF740F94FF0FF3033
:105A8000F6E700000548416919B1006B18B1002024
:105A9000704701207047022070470000DC000020A2
:105AA0000148C06870470000DC0000202DE9F0418B
:105AB0002D4F0026386B40B1B869401CB861F869B9
:105AC00000B101263046BDE8F081FD686D1CFD6027
:105AD00011D1786B006828B140F6D91223A128A013
:105AE000FAF714FC786BB96B7963B863386A401CB9
:105AF0003862FEF789FCB86ADFF89480854209D3E2
:105B0000786B006880B1786BC068C4686068854253
:105B10000DD2B8623868C06A00EB800158F82100E5
:105B20000128CCD90126CAE74FF0FF30F1E7201D4C
:105B3000FFF732F8A06A18B104F11800FFF72CF84B
:105B4000E06A01213A6981401143396100EB80012B
:105B500008EB8100211DFFF757F8E06A3968C96A30
:105B60008842CDD30126CBE7DC0000202E2E5C46F8
:105B700072656552544F535C7461736B732E63008E
:105B80004572726F723A25732C25640D0A0000006D
:105B90007405002070B504004FF000063CD01F4D86
:105BA0002868844205D040F6C7621DA121A0FAF7FB
:105BB000ADFB206D28B940F6C96219A11DA0FAF706
:105BC000A5FB206D401E2065E26CE16A914223D066
:105BD00010BB201DFEF7E0FF1A49012250B9E06A10
:105BE00000EB800351F8233023B92B6902FA00F04F
:105BF00083432B61E06CE062C0F12000A061E06AA9
:105C00002B6982401A432A6100EB800001EB80007F
:105C1000211DFEF7F9FF0126304670BDDC00002093
:105C20002E2E5C4672656552544F535C7461736BE3
:105C3000732E63004572726F723A25732C25640DC2
:105C40000A000000740500202DE9F041C068C46816
:105C50002CB940F6613216A11AA0FAF757FB04F1ED
:105C600018000746FEF798FF1A4D286B012660B111
:105C700039461948FEF7C8FFE06A2968C96A8842B0
:105C800013D90120EE61BDE8F081201DFEF784FFED
:105C9000E06A2A6906FA00F1114329610F4900EB15
:105CA000800001EB8000211DE4E70020EBE700000D
:105CB0002E2E5C4672656552544F535C7461736B53
:105CC000732E63004572726F723A25732C25640D32
:105CD0000A000000DC0000201C08002074050020E1
:105CE0002DE9F0472B4D00242746286B28B94FF4A7
:105CF000FD6229A12DA0FAF709FBFEF791FF286BA1
:105D0000401E2863286BE8BBA8682C490126C8B34D
:105D1000A1F52A798846D8F80010E9B1D8F80C0026
:105D2000C46804F11800FEF737FF201DFEF734FFAA
:105D3000E06A2A6906FA00F11143296100EB80014B
:105D400009EB8100211DFEF75FFFE06A2968C96A3F
:105D50008842E0D3EE61DEE70CB1FEF755FBAC699B
:105D60003CB1FFF7A3FE00B1EE61641EF9D1002043
:105D7000A861E86930B11249012738070860BFF30C
:105D80004F8F00E001E0BFF36F8FFEF785FF3846CD
:105D9000BDE8F087DC0000202E2E5C46726565525F
:105DA000544F535C7461736B732E63004572726F52
:105DB000723A25732C25640D0A0000001C0800208F
:105DC00004ED00E02DE9F0470746994616460D46DA
:105DD0002C20DDF820A0FEF7F3FB040014D0B84619
:105DE0004F46D1462DB94FF4C67209A10EA0FAF75D
:105DF0008DFAFEF753F804F11801C4F8008081E829
:105E0000E002201DFEF7E5FE2046BDE8F087000019
:105E10002E2E5C4672656552544F535C74696D65F5
:105E200072732E63000000004572726F723A257320
:105E30002C25640D0A0000001CB50024FEF72EF886
:105E40000C48006868B10B491F20091DCDE900010D
:105E500000234FF4827208A10948FFF7E7FD040010
:105E600005D140F2331207A10CA0FAF74FFA2046F1
:105E70001CBD000018010020546D72205376630091
:105E8000214500082E2E5C4672656552544F535CC6
:105E900074696D6572732E63000000004572726F45
:105EA000723A25732C25640D0A0000002DE9FF4786
:105EB000DDF830A0994690460D4606004FF00007E9
:105EC00005D14FF4D37212A117A0FAF71FFA1A4C9A
:105ED000206880B1CDE900580296062D11DAFFF74F
:105EE000D1FD02284FF0000309D000226946206846
:105EF000FFF77AFB074604B03846BDE8F087524604
:105F0000F4E700234A466946FFF732FCF2E7000057
:105F10002E2E5C4672656552544F535C74696D65F4
:105F200072732E63000000004572726F723A25731F
:105F30002C25640D0A0000001801002010B500296E
:105F40000AD00878002807D005487844FAF722FFDD
:105F5000002801D0002010BD0248784410BD000088
:105F60009E080000960800000808A0F500114FEAFE
:105F70003101704743004FEAD30C4FEA3C0C4340D9
:105F80001FBF40070CF1605113F0FE4F70471CF02B
:105F9000006F03D100200CF0004170470CF000436B
:105FA00043EA507010B540EACC0000F000FA00BFA0
:105FB000000000924FEA0001FFF7D6BF4FF000410A
:105FC0004FF00000A1F500217047000090EA010F9A
:105FD00048BF81F0004100F13C82421A3CBF801A68
:105FE00089184FEAD0524FF07F4C1CEA410FA2EBC8
:105FF000D15318BF9CEA026F00F03B804FF0004C79
:106000004CEA00204CEA012121FA03FC10EB0C0CB5
:106010001ED202F1FF325FEA1C2040EBC25038BFB3
:1060200070471CF07F0F4FEA400C18BFBCF17F4F48
:1060300038BF7047C3F12003994008BF20F001002A
:10604000BCF17F4F38BF7047A0F1C04000F0F5B9F8
:106050004FEA3C00000A40EBC25028BF1CF0FF0F83
:106060004FEA400CE6D018BFBCF17F4F38BF7047F5
:10607000EAE79CEA026F05D010EA5C0F08BF00F067
:106080000040704710B500F092F900BF64FBBE3EBF
:106090004FF47F0C1CEAD0121EBF1CEAD11392EA07
:1060A0000C0F93EA0C0F00F0858090EA010F48BFB7
:1060B00042F4807240F4000C41F400002CF07F4167
:1060C00020F07F4000B58142A2EB03020FF2081CD2
:1060D000ACEB504EC0F100009EF800E04FEA4E0ECF
:1060E00000FB0EFC38BF49004FEA2C1C02F5FA02F7
:1060F0000CFB0EF34FEACE1E4FEA112C4FEAC121E2
:106100000EEB635E42EB22420EFB0CFC4FEA1C538B
:1061100000FB03114FEA112C4FEA01310EFB0CFC7E
:106120004FEADC4C00FB0C11C14228BF09184CEBB4
:1061300003335DF804EB10EB410143EBC250B2F5C1
:106140007C0F38BF704729D512F0F00F1CBF00F14B
:10615000C04000F0004070470081828384858687BC
:1061600088898B8C8D8E8F919293959697999A9C16
:106170009D9FA0A2A3A5A7A8AAACAEB0B2B3B5B785
:10618000B9BCBEC0C2C5C7C9CCCED1D4D7D9DCDF5B
:10619000E2E6E9ECF0F3F7FAFE0000004FEA400C0B
:1061A0000CF1807CBCF17E4F28BF7047B0F1C0403D
:1061B00000F043B990EA010F0CEAD11348BF42F452
:1061C0008072624538BF634507D213F47F0F16D043
:1061D00080EA010000F00040704710B500F0E7F8D9
:1061E000097EFC3E00F005B880EA010000F00040A6
:1061F000704780EA010000F0004000F01EB912F480
:106200007F0F04BF0248704780EA010000F015B913
:106210000000C07FC10DD1F19E0206DB4FEA0023D2
:1062200043F0004323FA02F07047004207D54FEADB
:106230004001B1F1FE4F02D24FF00000704710B59F
:1062400000F0B5F849922480002070476FEA2000E2
:106250007047000010F0004148BF4042B0FA80F3A0
:1062600010FA03F2C3F19D030BD051EAC35101EBC5
:106270001220530638BF704700F1010008BF20F01C
:1062800001007047B0FA80F310FA03F2C3F19D03E6
:106290000AD0D90501EB1220530638BF704700F130
:1062A000010008BF20F00100704700004FF47F0C90
:1062B0001CEAD0121EBF1CEAD11392EA0C0F93EA1B
:1062C0000C0F00F0478090EA010F48BF42F4807243
:1062D0004FF0004C4CEA00204CEA012102EB030293
:1062E000A0FB0113A2F50002002918BF43F001032F
:1062F0005B0028BF4FEA330342EB22425FEA132CD4
:106300004CEBC2502EBFBCEB436FB2F57C0F704715
:106310004FEA036CBCF1004F08BF20F00100B2F55A
:106320007C0F38BF70470BD582F0FF0212F5803F1B
:10633000C8BF704700F1C040D8BF00F000407047B0
:1063400000F5000C5FEA4C0C48BF7047B0F1C0404C
:1063500000F073B890EA010F0CEAD11348BF42F481
:106360008072624538BF634504D280EA010000F0C4
:106370000040704710B500F01AF800BF8900013ED8
:1063800000F007B800F009B85FEA410C5FEA1C6C46
:1063900008D080EA010000F050B85FEA400C5FEAE4
:1063A0001C6CF6D14FF00040A0F5800070470EF154
:1063B000020E2EF0030E5EF8044B244204D44FEA82
:1063C0004102B2F17F4F11D84FEA4003B3F17F4F42
:1063D0000CD80ED14FEAD07CB2F17F4F0CEB4C0CB5
:1063E0000CF1020C08BF4CEBD17C04E04FF0080C20
:1063F00001E04FEAD17C0CEB4C0324FA03F404F0E7
:106400000704B4F1040C06D20EEB840CBDE8104076
:106410004CF0010C6047DFE80CF0070802024FF077
:106420000040A0F5800010BD0846420018BFD2F120
:10643000807288BF00F0004010BDFF2141EAD050BB
:10644000C005704790EA010F48BF81F000413FF559
:10645000C4AD421A04D882F00042A0EB02001144FD
:106460004FEAD0524FF07F4C1CEA410FA2EBD153C0
:1064700018BF9CEA026F4AD04FF0004C4CEA002053
:106480004CEA012121FA03FCB0EB0C0C0FD412F002
:10649000FE0F36D05FEA4C001DD5001240EBC25013
:1064A00038BF70471CF03F0F18BF70470BE0A2F1D8
:1064B00001025FEA1C2040EBC25038BF70471CF05D
:1064C0007F0F18BF7047C3F12003994014BF401ECF
:1064D00020F00100704780084FEA122308BF704780
:1064E000B0FA80FCA2EB0C02CCF1280C60FA0CF0A4
:1064F00093EA122F04BF00EBC25070474FEAC370FB
:106500007047130A5FEADC1008BF7047F6E79CEAA1
:10651000026F04D010EA5C0F08BF0020704710B56E
:10652000FFF745FF40DFF63E81F000407047FAF785
:106530005DB900C1814001C0804101C0804100C1FE
:10654000814001C0804100C1814000C1814001C043
:10655000804101C0804100C1814000C1814001C033
:10656000804100C1814001C0804101C0804100C123
:10657000814001C0804100C1814000C1814001C013
:10658000804100C1814001C0804101C0804100C103
:10659000814000C1814001C0804101C0804100C1F3
:1065A000814001C0804100C1814000C1814001C0E3
:1065B000804101C0804100C1814000C1814001C0D3
:1065C000804100C1814001C0804101C0804100C1C3
:1065D000814000C1814001C0804101C0804100C1B3
:1065E000814001C0804100C1814000C1814001C0A3
:1065F000804100C1814001C0804101C0804100C193
:10660000814001C0804100C1814000C1814001C082
:10661000804101C0804100C1814000C1814001C072
:10662000804100C1814001C0804101C0804100C162
:10663000814000C0C101C30302C2C60607C705C529
:10664000C404CC0C0DCD0FCFCE0E0ACACB0BC9099A
:1066500008C8D81819D91BDBDA1A1EDEDF1FDD1DAA
:106660001CDC14D4D515D71716D6D21213D311D1DA
:10667000D010F03031F133F3F23236F6F737F5352A
:1066800034F43CFCFD3DFF3F3EFEFA3A3BFB39F95A
:10669000F83828E8E929EB2B2AEAEE2E2FEF2DED2A
:1066A000EC2CE42425E527E7E62622E2E323E1219A
:1066B00020E0A06061A163A3A26266A6A767A565AA
:1066C00064A46CACAD6DAF6F6EAEAA6A6BAB69A91A
:1066D000A86878B8B979BB7B7ABABE7E7FBF7DBD2A
:1066E000BC7CB47475B577B7B67672B2B373B1715A
:1066F00070B050909151935352929656579755952A
:1067000094549C5C5D9D5F9F9E5E5A9A9B5B9959D9
:106710005898884849894B8B8A4A4E8E8F4F8D4DA9
:106720004C8C448485458747468682424383418119
:106730008040000002400000000000A000000000B7
:1067400005400000000000C8000000000C400000F0
:106750000000409C00000000194000000020BCBE6A
:106760000000000034400000BFC91B8E0000000480
:10677000B5400000504BCFD06607E2CF01000000CB
:106780006C4100003E8251AADFEEA73401000000F8
:10679000D9420000DCB5A0E23A301F97FFFFFFFFAF
:1067A000B4450000FD25A0C8E9A3C14FFFFFFFFFCE
:1067B000FF3F00000000008000000000FF3F0000DD
:1067C00000000080000000000468000800000020B5
:1067D000500100006C0100082C68000850010020E6
:1067E000D85D0000C80100081C0000004300000044
:1067F000F8FFFFFF0C0000000E0000000F0000007B
:106800002E000000017184A24A0400093401020331
:106810000406070809C5A3CEC33E6D02040608544A
:0C682000093A5801381AAA014100000092
:04000005080002C924
:00000001FF
