:020000040800F2
:10000000D05E002089020008B11C00081D1C0008F9
:10001000791C000885150008D12D0008000000009B
:10002000000000000000000000000000F1010008D6
:100030008D18000800000000350200084923000860
:10004000A3020008A3020008A3020008A3020008FC
:10005000A3020008A3020008A3020008A3020008EC
:10006000A3020008A3020008A3020008A3020008DC
:10007000A3020008A3020008A3020008A3020008CC
:10008000E915000825160008A3020008A3020008CD
:10009000A3020008A3020008A3020008A3020008AC
:1000A000A3020008A3020008A3020008A30200089C
:1000B0009524000841250008A3020008A3020008B7
:1000C000A3020008A3020008A3020008A30200087C
:1000D000A3020008192B00087D2B0008A3020008CA
:1000E000A3020008A3020008A3020008A30200085C
:1000F000A3020008A3020008A3020008A30200084C
:10010000A3020008A3020008FD250008A3020008BE
:10011000A3020008A30200084D260008A30200085D
:10012000A3020008A3020008A3020008A30200081B
:1001300000F002F800F04DF80AA090E8000C8244AC
:100140008344AAF10107DA4501D100F042F8AFF289
:10015000090EBAE80F0013F0010F18BFFB1A43F0A5
:10016000010318477C5F00009C5F0000103A24BF29
:1001700078C878C1FAD8520724BF30C830C144BF0C
:1001800004680C607047000000230024002500264E
:10019000103A28BF78C1FBD8520728BF30C148BFEA
:1001A0000B607047662905F04E86642900F0F880E0
:1001B000732900F05B84002070471FB500F09EFC9F
:1001C00004000020002105F045FBE0601FBD10B5D4
:1001D00010BD00F093FD1146FFF7EFFF03F07EF82E
:1001E00000F0B1FD03B4FFF7F2FF03BC03F03AF8EF
:1001F000224B19680868B0E8F00F80F30988BFF354
:100200006F8F4FF0000080F311884EF00D0E704795
:100210000000000006480068006880F3088862B6A5
:1002200061B6BFF34F8FBFF36F8F00DF00BF00BF1A
:1002300008ED00E0EFF30980BFF36F8F0F4B1A68F2
:1002400020E9F00F106008B54FF0500080F31188DE
:10025000BFF34F8FBFF36F8F04F066FC4FF00000C9
:1002600080F31188BDE8084019680868B0E8F00F0D
:1002700080F30988BFF36F8F704700BFB000002084
:10028000EFF30580704700000948804709480047A0
:10029000FEE7FEE7FEE7FEE7FEE7FEE7FEE7FEE736
:1002A000FEE7FEE704480549054A064B7047000093
:1002B0005D23000831010008D0580020D05E0020E6
:1002C000D05A0020D05A0020704700000FB40449D3
:1002D00010B503AA029800F0CDFB10BC5DF814FB2A
:1002E000980000202DE9F0410E46044600202062CF
:1002F0002046E168884730B3252805D0D4E901219C
:100300009047206A401CF2E7E168204600278847B2
:10031000050018D0A5F14100192802D820354FF466
:1003200000673246294620462760FFF73BFF40B171
:10033000012804D0F61D26F007060836D8E7361D3A
:10034000D6E72846DAE7206ABDE8F08170B50C46AA
:100350000546012A05D02878800600D5EA690023E1
:1003600002E0012305E05B1C934202D2E05C00281E
:10037000F9D1A869E618C01AA861286A1844286249
:100380002846AFF3008004E0D5E9012114F8010B01
:100390009047B442F8D32846AFF3008070BD000008
:1003A0002DE9F0410646002410687529314616A54E
:1003B00010D0AFF30080002802DA404213A507E016
:1003C00031688A0701D512A502E0490704D511A5B5
:1003D000012401E0AFF3008000210A2206F1240786
:1003E00009E0B0FBF2FCB0FBF2F302FB1C00303082
:1003F00078541846491C0028F3D123462A46304633
:10040000BDE8F04100F0A2B8000000002D0000009F
:100410002B00000020000000032A40F2308010F082
:10042000030C00F0158011F8013BBCF1020F62448F
:1004300098BF11F801CB00F8013B38BF11F8013B20
:10044000A2F1040298BF00F801CB38BF00F8013BCD
:1004500011F0030300F02083083AC0F0088051F83F
:10046000043B083A51F804CBA0E80810F5E7121D48
:100470005CBF51F8043B40F8043BAFF30080D20767
:1004800024BF11F8013B11F801CB48BF11F8012B33
:1004900024BF00F8013B00F801CB48BF00F8012B56
:1004A000704702F0FF0343EA032242EA024200F0EF
:1004B00002B84FF000020429C0F0128010F0030CC3
:1004C00000F01B80CCF1040CBCF1020F18BF00F847
:1004D000012BA8BF20F8022BA1EB0C0100F00DB8F6
:1004E0005FEAC17C24BF00F8012B00F8012B48BF54
:1004F00000F8012B70474FF0000200B513469446F8
:100500009646203922BFA0E80C50A0E80C50B1F16B
:100510002001BFF4F7AF090728BFA0E80C5048BF7F
:100520000CC05DF804EB890028BF40F8042B08BF1D
:10053000704748BF20F8022B11F0804F18BF00F819
:10054000012B704770477047704770472DE9F0479F
:100550000D4699469246044600F124080168880633
:1005600004D5E06921F01001216000E00120A842DB
:1005700001DD471B00E00027A1697A1902EB0900A1
:10058000081AA0612078C00602D42046AFF300808C
:10059000002608E0D4E901211AF806009047206AF5
:1005A000401C761C20624E45F4DB2078C0060AD53C
:1005B0002046AFF3008006E0D4E9012130209047C7
:1005C000206A401C2062381EA7F10107F4DC07E016
:1005D000D4E9012118F805009047206A401C2062E8
:1005E000281EA5F10105F3DC2046AFF3008020783A
:1005F000000602D50220BDE8F0870120FBE7704726
:100600002DE9FF4F0C461E464FF0FF378BB0D2E965
:100610000001DDF860800A908A46C1F30A5505B9E9
:100620003D46002108464FF00000BAF1000F00F4EB
:10063000400005DA00EB80004FF4400101EA500071
:100640004FEA9059B9F1010F00DDB9460A9850EA16
:100650004A000ED044F61050A5F2FF3545432F1442
:10066000B8F1000F1ED07542291E1EDDC9F100022F
:100670001CE0B8F1010F4FF0000001D0302103E081
:10068000F24305E02154401CB042FBDB304600221F
:10069000002121540B99C1F80880C1E900200FB056
:1006A000BDE8F08FBD1B6D1CDEE74A4600DA6942EB
:1006B00006A800F0ADFA06AB93E8070003AB83E8A9
:1006C000070050460A9900F085FB8DE80700A0F569
:1006D00000501F3800900398002D09DD42F21F01E1
:1006E0004A46084403A90390684600F0E4FD08E088
:1006F000A0F500504A461F3803A90390684600F051
:10070000EEFD8DE807000004000C03D04FF0FF3031
:10071000410800E01046B8F1000F03D0002200921B
:1007200015461EE0751E05D400F0ECF93032625516
:100730006D1EF9D5B3460122084302D000227F1C6A
:1007400004E02078302801D100227F1E002A09977A
:1007500086D01DE0112D07DA00F0D4F93032625551
:100760006D1C50EA0102F5D1084302D00098C8B1CF
:100770000EE00021681E05E0235C625C6354225495
:10078000401E491C8142F7DBAB46A81B401E099066
:10079000002004F80B000B98099AC0F80880C0E903
:1007A000002B7CE711264FF0000859E72DE9F04FA8
:1007B00088460446D21D22F0070191B0D1E900011C
:1007C000CDE90A0102F03AFD02460B98C00F01D0B4
:1007D0002D2007E02068810701D52B2002E0202191
:1007E00001EAC000032A099001D0072A05DB03466D
:1007F0004146204600F0CCF90BE12078800601D577
:10080000E06900E00620B8F1650F814606D0B8F136
:10081000660F18D0B8F1670F70D131E00020B9F140
:10082000110F009001DB112301E009F101030AAA75
:1008300001A90CA8FFF7E4FEDDE90C70002609F120
:100840000105834647E001204B4600904FF00047EA
:100850000AAA01A90CA8FFF7D3FEDDE90DB00C9997
:100860005D46002610B909F101000D18B9EB05002D
:1008700003D4C0F1FF3609F10105A5EB09002BE017
:10088000B9F1010F01DA4FF001090020B9F1110FA0
:100890000090484601DD112300E003460AAA01A9A1
:1008A0000CA8FFF7ADFEDDE90C704D46002683462F
:1008B000207800070AD4AB4500DA5D4601A8012D77
:1008C00004DD411911F8011C302907D04F4502DA27
:1008D00017F1040F04DA012082460FE06D1EEEE7E7
:1008E000002F02DCED1B3E4403E0781CA84200DD33
:1008F0007D1CB81B00F1010A4FF00047207800076B
:1009000003D4AA4501DB4FF0FF3A0021B7F1004FB5
:100910000DF143088DF8431024D002202B23002F23
:1009200001DA7F422D230A21021EA0F1010000DC22
:100930005FB197FBF1FC97FBF1F201FB1C7C1746C2
:100940000CF1300C08F801CDEEE7A8F101000370BE
:100950002188090501D5452100E06521A0F10108A4
:1009600000F8011C09980FA9A1EB0807FF1D00B1B1
:100970000120411901EBEA70A1693844081A401EB0
:10098000A0612078C00602D42046AFF30080099809
:1009900028B1D4E901219047206A401C20622078C8
:1009A000C00622D52046AFF300801EE0002E04DBF7
:1009B000B34502DD01A8805D00E03020D4E90121CB
:1009C0009047206A401C2062761CAAF101005FEA71
:1009D000000A0AD100F092F8C0680168405CD4E9CE
:1009E00001219047206A401C2062281EA5F10105C4
:1009F000DCDC07E0D4E9012118F8010B9047206AFC
:100A0000401C2062381EA7F10107F3DC2046AFF33B
:100A10000080032011B043E601694A1C0261087896
:100A2000704700B58FB0CDE901310021059105492E
:100A30007944CDE9031011466846FFF753FC0FB027
:100A400000BD0000E5FFFFFF10B5436913B1AFF330
:100A5000008001E0FFF77AFC012010BD127800F160
:100A600024010A7000224A700122EDE711684FF05C
:100A7000FF32E9E7074B70B50D467B44FFF7D1FF26
:100A80000446284600F032F910B14FF0FF3070BD37
:100A9000204670BD4328000010B5203AC0F00B80FE
:100AA000B1E81850203AA0E81850B1E81850A0E872
:100AB0001850BFF4F5AF5FEA027C24BFB1E81850CC
:100AC000A0E8185044BF18C918C0BDE810405FEA3C
:100AD000827C24BF51F8043B40F8043B08BF7047B8
:100AE000D20728BF31F8023B48BF11F8012B28BFBD
:100AF00020F8023B48BF00F8012B704700487047C0
:100B00008C58002030B5B0F10A024FEA900E71F116
:100B100000034EEA817EB0EB0E0061EB91014FEADB
:100B2000101E4EEA017E10EB0E0041EB11114FEA50
:100B3000102E4EEA016E10EB0E0041EB11214FEA30
:100B4000104E4EEA014E10EB0E0041EB11414018E1
:100B500041F100014FEAD00040EA41704FEAD10173
:100B600010EB80054FEA810444EA907444EB0104E1
:100B70006D1944EB0404521BA3414FF0000348BF1E
:100B80000A3200D530BD401C41F1000130BD0000EB
:100B90002DE9F0411F46044603260168072A01F4A7
:100BA000006004DB08B116A505E016A503E008B156
:100BB00015A500E015A521F010002060A069C01E59
:100BC000A0610FB1401EA0612046AFF300804FB17D
:100BD000D4E9012138469047206A401C2062C01C9D
:100BE000206206E0206AFAE7D4E9012115F8010B3A
:100BF0009047761EF8D22046AFF30080BDE8F08122
:100C00004E414E006E616E00494E4600696E6600B0
:100C10002DE9F047814616468AB0334878440DC81E
:100C20008DE80D0030487844801C03AC0DC884E882
:100C30000D0041F69B300844372190FBF1F290FB08
:100C4000F1F5A5F1800501FB12041B3C02D56442BD
:100C5000012000E00020DFF890A080460027FA4441
:100C6000AAF1BE0A0DE0E00709D03246684607EB5C
:100C700047010AEB810100F032FB8DE807006410A8
:100C80007F1C002CEFD1184F7F44AC3F18E0E807E1
:100C900014D007EB04100DF1180A90E80E008AE852
:100CA0000E00C068F04201D198190890324606A99A
:100CB00003A800F014FB03AB83E807006D10641C6D
:100CC000002DE4D132466946B8F1000F03A802D0E6
:100CD00000F0F1FA01E000F002FBC9E90001C9F8F7
:100CE00008200AB0BDE8F087A8540000007B00F09F
:100CF00080007047004870476C5800207546FFF729
:100D0000F9FFAE4605006946534620F007008546C8
:100D100018B020B5FFF7C6FABDE820404FF0000636
:100D20004FF000074FF000084FF0000B21F00701D3
:100D3000AC46ACE8C009ACE8C009ACE8C009ACE816
:100D4000C0098D4670470446AFF300802046FFF788
:100D500049FA00004FF0013C50F8042B51F8043BD5
:100D60009A4221D1A2EB0C03934313EACC1317D17F
:100D700050F8042B51F8043B9A4215D1A2EB0C0316
:100D8000934313EACC130BD150F8042B51F8043BD6
:100D90009A4209D1A2EB0C03934313EACC13DBD0A4
:100DA0004FF00000704700BFD01A01BAB1FA81F1CC
:100DB00001F0180122FA01F0CB40C1F12001DBB2B1
:100DC000C0B2C01A2CFA01F3D11A914311EAC3112F
:100DD000E6D170475FEA400C08BF91F0000F4FEA80
:100DE0008C234FEAC12243EA51514FEA1C5018BFED
:100DF00000F5F0404FEA300018BF41F000415FEAD3
:100E00006C5C00F02980BCF1FF3F08BF40F08040DF
:100E10007047130C06BF12044FF0100C4FF0000C7B
:100E2000130E04BF12020CF1080C130F04BF1201C1
:100E30000CF1040C930F04BF92000CF1020CD30FC1
:100E400004BF52000CF1010C11464FF00002A0F15A
:100E50001F00A0EB0C00704711F0004F08BF704757
:100E600031F000413FF4D5AF0B0C06BF09044FF041
:100E7000100C4FF0000C0B0E04BF09020CF1080C13
:100E80000B0F04BF09010CF1040C8B0F04BF890088
:100E90000CF1020CCB0F04BF49000CF1010CCCF19A
:100EA0002003A0EB0C0022FA03F302FA0CF241EA51
:100EB000030100F10100704720F07F4C80EA03003D
:100EC00023F07F47ACEB070303F57C5300F00040B1
:100ED00003F1FF032DE980494FEA154B09B44FEAAE
:100EE000144325EA0B4E24EA03480FF2042606EBCE
:100EF000132749083E785FEA320203FB0667C7F50D
:100F0000000707FB06F64FEA54374FEAD64606F1CC
:100F1000020607FB066CCCF1005C4FEA1C472CEA8A
:100F2000074C07FB06F40CFB06F504EB15464FEAED
:100F3000961634BF00204FF000404FEAD13706FB31
:100F400007FC4FEA1C4C0CFB0BF7D21B03FB0CF706
:100F500061EB07010CFB0EF7B0EB074072EB174299
:100F60000CFB08F734BFA2EB0742B2EB074261EB80
:100F700017414FEA0C444FEA910706FB07FC4FEA82
:100F80001C4C0CFB0BF7B0EBC74072EB573203FB6A
:100F90000CF734BFA2EBC742B2EBC74261EB57314B
:100FA0000CFB0EF7B0EBC70072EB57720CFB08F7A7
:100FB00034BFA2EBC702B2EBC70261EB5771039FCC
:100FC0004FEA816141EA921104EBCC044FEAD13738
:100FD0004FEA826206FB07FC42EA90124FEA806009
:100FE0004FEA1C4C0CFB0BF7D21B03FB0CF761EB1D
:100FF00007010CFB0EF7B0EB074072EB17420CFB3E
:1010000008F734BFA2EB0742B2EB074261EB17418E
:101010004FEA8C554FEA910704EB9C2406FB07FC32
:101020004FEA1C4C0CFB0BF7B0EBC74072EB57328E
:1010300003FB0CF734BFA2EBC742B2EBC74261EB34
:1010400057310CFB0EF7B0EBC70072EB57720CFB7D
:1010500008F734BFA2EBC702B2EBC70261EB5771CE
:1010600015EB4C254FEA816141EA92114FEA826209
:101070004FEAD13742EA901206FB07FC44F1000424
:101080004FEA80604FEA1C4C0CFB0BF7D21B03FBB2
:101090000CF761EB07010CFB0EF7B0EB074072EBAE
:1010A00017420CFB08F734BFA2EB0742B2EB074232
:1010B00061EB174115EB1C154FEA813141EA924172
:1010C0004FEA823242EA90424FEA80304FEA0C7691
:1010D00044F1000448EA03434EEA0B484FF0000E87
:1010E000B2EB080C71EB030724BF624639464EEBA6
:1010F0000E0E4FF0000B0018524149414BEB0B0B09
:10110000B2EB080C71EB03077BF1000B24BF6246C6
:1011100039464EEB0E0E4FF0000B0018524149417C
:101120004BEB0B0BB2EB080C71EB03077BF1000BE5
:1011300024BF624639464EEB0E0E51EA020718BF35
:1011400046F0010616EB0E7655F1000254F100014F
:1011500003D5BDE88901BDE80088BDE88901BDE887
:101160000048B619524141EB0101A3F10103704758
:1011700080807F7E7D7C7B7A7978777676757473D4
:10118000727171706F6E6E6D6C6C6B6A6A69686893
:10119000676666656464636362616160605F5F5E29
:1011A0005E5D5D5C5C5B5B5A5A595958585757569F
:1011B0005655555554545353525252515150505004
:1011C0004F4F4F4E4E4D4D4D4C4C4C4B4B4B4A4A56
:1011D0004A4949494848484747474746464645459A
:1011E00045444444444343434342424242414141D3
:1011F000002B26D4770021D01CB54FEA370703B463
:101200004FF010004FF010014FF000000FBCBDE890
:1012100010400BF1010BBBF1010F08BF5FEA17078C
:1012200022BF12F1010211F101014FF0004143F11F
:10123000000300F0004043EA00007047F9D357086C
:10124000DAE746EA064613F1400F4FEA16461FDD7D
:1012500013F1200FDFBF16430A46002120335B4203
:10126000C8D0C3F1200746EA064602FA07F74FEA5C
:10127000164646EA0706C3F1200722FA03F201FAEE
:1012800007F721FA03F14FF0000342EA0702B1E742
:1012900046EA020646EA06464FEA164646EA0106CE
:1012A000BCBF46EA0646360C4FF000034FF0000282
:1012B0004FF000019EE72DE9C048934630B491E815
:1012C000380007C831EA400C48BF34EA430C03D564
:1012D000FFF7F2FDFFF78CFFF0BCBDE800882DE9B9
:1012E000C048934630B491E8380007C810F0804FEA
:1012F00008BF13F0804F03D100F005F8FFF778FF27
:10130000F0BCBDE8008820F07F4780EA030023F0AE
:101310007F4C07EB0C03A3F57C5300F00040A3F1D6
:10132000FE0392F0000F00F0B38095F0000F00F084
:1013300077802DE901494FEA11404FEA144621EA2E
:10134000004800FB06FC24EA064708FB06F607FBFC
:1013500008F800FB07F718EB06484CEB164C4FEA71
:10136000124B18EB07484FEA15464CEB174022EAA0
:101370000B4E0BFB06FC25EA06470EFB06F607FBA9
:101380000EFE0BFB07F71EEB064E4CEB164C4FF018
:1013900000061EEB074E4CEB174B18EB0B0840F109
:1013A000000018EB0E0B58EB000840F100008F1AFC
:1013B0004FF000013CBFC943661B14BFB5EB040CE2
:1013C00000213CBFC943F61B4FEA17444EEA8E0E7C
:1013D00027EA04454FEA1C4704FB07622CEA074C46
:1013E00005FB07F70CFB05F604FB0CFC16EB0746A8
:1013F00042EB174216EB0C4642EB1C421BEB060677
:1014000058EB0202414146EA9E0601D5BDE801893A
:10141000B619524141EB0101A3F10103BDE8018975
:101420004FEA14454FEA114724EA054621EA074CE2
:1014300005FB07F406FB07F70CFB06F105FB0CFCAC
:1014400011EB074144EB17444FEA124711EB0C41F3
:1014500044EB1C4422EA074C05FB07F206FB07F7A6
:101460000CFB06F605FB0CFC16EB074642EB17429D
:1014700016EB0C4642EB1C456A1854F1000148BFBC
:101480007047B619524141EB0101A3F101037047C6
:1014900095F0000F37D04FEA11424FEA144721EA86
:1014A000024624EA074C02FB07F106FB07F70CFB98
:1014B00006F402FB0CFC14EB074441EB17414FEA26
:1014C000154714EB0C4441EB1C4125EA074C02FB89
:1014D00007F506FB07F70CFB06F602FB0CFC16EB08
:1014E000074645EB174516EB0C4645EB1C42121917
:1014F00051F1000148BF7047B619524141EB01015B
:10150000A3F1010370474FEA14454FEA114724EA5B
:10151000054621EA074C05FB07F106FB07F70CFB24
:1015200006F24FF0000605FB0CFC12EB074241EB04
:10153000174112EB0C4251EB1C4148BF7047921807
:1015400041EB0101A3F10103704770B54FF4E134A1
:10155000204602F045FE00F075FB00F08FFB4FF4D3
:101560007A750021284600F0FDFF0021284600F092
:10157000A1FF00F0D1FA204603F014FBBDE8704053
:1015800002F028BEFEE7000070B5084DFF221346AA
:1015900005F5807605E010F8014B54402A5D5A406D
:1015A000335D491EF7D243EA022070BD4A5E00084F
:1015B000F0B5084EFF231C4606F5807705E010F8CD
:1015C000015B5D40735D63407C5D491EF7D2137023
:1015D0005470F0BD4A5E00084FF6FF7202EA002028
:1015E000084480B27047000010B50C4C4FF4001056
:1015F00000F036F84FF4000000F032F800212046E9
:1016000000F03AF8A11561600548FEF752FF204648
:10161000BDE81040012100F02FB800006C0002402E
:101620003403002010B54FF0007000F019F84FF0AF
:10163000006000F015F8BDE810400021014800F0FE
:101640001BB8000080000240C10002D502490860BA
:10165000704702494860704704040240000002409D
:10166000C10002D5024908607047024948607047CE
:1016700004040240000002400029016802D041F049
:10168000010102E04FF6FE72114001607047000058
:1016900001684FF6FE721140016000210160416057
:1016A0008160C1603149314A0839904203D14868AC
:1016B00040F00F0006E02D4A1432904204D14868F1
:1016C00040F0F00048607047284A2832904203D129
:1016D000486840F47060F5E7244A3C32904203D1F8
:1016E000486840F47040EDE7204A5032904203D100
:1016F000486840F47020E5E71C4A6432904203D108
:10170000486840F47000DDE7184A7832904203D10F
:10171000486840F07060D5E7154A111F904203D128
:10172000086840F00F0006E0114A1432904204D1DC
:10173000086840F0F000086070470D4A2832904277
:1017400003D1086840F47060F5E7094A3C329042E2
:1017500003D1086840F47040EDE7054A50329042EA
:10176000EAD1086840F47020E5E700000800024074
:1017700008040240406880B27047002A026801D025
:101780000A4300E08A430260704730B5026847F6BA
:10179000F0739A430C6A8B682343D1E904452C43C8
:1017A00023438C692343CC6923434C6A23438C6ACB
:1017B000234313430360CA6842600A688260496831
:1017C000C16030BD416070472DE9F04101218CB00E
:1017D000084600F0BDFCDFF8A4804046FFF758FF44
:1017E0002848274ECDE90060002410200701079407
:1017F000CDE902078025CDE904450002CDE9084086
:101800000694694640460A94FFF7BFFF0122022171
:101810004046FFF7B2FF012208214046FFF7ADFF27
:1018200001214046FFF728FF00214046FFF724FF33
:10183000DFF84880A8F114084046FFF729FF124856
:1018400001A9009681E89100CDE90445A801CDE900
:10185000084006940794694640460A94FFF795FFAE
:10186000012202214046FFF788FF0122082140465D
:10187000FFF783FF0CB0BDE8F0810000800002405C
:1018800004440040340200203403002070472DE956
:10189000F04304464078002787B090460D460F2855
:1018A00003D00F7007B0BDE8F08301262E700E2123
:1018B0002046FFF769FE8146217CE07BFFF78CFE26
:1018C000814560D16E7020780528EBD2DFE800F00A
:1018D000030418224100E5E7AE704146204600F0BF
:1018E00054F8E870E078012802D0022805D102E01F
:1018F0004FF0010801E04FF0020885F80480D1E7BD
:101900000220A8704146204600F03FF8E870E078D9
:101910002871C7E70320A8704146204600F035F83B
:10192000E870A07818B1012801D002280BD1E07826
:101930008DF8000020798DF8010060798DF80200A3
:10194000A0798DF80300E8784246694602F0BBFCB6
:10195000A8E70420A8704146204600F016F8E87079
:10196000A27803A900201AB1012A01D0022A05D1C8
:101970002218D2780A54401C0B28F9DDE878424638
:1019800002F07EFC8EE76F708CE7827852B1012AFC
:1019900004D0022A04D0032A07D105E0012104E083
:1019A000022102E0002100E0032108467047000008
:1019B0003EB513481349CDE90010134901604FF0BB
:1019C000804141604FF07E51816010480223002227
:1019D00001A9006803F094FA00240D480294022340
:1019E000224602A9006803F08BFA00980223002225
:1019F000046008486946006803F082FA3EBD0000B2
:101A000024010020700000200000B0411C000020D4
:101A10001400002018000020F0B50F46054689B0DC
:101A200016460121082000F09FFB0121042000F050
:101A3000A7FB0320ADF8100004218DF813108DF8DA
:101A4000120004A9214800F06DF8684601F05AF828
:101A50000024ADF804501E4DADF80040ADF806402E
:101A6000ADF802406946284600F0FEFF33463A468C
:101A70000321284600F076FE05A9284600F09AFECC
:101A80000021284600F0C6FF0121284600F05AFE3A
:101A900032208DF80C000E208DF80D008DF80E40D0
:101AA00001208DF80F0003A800F004F90121284659
:101AB00000F04EFE0021284600F0ACFF0122114646
:101AC000284600F00DFF09B0F0BD000000080140FD
:101AD000000C00408AB008A800250E4C6E1E4FF482
:101AE000FA7707900123324607A9206803F0F2F83D
:101AF000079805AB01220068CDE90505002168467D
:101B000000F094FB1121684601F064F9384602F0B8
:101B1000F1FDE7E71800002000220A214FF6FF70D0
:101B2000FFF77ABFF0B5CC78002204F00F03E4068B
:101B300001D58C7823430C784FF00F0C14F0FF0F75
:101B40004FF0010E1BD005680E880EFA02F42640F5
:101B5000A64210D196000CFA06F725EA070703FA09
:101B600006F5CE783D43282E02D0482E02D002E062
:101B7000446100E00461521C082AE5D305600A882C
:101B8000FF2A1CD94468002202F108060EFA06F565
:101B90000E882E40AE420ED196000CFA06F7BC43DA
:101BA00003FA06F7CE783C43282E00D14561CE7863
:101BB000482E00D10561521C082AE5D34460F0BDCF
:101BC000F0B5144C002801DAE36900E06368450DC4
:101BD0002E0185B2C0F30157B540C0F30342032F75
:101BE00005D0C6020AD503269640B34307E023F08A
:101BF0007062636823F07063636002E0AB4343F09C
:101C0000706201B12A43002801DAE261F0BD62602E
:101C1000F0BD00000000014001617047FEE70000D8
:101C20000026074C4FF4FA750127C4F89461284642
:101C300002F060FDC4F89471284602F05BFDF4E701
:101C40000000234238B50121402000F099FA10200D
:101C50008DF8030003208DF802002020054CADF81C
:101C6000000069462046FFF75DFF20212046FFF770
:101C7000D3FF38BD00180140FEE7000038B5012150
:101C8000102000F07DFA0F20ADF8000010208DF834
:101C900003000320054C8DF8020069462046FFF73B
:101CA00041FF0F212046FFF7B7FF38BD001001406C
:101CB0007047000030B50F23C27801780125F2B1DA
:101CC000144A126801F1E02102F4E062C2F5E06218
:101CD000120AC2F10404D3404278A24084781C4026
:101CE0001443220181F80024007800F01F018D4088
:101CF0004009800000F1E020C0F8005130BD01F043
:101D00001F0085404809800000F1E020C0F88051A4
:101D100030BD00000CED00E00249084302490860B4
:101D2000704700000000FA050CED00E0F8B5262031
:101D30008DF8000001248DF803400D208DF801007E
:101D400000258DF802506846FFF7B4FF11208DF88A
:101D500000000E268DF801608DF802508DF80340CA
:101D60006846FFF7A7FF10208DF800008DF801608E
:101D70008DF802508DF803406846FFF79BFF012263
:101D80004021044800F08AFF01210348FFF774FC5A
:101D9000F8BD0000004400406C00024010B500F0A7
:101DA0002FF803220021012002F058FF0F490322DF
:101DB00008600021012002F051FF0D490322086054
:101DC0000021012002F04AFF0A4903220860002195
:101DD000012002F043FF084903220860002101208E
:101DE00002F03CFF0549086010BD000024000020FF
:101DF000280000202C0000203000002034000020AB
:101E000010B500220421012002F028FF37490028E4
:101E100008605ED036A0FEF759FA002204210120A6
:101E200002F01CFF3B490028086054D03AA0FEF79E
:101E30004DFA00220421012002F010FF3F49002842
:101E400008604AD03EA0FEF741FA0022042101209A
:101E500002F004FF43490028086040D042A0FEF78A
:101E600035FA00220421012002F0F8FE474900283B
:101E7000086036D046A0FEF729FA0022042101208E
:101E800002F0ECFE4B49002808602CD04AA0FEF777
:101E90001DFA00220421012002F0E0FE51490860F1
:101EA00051A0FEF713FA00220421012002F0D6FE11
:101EB0005749086057A0FEF709FA002204210120C3
:101EC00002F0CCFE5E490860BDE810405DA0FEF760
:101ED000FDB967A09FE76FA0A9E777A0B3E77FA050
:101EE000BDE787A0C7E78FA0D1E700000000002072
:101EF0005B5741524E5DB5E7BBFA31B7BDCFF2CF6C
:101F0000FBCFA2B6D3C1D0B4B4BDA8B3C9B9A60D96
:101F10000A000000040000205B5741524E5DB5E707
:101F2000BBFA3150574DCFFBCFA2B6D3C1D0B4B41A
:101F3000BDA8B3C9B9A60D0A000000000800002022
:101F40005B5741524E5DB5E7BBFA32B7BDCFF2CF1A
:101F5000FBCFA2B6D3C1D0B4B4BDA8B3C9B9A60D46
:101F60000A0000000C0000205B5741524E5DB5E7AF
:101F7000BBFA3250574DCFFBCFA2B6D3C1D0B4B4C9
:101F8000BDA8B3C9B9A60D0A0000000010000020CA
:101F90005B5741524E5D57494649BDD3CAD5CFFB29
:101FA000CFA2B6D3C1D0B4B4BDA8B3C9B9A60D0AE7
:101FB00000000000140000205B5741524E5D456E4A
:101FC000636F646572315FD2E7B3F6BCC6CAFDCFFA
:101FD000FBCFA2B6D3C1D0B4B4BDA8B3C9B9A60DC6
:101FE0000A000000180000205B5741524E5D456E0C
:101FF000636F646572315F537461747573CFFBCF27
:10200000A2B6D3C1D0B4B4BDA8B3C9B9A60D0A0055
:102010001C0000205B5741524E5D4D6F746F723152
:102020005F5049445F506172616D65746572B6D3EB
:10203000C1D0B4B4BDA8B3C9B9A60D0A0000000050
:10204000200000205B5741524E5D4374726C5F501C
:102050006172616D657465725F5175657565B6D342
:10206000C1D0B4B4BDA8B3C9B9A60D0A0000000020
:102070005B5741524E5DB5E7BBFA31B7BDCFF2CFEA
:10208000FBCFA2B6D3C1D0B4B4BDA8CAA7B0DC0DF3
:102090000A0000005B5741524E5DB5E7BBFA315074
:1020A000574DCFFBCFA2B6D3C1D0B4B4BDA8CAA7F9
:1020B000B0DC0D0A000000005B5741524E5DB5E7F1
:1020C000BBFA32B7BDCFF2CFFBCFA2B6D3C1D0B4EB
:1020D000B4BDA8CAA7B0DC0D0A0000005B5741528E
:1020E0004E5DB5E7BBFA3250574DCFFBCFA2B6D30A
:1020F000C1D0B4B4BDA8CAA7B0DC0D0A000000006E
:102100005B5741524E5D57494649BDD3CAD5CFFBB7
:10211000CFA2B6D3C1D0B4B4BDA8CAA7B0DC0D0A53
:10212000000000005B5741524E5D456E636F646571
:1021300072315FD2E7B3F6BCC6CAFDCFFBCFA2B601
:10214000D3C1D0B4B4BDA8CAA7B0DC0D0A0000004A
:10215000044A0029516901D0014300E081435161E3
:102160007047000000100240044A0029D16901D0E4
:10217000014300E08143D16170470000001002403C
:10218000044A0029916901D0014300E08143916133
:10219000704700000010024030B5204A5168204BC3
:1021A00011F00C0103D0042901D0082901D00360EB
:1021B00012E05168536801F470114FF0020413F4F7
:1021C000803F04EB914102D053689B0301D5154B2E
:1021D00000E0134B5943016051680F2303EA1111CA
:1021E000114B5C5C0168E14041605468072505EAD9
:1021F00014241C5D21FA04F48460546805EAD42494
:102200001B5DD940C1605268032303EA9232064B3A
:102210001B1F9A5CB1FBF2F1016130BD001002405E
:1022200000127A0000093D00A00000207CB50446A1
:10223000002927D100252570012A23D10F206070A5
:102240000120A0706946186801F032F89DF800007E
:10225000E0709DF8010020719DF8020060719DF80A
:102260000300A07107202554401C0E28FBDD01AAA5
:102270000E212046FFF79CF99DF80400E0739DF8BD
:10228000050020747CBD00000CB500222648009299
:102290000192016841F4803101604FF4A06301684C
:1022A00001F4003101910099491C0091019911B983
:1022B00000999942F3D10168890333D50121019135
:1022C0001A490A6842F010020A600A6822F0030202
:1022D0000A600A6842F002020A604168416041688F
:1022E0004160416841F480614160416821F47C11A2
:1022F0004160416841F4E8114160016841F080713A
:10230000016001688901FCD5416821F00301416049
:10231000416841F0020141604168C1F38101022935
:10232000FAD10CBD01920CBD001002400020024009
:102330004FF0E0210428086903D020F00400086170
:10234000704740F00400FAE710B503F027F80128C1
:1023500003D0BDE8104002F06BBC10BD0F4810B5B3
:10236000016841F00101016041680D4A114041607E
:1023700001680C4A11400160016821F4802101606C
:10238000416821F4FE0141604FF41F018160FFF7B5
:102390007BFF05494FF00060086010BD001002404F
:1023A0000000FFF8FFFFF6FE08ED00E070B5048CBA
:1023B00024F001040484058B048C4FF6FF7606EAB2
:1023C0000313134325F0F3050E4A2B4390420ED01E
:1023D0000D4A90420BD0B0F1804F08D00B4A90428A
:1023E00005D00B4A904202D00A4A904202D124F012
:1023F000020201E024F00A020A4342F001010383D1
:10240000018470BD002C01400034014000040040F4
:1024100000080040000C0040F0B5048C24F01004CB
:102420000484078B048C4FF6FF7527F4734705EA85
:1024300003333B4305EA02221A43114B05EA011616
:1024400098420ED00F4B98420BD0B0F1804F08D07D
:102450000D4B984205D00D4B984202D00C4B984240
:1024600005D124F02001314341F0100104E024F0B3
:10247000A0030B4343F0100102830184F0BD000070
:10248000002C0140003401400004004000080040DE
:10249000000C004010B501218C07204600F07DF9AA
:1024A000002805D02046BDE81040012100F04DB9BC
:1024B00010BD000030B50D460446012189B0084624
:1024C000FFF752FE01210520FFF75AFE0422ADF866
:1024D0001C2018228DF81F2003208DF81E0007A94C
:1024E0001648FFF71FFBADF804400020ADF8005080
:1024F000ADF80600ADF802004FF080446946204672
:1025000000F0B2FA7021ADF80C100121ADF80E10F8
:102510000221ADF8141003A9204600F033FA082177
:10252000204600F06DFA0121204600F011F900214B
:10253000204600F06DFA09B030BD000000080140EF
:1025400010B5074C0121204600F027F9002805D0DE
:102550002046BDE81040012100F0F7B810BD000092
:102560000004004030B50D46044689B00121022028
:10257000FFF7FAFD01210920FFF702FE01211C48A7
:10258000FFF71EFB2022ADF81C2018228DF81F201B
:1025900003208DF81E0007A91648FFF7C3FAADF80F
:1025A00004400020ADF80050134CADF80600ADF823
:1025B00002006946204600F057FA7021ADF80C1071
:1025C0000121ADF80E100221ADF8141003A9204628
:1025D00000F08EF90821204600F0CAF901212046BA
:1025E00000F0B6F80021204600F010FA09B030BD26
:1025F00000081A00000C01400004004038B5104CDF
:102600000121204600F0C9F8002815D020880D4986
:1026100000090D4DC00710D02088C00608D50868F5
:10262000401E086002236A460649286802F02CFD15
:102630000121204600F089F838BD0868401CF0E709
:10264000000C00407C000020140000207CB51C48D9
:102650001C4D00900121284600F09FF800282ED044
:10266000194C211DA06820601848006802F0E0FDA8
:10267000174800F090F86168C1EB01410144A16086
:102680002068081A03F072FAE16803F09BFA0099D7
:1026900020F00040022308600E4801AA6946006845
:1026A00002F0F2FC019830B10B4928040860BFF336
:1026B0004F8FBFF36F8F0121284600F046F87CBD95
:1026C0007000002000100040800000201400002056
:1026D000000C00401800002004ED00E07FB50D461E
:1026E000044601211020FFF73FFDADF80440ADF88E
:1026F00000500024124DADF80640ADF80240694686
:10270000284600F0B1F90121284600F01BF83621D7
:102710008DF80C100E208DF80D008DF80E40012064
:102720008DF80F0003A8FFF7C5FA012211462846CD
:1027300000F0D6F80121284600F00AF87FBD00001D
:1027400000100040C94301827047C94301827047AD
:102750000029018802D041F0010101E021F00101CE
:102760000180704770B50589048B068C25F007053C
:102770000D434FF6FC410C4040F201110C434FF663
:10278000FF7101EA031126F022061143314305814E
:102790000483018470BD808C704702460020138A38
:1027A00092890B4202EA010202D0002A00D00120E5
:1027B000704700002DE9F84F0D4604460888434F46
:1027C000DFF80CC1DFF80C81DFF80C914988AA888A
:1027D0002B894FF0804A48B3042830D04FF6FF765B
:1027E0000828934634D0208C9E4620F480502084C4
:1027F000A38B208C06EA0132009223F4734306EA8D
:102800000B221A4306EA0E331343BC420AD0644536
:1028100008D0544506D0444504D04C4502D02F4A38
:10282000944245D120F40050009943E02046FFF740
:10283000BDFDE9882046BDE8F84F00F0EDB8204620
:10284000FFF7EAFDE9882046BDE8F84F00F0ECB854
:10285000208C20F480702084B4F81CE0208C06EAE0
:10286000031306EA01222EF0F30E43EA0B0343EAB8
:102870000E030092BC420AD0644508D0544506D0ED
:10288000444504D04C4502D0144A944203D120F46C
:102890000070009901E020F42060084340F480704B
:1028A000A3832084E9882046BDE8F84F00F0C8B82B
:1028B00020F40240084340F48050A3832084E98838
:1028C0002046BDE8F84F00F0C3B80000002C0140DE
:1028D000003401400004004000080040000C0040AB
:1028E000002A828901D00A4300E08A43828170472E
:1028F00070B5028C22F010020284028C8388048B53
:102900000D8824F4E6464FF6FF7404EA05253543A6
:102910000E8922F0200204EA061616434A8804EAC9
:1029200002123243104EB04202D0104EB04215D1C6
:1029300022F080064A8923F4406304EA02123243FB
:1029400022F040068A8804EA021232438E8904EAA1
:1029500086061E43CB8904EA8303334383800583C1
:10296000C9880187028470BD002C014000340140F9
:10297000028B4FF6FF7322F4006203EA0121114338
:102980000183704770B5028C22F480720284028C3D
:102990008388848B0D8824F0730425430E894FF6B9
:1029A000FF7422F4007204EA062616434A8804EAF9
:1029B00002223243104EB04202D0104EB04215D126
:1029C00022F400664A8923F4405304EA0222324387
:1029D00022F480668A8804EA022232438E8904EA5D
:1029E00006161E43CB8904EA031333438380858391
:1029F000C9888187028470BD002C014000340140E9
:102A0000828B22F008020A43828370470187704755
:102A10008187704781847047028B22F00C02028309
:102A2000028B0A4302837047028B22F440620283C6
:102A3000028B4FF6FF7303EA01210A4302837047BA
:102A4000828B22F00C028283828B0A43828370473E
:102A5000828B22F440628283828B4FF6FF7303EAFB
:102A600001210A438283704730B502881B4C1C4DFC
:102A7000A0420DD0A8420BD0B0F1804F08D0194B26
:102A8000984205D0184B984202D0184B984203D177
:102A900022F070034A881A43154B984206D0154B12
:102AA000984203D022F44073CA881A4302808A886D
:102AB00082850A880285A0420AD0A84208D00E4A20
:102AC000904205D00D4A904202D00D4A904201D169
:102AD000097A01860121818230BD0000002C01406D
:102AE000003401400004004000080040000C004099
:102AF000001000400014004000400140004401402C
:102B0000004801404FF6FF71818000210180C180A3
:102B1000418001727047000070B5154C40F225519C
:102B2000204600F0C3F800280ED0204600F04CF9F3
:102B3000104AC1B21088030406D444044FF00003C5
:102B400006D50A2901D0138070BD40F400400DE085
:102B50000D2909D0C0F30D04074D401C80B2295542
:102B60001080C728EFD870BD40F48040108070BD41
:102B70000038014094000020340400202DE9FC4777
:102B80003948374E002100900160364C3046FEF740
:102B900073FD40F224494946204600F087F8A71506
:102BA00090B34FF47000FEF74FFD3046FEF7E2FDA4
:102BB000C0F5807005B2681EFF2836D80021304667
:102BC000FEF75AFD776000983946001DFDF793FC2B
:102BD00000983A46254920C0FDF71EFC24480223F0
:102BE00001AA6946006802F04FFA224801A900686C
:102BF00002F0BAFA0198C0B11F49A0040860BFF3FF
:102C00004F8FBFF36F8F10E0FFE74FF45A784146C4
:102C10002546204600F04AF838B141462C46284661
:102C200000F02CF82088A08801E02088A0880021EE
:102C30003046FEF721FD394677600C48FDF739FC38
:102C400001213046FEF718FD40F22661204600F0D3
:102C500015F84946204600F011F8BDE8FC87000051
:102C60006C0002400044004030010020340300208A
:102C7000100000203400002004ED00E00A0A0121C9
:102C80009140C943018070470029818902D041F4F5
:102C9000005101E021F4005181817047002A828AAD
:102CA00001D00A4300E08A438282704770B501F088
:102CB0001F0501260024C1F3421306FA05F2012B79
:102CC0000FD0022B0FD0838A4FEA112100881342C4
:102CD00006FA01F600EA060001D000B10124204600
:102CE00070BD8389F0E7038AEEE710B5C1F34213A4
:102CF00001F01F040121A140012B07D0022B07D0B6
:102D00001430002A026805D00A4304E00C30F8E7CA
:102D10001030F6E78A43026010BD000030B504466B
:102D2000008A85B00D464CF6FF710840E9880143E2
:102D30002182A0894EF6F3110840A9882A891143FF
:102D40006A8902431143A181A08A4FF6FF410840DE
:102D5000A9890143A1826846FFF71EFA19488442F7
:102D600001D1039800E00298A189090400EBC00199
:102D700001EB0010296801D5490000E08900B0FB93
:102D8000F1F06422B0FBF2F109010B096FF01805B4
:102D90006B4300EB8300A3891D044FF0320306D57B
:102DA00003EBC000B0FBF2F000F0070005E003EB1E
:102DB0000010B0FBF2F000F00F000843208105B0D6
:102DC00030BD0000003801408088C0F30800704723
:102DD000FEE7000070B50C4605464FF480710E48C2
:102DE000FDF767FB224629460B48FDF715FB01223C
:102DF00080210A48FFF752FF094D00212846FEF7BF
:102E00003BFCA1B22846FEF7DDFC2846BDE8704039
:102E10000121FEF731BC00003402002000440040D4
:102E2000800002408CB0B3480B90B3480290B34886
:102E30000490B34805900024B248B34EB34FDFF876
:102E4000D082DFF8D092DFF8D0B2099401250A943D
:102E50000390B24800234FF0FF3A524619460068EB
:102E600001F038FF01283ED1AD48012352460BA99D
:102E7000006801F02FFFC1B20B9B0020401C1028FE
:102E8000FCDD00292FD006AA6946181DFEF7FFFCBD
:102E90009DF800000128E6D1A2A0FDF717FA9DF8E1
:102EA00001000128DFD1A5A0FDF710FA9DF802006E
:102EB000012806D002287CD003287BD00428D2D158
:102EC000E8E0A3A0FDF702FA9DF8030000283DD03A
:102ED000012802D00228C6D11EE09DF80400012876
:102EE00002D0022807D0DCE09EA0FDF7EFF902989F
:102EF0004570047005E0A0A0FDF7E8F90298447061
:102F000005700223002202A9306801F0F9FF0023B6
:102F10001A46194638684BE09DF80400012802D093
:102F2000022807D0BDE099A0FDF7D0F904984570BC
:102F3000047005E09AA0FDF7C9F904984470057083
:102F40000223002204A9D8F800002AE09DF804001A
:102F5000012802D002280AD0A3E096A0FDF7B6F916
:102F600002984570047004984570047008E096A0BB
:102F7000FDF7ACF902984470057004984470057030
:102F80000223002202A9306801F0BAFF02230022C6
:102F900004A9D8F8000001F0B3FF00231A4619462F
:102FA000386801F0ADFF00231A461946D9F8000031
:102FB00001E003E057E001F0A3FF72E09DF8030099
:102FC00028B3012802D002286BD113E09DF8040039
:102FD00002F0E4FD814902F0E7FC0990022300229F
:102FE00009A9DBF8000001F08BFF00231A461946FF
:102FF0007B487DE09DF8040002F0D0FD774902F0A7
:10300000D3FC02230A9000220AA9764823E09DF807
:10301000040002F0C3FDDFF8C4A1514602F0C4FC75
:1030200009909DF8040002F0B9FD514602F0BCFC85
:103030000A900223002209A9DBF8000001F060FFDA
:103040006848022300220AA9006801F059FF002302
:1030500063481A461946006801F052FF00231A46D9
:103060001946614844E061A0FDF730F99DF803007E
:10307000012816D1069802F009FC02460B4660A012
:10308000FDF724F9DDE9050102230160002205A90D
:103090005F482DE055A0FDF719F99DF803000128C0
:1030A00003D0142001F026FBD3E6069802F0EEFBD5
:1030B00002460B4657A0FDF709F9079802F0E6FB18
:1030C00002460B4656A0FDF701F9089802F0DEFB18
:1030D00002460B4655A0FDF7F9F80398069902231E
:1030E000016007994160089981605348002203A953
:1030F00000685DE730010020780000207A000020A1
:103100007400002024010020000000202400002082
:10311000080000202C0000200400002034000020C3
:10312000100000205B5741524E5DCAA3D3E0B3A408
:10313000B6C8D0A3D1E9B3C9B9A600005B574152C4
:103140004E5D435243D0A3D1E9B3C9B9A6000000F4
:103150005B5741524E5DB5E7BBFAB7BDCFF2BFD862
:10316000D6C600005B5741524E5DB5E7BBFA31B79A
:10317000BDCFF231000000005B5741524E5DB5E714
:10318000BBFA31B7BDCFF232000000005B574152AD
:103190004E5DB5E7BBFA32B7BDCFF231000000009B
:1031A0005B5741524E5DB5E7BBFA32B7BDCFF23245
:1031B000000000005B5741524E5DB5E7BBFA426F1D
:1031C0007468B7BDCFF231005B5741524E5DB5E731
:1031D000BBFA426F7468B7BDCFF232000000C8423C
:1031E000280000200C000020300000205B574152D6
:1031F0004E5D6374726C5F737065656400000000FF
:103200005B5741524E5D73706565643D25660000F5
:10321000200000205B5741524E5D503D2566000066
:103220005B5741524E5D493D256600005B57415258
:103230004E5D443D256600001C000020490050EA18
:10324000C12018BF04204A0D18BF40F0010040F211
:10325000FF72B2EB515F08BF40F00200012808BFC7
:10326000052070477047000010B50420FFF760F894
:103270000C480D490D4A0068B0FBF1F3B0FBF1F1C9
:103280004FF47A7041431370012050804FF0E020DA
:10329000026942F0020202614161016941F00101EB
:1032A000016110BD5C00002040420F009000002032
:1032B0000870020A4A70020C8A70000EC8707047CB
:1032C00004490A885206FCD5024AC1B2121D118077
:1032D0007047000000380140FEF76ABB1CB54FF490
:1032E0004070FEF719FDFFF7BFFFFEF72EF9FEF75E
:1032F00055FD07490120CDE900010023802205A1E9
:10330000074802F01FF801F055FB00201CBD00002B
:103310003800002073746172745F7461736B000015
:1033200071400008284888B0006801F08DFB00203B
:1033300000902648019007A8029004A8039000F08E
:103340007BF9234E234FDFF89080244CDFF890B0B8
:10335000DFF89090DFF890A04FF0FF3501232A4668
:1033600001A9306801F0B6FC01230A2202A93868DD
:1033700001F0B0FC01232A4603A9D8F8000001F0AF
:10338000A9FC0198039A01680298136800682361F8
:10339000536863619268A26100F036FE594602F0FC
:1033A00003FB0090022300226946D9F8000001F0D7
:1033B000A7FD00231A461946DAF8000001F0A0FD27
:1033C000142001F097F9C9E74C000020700000209C
:1033D00018000020200000201C0000204858002079
:1033E00000007A4404000020280000201CB501A839
:1033F000DFF86880DFF8689000251A4C4FF0FF373F
:103400000126009000233A461946D8F8000001F042
:1034100061FC01281ED101233A466946D9F8000013
:1034200001F058FC00984178012901D041B111E028
:10343000007878B9C4F88051C4F884610AA007E024
:103440000078012806D1C4F88061C4F884510BA02B
:10345000FCF73CFF142001F04DF9D3E724000020D5
:1034600000000020000022425B5741524E5DB5E74C
:10347000BBFA31B7B4CFF20D0A0000005B574152DE
:103480004E5DB5E7BBFA31D5FDCFF20D0A00000065
:1034900008B50020154D164E164FDFF85C80441E0F
:1034A0000090002322461946286801F013FC0128E9
:1034B00018D1012322466946306801F00BFC3946D9
:1034C000009802F07FFB009002F0E0F902460B4604
:1034D0000AA0FCF7FBFE009802F028FB81B24046F0
:1034E000FFF794FA142001F005F9DAE7280000202C
:1034F0000400002000007A44000400405B57415261
:103500004E5DB5E7BBFA50574DB2CECAFD3A2566BF
:103510000D0A00001CB501A8DFF86880DFF868908C
:1035200000251A4C4FF0FF370126009000233A4641
:103530001946D8F8000001F0CDFB01281ED1012367
:103540003A466946D9F8000001F0C4FB009841787A
:10355000012901D041B111E0007878B9C4F888514F
:10356000C4F88C610AA007E00078012806D1C4F8ED
:103570008861C4F88C510BA0FCF7A8FE142001F060
:10358000B9F8D3E72C0000200800002000002242F8
:103590005B5741524E5DB5E7BBFA32B7B4CFF20D7F
:1035A0000A0000005B5741524E5DB5E7BBFA32D5C9
:1035B000FDCFF20D0A00000008B50020154D164E93
:1035C000164F441E4FF080480090002322461946B3
:1035D000286801F07FFB012818D1012322466946A3
:1035E000306801F077FB3946009802F0EBFA009062
:1035F00002F04CF902460B4609A0FCF767FE009862
:1036000002F094FA81B24046FFF702FA142001F06A
:1036100071F8DAE7300000200C00002000007A4446
:103620005B5741524E5DB5E7BBFA50574D32B2CEB3
:10363000CAFD3A25660D0A00054800210160416077
:103640008160C160016141618161C1610162704756
:10365000485800202DE9F041184E0F460446F56801
:103660003068001D00F0BCFE38B9306890F82C10AE
:1036700001208840316981433161601C07D137B135
:103680003168BDE8F0410E48091D00F0E1BE306828
:103690002C44AC424460316805D2B06BBDE8F041C7
:1036A000091D00F0BDBE706B091D00F0B9FEB06AC7
:1036B000844200D2B462BDE8F0810000B000002076
:1036C0000C0800202DE9F041054600F0CDFE2D4EFE
:1036D000B068401CB06030682B4F10B1706930B3D7
:1036E0002BE03560B068012827D1002404EB84006A
:1036F00007EB800000F086FE641C202CF6D32348E4
:1037000000F080FE2148143000F07CFE1F48283075
:1037100000F078FE1D483C3000F074FE1B4850302D
:1037200000F070FE194870631430B06305E0306833
:10373000E96AC06A884200D83560706A0121401C7D
:1037400070626864E86A326981401143316100EB5C
:10375000800007EB8000291D00F07AFE00F0C0FE1B
:10376000706900280CD03068E96AC06A884207D2C4
:1037700007494FF080500860BFF34F8FBFF36F8F42
:10378000BDE8F081B00000203C050020BC0700200F
:1037900004ED00E010B500F067FE0E4C2068A0B903
:1037A0000D4800F02FFE0C48143000F02BFE0A48A4
:1037B000E0601430206100221021052001F04EFA53
:1037C000206010B105A100F061FFBDE8104000F0DD
:1037D00087BE0000EC00002020080020546D7251CC
:1037E0000000000070B5124E124D1CE001F094F97B
:1037F000306820B1002401F0FFFEA4B901E00124EB
:10380000F9E700F031FEF068C468201D00F0E8FD23
:10381000A868401EA8606868401E686000F060FEEE
:10382000204600F052F868680028DFD170BD000023
:10383000F8070020B000002030B4026C0B46002ACC
:103840000BD0C1681144C1604468A14201D3016832
:10385000C16030BC1846FCF7DFBD30BC70472DE9B5
:10386000F041856B174604460026026C82B1C7B151
:10387000E068FCF7D1FDE168206C091AE16022687C
:10388000914202D26168081AE060022F16D017E058
:103890002068A8B9606801F009FE06460020606053
:1038A0000EE0A068FCF7B8FD216CA0680844A06099
:1038B0006168884204D32068A06001E005B16D1EF4
:1038C0006D1CA5633046BDE8F08110B50446006B61
:1038D00000F038FE2046BDE8104000F033BE000086
:1038E00010484FF4A041420706D0C01D0D4920F0FA
:1038F0000700411AC1F5A0410B4A00230144C2E967
:1039000000030839103A21F0070111604B600B6089
:103910000B1AC0E9001393604FF000405360D06071
:10392000704700004808002010010020074E4FF0AB
:103930008054074DFFF756FF30680128FAD92C60F4
:10394000BFF34F8FBFF36F8FF4E700003C050020FB
:1039500004ED00E02DE9F047DDE909840E46174645
:10396000824691009946089DA522206BFCF799FD9F
:103970006FF00301206B01EB8701084420F007077B
:10398000780705D040F22B3219A11EA0FCF79EFC4F
:1039900000202218315C82F83410315C11B1401CD7
:1039A0001028F6D3002684F84360202D00D31F256D
:1039B000E562C4E91356201D00F02FFD04F1180044
:1039C00000F02BFD2461C5F120006462A0616665F2
:1039D00084F858604A465146384600F003FB2060A0
:1039E000B8F1000F01D0C8F80040BDE8F087000032
:1039F0002E2E5C4672656552544F535C7461736B36
:103A0000732E63004572726F723A25732C25640D14
:103A10000A00000030B5114900E011460A688242F0
:103A2000FBD34B685C18844203D14068184448605B
:103A3000084643681C18944209D1084C103C24687D
:103A4000A24209D052681A4442600A6812680260B1
:103A5000814200D0086030BD0460F9E71001002009
:103A600070B5002441600B4D0061914206D8D11A17
:103A70008269914206D2011D286907E09A4203D269
:103A8000994201D3012403E0011DE86800F0C8FC5D
:103A9000204670BDEC00002010B5044600F0E4FCA8
:103AA000A06B20B1002400F01BFD204610BD0124B6
:103AB000F9E700002DE9F34100980F460026846CD9
:103AC0002CB940F6CE1216A11AA0FCF7FFFBA06B92
:103AD000E16B884205D340F6CF1211A115A0FCF787
:103AE000F5FBA06BE16B88420CD294F945503A4645
:103AF00069462046FFF7B3FE0646681C05D06D1CDC
:103B000084F845503046BDE8FC81606A0028F9D051
:103B100004F1240001F024FD0028F3D00126F1E790
:103B20002E2E5C4672656552544F535C71756575F7
:103B3000652E63004572726F723A25732C25640DF1
:103B40000A000000F8B5054614480E46C068C06873
:103B5000C468201D00F044FCE069012817D1A06969
:103B60002B46411932462046FFF77AFF78B10020F4
:103B70000346014600902A46204601F023FE30B954
:103B800007494FF4027201F11800FCF79FFB616ACC
:103B900001B02046BDE8F04008470000EC000020DE
:103BA0002857000870B586B02F4E53E001980028C2
:103BB00006DADDE90301029A90470198002849DB03
:103BC000039C606910B1201D00F00AFC05A800F0FC
:103BD000A7F8054601980A283CD2DFE800F0050561
:103BE000053B273805053B270298A1690346014498
:103BF0002A462046FFF734FF00282BD0616A204672
:103C00008847E069012825D1002000900298A16929
:103C1000002342181946204601F0D4FDD0B940F2E5
:103C2000213212A117A0FCF751FB13E00298A0610A
:103C300028B94FF44E720DA112A0FCF747FBA06902
:103C40002B4641191A462046FFF70AFF02E020469C
:103C500000F078FC00231A4601A9306801F03AF818
:103C60000028A3D106B070BDEC0000202E2E5C46CB
:103C700072656552544F535C74696D6572732E633F
:103C8000000000004572726F723A25732C25640D96
:103C90000A000000F8B50D46064600F03DFF6846F4
:103CA00000F03EF80446009810B101F0A5FCF8BD04
:103CB0001148ADB101690968D9B10025311B2A4607
:103CC000006800F0F5FC01F097FC0028EFD10B49EB
:103CD0004FF080500860BFF34F8FBFF36F8FF8BD78
:103CE000A642EBD801F088FC21463046FFF72AFFB8
:103CF000F8BD0125E2E70000EC00002004ED00E043
:103D00000648416B096829B1416BC968C9684968AF
:103D1000816270474FF0FF31FAE70000B0000020E9
:103D200070B5054601F048FB064E0446B068844273
:103D300003D200F009F8012000E0002028602046AE
:103D4000B46070BDEC000020F8B5184E26E0C068E5
:103D5000C4680568201D00F043FB616A204688475F
:103D6000E06901281AD1A0692844A84206D9246133
:103D70006060211DF06800F053FB0FE00020034657
:103D8000014600902A46204601F01CFD30B9084942
:103D900040F2923201F11800FCF798FAF0680168DD
:103DA0000029D4D13169C6E90310F8BDEC00002028
:103DB0002857000808484068401C04D0F42207A196
:103DC00011A0FCF783FA502080F31188BFF34F8FC6
:103DD000BFF36F8FFEE70000180100202E2E5C4617
:103DE00072656552544F535C706F727461626C659A
:103DF0005C525644535C41524D5F434D335C706F8F
:103E000072742E63000000004572726F723A25735F
:103E10002C25640D0A000000084CE068016839B1E7
:103E2000002139B10020FFF735FFFFF7BBFEF4E7B3
:103E30000121F6E7C0680068F5E70000EC0000200B
:103E40002DE9F041044600F00FFB94F9455004F1D0
:103E5000240610E0A06C20B100212046FFF72AFEC6
:103E600004E0606A48B1304601F07AFB08B100F026
:103E7000DDFC6D1E6DB2002DECDC4FF0FF3684F8DA
:103E8000456000F02DFB00F0EFFA94F9445004F186
:103E9000100709E0206948B1384601F061FB08B11C
:103EA00000F0C4FC6D1E6DB2002DF3DC84F844609C
:103EB000BDE8F04100F014BB2DE9F04105460026B5
:103EC00000F02AFE324F386808B9FFF709FDF8689C
:103ED00005424FD1002D4DD0083568070BD005F0B5
:103EE0000700C0F108000544680704D0BF2229A1DB
:103EF00032A0FCF7EBF9002D3CD07868854239D828
:103F0000234910310846046801E0214604466068F0
:103F1000A84202D220680028F7D13868B846844207
:103F200028D00E682068086060680836401B10289A
:103F30000ED96719780704D0EC2216A11FA0FCF750
:103F4000C5F96068401B786038466560FFF762FD20
:103F50006168D8F804004246401AC8F80400D8F84E
:103F60000830984200D29060D8F80C00014300203D
:103F7000C4E9000101F040FB700705D04FF49672D0
:103F800004A10EA0FCF7A2F93046BDE8F0810000C4
:103F9000000100202E2E5C4672656552544F535C22
:103FA000706F727461626C655C4D656D4D616E67BA
:103FB0005C686561705F342E630000004572726F4B
:103FC000723A25732C25640D0A0000000449086824
:103FD00018B10868026D521C02650868704700003D
:103FE000B000002010B5031F4FF080741C601B1F31
:103FF00021F001011960191F024B0B601439403880
:104000000A6010BDB53D00082DE9F041164CC4E929
:10401000000101F0A3FE0546A0602946206A01F0D8
:1040200061FC206207462846E16801F097FEA1691D
:1040300001F0C8FD06463946606901F0C3FD074638
:104040002946206901F0BEFD394601F04BFC31469E
:1040500001F048FC0549E560E061884200DDE1616E
:10406000E069BDE8F08100004858002000007A4473
:104070007CB5FFF731F900F0F7F904242E48A601CA
:10408000CDE90040002332462CA1304801F05AF916
:1040900029480225001DCDE90050002332462CA1FD
:1040A0002F4801F04FF9244800230830CDE90040A3
:1040B00032462CA12F4801F045F91F4800230C304F
:1040C000CDE9005032462CA12F4801F03BF91A48A7
:1040D00003241030CDE900402D0200232A462BA1F5
:1040E0002E4801F02FF9144901201431CDE90001C7
:1040F000002332462AA12E4801F024F90E4800235D
:104100001830CDE900402A462AA12D4801F01AF9BD
:10411000094900201C31CDE900010346324629A19E
:104120002B4801F00FF90448001F006800F018FB4D
:10413000BDE87C4000F0D4B93C0000206D6F746F86
:1041400072315F6469725F7461736B00ED330008F4
:104150006D6F746F72315F70776D5F7461736B0038
:10416000913400086D6F746F72325F6469725F74AE
:1041700061736B00153500086D6F746F72325F707C
:10418000776D5F7461736B00B93500086D6F746F84
:1041900072315F5049445F7461736B0025330008CE
:1041A000456E636F646572315F7461736B0000000C
:1041B000D51A0008776966695F7461736B00000047
:1041C000252E000849646C655F7461736B00000004
:1041D000211C0008C72041F61F41FEF77FBA0000EE
:1041E00070B5054686B0012144F20400FDF7C8FF12
:1041F0004FF40070ADF8100003248DF81240182021
:104200001D4E8DF8130004A93046FDF78BFC3015C8
:10421000ADF8100004208DF8130004A93046FDF716
:1042200081FC25208DF814008DF815408DF816407E
:1042300001208DF8170005A8FDF73CFD0020ADF822
:104240000400ADF80600ADF80800ADF80C000C2035
:104250000A4CADF80A00009569462046FEF75EFD5F
:10426000012240F225512046FEF73FFD0121204664
:10427000FEF70AFD06B070BD00080140003801409D
:1042800018B50023012803D0022801D0002819D135
:104290006C46C85CE0545B1C032BFADD0098106090
:1042A00000200B181B792354401C0328F9DD0098CB
:1042B000506000200B181B7A2354401C0328F9DDA2
:1042C0000098906018BD18B500236C4601281CD0DA
:1042D00002281AD0C8B1C85CE0545B1C032BFADD7D
:1042E0000098106000200B181B792354401C0328F1
:1042F000F9DD0098506000200B181B7A2354401CF5
:104300000328F9DD0098906018BDC85CE0545B1C80
:10431000032BFADD0098106018BD000030B50121B4
:1043200085B04804FDF720FF01210420FDF728FF98
:1043300001210820FDF744FC18208DF813002020EF
:10434000ADF81000244D03248DF8124004A928462E
:10435000FDF7E8FB04218DF813104020ADF81000A4
:104360008DF8124004A92846FDF7DCFB4FF4E1303C
:10437000009000200C21ADF80A10ADF80600174C93
:10438000ADF80C00ADF80800ADF804006946204611
:10439000FEF7C4FC002240F226612046FEF7A5FC91
:1043A000002240F225512046FEF79FFC012240F2F8
:1043B00024412046FEF799FC012260212046FEF7A9
:1043C00094FC012228212046FEF78FFC0121204683
:1043D000FEF75AFC05B030BD001401400044004017
:1043E000D0E9013201699A60D0E901235A604A6834
:1043F000824201D182684A60002202610868401E40
:104400000860704700F108014FF0FF32C0E9011267
:10441000C1600161002101607047002101617047A6
:1044200030B50C68621C02D000F1080202E002699B
:1044300004E01A4653681D68A542FAD953684B60D8
:1044400099608A60516008610168491C016030BD53
:1044500042684A6093688B60936859609160086114
:104460000168491C01607047502080F31188BFF338
:104470004F8FBFF36F8F09494868401C486001287F
:104480000AD10748006810F0FF0F05D04FF4BD7245
:1044900004A10FA0FBF71ABF70470000180100200D
:1044A00004ED00E02E2E5C4672656552544F535C5D
:1044B000706F727461626C655C525644535C415219
:1044C0004D5F434D335C706F72742E6300000000CB
:1044D0004572726F723A25732C25640D0A00000034
:1044E00010B5084C606828B940F2811206A111A0ED
:1044F000FBF7ECFE6068401E606001D180F311881C
:1045000010BD0000180100202E2E5C467265655219
:10451000544F535C706F727461626C655C525644A8
:10452000535C41524D5F434D335C706F72742E6328
:10453000000000004572726F723A25732C25640DDD
:104540000A00000070B500282AD0164DA0F108041A
:104550006068E968084205D14FF4A07212A11CA05E
:10456000FBF7B4FE206828B140F241120EA118A05A
:10457000FBF7ACFE6068E968084211D02268002AA7
:104580000ED18843606000F0C7FA6068696808442B
:1045900068602046FFF73EFABDE8704001F02CB895
:1045A00070BD0000000100202E2E5C467265655231
:1045B000544F535C706F727461626C655C4D656DD5
:1045C0004D616E675C686561705F342E630000004A
:1045D0004572726F723A25732C25640D0A00000033
:1045E00006484FF47A710068B0FBF1F14FF0E0201B
:1045F000491E416107210161704700005C000020F5
:1046000010B5FBF73DFE104C10280CD300F1E02054
:1046100090F8F0032178884205D24FF42A720BA15A
:1046200015A0FBF753FE18480068A16800F4E0608D
:10463000884207D9BDE810404FF42E7203A10EA0A6
:10464000FBF744BE10BD0000180100202E2E5C4672
:1046500072656552544F535C706F727461626C6521
:104660005C525644535C41524D5F434D335C706F16
:1046700072742E63000000004572726F723A2573E7
:104680002C25640D0A0000000CED00E010B5074B6E
:10469000002253F832401CB1521C082AF9D310BD35
:1046A00043F8321003EBC201486010BDFC04002047
:1046B00070B515460E460446FFF7D6FE94F9441031
:1046C0000020491C01D184F8440094F94510491C8C
:1046D00001D184F84500FFF703FFA06B28B92A46F3
:1046E000314604F1240000F0D1F82046BDE87040C6
:1046F000FFF7A6BB10B5040012D00E49096B29B113
:1047000040F2CF420CA111A0FBF7E0FD00F004FA4B
:1047100000212046FEF79EFF00F06EFF002807D123
:104720000E494FF080500860BFF34F8FBFF36F8F7B
:1047300010BD0000B00000202E2E5C467265655250
:10474000544F535C7461736B732E63004572726FC8
:10475000723A25732C25640D0A00000004ED00E078
:1047600070B50446FFF780FE234D04B92C68201D68
:10477000FFF736FE58B9E06A204A00EB800152F894
:10478000211021B901218140286988432861A06A4C
:1047900018B104F11800FFF723FE686A401C686234
:1047A0002868844207D1211D1548FFF751FE68682B
:1047B000401C686007E0A868401EA8602046FFF71C
:1047C00084F8FFF79DFAFFF78BFE6869002812D086
:1047D000286884420FD1286B28B140F2654209A1B4
:1047E0000DA0FBF773FD10494FF080500860BFF338
:1047F0004F8FBFF36F8F70BDB00000203C050020CD
:10480000F80700202E2E5C4672656552544F535CAB
:104810007461736B732E63004572726F723A257305
:104820002C25640D0A00000004ED00E00149012080
:10483000C8617047B000002070B50D46040005D176
:1048400040F6063207A10CA0FBF740FD0E480168B8
:1048500020461831FFF7E4FD2846BDE870400121ED
:10486000FEF7F8BE2E2E5C4672656552544F535CBF
:104870007461736B732E63004572726F723A2573A5
:104880002C25640D0A000000B000002070B514460D
:104890000E46050005D140F6313209A10DA0FBF707
:1048A00015FD1048016828461831FFF7D1FD0CB1FD
:1048B0004FF0FF3621463046BDE87040FEF7CABED5
:1048C0002E2E5C4672656552544F535C7461736B57
:1048D000732E63004572726F723A25732C25640D36
:1048E0000A000000B000002070B5040039D01D4D52
:1048F000E06A2968C96A884233D2A069002804DBCB
:104900002868C06AC0F12000A061E06A164E00EB82
:104910008000616906EB800081421FD1201DFFF7F6
:104920005FFD012150B9E06A00EB800256F82220B9
:1049300022B92A6901FA00F082432A612868C06A14
:10494000E0622A6981401143296100EB800006EB97
:104950008000211DBDE87040FFF77ABD2868C06A5D
:10496000E06270BDB00000203C05002010B50400DE
:1049700005D140F6C13205A109A0FBF7A7FC0C4800
:10498000016A2160C068606010BD00002E2E5C4688
:1049900072656552544F535C7461736B732E630080
:1049A0004572726F723A25732C25640D0A0000005F
:1049B000B00000201CB517480024CDE90040234674
:1049C000822215A1164800F0BDFC012803D100F099
:1049D000BFFE01280AD0401C1BD102B040F28472F5
:1049E000BDE810400FA114A0FBF770BC502080F36D
:1049F0001188BFF34F8FBFF36F8F06484FF0FF3121
:104A00002C38816201214161C460BDE81C4000F086
:104A1000D3B81CBDDC00002049444C450000000018
:104A20002D3900082E2E5C4672656552544F535C3A
:104A30007461736B732E63004572726F723A2573E3
:104A40002C25640D0A00000070B50446FFF70CFD2C
:104A5000244D04B92C68201DFFF7C2FC58B9E06A48
:104A6000214A00EB800152F8211021B90121814037
:104A7000286988432861A06A18B104F11800FFF77B
:104A8000AFFC211D1948FFF7E3FCFFF729FD68691A
:104A900028B1FFF7E9FCFFF733F9FFF721FD28689C
:104AA000844211D1686980B1286B28B140F2576205
:104AB0000FA114A0FBF70AFC16494FF080500860C4
:104AC000BFF34F8FBFF36F8F70BD0848A9680068B0
:104AD000884202D10020286070BDBDE8704000F01F
:104AE00023B80000B00000203C0500200C08002086
:104AF0002E2E5C4672656552544F535C7461736B25
:104B0000732E63004572726F723A25732C25640D03
:104B10000A00000004ED00E00248016B491C01633B
:104B200070470000B000002070B5134D286B10B125
:104B30000120E86170BD0020E86128690F4EB0FADD
:104B400080F0C0F11F0000EB800456F8240028B963
:104B500040F6F6220AA10FA0FBF7B8FB06EB840093
:104B600000F10802416849684160914201D14968F9
:104B70004160C868286070BDB00000203C0500207E
:104B80002E2E5C4672656552544F535C7461736B94
:104B9000732E63004572726F723A25732C25640D73
:104BA0000A00000010B5FFF7B9FBFCF70DFEBDE8E9
:104BB0001040FDF7BBB800001CB51A4908780190F9
:104BC000FF20087008788DF800009DF80000164A54
:104BD00000F0500010700720906007E09068401EC1
:104BE00090609DF8000040008DF800009DF80000E6
:104BF0000006F3D4107A000200F4E060906001989F
:104C000008700A48016841F470010160016841F0D0
:104C100070410160FFF7E4FC00205060FBF7FAFAF6
:104C200000201CBD00E400E01801002020ED00E0A1
:104C300010B5502080F31188BFF34F8FBFF36F8FF3
:104C400000F0C0FB18B104494FF08050086000200C
:104C500080F3118810BD000004ED00E02DE9F04163
:104C600017460E46050005D14FF4C47210A115A0D9
:104C7000FBF72CFBBEB105FB06F05430FFF71CF927
:104C800004000ED004F154007EB12060C4E90F5638
:104C90002046012100F0E0F884F850700021204601
:104CA000A164BDE8F0810020E7E72460EEE70000A2
:104CB0002E2E5C4672656552544F535C7175657556
:104CC000652E63004572726F723A25732C25640D50
:104CD0000A0000002DE9FF4F83B09B468A4604007E
:104CE0004FF0000605D140F2DC4251A155A0FBF780
:104CF000EDFABAF1000F07D1206C28B140F2DD4285
:104D00004BA150A0FBF7E2FA00F048FB38B9059838
:104D100028B14FF49C6246A14AA0FBF7D7FA4FF0A6
:104D200000094FF08057DFF82C81FFF79DFBA56B42
:104D300045B351462046E668FEF77EFDBBF1000F05
:104D400013D0E660606A50B104F1240000F008FC62
:104D500028B1C8F80070BFF34F8FBFF36F8FFFF714
:104D6000BFFB012007B0BDE8F08F6D1EA563206872
:104D700010B9FFF72BF9606020690028EFD004F12B
:104D80001000E3E7059808B11EB106E0FFF7A8FBA5
:104D900027E06846FFF7EAFD0126FFF7A1FBFFF7D2
:104DA000BBFEFFF761FB94F94400401C01D184F87D
:104DB000449094F94500401C01D184F84590FFF7D8
:104DC0008FFB05A9684600F079FA002820460AD032
:104DD000FFF736F800F010FC2046FEF75DFE0028D5
:104DE000A3D00020BEE7FEF757FED8B1206830B947
:104DF000FFF73AFB6068FFF777FDFFF771FB04F1FF
:104E000024000599FFF718FD2046FFF719F800F078
:104E1000F3FB002889D1C8F80070BFF34F8FBFF3B0
:104E20006F8F82E72046FFF70BF800F0E5FB7CE789
:104E30002E2E5C4672656552544F535C71756575D4
:104E4000652E63004572726F723A25732C25640DCE
:104E50000A00000004ED00E070B50D46040005D125
:104E600040F21B121CA121A0FBF730FAFFF7FCFA5D
:104E7000D4E90F20216802FB001161600021A163C9
:104E80002168A1600A46D4E90F01401E00FB012100
:104E9000E16021464FF0FF3001F8440F487004F103
:104EA00010004DB1FFF7AEFA04F12400FFF7AAFAA3
:104EB000FFF716FB012070BD21690029F8D000F032
:104EC0004FFB0028F4D00D494FF080500860BFF32D
:104ED0004F8FBFF36F8FEBE72E2E5C4672656552E6
:104EE000544F535C71756575652E63004572726F22
:104EF000723A25732C25640D0A00000004ED00E0D1
:104F00002DE9FF4F83B099468B4604004FF0000611
:104F100005D140F2D92252A156A0FBF7D7F9BBF137
:104F2000000F07D1206C28B140F2DA224CA151A029
:104F3000FBF7CCF9B9F1020F08D1E06B012805D0DD
:104F400040F2DB2246A14BA0FBF7C0F900F026FAA5
:104F500038B9059828B140F2DE2241A145A0FBF7FF
:104F6000B5F94FF0000A4FF08057DFF81881FFF7CE
:104F70007BFAA06BE16B884206D3B9F1020F03D034
:104F8000059800B316B325E04A4659462046FEF779
:104F900066FCA16C21B149462046FEF78BFD05E079
:104FA000616A19B104F1240000F0DAFA28B1C8F8F6
:104FB0000070BFF34F8FBFF36F8FFFF791FA01209F
:104FC00007B0BDE8F08FFFF78BFA21E06846FFF7E6
:104FD000CDFC0126FFF784FAFFF79EFDFFF744FAA8
:104FE00094F94400401C01D184F844A094F9450090
:104FF000401C01D184F845A0FFF772FA05A9684664
:1050000000F05CF930B12046FEF71AFF00F0F4FA28
:105010000020D5E7FFF728FAA06BE16B884201D1A9
:10502000012500E00025FFF75BFA95B104F11000BF
:105030000599FFF701FC2046FEF702FF00F0DCFABD
:10504000002894D1C8F80070BFF34F8FBFF36F8F63
:105050008DE72046FEF7F4FE00F0CEFA87E7000069
:105060002E2E5C4672656552544F535C71756575A2
:10507000652E63004572726F723A25732C25640D9C
:105080000A00000004ED00E02DE9F04798461546BF
:105090008946040005D140F29F322AA12EA0FBF7D9
:1050A00015F9B9F1000F07D1206C28B14FF46872DF
:1050B00024A129A0FBF70AF9B8F1020F08D1E06B8F
:1050C000012805D040F2A1321EA123A0FBF7FEF873
:1050D000FFF796FA5020EFF3118780F31188BFF3A2
:1050E0004F8FBFF36F8FA06BE16B884207D3B8F18E
:1050F000020F04D0002087F31188BDE8F08794F9EF
:105100004560424649462046FEF7A9FB701C04D084
:10511000761C84F845600120EDE7A06C012620B1E3
:1051200041462046FEF7C6FC06E0606A0028F2D041
:1051300004F1240000F014FA0028ECD0002DEAD08D
:105140002E60E8E72E2E5C4672656552544F535C24
:1051500071756575652E63004572726F723A2573BD
:105160002C25640D0A0000002DE9F0410D460400D5
:1051700005D140F23C4225A129A0FBF7A7F8206CFD
:1051800028B14FF4886221A125A0FBF79FF8206881
:1051900038B9606828B140F245421CA120A0FBF755
:1051A00095F8FFF72DFA5020EFF3118680F3118860
:1051B000BFF34F8FBFF36F8FA16BE06B88421FD996
:1051C00094F94500491CA163411C04D0401C84F89B
:1051D0004500012015E0A06C012720B100212046E8
:1051E000FEF768FC06E0606A0028F2D004F12400B3
:1051F00000F0B6F90028ECD0002DEAD02F60E8E7E7
:10520000002086F31188BDE8F08100002E2E5C4658
:1052100072656552544F535C71756575652E6300F8
:105220004572726F723A25732C25640D0A000000D6
:105230002DE9F0410E46040005D140F2FC5216A1C2
:105240001AA0FBF743F83EB9206C38B140F2FD528A
:1052500011A116A0FBF73AF8206C28B940F2FE52D3
:105260000DA112A0FBF732F8FFF7CAF95020EFF3B7
:10527000118580F31188BFF34F8FBFF36F8FA06B41
:1052800030B131462046E768FEF7D6FA0120E760E4
:1052900085F31188BDE8F0812E2E5C46726565525B
:1052A000544F535C71756575652E63004572726F5E
:1052B000723A25732C25640D0A00000070B50D4666
:1052C000040005D140F6CB3214A119A0FAF7FEFF75
:1052D0002DB940F6CC3211A115A0FAF7F7FFFFF770
:1052E000C3F8174AD06829684B1C0FD02368126A8C
:1052F000934202D0626882420AD96268801A884268
:1053000006D2081A28602046FFF730FB002400E090
:105310000124FFF7E5F8204670BD00002E2E5C4604
:1053200072656552544F535C7461736B732E6300E6
:105330004572726F723A25732C25640D0A000000C5
:10534000B00000202DE9FF5F8346DDE90E87994616
:1053500016468A469000FEF7AFFD05001AD05C2085
:10536000FEF7AAFD040012D025630021CDE9024119
:10537000CDE900874B46324651465846FEF7EAFAD9
:105380002046FEF79FF9012004B0BDE8F09F2846B3
:10539000FFF7D8F84FF0FF30F6E700000548416905
:1053A00019B1006B18B1002070470120704702202E
:1053B00070470000B00000200148C068704700003E
:1053C000B00000202DE9F0412D4F0026386B40B190
:1053D000B869401CB861F86900B101263046BDE8E3
:1053E000F081FD686D1CFD6011D1786B006828B1FB
:1053F00040F6D91223A128A0FAF768FF786BB96BA1
:105400007963B863386A401C3862FEF779FCB86A81
:10541000DFF89480854209D3786B006880B1786B9F
:10542000C068C468606885420DD2B8623868C06AD6
:1054300000EB800158F821000128CCD90126CAE7E9
:105440004FF0FF30F1E7201DFEF7CAFFA06A18B148
:1054500004F11800FEF7C4FFE06A01213A698140B7
:105460001143396100EB800108EB8100211DFEF73B
:10547000EFFFE06A3968C96A8842CDD30126CBE7DD
:10548000B00000202E2E5C4672656552544F535C6E
:105490007461736B732E63004572726F723A257379
:1054A0002C25640D0A0000003C05002070B50400A6
:1054B0004FF000063CD01F4D2868844205D040F6CE
:1054C000C7621DA121A0FAF701FF206D28B940F69F
:1054D000C96219A11DA0FAF7F9FE206D401E2065D2
:1054E000E26CE16A914223D010BB201DFEF778FFE9
:1054F0001A49012250B9E06A00EB800351F82330C9
:1055000023B92B6902FA00F083432B61E06CE0625F
:10551000C0F12000A061E06A2B6982401A432A6131
:1055200000EB800001EB8000211DFEF791FF0126BA
:10553000304670BDB00000202E2E5C46726565526C
:10554000544F535C7461736B732E63004572726FBA
:10555000723A25732C25640D0A0000003C050020DA
:105560002DE9F041C068C4682CB940F6613216A13B
:105570001AA0FAF7ABFE04F118000746FEF730FF59
:105580001A4D286B012660B139461948FEF760FFB5
:10559000E06A2968C96A884213D90120EE61BDE832
:1055A000F081201DFEF71CFFE06A2A6906FA00F16F
:1055B000114329610F4900EB800001EB8000211DA0
:1055C000E4E70020EBE700002E2E5C467265655292
:1055D000544F535C7461736B732E63004572726F2A
:1055E000723A25732C25640D0A000000B0000020DB
:1055F000E40700203C0500202DE9F0472B4D002456
:105600002746286B28B94FF4FD6229A12DA0FAF78F
:105610005DFEFEF729FF286B401E2863286BE8BB60
:10562000A8682C490126C8B3A1F52A798846D8F87C
:105630000010E9B1D8F80C00C46804F11800FEF7B6
:10564000CFFE201DFEF7CCFEE06A2A6906FA00F1C3
:105650001143296100EB800109EB8100211DFEF758
:10566000F7FEE06A2968C96A8842E0D3EE61DEE7A6
:105670000CB1FEF745FBAC693CB1FFF7A3FE00B1EE
:10568000EE61641EF9D10020A861E86930B11249C9
:10569000012738070860BFF34F8F00E001E0BFF338
:1056A0006F8FFEF71DFF3846BDE8F087B000002081
:1056B0002E2E5C4672656552544F535C7461736B59
:1056C000732E63004572726F723A25732C25640D38
:1056D0000A000000E407002004ED00E02DE9F04797
:1056E0000746994616460D462C20DDF820A0FEF709
:1056F000E3FB040014D0B8464F46D1462DB94FF411
:10570000C67209A10EA0FAF7E1FDFEF743F804F115
:105710001801C4F8008081E8E002201DFEF77DFE3C
:105720002046BDE8F08700002E2E5C46726565526B
:10573000544F535C74696D6572732E6300000000F2
:105740004572726F723A25732C25640D0A000000B1
:105750001CB50024FEF71EF80C48006868B10B4920
:105760001F20091DCDE9000100234FF4827208A11A
:105770000948FFF7E7FD040005D140F2331207A105
:105780000CA0FAF7A3FD20461CBD0000EC00002091
:10579000546D722053766300193E00082E2E5C462D
:1057A00072656552544F535C74696D6572732E63F4
:1057B000000000004572726F723A25732C25640D4B
:1057C0000A0000002DE9FF47DDF830A09946904619
:1057D0000D4606004FF0000705D14FF4D37212A119
:1057E00017A0FAF773FD1A4C206880B1CDE9005874
:1057F0000296062D11DAFFF7D1FD02284FF00003C3
:1058000009D0002269462068FFF77AFB074604B0FA
:105810003846BDE8F0875246F4E700234A46694619
:10582000FFF732FCF2E700002E2E5C4672656552EF
:10583000544F535C74696D6572732E6300000000F1
:105840004572726F723A25732C25640D0A000000B0
:10585000EC00002010B500290AD00878002807D0F5
:1058600005487844FBF776FA002801D0002010BDE7
:105870000248784410BD00009E0800009608000011
:105880000808A0F500114FEA3101704743004FEAC4
:10589000D30C4FEA3C0C43401FBF40070CF1605152
:1058A00013F0FE4F70471CF0006F03D100200CF086
:1058B000004170470CF0004343EA507010B540EAD5
:1058C000CC0000F000FA00BF000000924FEA000197
:1058D000FFF7D6BF4FF000414FF00000A1F50021C7
:1058E0007047000090EA010F48BF81F0004100F1CD
:1058F0003C82421A3CBF801A89184FEAD0524FF0BE
:105900007F4C1CEA410FA2EBD15318BF9CEA026FF7
:1059100000F03B804FF0004C4CEA00204CEA0121A3
:1059200021FA03FC10EB0C0C1ED202F1FF325FEAED
:105930001C2040EBC25038BF70471CF07F0F4FEA6D
:10594000400C18BFBCF17F4F38BF7047C3F1200334
:10595000994008BF20F00100BCF17F4F38BF70476D
:10596000A0F1C04000F0F5B94FEA3C00000A40EB5E
:10597000C25028BF1CF0FF0F4FEA400CE6D018BF02
:10598000BCF17F4F38BF7047EAE79CEA026F05D051
:1059900010EA5C0F08BF00F00040704710B500F03F
:1059A00092F900BF64FBBE3E4FF47F0C1CEAD0129C
:1059B0001EBF1CEAD11392EA0C0F93EA0C0F00F001
:1059C000858090EA010F48BF42F4807240F4000CD9
:1059D00041F400002CF07F4120F07F4000B581426F
:1059E000A2EB03020FF2081CACEB504EC0F100001A
:1059F0009EF800E04FEA4E0E00FB0EFC38BF490057
:105A00004FEA2C1C02F5FA020CFB0EF34FEACE1EF5
:105A10004FEA112C4FEAC1210EEB635E42EB2242AA
:105A20000EFB0CFC4FEA1C5300FB03114FEA112C38
:105A30004FEA01310EFB0CFC4FEADC4C00FB0C1171
:105A4000C14228BF09184CEB03335DF804EB10EB9F
:105A5000410143EBC250B2F57C0F38BF704729D5E6
:105A600012F0F00F1CBF00F1C04000F00040704782
:105A7000008182838485868788898B8C8D8E8F9127
:105A80009293959697999A9C9D9FA0A2A3A5A7A84B
:105A9000AAACAEB0B2B3B5B7B9BCBEC0C2C5C7C977
:105AA000CCCED1D4D7D9DCDFE2E6E9ECF0F3F7FADB
:105AB000FE0000004FEA400C0CF1807CBCF17E4FF0
:105AC00028BF7047B0F1C04000F043B990EA010F21
:105AD0000CEAD11348BF42F48072624538BF634577
