:020000040800F2
:10000000B85E002089020008E51C0008351C0008C5
:10001000AD1C00087B150008E92B0008000000005B
:10002000000000000000000000000000F1010008D6
:10003000811800080000000035020008892200082D
:10004000A3020008A3020008A3020008A3020008FC
:10005000A3020008A3020008A3020008A3020008EC
:10006000A3020008A3020008A3020008A3020008DC
:10007000A3020008A3020008A3020008A3020008CC
:10008000DD15000819160008A3020008A3020008E5
:10009000A3020008A3020008A3020008A3020008AC
:1000A000A3020008A3020008A3020008A30200089C
:1000B000A3020008D5230008A3020008A302000839
:1000C000A3020008A3020008A3020008A30200087C
:1000D000A30200083129000895290008A30200089E
:1000E000A3020008A3020008A3020008A30200085C
:1000F000A3020008A3020008A3020008A30200084C
:10010000A3020008A3020008A1240008A30200081B
:10011000A3020008A3020008F1240008A3020008BB
:10012000A3020008A3020008A3020008A30200081B
:1001300000F002F800F04DF80AA090E8000C8244AC
:100140008344AAF10107DA4501D100F042F8AFF289
:10015000090EBAE80F0013F0010F18BFFB1A43F0A5
:10016000010318476C5900008C590000103A24BF55
:1001700078C878C1FAD8520724BF30C830C144BF0C
:1001800004680C607047000000230024002500264E
:10019000103A28BF78C1FBD8520728BF30C148BFEA
:1001A0000B607047662905F04683642900F0F880EB
:1001B000732900F05B84002070471FB500F09EFC9F
:1001C00004000020002105F03DF8E0601FBD10B5DF
:1001D00010BD00F093FD1146FFF7EFFF02F0AAFEFD
:1001E00000F0B1FD03B4FFF7F2FF03BC02F066FEBE
:1001F000224B19680868B0E8F00F80F30988BFF354
:100200006F8F4FF0000080F311884EF00D0E704795
:100210000000000006480068006880F3088862B6A5
:1002200061B6BFF34F8FBFF36F8F00DF00BF00BF1A
:1002300008ED00E0EFF30980BFF36F8F0F4B1A68F2
:1002400020E9F00F106008B54FF0500080F31188DE
:10025000BFF34F8FBFF36F8F04F05EF94FF00000D4
:1002600080F31188BDE8084019680868B0E8F00F0D
:1002700080F30988BFF36F8F704700BF980000209C
:10028000EFF30580704700000948804709480047A0
:10029000FEE7FEE7FEE7FEE7FEE7FEE7FEE7FEE736
:1002A000FEE7FEE704480549054A064B7047000093
:1002B0009D22000831010008B8580020B85E0020D7
:1002C000B85A0020B85A0020704700000FB4044903
:1002D00010B503AA029800F0CDFB10BC5DF814FB2A
:1002E000800000202DE9F0410E46044600202062E7
:1002F0002046E168884730B3252805D0D4E901219C
:100300009047206A401CF2E7E168204600278847B2
:10031000050018D0A5F14100192802D820354FF466
:1003200000673246294620462760FFF73BFF40B171
:10033000012804D0F61D26F007060836D8E7361D3A
:10034000D6E72846DAE7206ABDE8F08170B50C46AA
:100350000546012A05D02878800600D5EA690023E1
:1003600002E0012305E05B1C934202D2E05C00281E
:10037000F9D1A869E618C01AA861286A1844286249
:100380002846AFF3008004E0D5E9012114F8010B01
:100390009047B442F8D32846AFF3008070BD000008
:1003A0002DE9F0410646002410687529314616A54E
:1003B00010D0AFF30080002802DA404213A507E016
:1003C00031688A0701D512A502E0490704D511A5B5
:1003D000012401E0AFF3008000210A2206F1240786
:1003E00009E0B0FBF2FCB0FBF2F302FB1C00303082
:1003F00078541846491C0028F3D123462A46304633
:10040000BDE8F04100F0A2B8000000002D0000009F
:100410002B00000020000000032A40F2308010F082
:10042000030C00F0158011F8013BBCF1020F62448F
:1004300098BF11F801CB00F8013B38BF11F8013B20
:10044000A2F1040298BF00F801CB38BF00F8013BCD
:1004500011F0030300F02083083AC0F0088051F83F
:10046000043B083A51F804CBA0E80810F5E7121D48
:100470005CBF51F8043B40F8043BAFF30080D20767
:1004800024BF11F8013B11F801CB48BF11F8012B33
:1004900024BF00F8013B00F801CB48BF00F8012B56
:1004A000704702F0FF0343EA032242EA024200F0EF
:1004B00002B84FF000020429C0F0128010F0030CC3
:1004C00000F01B80CCF1040CBCF1020F18BF00F847
:1004D000012BA8BF20F8022BA1EB0C0100F00DB8F6
:1004E0005FEAC17C24BF00F8012B00F8012B48BF54
:1004F00000F8012B70474FF0000200B513469446F8
:100500009646203922BFA0E80C50A0E80C50B1F16B
:100510002001BFF4F7AF090728BFA0E80C5048BF7F
:100520000CC05DF804EB890028BF40F8042B08BF1D
:10053000704748BF20F8022B11F0804F18BF00F819
:10054000012B704770477047704770472DE9F0479F
:100550000D4699469246044600F124080168880633
:1005600004D5E06921F01001216000E00120A842DB
:1005700001DD471B00E00027A1697A1902EB0900A1
:10058000081AA0612078C00602D42046AFF300808C
:10059000002608E0D4E901211AF806009047206AF5
:1005A000401C761C20624E45F4DB2078C0060AD53C
:1005B0002046AFF3008006E0D4E9012130209047C7
:1005C000206A401C2062381EA7F10107F4DC07E016
:1005D000D4E9012118F805009047206A401C2062E8
:1005E000281EA5F10105F3DC2046AFF3008020783A
:1005F000000602D50220BDE8F0870120FBE7704726
:100600002DE9FF4F0C461E464FF0FF378BB0D2E965
:100610000001DDF860800A908A46C1F30A5505B9E9
:100620003D46002108464FF00000BAF1000F00F4EB
:10063000400005DA00EB80004FF4400101EA500071
:100640004FEA9059B9F1010F00DDB9460A9850EA16
:100650004A000ED044F61050A5F2FF3545432F1442
:10066000B8F1000F1ED07542291E1EDDC9F100022F
:100670001CE0B8F1010F4FF0000001D0302103E081
:10068000F24305E02154401CB042FBDB304600221F
:10069000002121540B99C1F80880C1E900200FB056
:1006A000BDE8F08FBD1B6D1CDEE74A4600DA6942EB
:1006B00006A800F0ADFA06AB93E8070003AB83E8A9
:1006C000070050460A9900F085FB8DE80700A0F569
:1006D00000501F3800900398002D09DD42F21F01E1
:1006E0004A46084403A90390684600F0E4FD08E088
:1006F000A0F500504A461F3803A90390684600F051
:10070000EEFD8DE807000004000C03D04FF0FF3031
:10071000410800E01046B8F1000F03D0002200921B
:1007200015461EE0751E05D400F0ECF93032625516
:100730006D1EF9D5B3460122084302D000227F1C6A
:1007400004E02078302801D100227F1E002A09977A
:1007500086D01DE0112D07DA00F0D4F93032625551
:100760006D1C50EA0102F5D1084302D00098C8B1CF
:100770000EE00021681E05E0235C625C6354225495
:10078000401E491C8142F7DBAB46A81B401E099066
:10079000002004F80B000B98099AC0F80880C0E903
:1007A000002B7CE711264FF0000859E72DE9F04FA8
:1007B00088460446D21D22F0070191B0D1E900011C
:1007C000CDE90A0102F066FB02460B98C00F01D08A
:1007D0002D2007E02068810701D52B2002E0202191
:1007E00001EAC000032A099001D0072A05DB03466D
:1007F0004146204600F0CCF90BE12078800601D577
:10080000E06900E00620B8F1650F814606D0B8F136
:10081000660F18D0B8F1670F70D131E00020B9F140
:10082000110F009001DB112301E009F101030AAA75
:1008300001A90CA8FFF7E4FEDDE90C70002609F120
:100840000105834647E001204B4600904FF00047EA
:100850000AAA01A90CA8FFF7D3FEDDE90DB00C9997
:100860005D46002610B909F101000D18B9EB05002D
:1008700003D4C0F1FF3609F10105A5EB09002BE017
:10088000B9F1010F01DA4FF001090020B9F1110FA0
:100890000090484601DD112300E003460AAA01A9A1
:1008A0000CA8FFF7ADFEDDE90C704D46002683462F
:1008B000207800070AD4AB4500DA5D4601A8012D77
:1008C00004DD411911F8011C302907D04F4502DA27
:1008D00017F1040F04DA012082460FE06D1EEEE7E7
:1008E000002F02DCED1B3E4403E0781CA84200DD33
:1008F0007D1CB81B00F1010A4FF00047207800076B
:1009000003D4AA4501DB4FF0FF3A0021B7F1004FB5
:100910000DF143088DF8431024D002202B23002F23
:1009200001DA7F422D230A21021EA0F1010000DC22
:100930005FB197FBF1FC97FBF1F201FB1C7C1746C2
:100940000CF1300C08F801CDEEE7A8F101000370BE
:100950002188090501D5452100E06521A0F10108A4
:1009600000F8011C09980FA9A1EB0807FF1D00B1B1
:100970000120411901EBEA70A1693844081A401EB0
:10098000A0612078C00602D42046AFF30080099809
:1009900028B1D4E901219047206A401C20622078C8
:1009A000C00622D52046AFF300801EE0002E04DBF7
:1009B000B34502DD01A8805D00E03020D4E90121CB
:1009C0009047206A401C2062761CAAF101005FEA71
:1009D000000A0AD100F092F8C0680168405CD4E9CE
:1009E00001219047206A401C2062281EA5F10105C4
:1009F000DCDC07E0D4E9012118F8010B9047206AFC
:100A0000401C2062381EA7F10107F3DC2046AFF33B
:100A10000080032011B043E601694A1C0261087896
:100A2000704700B58FB0CDE901310021059105492E
:100A30007944CDE9031011466846FFF753FC0FB027
:100A400000BD0000E5FFFFFF10B5436913B1AFF330
:100A5000008001E0FFF77AFC012010BD127800F160
:100A600024010A7000224A700122EDE711684FF05C
:100A7000FF32E9E7074B70B50D467B44FFF7D1FF26
:100A80000446284600F032F910B14FF0FF3070BD37
:100A9000204670BD9B24000010B5203AC0F00B80AA
:100AA000B1E81850203AA0E81850B1E81850A0E872
:100AB0001850BFF4F5AF5FEA027C24BFB1E81850CC
:100AC000A0E8185044BF18C918C0BDE810405FEA3C
:100AD000827C24BF51F8043B40F8043B08BF7047B8
:100AE000D20728BF31F8023B48BF11F8012B28BFBD
:100AF00020F8023B48BF00F8012B704700487047C0
:100B00007458002030B5B0F10A024FEA900E71F12E
:100B100000034EEA817EB0EB0E0061EB91014FEADB
:100B2000101E4EEA017E10EB0E0041EB11114FEA50
:100B3000102E4EEA016E10EB0E0041EB11214FEA30
:100B4000104E4EEA014E10EB0E0041EB11414018E1
:100B500041F100014FEAD00040EA41704FEAD10173
:100B600010EB80054FEA810444EA907444EB0104E1
:100B70006D1944EB0404521BA3414FF0000348BF1E
:100B80000A3200D530BD401C41F1000130BD0000EB
:100B90002DE9F0411F46044603260168072A01F4A7
:100BA000006004DB08B116A505E016A503E008B156
:100BB00015A500E015A521F010002060A069C01E59
:100BC000A0610FB1401EA0612046AFF300804FB17D
:100BD000D4E9012138469047206A401C2062C01C9D
:100BE000206206E0206AFAE7D4E9012115F8010B3A
:100BF0009047761EF8D22046AFF30080BDE8F08122
:100C00004E414E006E616E00494E4600696E6600B0
:100C10002DE9F047814616468AB0334878440DC81E
:100C20008DE80D0030487844801C03AC0DC884E882
:100C30000D0041F69B300844372190FBF1F290FB08
:100C4000F1F5A5F1800501FB12041B3C02D56442BD
:100C5000012000E00020DFF890A080460027FA4441
:100C6000AAF1BE0A0DE0E00709D03246684607EB5C
:100C700047010AEB810100F032FB8DE807006410A8
:100C80007F1C002CEFD1184F7F44AC3F18E0E807E1
:100C900014D007EB04100DF1180A90E80E008AE852
:100CA0000E00C068F04201D198190890324606A99A
:100CB00003A800F014FB03AB83E807006D10641C6D
:100CC000002DE4D132466946B8F1000F03A802D0E6
:100CD00000F0F1FA01E000F002FBC9E90001C9F8F7
:100CE00008200AB0BDE8F087984E0000007B00F0B5
:100CF0008000704700487047545800207546FFF741
:100D0000F9FFAE4605006946534620F007008546C8
:100D100018B020B5FFF7C6FABDE820404FF0000636
:100D20004FF000074FF000084FF0000B21F00701D3
:100D3000AC46ACE8C009ACE8C009ACE8C009ACE816
:100D4000C0098D4670470446AFF300802046FFF788
:100D500049FA00004FF0013C50F8042B51F8043BD5
:100D60009A4221D1A2EB0C03934313EACC1317D17F
:100D700050F8042B51F8043B9A4215D1A2EB0C0316
:100D8000934313EACC130BD150F8042B51F8043BD6
:100D90009A4209D1A2EB0C03934313EACC13DBD0A4
:100DA0004FF00000704700BFD01A01BAB1FA81F1CC
:100DB00001F0180122FA01F0CB40C1F12001DBB2B1
:100DC000C0B2C01A2CFA01F3D11A914311EAC3112F
:100DD000E6D170475FEA400C08BF91F0000F4FEA80
:100DE0008C234FEAC12243EA51514FEA1C5018BFED
:100DF00000F5F0404FEA300018BF41F000415FEAD3
:100E00006C5C00F02980BCF1FF3F08BF40F08040DF
:100E10007047130C06BF12044FF0100C4FF0000C7B
:100E2000130E04BF12020CF1080C130F04BF1201C1
:100E30000CF1040C930F04BF92000CF1020CD30FC1
:100E400004BF52000CF1010C11464FF00002A0F15A
:100E50001F00A0EB0C00704711F0004F08BF704757
:100E600031F000413FF4D5AF0B0C06BF09044FF041
:100E7000100C4FF0000C0B0E04BF09020CF1080C13
:100E80000B0F04BF09010CF1040C8B0F04BF890088
:100E90000CF1020CCB0F04BF49000CF1010CCCF19A
:100EA0002003A0EB0C0022FA03F302FA0CF241EA51
:100EB000030100F10100704720F07F4C80EA03003D
:100EC00023F07F47ACEB070303F57C5300F00040B1
:100ED00003F1FF032DE980494FEA154B09B44FEAAE
:100EE000144325EA0B4E24EA03480FF2042606EBCE
:100EF000132749083E785FEA320203FB0667C7F50D
:100F0000000707FB06F64FEA54374FEAD64606F1CC
:100F1000020607FB066CCCF1005C4FEA1C472CEA8A
:100F2000074C07FB06F40CFB06F504EB15464FEAED
:100F3000961634BF00204FF000404FEAD13706FB31
:100F400007FC4FEA1C4C0CFB0BF7D21B03FB0CF706
:100F500061EB07010CFB0EF7B0EB074072EB174299
:100F60000CFB08F734BFA2EB0742B2EB074261EB80
:100F700017414FEA0C444FEA910706FB07FC4FEA82
:100F80001C4C0CFB0BF7B0EBC74072EB573203FB6A
:100F90000CF734BFA2EBC742B2EBC74261EB57314B
:100FA0000CFB0EF7B0EBC70072EB57720CFB08F7A7
:100FB00034BFA2EBC702B2EBC70261EB5771039FCC
:100FC0004FEA816141EA921104EBCC044FEAD13738
:100FD0004FEA826206FB07FC42EA90124FEA806009
:100FE0004FEA1C4C0CFB0BF7D21B03FB0CF761EB1D
:100FF00007010CFB0EF7B0EB074072EB17420CFB3E
:1010000008F734BFA2EB0742B2EB074261EB17418E
:101010004FEA8C554FEA910704EB9C2406FB07FC32
:101020004FEA1C4C0CFB0BF7B0EBC74072EB57328E
:1010300003FB0CF734BFA2EBC742B2EBC74261EB34
:1010400057310CFB0EF7B0EBC70072EB57720CFB7D
:1010500008F734BFA2EBC702B2EBC70261EB5771CE
:1010600015EB4C254FEA816141EA92114FEA826209
:101070004FEAD13742EA901206FB07FC44F1000424
:101080004FEA80604FEA1C4C0CFB0BF7D21B03FBB2
:101090000CF761EB07010CFB0EF7B0EB074072EBAE
:1010A00017420CFB08F734BFA2EB0742B2EB074232
:1010B00061EB174115EB1C154FEA813141EA924172
:1010C0004FEA823242EA90424FEA80304FEA0C7691
:1010D00044F1000448EA03434EEA0B484FF0000E87
:1010E000B2EB080C71EB030724BF624639464EEBA6
:1010F0000E0E4FF0000B0018524149414BEB0B0B09
:10110000B2EB080C71EB03077BF1000B24BF6246C6
:1011100039464EEB0E0E4FF0000B0018524149417C
:101120004BEB0B0BB2EB080C71EB03077BF1000BE5
:1011300024BF624639464EEB0E0E51EA020718BF35
:1011400046F0010616EB0E7655F1000254F100014F
:1011500003D5BDE88901BDE80088BDE88901BDE887
:101160000048B619524141EB0101A3F10103704758
:1011700080807F7E7D7C7B7A7978777676757473D4
:10118000727171706F6E6E6D6C6C6B6A6A69686893
:10119000676666656464636362616160605F5F5E29
:1011A0005E5D5D5C5C5B5B5A5A595958585757569F
:1011B0005655555554545353525252515150505004
:1011C0004F4F4F4E4E4D4D4D4C4C4C4B4B4B4A4A56
:1011D0004A4949494848484747474746464645459A
:1011E00045444444444343434342424242414141D3
:1011F000002B26D4770021D01CB54FEA370703B463
:101200004FF010004FF010014FF000000FBCBDE890
:1012100010400BF1010BBBF1010F08BF5FEA17078C
:1012200022BF12F1010211F101014FF0004143F11F
:10123000000300F0004043EA00007047F9D357086C
:10124000DAE746EA064613F1400F4FEA16461FDD7D
:1012500013F1200FDFBF16430A46002120335B4203
:10126000C8D0C3F1200746EA064602FA07F74FEA5C
:10127000164646EA0706C3F1200722FA03F201FAEE
:1012800007F721FA03F14FF0000342EA0702B1E742
:1012900046EA020646EA06464FEA164646EA0106CE
:1012A000BCBF46EA0646360C4FF000034FF0000282
:1012B0004FF000019EE72DE9C048934630B491E815
:1012C000380007C831EA400C48BF34EA430C03D564
:1012D000FFF7F2FDFFF78CFFF0BCBDE800882DE9B9
:1012E000C048934630B491E8380007C810F0804FEA
:1012F00008BF13F0804F03D100F005F8FFF778FF27
:10130000F0BCBDE8008820F07F4780EA030023F0AE
:101310007F4C07EB0C03A3F57C5300F00040A3F1D6
:10132000FE0392F0000F00F0B38095F0000F00F084
:1013300077802DE901494FEA11404FEA144621EA2E
:10134000004800FB06FC24EA064708FB06F607FBFC
:1013500008F800FB07F718EB06484CEB164C4FEA71
:10136000124B18EB07484FEA15464CEB174022EAA0
:101370000B4E0BFB06FC25EA06470EFB06F607FBA9
:101380000EFE0BFB07F71EEB064E4CEB164C4FF018
:1013900000061EEB074E4CEB174B18EB0B0840F109
:1013A000000018EB0E0B58EB000840F100008F1AFC
:1013B0004FF000013CBFC943661B14BFB5EB040CE2
:1013C00000213CBFC943F61B4FEA17444EEA8E0E7C
:1013D00027EA04454FEA1C4704FB07622CEA074C46
:1013E00005FB07F70CFB05F604FB0CFC16EB0746A8
:1013F00042EB174216EB0C4642EB1C421BEB060677
:1014000058EB0202414146EA9E0601D5BDE801893A
:10141000B619524141EB0101A3F10103BDE8018975
:101420004FEA14454FEA114724EA054621EA074CE2
:1014300005FB07F406FB07F70CFB06F105FB0CFCAC
:1014400011EB074144EB17444FEA124711EB0C41F3
:1014500044EB1C4422EA074C05FB07F206FB07F7A6
:101460000CFB06F605FB0CFC16EB074642EB17429D
:1014700016EB0C4642EB1C456A1854F1000148BFBC
:101480007047B619524141EB0101A3F101037047C6
:1014900095F0000F37D04FEA11424FEA144721EA86
:1014A000024624EA074C02FB07F106FB07F70CFB98
:1014B00006F402FB0CFC14EB074441EB17414FEA26
:1014C000154714EB0C4441EB1C4125EA074C02FB89
:1014D00007F506FB07F70CFB06F602FB0CFC16EB08
:1014E000074645EB174516EB0C4645EB1C42121917
:1014F00051F1000148BF7047B619524141EB01015B
:10150000A3F1010370474FEA14454FEA114724EA5B
:10151000054621EA074C05FB07F106FB07F70CFB24
:1015200006F24FF0000605FB0CFC12EB074241EB04
:10153000174112EB0C4251EB1C4148BF7047921807
:1015400041EB0101A3F10103704710B54FF4E13401
:10155000204602F0A9FB00F081FB00F0A9FB00216E
:101560004FF47A7000F050FF00F0E2FA204603F0EA
:1015700011F8BDE8104002F091BBFEE770B5084DD0
:10158000FF22134605F5807605E010F8014B544024
:101590002A5D5A40335D491EF7D243EA022070BDEE
:1015A0003A580008F0B5084EFF231C4606F5807730
:1015B00005E010F8015B5D40735D63407C5D491E92
:1015C000F7D213705470F0BD3A5800084FF6FF720E
:1015D00002EA0020084480B27047000010B50C4CAD
:1015E0004FF4001000F036F84FF4000000F032F82D
:1015F0000021204600F03AF8A11561600548FEF789
:1016000058FF2046BDE81040012100F02FB800002F
:101610006C0002401C03002010B54FF0007000F079
:1016200019F84FF0006000F015F8BDE810400021F7
:10163000014800F01BB8000080000240C10002D544
:10164000024908607047024948607047040402403C
:1016500000000240C10002D50249086070470249FB
:1016600048607047040402400000024000290168FD
:1016700002D041F0010102E04FF6FE72114001601C
:101680007047000001684FF6FE72114001600021B2
:10169000016041608160C1603149314A083990423E
:1016A00003D1486840F00F0006E02D4A1432904202
:1016B00004D1486840F0F00048607047284A28325A
:1016C000904203D1486840F47060F5E7244A3C3208
:1016D000904203D1486840F47040EDE7204A503210
:1016E000904203D1486840F47020E5E71C4A643218
:1016F000904203D1486840F47000DDE7184A783220
:10170000904203D1486840F07060D5E7154A111F38
:10171000904203D1086840F00F0006E0114A1432ED
:10172000904204D1086840F0F000086070470D4A0C
:101730002832904203D1086840F47060F5E7094A06
:101740003C32904203D1086840F47040EDE7054A0E
:1017500050329042EAD1086840F47020E5E700007A
:101760000800024008040240406880B27047002A26
:10177000026801D00A4300E08A430260704730B536
:10178000026847F6F0739A430C6A8B682343D1E9E9
:1017900004452C4323438C692343CC6923434C6A7F
:1017A00023438C6A234313430360CA6842600A6878
:1017B00082604968C16030BD416070472DE9F041E9
:1017C00001218CB0084600F063FCDFF8A48040469D
:1017D000FFF758FF2848274ECDE90060002410206D
:1017E00007010794CDE902078025CDE904450002F1
:1017F000CDE908400694694640460A94FFF7BFFFCA
:10180000012202214046FFF7B2FF01220821404693
:10181000FFF7ADFF01214046FFF728FF00214046BA
:10182000FFF724FFDFF84880A8F114084046FFF7CF
:1018300029FF124801A9009681E89100CDE90445ED
:10184000A801CDE9084006940794694640460A94E9
:10185000FFF795FF012202214046FFF788FF012292
:1018600008214046FFF783FF0CB0BDE8F08100007F
:1018700080000240044400401C0200201C030020A1
:1018800070472DE9F04304464078002787B0904622
:101890000D460F2803D00F7007B0BDE8F083012676
:1018A0002E700E212046FFF769FE8146217CE07BE9
:1018B000FFF78CFE814560D16E7020780528EBD251
:1018C000DFE800F0030418224100E5E7AE7041466E
:1018D000204600F054F8E870E078012802D0022891
:1018E00005D102E04FF0010801E04FF0020885F851
:1018F0000480D1E70220A8704146204600F03FF85E
:10190000E870E0782871C7E70320A87041462046B8
:1019100000F035F8E870A07818B1012801D002284D
:101920000BD1E0788DF8000020798DF80100607906
:101930008DF80200A0798DF80300E87842466946E8
:1019400002F025FAA8E70420A8704146204600F0DE
:1019500016F8E870A27803A900201AB1012A01D074
:10196000022A05D12218D2780A54401C0B28F9DD2E
:10197000E878424602F0E8F98EE76F708CE78278EB
:1019800052B1012A04D0022A04D0032A07D105E06B
:10199000012104E0022102E0002100E003210846C9
:1019A000704700003EB513481349CDE900101349B4
:1019B00001604FF0804141604FF07E5181601048DE
:1019C0000223002201A9006802F092FF00240D48C2
:1019D00002940223224602A9006802F089FF0098BF
:1019E00002230022046008486946006802F080FF74
:1019F0003EBD00000C010020580000200000B04156
:101A0000140000200C00002010000020F0B50F464C
:101A1000054689B016460121082000F045FB01214A
:101A2000042000F04DFB0320ADF8100004218DF8D8
:101A300013108DF8120004A9214800F07FF86846C1
:101A400000F06CFF0024ADF804501E4DADF80040CE
:101A5000ADF80640ADF802406946284600F010FF98
:101A600033463A460321284600F0CEFD05A9284614
:101A700000F0F2FD0021284600F0D8FE01212846A2
:101A800000F0B2FD32208DF80C000E208DF80D0014
:101A90008DF80E4001208DF80F0003A800F024F906
:101AA0000121284600F0A6FD0021284600F0BEFED8
:101AB00001221146284600F065FE09B0F0BD000085
:101AC00000080140000C00408AB008A80024124D14
:101AD000661E4FF4FA7707900123324607A928685B
:101AE00002F0F0FD079801680591006803F0C6FB5D
:101AF00002460B4609A0FEF7E9FB05AB01220021D7
:101B00006846069400F032FB1121684601F06EF839
:101B1000384602F04FFBDFE7100000205B574152D0
:101B20004E5D53706565643A25660D0A000000003D
:101B300000220A214FF6FF70FFF768BFF0B5CC789E
:101B4000002204F00F03E40601D58C7823430C78BF
:101B50004FF00F0C14F0FF0F4FF0010E1BD0056873
:101B60000E880EFA02F42640A64210D196000CFA16
:101B700006F725EA070703FA06F5CE783D43282E37
:101B800002D0482E02D002E0446100E00461521C01
:101B9000082AE5D305600A88FF2A1CD94468002278
:101BA00002F108060EFA06F50E882E40AE420ED15E
:101BB00096000CFA06F7BC4303FA06F7CE783C43CE
:101BC000282E00D14561CE78482E00D10561521CE7
:101BD000082AE5D34460F0BDF0B5144C002801DAC2
:101BE000E36900E06368450D2E0185B2C0F301573B
:101BF000B540C0F30342032F05D0C6020AD5032621
:101C00009640B34307E023F07062636823F070638B
:101C1000636002E0AB4343F0706201B12A430028E5
:101C200001DAE261F0BD6260F0BD00000000014039
:101C300001617047FEE700000026074C4FF4FA757B
:101C40000127C4F89461284602F0B4FAC4F89471EC
:101C5000284602F0AFFAF4E70000234238B501212C
:101C6000482000F02DFA2024ADF8004010208DF817
:101C7000030003200B4D8DF8020069462846FFF74C
:101C80005DFF20212846FFF7D3FFADF80040064C4A
:101C900069462046FFF752FF20212046FFF7C8FF84
:101CA00038BD0000000C014000180140FEE70000B4
:101CB00038B50121102000F003FA0320ADF8000030
:101CC00010218DF80310064C8DF80200694620465D
:101CD000FFF734FF03212046FFF7AAFF38BD0000BD
:101CE000001001407047000030B50F23C278017822
:101CF0000125F2B1144A126801F1E02102F4E06218
:101D0000C2F5E062120AC2F10404D3404278A24054
:101D100084781C401443220181F80024007800F0EC
:101D20001F018D404009800000F1E020C0F8005103
:101D300030BD01F01F0085404809800000F1E0201F
:101D4000C0F8805130BD00000CED00E002490843AE
:101D500002490860704700000000FA050CED00E041
:101D6000F8B526208DF8000001248DF803400D20E1
:101D70008DF8010000258DF802506846FFF7B4FF8A
:101D800011208DF800000E268DF801608DF80250AC
:101D90008DF803406846FFF7A7FF10208DF800007C
:101DA0008DF801608DF802508DF803406846FFF70A
:101DB0009BFF01224021044800F07CFE01210348E2
:101DC000FFF754FCF8BD0000004400406C000240E6
:101DD00010B500F01DF803220021012002F036FCAE
:101DE0000849032208600021012002F02FFC064967
:101DF000032208600021012002F028FC034908604A
:101E000010BD00001C000020200000202400002045
:101E100010B500220421012002F018FC29490028F5
:101E2000086046D028A0FEF751FA002204210120C4
:101E300002F00CFC2D49002808603CD02CA0FEF7D5
:101E400045FA00220421012002F000FC314900285B
:101E5000086032D030A0FEF739FA002204210120B8
:101E600002F0F4FB35490028086028D034A0FEF7C2
:101E70002DFA00220421012002F0E8FB3B49086012
:101E80003BA0FEF723FA00220421012002F0DEFB32
:101E90004149086041A0FEF719FA002204210120FF
:101EA00002F0D4FB48490860BDE8104047A0FEF7A7
:101EB0000DBA51A0B7E759A0C1E761A0CBE769A06F
:101EC000D5E70000000000205B5741524E5DB5E7AA
:101ED000BBFA31B7BDCFF2CFFBCFA2B6D3C1D0B4DE
:101EE000B4BDA8B3C9B9A60D0A00000004000020C3
:101EF0005B5741524E5DB5E7BBFA3150574DCFFBB2
:101F0000CFA2B6D3C1D0B4B4BDA8B3C9B9A60D0A87
:101F100000000000080000205B5741524E5D574909
:101F20004649BDD3CAD5CFFBCFA2B6D3C1D0B4B436
:101F3000BDA8B3C9B9A60D0A000000000C0000201E
:101F40005B5741524E5D456E636F646572315FD27F
:101F5000E7B3F6BCC6CAFDCFFBCFA2B6D3C1D0B49F
:101F6000B4BDA8B3C9B9A60D0A0000001000002036
:101F70005B5741524E5D456E636F646572315F53CE
:101F80007461747573CFFBCFA2B6D3C1D0B4B4BDA6
:101F9000A8B3C9B9A60D0A00140000205B5741522E
:101FA0004E5D4D6F746F72315F5049445F50617286
:101FB000616D65746572B6D3C1D0B4B4BDA8B3C940
:101FC000B9A60D0A00000000180000205B5741521E
:101FD0004E5D4374726C5F506172616D65746572C1
:101FE0005F5175657565B6D3C1D0B4B4BDA8B3C92A
:101FF000B9A60D0A000000005B5741524E5DB5E7DF
:10200000BBFA31B7BDCFF2CFFBCFA2B6D3C1D0B4AC
:10201000B4BDA8CAA7B0DC0D0A0000005B5741524E
:102020004E5DB5E7BBFA3150574DCFFBCFA2B6D3CB
:10203000C1D0B4B4BDA8CAA7B0DC0D0A000000002E
:102040005B5741524E5D57494649BDD3CAD5CFFB78
:10205000CFA2B6D3C1D0B4B4BDA8CAA7B0DC0D0A14
:10206000000000005B5741524E5D456E636F646532
:1020700072315FD2E7B3F6BCC6CAFDCFFBCFA2B6C2
:10208000D3C1D0B4B4BDA8CAA7B0DC0D0A0000000B
:10209000044A0029516901D0014300E081435161A4
:1020A0007047000000100240044A0029D16901D0A5
:1020B000014300E08143D1617047000000100240FD
:1020C000044A0029916901D0014300E081439161F4
:1020D000704700000010024030B5204A5168204B84
:1020E00011F00C0103D0042901D0082901D00360AC
:1020F00012E05168536801F470114FF0020413F4B8
:10210000803F04EB914102D053689B0301D5154BEE
:1021100000E0134B5943016051680F2303EA11118A
:10212000114B5C5C0168E14041605468072505EA99
:1021300014241C5D21FA04F48460546805EAD42454
:102140001B5DD940C1605268032303EA9232064BFB
:102150001B1F9A5CB1FBF2F1016130BD001002401F
:1021600000127A0000093D00880000207CB504467A
:10217000002927D100252570012A23D10F20607066
:102180000120A0706946186800F0BEFE9DF80000AE
:10219000E0709DF8010020719DF8020060719DF8CB
:1021A0000300A07107202554401C0E28FBDD01AA66
:1021B0000E212046FFF7F6F99DF80400E0739DF824
:1021C000050020747CBD00000CB50022264800925A
:1021D0000192016841F4803101604FF4A06301680D
:1021E00001F4003101910099491C0091019911B944
:1021F00000999942F3D10168890333D501210191F6
:102200001A490A6842F010020A600A6822F00302C2
:102210000A600A6842F002020A604168416041684F
:102220004160416841F480614160416821F47C1162
:102230004160416841F4E8114160016841F08071FA
:10224000016001688901FCD5416821F0030141600A
:10225000416841F0020141604168C1F381010229F6
:10226000FAD10CBD01920CBD0010024000200240CA
:102270004FF0E0210428086903D020F00400086131
:10228000704740F00400FAE710B502F07FFD012826
:1022900003D0BDE8104002F0C3B910BD0F4810B51F
:1022A000016841F00101016041680D4A114041603F
:1022B00001680C4A11400160016821F4802101602D
:1022C000416821F4FE0141604FF41F018160FFF776
:1022D0007BFF05494FF00060086010BD0010024010
:1022E0000000FFF8FFFFF6FE08ED00E070B5048C7B
:1022F00024F001040484058B048C4FF6FF7606EA73
:102300000313134325F0F3050E4A2B4390420ED0DE
:102310000D4A90420BD0B0F1804F08D00B4A90424A
:1023200005D00B4A904202D00A4A904202D124F0D2
:10233000020201E024F00A020A4342F00101038391
:10234000018470BD002C01400034014000040040B5
:1023500000080040000C0040F0B5048C24F010048C
:102360000484078B048C4FF6FF7527F4734705EA46
:1023700003333B4305EA02221A43114B05EA0116D7
:1023800098420ED00F4B98420BD0B0F1804F08D03E
:102390000D4B984205D00D4B984202D00C4B984201
:1023A00005D124F02001314341F0100104E024F074
:1023B000A0030B4343F0100102830184F0BD000031
:1023C000002C01400034014000040040000800409F
:1023D000000C004010B50A4C0121204600F02FF9F6
:1023E00000280AD00121204600F001F90549D1F862
:1023F000940118B10020C1F8940110BD0120FAE742
:10240000000400400000234230B50D46044689B068
:1024100001210220FFF748FE01210920FFF750FEAD
:1024200001211C48FFF7D8FB2022ADF81C20182200
:102430008DF81F2003208DF81E0007A91648FFF70E
:102440007DFBADF804400020ADF80050134CADF812
:102450000600ADF802006946204600F011FA70212E
:10246000ADF80C100121ADF80E100221ADF81410DA
:1024700003A9204600F08EF90821204600F0CAF991
:102480000121204600F0B6F80021204600F0CCF9EA
:1024900009B030BD00081A00000C014000040040E3
:1024A00038B5104C0121204600F0C9F8002815D09D
:1024B00020880D4900090D4DC00710D02088C006A6
:1024C00008D50868401E086002236A460649286845
:1024D00002F0D2FA0121204600F089F838BD0868E0
:1024E000401CF0E7000C0040640000200C000020BD
:1024F0007CB51C481C4D00900121284600F09FF837
:1025000000282ED0194C211DA068206018480068B2
:1025100002F086FB174800F090F86168C1EB0141BA
:102520000144A1602068081A03F018F8E16803F07C
:1025300041F8009920F00040022308600E4801AAEB
:102540006946006802F098FA019830B10B492804F6
:102550000860BFF34F8FBFF36F8F0121284600F053
:1025600046F87CBD580000200010004068000020A4
:102570000C000020000C00401000002004ED00E0E2
:102580007FB50D46044601211020FFF78DFDADF803
:102590000440ADF800500024124DADF80640ADF8EF
:1025A00002406946284600F06BF90121284600F0F8
:1025B0001BF836218DF80C100E208DF80D008DF8CB
:1025C0000E4001208DF80F0003A8FFF78DFB0122BC
:1025D0001146284600F0D6F80121284600F00AF8F6
:1025E0007FBD000000100040C94301827047C9430D
:1025F000018270470029018802D041F0010101E009
:1026000021F001010180704770B50589048B068CAB
:1026100025F007050D434FF6FC410C4040F2011137
:102620000C434FF6FF7101EA031126F02206114315
:10263000314305810483018470BD808C704702465C
:102640000020138A92890B4202EA010202D0002A7A
:1026500000D00120704700002DE9F84F0D460446D8
:102660000888434FDFF80CC1DFF80C81DFF80C91CC
:102670004988AA882B894FF0804A48B3042830D073
:102680004FF6FF760828934634D0208C9E4620F4DF
:1026900080502084A38B208C06EA0132009223F420
:1026A000734306EA0B221A4306EA0E331343BC4275
:1026B0000AD0644508D0544506D0444504D04C4562
:1026C00002D02F4A944245D120F40050009943E0B3
:1026D0002046FFF70BFEE9882046BDE8F84F00F0E2
:1026E000A7B82046FFF738FEE9882046BDE8F84F36
:1026F00000F0A6B8208C20F480702084B4F81CE090
:10270000208C06EA031306EA01222EF0F30E43EAB8
:102710000B0343EA0E030092BC420AD0644508D082
:10272000544506D0444504D04C4502D0144A944246
:1027300003D120F40070009901E020F420600843E8
:1027400040F48070A3832084E9882046BDE8F84FD8
:1027500000F082B820F40240084340F48050A38384
:102760002084E9882046BDE8F84F00F07DB80000DD
:10277000002C0140003401400004004000080040EB
:10278000000C0040002A828901D00A4300E08A43FD
:102790008281704770B5028C22F010020284028C94
:1027A0008388048B0D8824F4E6464FF6FF7404EA10
:1027B000052535430E8922F0200204EA0616164349
:1027C0004A8804EA02123243104EB04202D0104E40
:1027D000B04215D122F080064A8923F4406304EA0E
:1027E0000212324322F040068A8804EA021232437F
:1027F0008E8904EA86061E43CB8904EA83033343A9
:1028000083800583C9880187028470BD002C014044
:1028100000340140028B4FF6FF7322F4006203EA9A
:1028200001211143018370470187704781847047FC
:10283000028B22F00C020283028B0A430283704750
:10284000028B22F440620283028B4FF6FF7303EA8D
:1028500001210A4302837047828B22F00C0282839B
:10286000828B0A4382837047828B22F44062828388
:10287000828B4FF6FF7303EA01210A43828370477C
:1028800030B502881B4C1C4DA0420DD0A8420BD085
:10289000B0F1804F08D0194B984205D0184B9842A0
:1028A00002D0184B984203D122F070034A881A4391
:1028B000154B984206D0154B984203D022F4407332
:1028C000CA881A4302808A8882850A880285A042C3
:1028D0000AD0A84208D00E4A904205D00D4A904234
:1028E00002D00D4A904201D1097A018601218182EC
:1028F00030BD0000002C01400034014000040040C5
:1029000000080040000C004000100040001400408F
:102910000040014000440140004801404FF6FF7173
:10292000818000210180C1804180017270470000D8
:1029300070B5154C40F22551204600F0C3F8002830
:102940000ED0204600F04CF9104AC1B210880304A2
:1029500006D444044FF0000306D50A2901D01380A1
:1029600070BD40F400400DE00D2909D0C0F30D0406
:10297000074D401C80B229551080C728EFD870BD84
:1029800040F48040108070BD003801407C00002081
:102990001C0400202DE9FC473948374E00210090E7
:1029A0000160364C3046FEF761FE40F2244949464C
:1029B000204600F087F8A71590B34FF47000FEF79B
:1029C0003DFE3046FEF7D0FEC0F5807005B2681EB1
:1029D000FF2836D800213046FEF748FE7760009881
:1029E0003946001DFDF787FD00983A46254920C06D
:1029F000FDF712FD2448022301AA6946006802F08F
:102A00003BF8224801A9006802F0A6F80198C0B17D
:102A10001F49A0040860BFF34F8FBFF36F8F10E012
:102A2000FFE74FF45A7841462546204600F04AF821
:102A300038B141462C46284600F02CF82088A08862
:102A400001E02088A08800213046FEF70FFE3946BD
:102A500077600C48FDF72DFD01213046FEF706FE9C
:102A600040F22661204600F015F84946204600F065
:102A700011F8BDE8FC8700006C00024000440040F3
:102A8000180100201C030020080000202400002062
:102A900004ED00E00A0A01219140C943018070471A
:102AA0000029818902D041F4005101E021F4005154
:102AB00081817047002A828A01D00A4300E08A435C
:102AC0008282704770B501F01F0501260024C1F312
:102AD000421306FA05F2012B0FD0022B0FD0838A86
:102AE0004FEA11210088134206FA01F600EA0600B7
:102AF00001D000B10124204670BD8389F0E7038A2C
:102B0000EEE710B5C1F3421301F01F040121A1400B
:102B1000012B07D0022B07D01430002A026805D001
:102B20000A4304E00C30F8E71030F6E78A4302600D
:102B300010BD000030B50446008A85B00D464CF645
:102B4000FF710840E98801432182A0894EF6F31104
:102B50000840A9882A8911436A8902431143A18147
:102B6000A08A4FF6FF410840A9890143A182684627
:102B7000FFF7B2FA1948844201D1039800E00298A5
:102B8000A189090400EBC00101EB0010296801D5FF
:102B9000490000E08900B0FBF1F06422B0FBF2F1E3
:102BA00009010B096FF018056B4300EB8300A38943
:102BB0001D044FF0320306D503EBC000B0FBF2F06A
:102BC00000F0070005E003EB0010B0FBF2F000F0AE
:102BD0000F000843208105B030BD000000380140DF
:102BE0008088C0F308007047FEE7000070B50C460F
:102BF00005464FF480710E48FDF75BFC22462946DE
:102C00000B48FDF709FC012280210A48FFF752FF1B
:102C1000094D00212846FEF729FDA1B22846FEF7FE
:102C2000CBFD2846BDE870400121FEF71FBD000026
:102C30001C02002000440040800002408AB0654829
:102C40000290654800906548039000246448DFF8CE
:102C50009491654E654F4FF0FF380125099401901E
:102C6000002342461946D9F8000001F02BFD012847
:102C700036D15F480123424602A9006801F022FDD7
:102C8000C1B2029B0020401C1028FCDD002978D036
:102C900006AA04A9181DFEF7F4FD9DF810000128EE
:102CA0006FD154A0FDF712FB9DF81100012868D1E7
:102CB00056A0FDF70BFB9DF81200012806D0022854
:102CC00029D003283FD004285BD153E09DF813009E
:102CD000012856D19DF81400012802D0022807D0FF
:102CE0004FE04FA0FDF7F2FA00984570047005E040
:102CF0004EA0FDF7EBFA0098447005700223002205
:102D00006946306801F0F4FD00231A461946386818
:102D100001F0EEFD35E09DF81300012831D19DF85A
:102D2000140002F033FC444902F036FB099043489A
:102D30000223002209A9006801F0DAFD00231A46E7
:102D400019463F4844E03FA0FDF7C0FA9DF8130044
:102D5000012816D1069802F091FA02460B463EA0D1
:102D6000FDF7B4FA0399069802230860002203A92C
:102D70003D482DE033A0FDF7A9FA9DF81300012886
:102D800003D0142001F016FA6AE7069802F076FAEA
:102D900002460B4635A0FDF799FA079802F06EFA45
:102DA00002460B4634A0FDF791FA089802F066FA45
:102DB00002460B4633A0FDF789FA019806990223D3
:102DC000016007994160089981603148002201A99A
:102DD00000689DE718010020600000205C000020D2
:102DE0000C01002024000020000000201C00002016
:102DF000080000205B5741524E5DCAA3D3E0B3A444
:102E0000B6C8D0A3D1E9B3C9B9A600005B574152F7
:102E10004E5D435243D0A3D1E9B3C9B9A600000027
:102E20005B5741524E5DB7BDCFF231005B57415207
:102E30004E5DB7BDCFF232000000C8420400002052
:102E4000200000205B5741524E5D6374726C5F73CB
:102E500070656564000000005B5741524E5D737001
:102E60006565643D25660000180000205B574152EF
:102E70004E5D503D256600005B5741524E5D493D19
:102E8000256600005B5741524E5D443D25660000BB
:102E900014000020490050EAC12018BF04204A0D48
:102EA00018BF40F0010040F2FF72B2EB515F08BF63
:102EB00040F00200012808BF05207047704700005D
:102EC00010B50420FFF7D4F90C480D490D4A0068ED
:102ED000B0FBF1F3B0FBF1F14FF47A7041431370A2
:102EE000012050804FF0E020026942F002020261AE
:102EF0004161016941F00101016110BD4400002000
:102F000040420F00780000200870020A4A70020C4C
:102F10008A70000EC870704704490A885206FCD5B2
:102F2000024AC1B2121D11807047000000380140F2
:102F3000FEF738BD1CB54FF44070FEF707FFFFF7F2
:102F4000BFFFFEF702FBFEF743FF07490120CDE973
:102F500000010023802205A1074801F0EBFE01F0EB
:102F600089FA00201CBD00002800002073746172E3
:102F7000745F7461736B0000893B000888B00020A7
:102F800000902548019007A8029004A8039000F043
:102F9000D3F8224E224FDFF88C80234CDFF88CB020
:102FA000DFF88C90DFF88CA04FF0FF3501232A4624
:102FB00001A9306801F086FB01230A2202A93868C2
:102FC00001F080FB01232A4603A9D8F8000001F094
:102FD00079FB0198039A01680298136800682361DD
:102FE000536863619268A26100F08EFD594602F059
:102FF000D3F90090022300226946D9F8000001F0BD
:1030000077FC00231A461946DAF8000001F070FC3C
:10301000142001F0CFF8C9E758000020100000206C
:1030200018000020140000203058002000007A44CE
:1030300004000020200000201CB501A8DFF86880F3
:10304000DFF8689000251A4C4FF0FF3701260090FA
:1030500000233A461946D8F8000001F033FB012856
:103060001ED101233A466946D9F8000001F02AFB37
:1030700000984178012901D041B111E0007878B978
:10308000C4F88051C4F884610AA007E000780128E0
:1030900006D1C4F88061C4F884510BA0FDF716F97D
:1030A000142001F087F8D3E71C0000200000002066
:1030B000000022425B5741524E5DB5E7BBFAB7B400
:1030C000CFF20D0A000000005B5741524E5DB5E79C
:1030D000BBFAD5FDCFF20D0A0000000008B50020B4
:1030E000114D124E124FDFF84C80441E0090002309
:1030F00022461946286801F0E5FA012810D101237B
:1031000022466946306801F0DDFA3946009802F03F
:1031100051FA009002F002FA81B24046FFF784FBB8
:10312000142001F047F8E2E720000020040000200E
:1031300000007A440004004005480021016041601D
:103140008160C160016141618161C161016270475B
:10315000305800202DE9F041184E0F460446F5681E
:103160003068001D00F09CFE38B9306890F82C10D3
:1031700001208840316981433161601C07D137B13A
:103180003168BDE8F0410E48091D00F0C1BE30684D
:103190002C44AC424460316805D2B06BBDE8F041CC
:1031A000091D00F09DBE706B091D00F099FEB06A0C
:1031B000844200D2B462BDE8F08100009800002093
:1031C000F40700202DE9F041054600F0ADFE2D4E3C
:1031D000B068401CB06030682B4F10B1706930B3DC
:1031E0002BE03560B068012827D1002404EB84006F
:1031F00007EB800000F066FE641C202CF6D3234809
:1032000000F060FE2148143000F05CFE1F482830BA
:1032100000F058FE1D483C3000F054FE1B48503072
:1032200000F050FE194870631430B06305E0306858
:10323000E96AC06A884200D83560706A0121401C82
:1032400070626864E86A326981401143316100EB61
:10325000800007EB8000291D00F05AFE00F0A0FE60
:10326000706900280CD03068E96AC06A884207D2C9
:1032700007494FF080500860BFF34F8FBFF36F8F47
:10328000BDE8F0819800002024050020A40700205C
:1032900004ED00E010B500F047FE0E4C2068A0B928
:1032A0000D4800F00FFE0C48143000F00BFE0A48E9
:1032B000E0601430206100221021052001F0C6F9E1
:1032C000206010B105A100F041FFBDE8104000F002
:1032D00067BE0000D400002008080020546D725121
:1032E0000000000070B5124E124D1CE001F00CF908
:1032F000306820B1002401F077FEA4B901E0012478
:10330000F9E700F011FEF068C468201D00F0C8FD68
:10331000A868401EA8606868401E686000F040FE13
:10332000204600F052F868680028DFD170BD000028
:10333000E00700209800002030B4026C0B46002A01
:103340000BD0C1681144C1604468A14201D3016837
:10335000C16030BC1846FDF75FB830BC70472DE93E
:10336000F041856B174604460026026C82B1C7B156
:10337000E068FDF751F8E168206C091AE160226805
:10338000914202D26168081AE060022F16D017E05D
:103390002068A8B9606801F081FD064600206060E1
:1033A0000EE0A068FDF738F8216CA0680844A06022
:1033B0006168884204D32068A06001E005B16D1EF9
:1033C0006D1CA5633046BDE8F08110B50446006B66
:1033D00000F018FE2046BDE8104000F013BE0000CB
:1033E00010484FF4A041420706D0C01D0D4920F0FF
:1033F0000700411AC1F5A0410B4A00230144C2E96C
:1034000000030839103A21F0070111604B600B608E
:103410000B1AC0E9001393604FF000405360D06076
:103420007047000030080020F8000020074E4FF0E1
:103430008054074DFFF756FF30680128FAD92C60F9
:10344000BFF34F8FBFF36F8FF4E700002405002018
:1034500004ED00E02DE9F047DDE909840E4617464A
:10346000824691009946089DA522206BFDF719F828
:103470006FF00301206B01EB8701084420F0070780
:10348000780705D040F22B3219A11EA0FCF71EFFD1
:1034900000202218315C82F83410315C11B1401CDC
:1034A0001028F6D3002684F84360202D00D31F2572
:1034B000E562C4E91356201D00F00FFD04F1180069
:1034C00000F00BFD2461C5F120006462A061666517
:1034D00084F858604A465146384600F003FB2060A5
:1034E000B8F1000F01D0C8F80040BDE8F087000037
:1034F0002E2E5C4672656552544F535C7461736B3B
:10350000732E63004572726F723A25732C25640D19
:103510000A00000030B5114900E011460A688242F5
:10352000FBD34B685C18844203D140681844486060
:10353000084643681C18944209D1084C103C246882
:10354000A24209D052681A4442600A6812680260B6
:10355000814200D0086030BD0460F9E7F800002027
:1035600070B5002441600B4D0061914206D8D11A1C
:103570008269914206D2011D286907E09A4203D26E
:10358000994201D3012403E0011DE86800F0A8FC82
:10359000204670BDD400002010B5044600F0C4FCE5
:1035A000A06B20B1002400F0FBFC204610BD0124DC
:1035B000F9E700002DE9F34100980F460026846CDE
:1035C0002CB940F6CE1216A11AA0FCF77FFEA06B14
:1035D000E16B884205D340F6CF1211A115A0FCF78C
:1035E00075FEA06BE16B88420CD294F945503A46C7
:1035F00069462046FFF7B3FE0646681C05D06D1CE1
:1036000084F845503046BDE8FC81606A0028F9D056
:1036100004F1240001F09CFC0028F3D00126F1E71E
:103620002E2E5C4672656552544F535C71756575FC
:10363000652E63004572726F723A25732C25640DF6
:103640000A000000F8B5054614480E46C068C06878
:10365000C468201D00F024FCE069012817D1A0698E
:103660002B46411932462046FFF77AFF78B10020F9
:103670000346014600902A46204601F09BFD30B9E2
:1036800007494FF4027201F11800FCF71FFE616A4E
:1036900001B02046BDE8F04008470000D4000020FB
:1036A0001851000870B586B02F4E53E001980028DD
:1036B00006DADDE90301029A90470198002849DB08
:1036C000039C606910B1201D00F0EAFB05A800F022
:1036D000A7F8054601980A283CD2DFE800F0050566
:1036E000053B273805053B270298A169034601449D
:1036F0002A462046FFF734FF00282BD0616A204677
:103700008847E069012825D1002000900298A1692E
:10371000002342181946204601F04CFDD0B940F272
:10372000213212A117A0FCF7D1FD13E00298A0618D
:1037300028B94FF44E720DA112A0FCF7C7FDA06985
:103740002B4641191A462046FFF70AFF02E02046A1
:1037500000F058FC00231A4601A9306800F0B2FFBF
:103760000028A3D106B070BDD40000202E2E5C46E8
:1037700072656552544F535C74696D6572732E6344
:10378000000000004572726F723A25732C25640D9B
:103790000A000000F8B50D46064600F0B5FE684682
:1037A00000F03EF80446009810B101F01DFCF8BD91
:1037B0001148ADB101690968D9B10025311B2A460C
:1037C000006800F0D5FC01F00FFC0028EFD10B4998
:1037D0004FF080500860BFF34F8FBFF36F8FF8BD7D
:1037E000A642EBD801F000FC21463046FFF72AFF45
:1037F000F8BD0125E2E70000D400002004ED00E060
:103800000648416B096829B1416BC968C9684968B4
:10381000816270474FF0FF31FAE700009800002006
:1038200070B5054601F0C0FA064E0446B068844201
:1038300003D200F009F8012000E0002028602046B3
:10384000B46070BDD4000020F8B5184E26E0C06802
:10385000C4680568201D00F023FB616A2046884784
:10386000E06901281AD1A0692844A84206D9246138
:103870006060211DF06800F033FB0FE0002003467C
:10388000014600902A46204601F094FC30B90849D0
:1038900040F2923201F11800FCF718FDF06801685F
:1038A0000029D4D13169C6E90310F8BDD400002045
:1038B0001851000808484068401C04D0F42207A1B1
:1038C00011A0FCF703FD502080F31188BFF34F8F48
:1038D000BFF36F8FFEE70000000100202E2E5C4634
:1038E00072656552544F535C706F727461626C659F
:1038F0005C525644535C41524D5F434D335C706F94
:1039000072742E63000000004572726F723A257364
:103910002C25640D0A000000084CE068016839B1EC
:10392000002139B10020FFF735FFFFF7BBFEF4E7B8
:103930000121F6E7C0680068F5E70000D400002028
:103940002DE9F041044600F0EFFA94F9455004F1F6
:10395000240610E0A06C20B100212046FFF72AFECB
:1039600004E0606A48B1304601F0F2FA08B100F0B4
:10397000BDFC6D1E6DB2002DECDC4FF0FF3684F8FF
:10398000456000F00DFB00F0CFFA94F9445004F1CB
:10399000100709E0206948B1384601F0D9FA08B1AA
:1039A00000F0A4FC6D1E6DB2002DF3DC84F84460C1
:1039B000BDE8F04100F0F4BA2DE9F04105460026DB
:1039C00000F0A2FD324F386808B9FFF709FDF8682A
:1039D00005424FD1002D4DD0083568070BD005F0BA
:1039E0000700C0F108000544680704D0BF2229A1E0
:1039F00032A0FCF76BFC002D3CD07868854239D8AA
:103A0000234910310846046801E0214604466068F5
:103A1000A84202D220680028F7D13868B84684420C
:103A200028D00E682068086060680836401B10289F
:103A30000ED96719780704D0EC2216A11FA0FCF755
:103A400045FC6068401B786038466560FFF762FDA2
:103A50006168D8F804004246401AC8F80400D8F853
:103A60000830984200D29060D8F80C000143002042
:103A7000C4E9000101F0B8FA700705D04FF496725E
:103A800004A10EA0FCF722FC3046BDE8F081000046
:103A9000E80000202E2E5C4672656552544F535C40
:103AA000706F727461626C655C4D656D4D616E67BF
:103AB0005C686561705F342E630000004572726F50
:103AC000723A25732C25640D0A0000000449086829
:103AD00018B10868026D521C026508687047000042
:103AE0009800002010B5031F4FF080741C601B1F4E
:103AF00021F001011960191F024B0B601439403885
:103B00000A6010BDB53800082DE9F041194CC4E930
:103B1000000101F01BFEA060226A0146104601F080
:103B2000D9FB206201F0AAFB02460B4612A0FCF76B
:103B3000CDFBD4E90251284601F008FEA16901F04D
:103B400039FD0646216A606901F034FD07462946C1
:103B5000206901F02FFD394601F0BCFB314601F030
:103B6000B9FB0849E560E061884200DDE161E06998
:103B7000BDE8F08130580020696E74656772616C31
:103B80003D25660000007A447CB5FFF7D1F900F0CE
:103B9000CBF9042024498501CDE9000100232A4600
:103BA00022A1264801F0C6F81F490220091DCDE9CF
:103BB000000100232A4622A1254801F0BBF81A483B
:103BC00003240830CDE900406E000023324621A1D5
:103BD000244801F0AFF8144901200C31CDE900016F
:103BE00000232A4620A1244801F0A4F80E4800230F
:103BF0001030CDE90040324620A1234801F09AF868
:103C0000094900201431CDE9000103462A461FA1CD
:103C1000214801F08FF80448001F006800F000FB05
:103C2000BDE87C4000F0BCB92C0000206D6F746FC3
:103C300072315F6469725F7461736B0039300008C0
:103C40006D6F746F72315F70776D5F7461736B004D
:103C5000DD3000086D6F746F72315F5049445F74DE
:103C600061736B007D2F0008456E636F6465723170
:103C70005F7461736B000000C91A00087769666998
:103C80005F7461736B0000003D2C000849646C6533
:103C90005F7461736B000000391C0008C72041F697
:103CA0001F41FEF76DBC000070B5054686B00121CE
:103CB00044F20400FEF704FA4FF40070ADF810006F
:103CC00003248DF8124018201D4E8DF8130004A90E
:103CD0003046FDF733FF3015ADF8100004208DF8A5
:103CE000130004A93046FDF729FF25208DF81400A4
:103CF0008DF815408DF8164001208DF8170005A8A5
:103D0000FDF7F2FF0020ADF80400ADF80600ADF8B5
:103D10000800ADF80C000C200A4CADF80A00009524
:103D200069462046FEF706FF012240F22551204653
:103D3000FEF7E7FE01212046FEF7B2FE06B070BD99
:103D4000000801400038014018B50023012803D0C5
:103D5000022801D0002819D16C46C85CE0545B1CD5
:103D6000032BFADD0098106000200B181B792354F8
:103D7000401C0328F9DD0098506000200B181B7AC6
:103D80002354401C0328F9DD0098906018BD18B535
:103D900000236C4601281CD002281AD0C8B1C85C88
:103DA000E0545B1C032BFADD0098106000200B1818
:103DB0001B792354401C0328F9DD00985060002033
:103DC0000B181B7A2354401C0328F9DD00989060DF
:103DD00018BDC85CE0545B1C032BFADD0098106032
:103DE00018BD000070B5012186B04804FEF75CF9EB
:103DF00001210420FEF764F918208DF81300042532
:103E0000254EADF8105003248DF8124004A9304619
:103E1000FDF794FE8DF813500820ADF810008DF8D2
:103E2000124004A93046FDF789FE4FF4E1300090BE
:103E300000200C21ADF80A10ADF80600174CADF8C3
:103E40000C00ADF80800ADF8040069462046FEF706
:103E500071FE002240F226612046FEF752FE00224B
:103E600040F225512046FEF74CFE012240F224414B
:103E70002046FEF746FE012260212046FEF741FE65
:103E8000012228212046FEF73CFE01212046FEF7B4
:103E900007FE06B070BD000000080140004400406D
:103EA000D0E9013201699A60D0E901235A604A6879
:103EB000824201D182684A60002202610868401E85
:103EC0000860704700F108014FF0FF32C0E90112AD
:103ED000C1600161002101607047002101617047EC
:103EE00030B50C68621C02D000F1080202E00269E1
:103EF00004E01A4653681D68A542FAD953684B601E
:103F000099608A60516008610168491C016030BD98
:103F100042684A6093688B60936859609160086159
:103F20000168491C01607047502080F31188BFF37D
:103F30004F8FBFF36F8F09494868401C48600128C4
:103F40000AD10748006810F0FF0F05D04FF4BD728A
:103F500004A10FA0FCF7BAB97047000000010020CF
:103F600004ED00E02E2E5C4672656552544F535CA2
:103F7000706F727461626C655C525644535C41525E
:103F80004D5F434D335C706F72742E630000000010
:103F90004572726F723A25732C25640D0A00000079
:103FA00010B5084C606828B940F2811206A111A032
:103FB000FCF78CF96068401E606001D180F31188C5
:103FC00010BD0000000100202E2E5C467265655277
:103FD000544F535C706F727461626C655C525644EE
:103FE000535C41524D5F434D335C706F72742E636E
:103FF000000000004572726F723A25732C25640D23
:104000000A00000070B500282AD0164DA0F108045F
:104010006068E968084205D14FF4A07212A11CA0A3
:10402000FCF754F9206828B140F241120EA118A003
:10403000FCF74CF96068E968084211D02268002A50
:104040000ED18843606000F05FFA606869680844D8
:1040500068602046FFF75EFABDE8704000F0C4BF1C
:1040600070BD0000E80000202E2E5C46726565528F
:10407000544F535C706F727461626C655C4D656D1A
:104080004D616E675C686561705F342E630000008F
:104090004572726F723A25732C25640D0A00000078
:1040A00006484FF47A710068B0FBF1F14FF0E02060
:1040B000491E416107210161704700004400002052
:1040C00010B5FCF7DDF8104C10280CD300F1E020FF
:1040D00090F8F0032178884205D24FF42A720BA1A0
:1040E00015A0FCF7F3F818480068A16800F4E06038
:1040F000884207D9BDE810404FF42E7203A10EA0EC
:10410000FCF7E4B810BD0000000100202E2E5C4634
:1041100072656552544F535C706F727461626C6566
:104120005C525644535C41524D5F434D335C706F5B
:1041300072742E63000000004572726F723A25732C
:104140002C25640D0A0000000CED00E010B5074BB3
:10415000002253F832401CB1521C082AF9D310BD7A
:1041600043F8321003EBC201486010BDE4040020A4
:1041700070B515460E460446FFF7D6FE94F9441076
:104180000020491C01D184F8440094F94510491CD1
:1041900001D184F84500FFF703FFA06B28B92A4638
:1041A000314604F1240000F0D1F82046BDE870400B
:1041B000FFF7C6BB10B5040012D00E49096B29B138
:1041C00040F2CF420CA111A0FCF780F800F09CF95E
:1041D00000212046FEF7BEFF00F006FF002807D1B1
:1041E0000E494FF080500860BFF34F8FBFF36F8FC1
:1041F00010BD0000980000202E2E5C4672656552AE
:10420000544F535C7461736B732E63004572726F0D
:10421000723A25732C25640D0A00000004ED00E0BD
:1042200070B50446FFF780FE234D04B92C68201DAD
:10423000FFF736FE58B9E06A204A00EB800152F8D9
:10424000211021B901218140286988432861A06A91
:1042500018B104F11800FFF723FE686A401C686279
:104260002868844207D1211D1548FFF751FE686870
:10427000401C686007E0A868401EA8602046FFF761
:10428000A4F8FFF7BDFAFFF78BFE6869002812D08B
:10429000286884420FD1286B28B140F2654209A1F9
:1042A0000DA0FCF713F810494FF080500860BFF3E1
:1042B0004F8FBFF36F8F70BD980000202405002042
:1042C000E00700202E2E5C4672656552544F535C09
:1042D0007461736B732E63004572726F723A25734B
:1042E0002C25640D0A00000004ED00E001490120C6
:1042F000C86170479800002070B50D46040005D1D4
:1043000040F6063207A10CA0FBF7E0FF0E4801685B
:1043100020461831FFF7E4FD2846BDE87040012132
:10432000FEF718BF2E2E5C4672656552544F535CE3
:104330007461736B732E63004572726F723A2573EA
:104340002C25640D0A0000009800002070B514466A
:104350000E46050005D140F6313209A10DA0FBF74C
:10436000B5FF1048016828461831FFF7D1FD0CB1A0
:104370004FF0FF3621463046BDE87040FEF7EABEFA
:104380002E2E5C4672656552544F535C7461736B9C
:10439000732E63004572726F723A25732C25640D7B
:1043A0000A0000009800002070B5040039D01D4DAF
:1043B000E06A2968C96A884233D2A069002804DB10
:1043C0002868C06AC0F12000A061E06A164E00EBC8
:1043D0008000616906EB800081421FD1201DFFF73C
:1043E0005FFD012150B9E06A00EB800256F82220FF
:1043F00022B92A6901FA00F082432A612868C06A5A
:10440000E0622A6981401143296100EB800006EBDC
:104410008000211DBDE87040FFF77ABD2868C06AA2
:10442000E06270BD980000202405002010B5040053
:1044300005D140F6C13205A109A0FBF747FF0C48A2
:10444000016A2160C068606010BD00002E2E5C46CD
:1044500072656552544F535C7461736B732E6300C5
:104460004572726F723A25732C25640D0A000000A4
:10447000980000201CB517480024CDE900402346D1
:10448000822215A1164800F055FC012803D100F046
:1044900057FE01280AD0401C1BD102B040F28472A2
:1044A000BDE810400FA114A0FBF710BF502080F30F
:1044B0001188BFF34F8FBFF36F8F06484FF0FF3166
:1044C0002C38816201214161C460BDE81C4000F0CC
:1044D0006BB81CBDC400002049444C4500000000DE
:1044E0002D3400082E2E5C4672656552544F535C85
:1044F0007461736B732E63004572726F723A257329
:104500002C25640D0A0000000248016B491C016360
:10451000704700009800002070B5134D286B10B153
:104520000120E86170BD0020E86128690F4EB0FAF3
:1045300080F0C0F11F0000EB800456F8240028B979
:1045400040F6F6220AA10FA0FBF7C0FE06EB84009E
:1045500000F10802416849684160914201D149680F
:104560004160C868286070BD9800002024050020C4
:104570002E2E5C4672656552544F535C7461736BAA
:10458000732E63004572726F723A25732C25640D89
:104590000A00000010B5FFF725FCFDF70FF9BDE894
:1045A0001040FDF7DDBB00001CB51A4908780190EA
:1045B000FF20087008788DF800009DF80000164A6A
:1045C00000F0500010700720906007E09068401ED7
:1045D00090609DF8000040008DF800009DF80000FC
:1045E0000006F3D4107A000200F4E06090600198B5
:1045F00008700A48016841F470010160016841F0E7
:1046000070410160FFF74CFD00205060FBF702FE97
:1046100000201CBD00E400E00001002020ED00E0CF
:1046200010B5502080F31188BFF34F8FBFF36F8F09
:1046300000F0C0FB18B104494FF080500860002022
:1046400080F3118810BD000004ED00E02DE9F04179
:1046500017460E46050005D14FF4C47210A115A0EF
:10466000FBF734FEBEB105FB06F05430FFF7A4F9AA
:1046700004000ED004F154007EB12060C4E90F564E
:104680002046012100F0E0F884F850700021204617
:10469000A164BDE8F0810020E7E72460EEE70000B8
:1046A0002E2E5C4672656552544F535C717565756C
:1046B000652E63004572726F723A25732C25640D66
:1046C0000A0000002DE9FF4F83B09B468A46040094
:1046D0004FF0000605D140F2DC4251A155A0FBF796
:1046E000F5FDBAF1000F07D1206C28B140F2DD4290
:1046F0004BA150A0FBF7EAFD00F048FB38B9059844
:1047000028B14FF49C6246A14AA0FBF7DFFD4FF0B1
:1047100000094FF08057DFF82C81FFF705FCA56BEF
:1047200045B351462046E668FEF706FEBBF1000F92
:1047300013D0E660606A50B104F1240000F008FC78
:1047400028B1C8F80070BFF34F8FBFF36F8FFFF72A
:1047500027FC012007B0BDE8F08F6D1EA56320681F
:1047600010B9FFF7B3F9606020690028EFD004F1B9
:104770001000E3E7059808B11EB106E0FFF710FC52
:1047800027E06846FFF752FE0126FFF709FCFFF716
:10479000BBFEFFF7C9FB94F94400401C01D184F82B
:1047A000449094F94500401C01D184F84590FFF7EE
:1047B000F7FB05A9684600F079FA002820460AD0E0
:1047C000FFF7BEF800F010FC2046FEF7E5FE0028DB
:1047D000A3D00020BEE7FEF7DFFED8B1206830B9D5
:1047E000FFF7A2FB6068FFF7DFFDFFF7D9FB04F1DD
:1047F00024000599FFF780FD2046FFF7A1F800F09F
:10480000F3FB002889D1C8F80070BFF34F8FBFF3C6
:104810006F8F82E72046FFF793F800F0E5FB7CE717
:104820002E2E5C4672656552544F535C71756575EA
:10483000652E63004572726F723A25732C25640DE4
:104840000A00000004ED00E070B50D46040005D13B
:1048500040F21B121CA121A0FBF738FDFFF764FBFF
:10486000D4E90F20216802FB001161600021A163DF
:104870002168A1600A46D4E90F01401E00FB012116
:10488000E16021464FF0FF3001F8440F487004F119
:1048900010004DB1FFF716FB04F12400FFF712FBE7
:1048A000FFF77EFB012070BD21690029F8D000F0E0
:1048B0004FFB0028F4D00D494FF080500860BFF343
:1048C0004F8FBFF36F8FEBE72E2E5C4672656552FC
:1048D000544F535C71756575652E63004572726F38
:1048E000723A25732C25640D0A00000004ED00E0E7
:1048F0002DE9FF4F83B099468B4604004FF0000628
:1049000005D140F2D92252A156A0FBF7DFFCBBF142
:10491000000F07D1206C28B140F2DA224CA151A03F
:10492000FBF7D4FCB9F1020F08D1E06B012805D0E8
:1049300040F2DB2246A14BA0FBF7C8FC00F026FAB0
:1049400038B9059828B140F2DE2241A145A0FBF715
:10495000BDFC4FF0000A4FF08057DFF81881FFF7D9
:10496000E3FAA06BE16B884206D3B9F1020F03D0E2
:10497000059800B316B325E04A4659462046FEF78F
:10498000EEFCA16C21B149462046FEF713FE05E07E
:10499000616A19B104F1240000F0DAFA28B1C8F80C
:1049A0000070BFF34F8FBFF36F8FFFF7F9FA01204D
:1049B00007B0BDE8F08FFFF7F3FA21E06846FFF794
:1049C00035FD0126FFF7ECFAFFF79EFDFFF7ACFA85
:1049D00094F94400401C01D184F844A094F94500A6
:1049E000401C01D184F845A0FFF7DAFA05A9684612
:1049F00000F05CF930B12046FEF7A2FF00F0F4FAB7
:104A00000020D5E7FFF790FAA06BE16B884201D157
:104A1000012500E00025FFF7C3FA95B104F110006D
:104A20000599FFF769FC2046FEF78AFF00F0DCFAE3
:104A3000002894D1C8F80070BFF34F8FBFF36F8F79
:104A40008DE72046FEF77CFF00F0CEFA87E70000F6
:104A50002E2E5C4672656552544F535C71756575B8
:104A6000652E63004572726F723A25732C25640DB2
:104A70000A00000004ED00E02DE9F04798461546D5
:104A80008946040005D140F29F322AA12EA0FBF7EF
:104A90001DFCB9F1000F07D1206C28B14FF46872EA
:104AA00024A129A0FBF712FCB8F1020F08D1E06B9A
:104AB000012805D040F2A1321EA123A0FBF706FC7D
:104AC000FFF7FEFA5020EFF3118780F31188BFF350
:104AD0004F8FBFF36F8FA06BE16B884207D3B8F1A4
:104AE000020F04D0002087F31188BDE8F08794F905
:104AF0004560424649462046FEF731FC701C04D012
:104B0000761C84F845600120EDE7A06C012620B1F9
:104B100041462046FEF74EFD06E0606A0028F2D0CE
:104B200004F1240000F014FA0028ECD0002DEAD0A3
:104B30002E60E8E72E2E5C4672656552544F535C3A
:104B400071756575652E63004572726F723A2573D3
:104B50002C25640D0A0000002DE9F0410D460400EB
:104B600005D140F23C4225A129A0FBF7AFFB206C08
:104B700028B14FF4886221A125A0FBF7A7FB20688C
:104B800038B9606828B140F245421CA120A0FBF76B
:104B90009DFBFFF795FA5020EFF3118680F3118803
:104BA000BFF34F8FBFF36F8FA16BE06B88421FD9AC
:104BB00094F94500491CA163411C04D0401C84F8B1
:104BC0004500012015E0A06C012720B100212046FE
:104BD000FEF7F0FC06E0606A0028F2D004F1240041
:104BE00000F0B6F90028ECD0002DEAD02F60E8E7FD
:104BF000002086F31188BDE8F08100002E2E5C466F
:104C000072656552544F535C71756575652E63000E
:104C10004572726F723A25732C25640D0A000000EC
:104C20002DE9F0410E46040005D140F2FC5216A1D8
:104C30001AA0FBF74BFB3EB9206C38B140F2FD5295
:104C400011A116A0FBF742FB206C28B940F2FE52DE
:104C50000DA112A0FBF73AFBFFF732FA5020EFF359
:104C6000118580F31188BFF34F8FBFF36F8FA06B57
:104C700030B131462046E768FEF75EFB0120E76071
:104C800085F31188BDE8F0812E2E5C467265655271
:104C9000544F535C71756575652E63004572726F74
:104CA000723A25732C25640D0A00000070B50D467C
:104CB000040005D140F6CB3214A119A0FBF706FB86
:104CC0002DB940F6CC3211A115A0FBF7FFFAFFF782
:104CD0002BF9174AD06829684B1C0FD02368126A39
:104CE000934202D0626882420AD96268801A88427E
:104CF00006D2081A28602046FFF798FB002400E03F
:104D00000124FFF74DF9204670BD00002E2E5C46B1
:104D100072656552544F535C7461736B732E6300FC
:104D20004572726F723A25732C25640D0A000000DB
:104D3000980000202DE9FF5F8346DDE90E87994644
:104D400016468A469000FEF737FE05001AD05C2012
:104D5000FEF732FE040012D025630021CDE90241A6
:104D6000CDE900874B46324651465846FEF772FB66
:104D70002046FEF727FA012004B0BDE8F09F284640
:104D8000FFF740F94FF0FF30F6E7000005484169B2
:104D900019B1006B18B10020704701207047022044
:104DA00070470000980000200148C068704700006C
:104DB000980000202DE9F0412D4F0026386B40B1BE
:104DC000B869401CB861F86900B101263046BDE8F9
:104DD000F081FD686D1CFD6011D1786B006828B111
:104DE00040F6D91223A128A0FBF770FA786BB96BB3
:104DF0007963B863386A401C3862FEF701FDB86A0F
:104E0000DFF89480854209D3786B006880B1786BB5
:104E1000C068C468606885420DD2B8623868C06AEC
:104E200000EB800158F821000128CCD90126CAE7FF
:104E30004FF0FF30F1E7201DFFF732F8A06A18B1FC
:104E400004F11800FFF72CF8E06A01213A6981406B
:104E50001143396100EB800108EB8100211DFFF750
:104E600057F8E06A3968C96A8842CDD30126CBE792
:104E7000980000202E2E5C4672656552544F535C9C
:104E80007461736B732E63004572726F723A25738F
:104E90002C25640D0A0000002405002070B50400D4
:104EA0004FF000063CD01F4D2868844205D040F6E4
:104EB000C7621DA121A0FBF709FA206D28B940F6B1
:104EC000C96219A11DA0FBF701FA206D401E2065E3
:104ED000E26CE16A914223D010BB201DFEF7E0FF97
:104EE0001A49012250B9E06A00EB800351F82330DF
:104EF00023B92B6902FA00F083432B61E06CE06276
:104F0000C0F12000A061E06A2B6982401A432A6147
:104F100000EB800001EB8000211DFEF7F9FF012668
:104F2000304670BD980000202E2E5C46726565529A
:104F3000544F535C7461736B732E63004572726FD0
:104F4000723A25732C25640D0A0000002405002008
:104F50002DE9F041C068C4682CB940F6613216A151
:104F60001AA0FBF7B3F904F118000746FEF798FF03
:104F70001A4D286B012660B139461948FEF7C8FF63
:104F8000E06A2968C96A884213D90120EE61BDE848
:104F9000F081201DFEF784FFE06A2A6906FA00F11D
:104FA000114329610F4900EB800001EB8000211DB6
:104FB000E4E70020EBE700002E2E5C4672656552A8
:104FC000544F535C7461736B732E63004572726F40
:104FD000723A25732C25640D0A0000009800002009
:104FE000CC070020240500202DE9F0472B4D00249C
:104FF0002746286B28B94FF4FD6229A12DA0FBF7A5
:1050000065F9FEF791FF286B401E2863286BE8BB0B
:10501000A8682C490126C8B3A1F52A798846D8F892
:105020000010E9B1D8F80C00C46804F11800FEF7CC
:1050300037FF201DFEF734FFE06A2A6906FA00F107
:105040001143296100EB800109EB8100211DFEF76E
:105050005FFFE06A2968C96A8842E0D3EE61DEE753
:105060000CB1FEF7CDFBAC693CB1FFF7A3FE00B17C
:10507000EE61641EF9D10020A861E86930B11249DF
:10508000012738070860BFF34F8F00E001E0BFF34E
:105090006F8FFEF785FF3846BDE8F0879800002047
:1050A0002E2E5C4672656552544F535C7461736B6F
:1050B000732E63004572726F723A25732C25640D4E
:1050C0000A000000CC07002004ED00E02DE9F047C5
:1050D0000746994616460D462C20DDF820A0FEF71F
:1050E0006BFC040014D0B8464F46D1462DB94FF49E
:1050F000C67209A10EA0FBF7E9F8FEF7CBF804F1A0
:105100001801C4F8008081E8E002201DFEF7E5FEEA
:105110002046BDE8F08700002E2E5C467265655281
:10512000544F535C74696D6572732E630000000008
:105130004572726F723A25732C25640D0A000000C7
:105140001CB50024FEF7A6F80C48006868B10B49AE
:105150001F20091DCDE9000100234FF4827208A130
:105160000948FFF7E7FD040005D140F2331207A11B
:105170000CA0FBF7ABF820461CBD0000D4000020BB
:10518000546D722053766300193900082E2E5C4648
:1051900072656552544F535C74696D6572732E630A
:1051A000000000004572726F723A25732C25640D61
:1051B0000A0000002DE9FF47DDF830A0994690462F
:1051C0000D4606004FF0000705D14FF4D37212A12F
:1051D00017A0FBF77BF81A4C206880B1CDE9005886
:1051E0000296062D11DAFFF7D1FD02284FF00003D9
:1051F00009D0002269462068FFF77AFB074604B011
:105200003846BDE8F0875246F4E700234A4669462F
:10521000FFF732FCF2E700002E2E5C467265655205
:10522000544F535C74696D6572732E630000000007
:105230004572726F723A25732C25640D0A000000C6
:10524000D400002010B500290AD00878002807D023
:1052500005487844FBF77EFD002801D0002010BDF2
:105260000248784410BD00009E0800009608000027
:105270000808A0F500114FEA3101704743004FEADA
:10528000D30C4FEA3C0C43401FBF40070CF1605168
:1052900013F0FE4F70471CF0006F03D100200CF09C
:1052A000004170470CF0004343EA507010B540EAEB
:1052B000CC0000F000FA00BF000000924FEA0001AD
:1052C000FFF7D6BF4FF000414FF00000A1F50021DD
:1052D0007047000090EA010F48BF81F0004100F1E3
:1052E0003C82421A3CBF801A89184FEAD0524FF0D4
:1052F0007F4C1CEA410FA2EBD15318BF9CEA026F0E
:1053000000F03B804FF0004C4CEA00204CEA0121B9
:1053100021FA03FC10EB0C0C1ED202F1FF325FEA03
:105320001C2040EBC25038BF70471CF07F0F4FEA83
:10533000400C18BFBCF17F4F38BF7047C3F120034A
:10534000994008BF20F00100BCF17F4F38BF704783
:10535000A0F1C04000F0F5B94FEA3C00000A40EB74
:10536000C25028BF1CF0FF0F4FEA400CE6D018BF18
:10537000BCF17F4F38BF7047EAE79CEA026F05D067
:1053800010EA5C0F08BF00F00040704710B500F055
:1053900092F900BF64FBBE3E4FF47F0C1CEAD012B2
:1053A0001EBF1CEAD11392EA0C0F93EA0C0F00F017
:1053B000858090EA010F48BF42F4807240F4000CEF
:1053C00041F400002CF07F4120F07F4000B5814285
:1053D000A2EB03020FF2081CACEB504EC0F1000030
:1053E0009EF800E04FEA4E0E00FB0EFC38BF49006D
:1053F0004FEA2C1C02F5FA020CFB0EF34FEACE1E0C
:105400004FEA112C4FEAC1210EEB635E42EB2242C0
:105410000EFB0CFC4FEA1C5300FB03114FEA112C4E
:105420004FEA01310EFB0CFC4FEADC4C00FB0C1187
:10543000C14228BF09184CEB03335DF804EB10EBB5
:10544000410143EBC250B2F57C0F38BF704729D5FC
:1054500012F0F00F1CBF00F1C04000F00040704798
:10546000008182838485868788898B8C8D8E8F913D
:105470009293959697999A9C9D9FA0A2A3A5A7A861
:10548000AAACAEB0B2B3B5B7B9BCBEC0C2C5C7C98D
:10549000CCCED1D4D7D9DCDFE2E6E9ECF0F3F7FAF1
:1054A000FE0000004FEA400C0CF1807CBCF17E4F06
:1054B00028BF7047B0F1C04000F043B990EA010F37
:1054C0000CEAD11348BF42F48072624538BF63458D
:1054D00007D213F47F0F16D080EA010000F00040DD
:1054E000704710B500F0E7F8097EFC3E00F005B803
:1054F00080EA010000F00040704780EA010000F0FF
:10550000004000F01EB912F47F0F04BF024870473C
:1055100080EA010000F015B90000C07FC10DD1F193
:105520009E0206DB4FEA002343F0004323FA02F019
:105530007047004207D54FEA4001B1F1FE4F02D259
:105540004FF00000704710B500F0B5F84992248084
:10555000002070476FEA20007047000010F0004103
:1055600048BF4042B0FA80F310FA03F2C3F19D0342
:105570000BD051EAC35101EB1220530638BF7047DC
:1055800000F1010008BF20F001007047B0FA80F37D
:1055900010FA03F2C3F19D030AD0D90501EB1220E2
:1055A000530638BF704700F1010008BF20F001002A
:1055B000704700004FF47F0C1CEAD0121EBF1CEA9B
:1055C000D11392EA0C0F93EA0C0F00F0478090EA97
:1055D000010F48BF42F480724FF0004C4CEA0020AB
:1055E0004CEA012102EB0302A0FB0113A2F5000229
:1055F000002918BF43F001035B0028BF4FEA3303C3
:1056000042EB22425FEA132C4CEBC2502EBFBCEBA4
:10561000436FB2F57C0F70474FEA036CBCF1004F4B
:1056200008BF20F00100B2F57C0F38BF70470BD5E2
:1056300082F0FF0212F5803FC8BF704700F1C04002
:10564000D8BF00F00040704700F5000C5FEA4C0C3A
:1056500048BF7047B0F1C04000F073B890EA010F46
:105660000CEAD11348BF42F48072624538BF6345EB
:1056700004D280EA010000F00040704710B500F04D
:105680001AF800BF8900013E00F007B800F009B821
:105690005FEA410C5FEA1C6C08D080EA010000F070
:1056A00050B85FEA400C5FEA1C6CF6D14FF0004046
:1056B000A0F5800070470EF1020E2EF0030E5EF88A
:1056C000044B244204D44FEA4102B2F17F4F11D877
:1056D0004FEA4003B3F17F4F0CD80ED14FEAD07C94
:1056E000B2F17F4F0CEB4C0C0CF1020C08BF4CEBF1
:1056F000D17C04E04FF0080C01E04FEAD17C0CEBC8
:105700004C0324FA03F404F00704B4F1040C06D2A9
:105710000EEB840CBDE810404CF0010C6047DFE854
:105720000CF0070802024FF00040A0F5800010BD09
:105730000846420018BFD2F1807288BF00F00040D6
:1057400010BDFF2141EAD050C005704790EA010F1B
:1057500048BF81F000413FF5C4AD421A04D882F041
:105760000042A0EB020011444FEAD0524FF07F4CB0
:105770001CEA410FA2EBD15318BF9CEA026F4AD03A
:105780004FF0004C4CEA00204CEA012121FA03FCC6
:10579000B0EB0C0C0FD412F0FE0F36D05FEA4C00C9
:1057A0001DD5001240EBC25038BF70471CF03F0FB0
:1057B00018BF70470BE0A2F101025FEA1C2040EB2A
:1057C000C25038BF70471CF07F0F18BF7047C3F13D
:1057D0002003994014BF401E20F00100704780084C
:1057E0004FEA122308BF7047B0FA80FCA2EB0C020C
:1057F000CCF1280C60FA0CF093EA122F04BF00EBF6
:10580000C25070474FEAC3707047130A5FEADC105A
:1058100008BF7047F6E79CEA026F04D010EA5C0FFD
:1058200008BF0020704710B5FFF745FF40DFF63E88
:1058300081F000407047FAF7B9BF00C1814001C054
:10584000804101C0804100C1814001C0804100C150
:10585000814000C1814001C0804101C0804100C140
:10586000814000C1814001C0804100C1814001C030
:10587000804101C0804100C1814001C0804100C120
:10588000814000C1814001C0804100C1814001C010
:10589000804101C0804100C1814000C1814001C000
:1058A000804101C0804100C1814001C0804100C1F0
:1058B000814000C1814001C0804101C0804100C1E0
:1058C000814000C1814001C0804100C1814001C0D0
:1058D000804101C0804100C1814000C1814001C0C0
:1058E000804101C0804100C1814001C0804100C1B0
:1058F000814000C1814001C0804100C1814001C0A0
:10590000804101C0804100C1814001C0804100C18F
:10591000814000C1814001C0804101C0804100C17F
:10592000814000C1814001C0804100C1814001C06F
:10593000804101C0804100C1814000C0C101C3035A
:1059400002C2C60607C705C5C404CC0C0DCD0FCFD7
:10595000CE0E0ACACB0BC90908C8D81819D91BDB47
:10596000DA1A1EDEDF1FDD1D1CDC14D4D515D71797
:1059700016D6D21213D311D1D010F03031F133F347
:10598000F23236F6F737F53534F43CFCFD3DFF3F97
:105990003EFEFA3A3BFB39F9F83828E8E929EB2BC7
:1059A0002AEAEE2E2FEF2DEDEC2CE42425E527E757
:1059B000E62622E2E323E12120E0A06061A163A3C7
:1059C000A26266A6A767A56564A46CACAD6DAF6F57
:1059D0006EAEAA6A6BAB69A9A86878B8B979BB7BC7
:1059E0007ABABE7E7FBF7DBDBC7CB47475B577B717
:1059F000B67672B2B373B17170B050909151935347
:105A0000529296565797559594549C5C5D9D5F9F16
:105A10009E5E5A9A9B5B99595898884849894B8B46
:105A20008A4A4E8E8F4F8D4D4C8C448485458747D6
:105A3000468682424383418180400000024000004C
:105A4000000000A00000000005400000000000C8A9
:105A5000000000000C4000000000409C000000001E
:105A6000194000000020BCBE0000000034400000CF
:105A7000BFC91B8E00000004B5400000504BCFD0C2
:105A80006607E2CF010000006C4100003E8251AA8F
:105A9000DFEEA73401000000D9420000DCB5A0E22F
:105AA0003A301F97FFFFFFFFB4450000FD25A0C857
:105AB000E9A3C14FFFFFFFFFFF3F00000000008090
:105AC00000000000FF3F0000000000800000000018
:105AD0000C5B0008000000200C0100006C010008B5
