:020000040800F2
:10000000585E002089020008DD1800082717000844
:10001000A51800086F150008F52100080000000071
:10002000000000000000000000000000F1010008D6
:10003000111600080000000035020008511C0008DD
:10004000A3020008A3020008A3020008A3020008FC
:10005000A3020008A3020008A3020008A3020008EC
:10006000A3020008A3020008A3020008A3020008DC
:10007000A3020008A3020008A3020008A3020008CC
:1000800071150008A1150008A3020008A3020008CA
:10009000A3020008A3020008A3020008A3020008AC
:1000A000A3020008A3020008A3020008A30200089C
:1000B000A3020008B51C0008A3020008A302000860
:1000C000A3020008A3020008A3020008A30200087C
:1000D000A3020008351F0008991F0008A3020008AA
:1000E000A3020008A3020008A3020008A30200085C
:1000F000A3020008A3020008A3020008A30200084C
:10010000A3020008A3020008791D0008A30200084A
:10011000A3020008A3020008A3020008A30200082B
:10012000A3020008A3020008A3020008A30200081B
:1001300000F002F800F04DF80AA090E8000C8244AC
:100140008344AAF10107DA4501D100F042F8AFF289
:10015000090EBAE80F0013F0010F18BFFB1A43F0A5
:100160000103184794450000B4450000103A24BF2D
:1001700078C878C1FAD8520724BF30C830C144BF0C
:1001800004680C607047000000230024002500264E
:10019000103A28BF78C1FBD8520728BF30C148BFEA
:1001A0000B607047662904F05A82642900F0F880D9
:1001B000732900F06B84002070471FB500F09EFC8F
:1001C00004000020002104F0C1F8E0601FBD10B55C
:1001D00010BD00F093FD1146FFF7EFFF02F0E6F8C7
:1001E00000F0B1FD03B4FFF7F2FF03BC02F017F813
:1001F000224B19680868B0E8F00F80F30988BFF354
:100200006F8F4FF0000080F311884EF00D0E704795
:100210000000000006480068006880F3088862B6A5
:1002200061B6BFF34F8FBFF36F8F00DF00BF00BF1A
:1002300008ED00E0EFF30980BFF36F8F0F4B1A68F2
:1002400020E9F00F106008B54FF0500080F31188DE
:10025000BFF34F8FBFF36F8F03F032FA4FF0000000
:1002600080F31188BDE8084019680868B0E8F00F0D
:1002700080F30988BFF36F8F704700BF68000020CC
:10028000EFF30580704700000948804709480047A0
:10029000FEE7FEE7FEE7FEE7FEE7FEE7FEE7FEE736
:1002A000FEE7FEE704480549054A064B7047000093
:1002B000651C00083101000858580020585E0020D5
:1002C000585A0020585A0020704700000FB40449C3
:1002D00010B503AA029800F0DDFB10BC5DF814FB1A
:1002E000500000202DE9F0410E4604460020206217
:1002F0002046E168884730B3252805D0D4E901219C
:100300009047206A401CF2E7E168204600278847B2
:10031000050018D0A5F14100192802D820354FF466
:1003200000673246294620462760FFF73BFF40B171
:10033000012804D0F61D26F007060836D8E7361D3A
:10034000D6E72846DAE7206ABDE8F08170B50C46AA
:100350000546012A05D02878800600D5EA690023E1
:1003600002E0012305E05B1C934202D2E05C00281E
:10037000F9D1A869E618C01AA861286A1844286249
:100380002846AFF3008004E0D5E9012114F8010B01
:100390009047B442F8D32846AFF3008070BD000008
:1003A0002DE9F0410646002410687529314616A54E
:1003B00010D0AFF30080002802DA404213A507E016
:1003C00031688A0701D512A502E0490704D511A5B5
:1003D000012401E0AFF3008000210A2206F1240786
:1003E00009E0B0FBF2FCB0FBF2F302FB1C00303082
:1003F00078541846491C0028F3D123462A46304633
:10040000BDE8F04100F0B2B8000000002D0000008F
:100410002B00000020000000032A40F2308010F082
:10042000030C00F0158011F8013BBCF1020F62448F
:1004300098BF11F801CB00F8013B38BF11F8013B20
:10044000A2F1040298BF00F801CB38BF00F8013BCD
:1004500011F0030300F02580083AC0F0088051F83D
:10046000043B083A51F804CBA0E80810F5E7121D48
:100470005CBF51F8043B40F8043BAFF30080D20767
:1004800024BF11F8013B11F801CB48BF11F8012B33
:1004900024BF00F8013B00F801CB48BF00F8012B56
:1004A000704710B5203AC0F00B80B1E81850203AE0
:1004B000A0E81850B1E81850A0E81850BFF4F5AF04
:1004C0005FEA027C24BFB1E81850A0E8185044BF8E
:1004D00018C918C0BDE810405FEA827C24BF51F8FB
:1004E000043B40F8043B08BF7047D20728BF31F8EF
:1004F000023B48BF11F8012B28BF20F8023B48BF40
:1005000000F8012B704702F0FF0343EA032242EA9E
:10051000024200F0D3BA4FF0000200B513469446F1
:100520009646203922BFA0E80C50A0E80C50B1F14B
:100530002001BFF4F7AF090728BFA0E80C5048BF5F
:100540000CC05DF804EB890028BF40F8042B08BFFD
:10055000704748BF20F8022B11F0804F18BF00F8F9
:10056000012B704770477047704770472DE9F0477F
:100570000D4699469246044600F124080168880613
:1005800004D5E06921F01001216000E00120A842BB
:1005900001DD471B00E00027A1697A1902EB090081
:1005A000081AA0612078C00602D42046AFF300806C
:1005B000002608E0D4E901211AF806009047206AD5
:1005C000401C761C20624E45F4DB2078C0060AD51C
:1005D0002046AFF3008006E0D4E9012130209047A7
:1005E000206A401C2062381EA7F10107F4DC07E0F6
:1005F000D4E9012118F805009047206A401C2062C8
:10060000281EA5F10105F3DC2046AFF30080207819
:10061000000602D50220BDE8F0870120FBE7704705
:100620002DE9FF4F0C461E464FF0FF378BB0D2E945
:100630000001DDF860800A908A46C1F30A5505B9C9
:100640003D46002108464FF00000BAF1000F00F4CB
:10065000400005DA00EB80004FF4400101EA500051
:100660004FEA9059B9F1010F00DDB9460A9850EAF6
:100670004A000ED044F61050A5F2FF3545432F1422
:10068000B8F1000F1ED07542291E1EDDC9F100020F
:100690001CE0B8F1010F4FF0000001D0302103E061
:1006A000F24305E02154401CB042FBDB30460022FF
:1006B000002121540B99C1F80880C1E900200FB036
:1006C000BDE8F08FBD1B6D1CDEE74A4600DA6942CB
:1006D00006A800F09DFA06AB93E8070003AB83E899
:1006E000070050460A9900F075FB8DE80700A0F559
:1006F00000501F3800900398002D09DD42F21F01C1
:100700004A46084403A90390684600F0D4FD08E077
:10071000A0F500504A461F3803A90390684600F030
:10072000DEFD8DE807000004000C03D04FF0FF3021
:10073000410800E01046B8F1000F03D000220092FB
:1007400015461EE0751E05D400F0DCF93032625506
:100750006D1EF9D5B3460122084302D000227F1C4A
:1007600004E02078302801D100227F1E002A09975A
:1007700086D01DE0112D07DA00F0C4F93032625541
:100780006D1C50EA0102F5D1084302D00098C8B1AF
:100790000EE00021681E05E0235C625C6354225475
:1007A000401E491C8142F7DBAB46A81B401E099046
:1007B000002004F80B000B98099AC0F80880C0E9E3
:1007C000002B7CE711264FF0000859E72DE9F04F88
:1007D00088460446D21D22F0070191B0D1E90001FC
:1007E000CDE90A0101F007FD02460B98C00F01D0C8
:1007F0002D2007E02068810701D52B2002E0202171
:1008000001EAC000032A099001D0072A05DB03464C
:100810004146204600F0BCF90BE12078800601D566
:10082000E06900E00620B8F1650F814606D0B8F116
:10083000660F18D0B8F1670F70D131E00020B9F120
:10084000110F009001DB112301E009F101030AAA55
:1008500001A90CA8FFF7E4FEDDE90C70002609F100
:100860000105834647E001204B4600904FF00047CA
:100870000AAA01A90CA8FFF7D3FEDDE90DB00C9977
:100880005D46002610B909F101000D18B9EB05000D
:1008900003D4C0F1FF3609F10105A5EB09002BE0F7
:1008A000B9F1010F01DA4FF001090020B9F1110F80
:1008B0000090484601DD112300E003460AAA01A981
:1008C0000CA8FFF7ADFEDDE90C704D46002683460F
:1008D000207800070AD4AB4500DA5D4601A8012D57
:1008E00004DD411911F8011C302907D04F4502DA07
:1008F00017F1040F04DA012082460FE06D1EEEE7C7
:10090000002F02DCED1B3E4403E0781CA84200DD12
:100910007D1CB81B00F1010A4FF00047207800074A
:1009200003D4AA4501DB4FF0FF3A0021B7F1004F95
:100930000DF143088DF8431024D002202B23002F03
:1009400001DA7F422D230A21021EA0F1010000DC02
:100950005FB197FBF1FC97FBF1F201FB1C7C1746A2
:100960000CF1300C08F801CDEEE7A8F1010003709E
:100970002188090501D5452100E06521A0F1010884
:1009800000F8011C09980FA9A1EB0807FF1D00B191
:100990000120411901EBEA70A1693844081A401E90
:1009A000A0612078C00602D42046AFF300800998E9
:1009B00028B1D4E901219047206A401C20622078A8
:1009C000C00622D52046AFF300801EE0002E04DBD7
:1009D000B34502DD01A8805D00E03020D4E90121AB
:1009E0009047206A401C2062761CAAF101005FEA51
:1009F000000A0AD100F082F8C0680168405CD4E9BE
:100A000001219047206A401C2062281EA5F10105A3
:100A1000DCDC07E0D4E9012118F8010B9047206ADB
:100A2000401C2062381EA7F10107F3DC2046AFF31B
:100A30000080032011B043E601694A1C0261087876
:100A4000704700B58FB0CDE901310021059105490E
:100A50007944CDE9031011466846FFF743FC0FB017
:100A600000BD0000E5FFFFFF10B5436913B1AFF310
:100A7000008001E0FFF76AFC012010BD127800F150
:100A800024010A7000224A700122EDE711684FF03C
:100A9000FF32E9E7074B70B50D467B44FFF7D1FF06
:100AA0000446284600F022F910B14FF0FF3070BD27
:100AB000204670BD371800004FF000020429C0F036
:100AC000128010F0030C3FF428ADCCF1040CBCF103
:100AD000020F18BF00F8012BA8BF20F8022BA1EBD2
:100AE0000C01FFF71ABD5FEAC17C24BF00F8012B9F
:100AF00000F8012B48BF00F8012B704700487047F1
:100B00001458002030B5B0F10A024FEA900E71F18E
:100B100000034EEA817EB0EB0E0061EB91014FEADB
:100B2000101E4EEA017E10EB0E0041EB11114FEA50
:100B3000102E4EEA016E10EB0E0041EB11214FEA30
:100B4000104E4EEA014E10EB0E0041EB11414018E1
:100B500041F100014FEAD00040EA41704FEAD10173
:100B600010EB80054FEA810444EA907444EB0104E1
:100B70006D1944EB0404521BA3414FF0000348BF1E
:100B80000A3200D530BD401C41F1000130BD0000EB
:100B90002DE9F0411F46044603260168072A01F4A7
:100BA000006004DB08B116A505E016A503E008B156
:100BB00015A500E015A521F010002060A069C01E59
:100BC000A0610FB1401EA0612046AFF300804FB17D
:100BD000D4E9012138469047206A401C2062C01C9D
:100BE000206206E0206AFAE7D4E9012115F8010B3A
:100BF0009047761EF8D22046AFF30080BDE8F08122
:100C00004E414E006E616E00494E4600696E6600B0
:100C10002DE9F047814616468AB0334878440DC81E
:100C20008DE80D0030487844801C03AC0DC884E882
:100C30000D0041F69B300844372190FBF1F290FB08
:100C4000F1F5A5F1800501FB12041B3C02D56442BD
:100C5000012000E00020DFF890A080460027FA4441
:100C6000AAF1BE0A0DE0E00709D03246684607EB5C
:100C700047010AEB810100F032FB8DE807006410A8
:100C80007F1C002CEFD1184F7F44AC3F18E0E807E1
:100C900014D007EB04100DF1180A90E80E008AE852
:100CA0000E00C068F04201D198190890324606A99A
:100CB00003A800F014FB03AB83E807006D10641C6D
:100CC000002DE4D132466946B8F1000F03A802D0E6
:100CD00000F0F1FA01E000F002FBC9E90001C9F8F7
:100CE00008200AB0BDE8F087C03A0000007B00F0A1
:100CF0008000704700487047F45700207546FFF7A2
:100D0000F9FFAE4605006946534620F007008546C8
:100D100018B020B5FFF7C6FABDE820404FF0000636
:100D20004FF000074FF000084FF0000B21F00701D3
:100D3000AC46ACE8C009ACE8C009ACE8C009ACE816
:100D4000C0098D4670470446AFF300802046FFF788
:100D500049FA00004FF0013C50F8042B51F8043BD5
:100D60009A4221D1A2EB0C03934313EACC1317D17F
:100D700050F8042B51F8043B9A4215D1A2EB0C0316
:100D8000934313EACC130BD150F8042B51F8043BD6
:100D90009A4209D1A2EB0C03934313EACC13DBD0A4
:100DA0004FF00000704700BFD01A01BAB1FA81F1CC
:100DB00001F0180122FA01F0CB40C1F12001DBB2B1
:100DC000C0B2C01A2CFA01F3D11A914311EAC3112F
:100DD000E6D170475FEA400C08BF91F0000F4FEA80
:100DE0008C234FEAC12243EA51514FEA1C5018BFED
:100DF00000F5F0404FEA300018BF41F000415FEAD3
:100E00006C5C00F02980BCF1FF3F08BF40F08040DF
:100E10007047130C06BF12044FF0100C4FF0000C7B
:100E2000130E04BF12020CF1080C130F04BF1201C1
:100E30000CF1040C930F04BF92000CF1020CD30FC1
:100E400004BF52000CF1010C11464FF00002A0F15A
:100E50001F00A0EB0C00704711F0004F08BF704757
:100E600031F000413FF4D5AF0B0C06BF09044FF041
:100E7000100C4FF0000C0B0E04BF09020CF1080C13
:100E80000B0F04BF09010CF1040C8B0F04BF890088
:100E90000CF1020CCB0F04BF49000CF1010CCCF19A
:100EA0002003A0EB0C0022FA03F302FA0CF241EA51
:100EB000030100F10100704720F07F4C80EA03003D
:100EC00023F07F47ACEB070303F57C5300F00040B1
:100ED00003F1FF032DE980494FEA154B09B44FEAAE
:100EE000144325EA0B4E24EA03480FF2042606EBCE
:100EF000132749083E785FEA320203FB0667C7F50D
:100F0000000707FB06F64FEA54374FEAD64606F1CC
:100F1000020607FB066CCCF1005C4FEA1C472CEA8A
:100F2000074C07FB06F40CFB06F504EB15464FEAED
:100F3000961634BF00204FF000404FEAD13706FB31
:100F400007FC4FEA1C4C0CFB0BF7D21B03FB0CF706
:100F500061EB07010CFB0EF7B0EB074072EB174299
:100F60000CFB08F734BFA2EB0742B2EB074261EB80
:100F700017414FEA0C444FEA910706FB07FC4FEA82
:100F80001C4C0CFB0BF7B0EBC74072EB573203FB6A
:100F90000CF734BFA2EBC742B2EBC74261EB57314B
:100FA0000CFB0EF7B0EBC70072EB57720CFB08F7A7
:100FB00034BFA2EBC702B2EBC70261EB5771039FCC
:100FC0004FEA816141EA921104EBCC044FEAD13738
:100FD0004FEA826206FB07FC42EA90124FEA806009
:100FE0004FEA1C4C0CFB0BF7D21B03FB0CF761EB1D
:100FF00007010CFB0EF7B0EB074072EB17420CFB3E
:1010000008F734BFA2EB0742B2EB074261EB17418E
:101010004FEA8C554FEA910704EB9C2406FB07FC32
:101020004FEA1C4C0CFB0BF7B0EBC74072EB57328E
:1010300003FB0CF734BFA2EBC742B2EBC74261EB34
:1010400057310CFB0EF7B0EBC70072EB57720CFB7D
:1010500008F734BFA2EBC702B2EBC70261EB5771CE
:1010600015EB4C254FEA816141EA92114FEA826209
:101070004FEAD13742EA901206FB07FC44F1000424
:101080004FEA80604FEA1C4C0CFB0BF7D21B03FBB2
:101090000CF761EB07010CFB0EF7B0EB074072EBAE
:1010A00017420CFB08F734BFA2EB0742B2EB074232
:1010B00061EB174115EB1C154FEA813141EA924172
:1010C0004FEA823242EA90424FEA80304FEA0C7691
:1010D00044F1000448EA03434EEA0B484FF0000E87
:1010E000B2EB080C71EB030724BF624639464EEBA6
:1010F0000E0E4FF0000B0018524149414BEB0B0B09
:10110000B2EB080C71EB03077BF1000B24BF6246C6
:1011100039464EEB0E0E4FF0000B0018524149417C
:101120004BEB0B0BB2EB080C71EB03077BF1000BE5
:1011300024BF624639464EEB0E0E51EA020718BF35
:1011400046F0010616EB0E7655F1000254F100014F
:1011500003D5BDE88901BDE80088BDE88901BDE887
:101160000048B619524141EB0101A3F10103704758
:1011700080807F7E7D7C7B7A7978777676757473D4
:10118000727171706F6E6E6D6C6C6B6A6A69686893
:10119000676666656464636362616160605F5F5E29
:1011A0005E5D5D5C5C5B5B5A5A595958585757569F
:1011B0005655555554545353525252515150505004
:1011C0004F4F4F4E4E4D4D4D4C4C4C4B4B4B4A4A56
:1011D0004A4949494848484747474746464645459A
:1011E00045444444444343434342424242414141D3
:1011F000002B26D4770021D01CB54FEA370703B463
:101200004FF010004FF010014FF000000FBCBDE890
:1012100010400BF1010BBBF1010F08BF5FEA17078C
:1012200022BF12F1010211F101014FF0004143F11F
:10123000000300F0004043EA00007047F9D357086C
:10124000DAE746EA064613F1400F4FEA16461FDD7D
:1012500013F1200FDFBF16430A46002120335B4203
:10126000C8D0C3F1200746EA064602FA07F74FEA5C
:10127000164646EA0706C3F1200722FA03F201FAEE
:1012800007F721FA03F14FF0000342EA0702B1E742
:1012900046EA020646EA06464FEA164646EA0106CE
:1012A000BCBF46EA0646360C4FF000034FF0000282
:1012B0004FF000019EE72DE9C048934630B491E815
:1012C000380007C831EA400C48BF34EA430C03D564
:1012D000FFF7F2FDFFF78CFFF0BCBDE800882DE9B9
:1012E000C048934630B491E8380007C810F0804FEA
:1012F00008BF13F0804F03D100F005F8FFF778FF27
:10130000F0BCBDE8008820F07F4780EA030023F0AE
:101310007F4C07EB0C03A3F57C5300F00040A3F1D6
:10132000FE0392F0000F00F0B38095F0000F00F084
:1013300077802DE901494FEA11404FEA144621EA2E
:10134000004800FB06FC24EA064708FB06F607FBFC
:1013500008F800FB07F718EB06484CEB164C4FEA71
:10136000124B18EB07484FEA15464CEB174022EAA0
:101370000B4E0BFB06FC25EA06470EFB06F607FBA9
:101380000EFE0BFB07F71EEB064E4CEB164C4FF018
:1013900000061EEB074E4CEB174B18EB0B0840F109
:1013A000000018EB0E0B58EB000840F100008F1AFC
:1013B0004FF000013CBFC943661B14BFB5EB040CE2
:1013C00000213CBFC943F61B4FEA17444EEA8E0E7C
:1013D00027EA04454FEA1C4704FB07622CEA074C46
:1013E00005FB07F70CFB05F604FB0CFC16EB0746A8
:1013F00042EB174216EB0C4642EB1C421BEB060677
:1014000058EB0202414146EA9E0601D5BDE801893A
:10141000B619524141EB0101A3F10103BDE8018975
:101420004FEA14454FEA114724EA054621EA074CE2
:1014300005FB07F406FB07F70CFB06F105FB0CFCAC
:1014400011EB074144EB17444FEA124711EB0C41F3
:1014500044EB1C4422EA074C05FB07F206FB07F7A6
:101460000CFB06F605FB0CFC16EB074642EB17429D
:1014700016EB0C4642EB1C456A1854F1000148BFBC
:101480007047B619524141EB0101A3F101037047C6
:1014900095F0000F37D04FEA11424FEA144721EA86
:1014A000024624EA074C02FB07F106FB07F70CFB98
:1014B00006F402FB0CFC14EB074441EB17414FEA26
:1014C000154714EB0C4441EB1C4125EA074C02FB89
:1014D00007F506FB07F70CFB06F602FB0CFC16EB08
:1014E000074645EB174516EB0C4645EB1C42121917
:1014F00051F1000148BF7047B619524141EB01015B
:10150000A3F1010370474FEA14454FEA114724EA5B
:10151000054621EA074C05FB07F106FB07F70CFB24
:1015200006F24FF0000605FB0CFC12EB074241EB04
:10153000174112EB0C4251EB1C4148BF7047921807
:1015400041EB0101A3F10103704710B54FF4E13005
:1015500001F02AFD00F07EF900F0F8F800F0A4F99F
:10156000BDE81040002140F2833000F0BDBBFEE733
:1015700010B50A4C4FF4001000F030F84FF40000A2
:1015800000F02CF80021204600F034F8A11561602D
:101590002046BDE81040012100F02CB86C0002404C
:1015A00010B54FF0007000F019F84FF0006000F037
:1015B00015F8BDE810400021014800F01BB80000FC
:1015C00080000240C10002D502490860704702490C
:1015D000486070470404024000000240C10002D588
:1015E000024908607047024948607047040402409D
:1015F000000002400029016802D041F0010102E030
:101600004FF6FE72114001607047406880B270472B
:1016100070474FF4FA74204601F0A0FEFBE7F0B5E6
:10162000CC78002204F00F03E40601D58C78234324
:101630000C784FF00F0C14F0FF0F4FF0010E1BD081
:1016400005680E880EFA02F42640A64210D19600D4
:101650000CFA06F725EA070703FA06F5CE783D43AC
:10166000282E02D0482E02D002E0446100E004613E
:10167000521C082AE5D305600A88FF2A1CD9446851
:10168000002202F108060EFA06F50E882E40AE4240
:101690000ED196000CFA06F7BC4303FA06F7CE7893
:1016A0003C43282E00D14561CE78482E00D10561FB
:1016B000521C082AE5D34460F0BD0000F0B5144C7C
:1016C000002801DAE36900E06368450D2E0185B268
:1016D000C0F30157B540C0F30342032F05D0C60243
:1016E0000AD503269640B34307E023F0706263688F
:1016F00023F07063636002E0AB4343F0706201B1BA
:101700002A43002801DAE261F0BD6260F0BD00000A
:10171000000001400246002092680A4200D00120E9
:10172000704701617047FEE70026074C4FF4FA75D9
:101730000127C4F89461284601F010FEC4F89471A2
:10174000284601F00BFEF4E70000234208B5012112
:10175000442000F0C7F91C20ADF8000048208DF8A7
:10176000030069460648FFF75AFF0120ADF8000064
:1017700028208DF8030069460248FFF750FF08BD96
:1017800000180140000801402DE9F0412E4C2F4F78
:101790002F4D012608B1267001E02078A0B110215C
:1017A0002846FFF7B7FFB0B108212846FFF7B2FF80
:1017B00088B104212846FFF7ADFF60B1012138460A
:1017C000FFF7A8FF012806D010212846FFF7A2FF47
:1017D000012824D035E00A2000F046FD00202070CA
:1017E00010212846FFF796FF80B108212846FFF711
:1017F00091FF70B104212846FFF78CFF58B10121F9
:101800003846FFF787FF012807D01AE00120BDE81E
:10181000F0810220FBE70320F9E70420F7E7082125
:101820002846FFF777FF01280BD104212846FFF750
:1018300071FF012805D101213846FFF76BFF00B980
:1018400026700020E3E70000480000200008014067
:101850000018014038B50121482000F043F9202448
:10186000ADF8004010208DF8030003200B4D8DF8DB
:10187000020069462846FFF7D2FE20212846FFF7DE
:1018800050FFADF80040064C69462046FFF7C7FE02
:1018900020212046FFF745FF38BD0000000C014025
:1018A00000180140FEE7000038B50121102000F0CB
:1018B00019F90320ADF8000010218DF80310064C33
:1018C0008DF8020069462046FFF7A9FE0321204655
:1018D000FFF727FF38BD00000010014070470000EF
:1018E00030B50F23C27801780125F2B1144A12688D
:1018F00001F1E02102F4E062C2F5E062120AC2F1F5
:101900000404D3404278A24084781C40144322014E
:1019100081F80024007800F01F018D40400980000C
:1019200000F1E020C0F8005130BD01F01F008540FB
:101930004809800000F1E020C0F8805130BD00006F
:101940000CED00E0024908430249086070470000BE
:101950000000FA050CED00E010B500F01DF80322C0
:101960000021012001F03CFF08490322086000210A
:10197000012001F035FF0649032208600021012003
:1019800001F02EFF0349086010BD00001000002088
:10199000140000201800002010B501210022084684
:1019A00001F01EFF1249002808601BD011A0FEF7AD
:1019B0008DFC00220221012001F012FF15490028B0
:1019C000086011D014A0FEF781FC00220421012040
:1019D00001F006FF1949086040B119A0BDE81040A8
:1019E000FEF774BC1FA0E2E726A0ECE72EA0F5E707
:1019F000000000205B5741524E5DB0B4BCFCCFFBF1
:101A0000CFA2B6D3C1D0B4B4BDA8B3C9B9A60D0A8C
:101A100000000000040000205B5741524E5DB5E716
:101A2000BBFA31B7BDCFF2CFFBCFA2B6D3C1D0B492
:101A3000B4BDA8B3C9B9A60D0A0000000800002073
:101A40005B5741524E5DB5E7BBFA31CBD9B6C8CF33
:101A5000FBCFA2B6D3C1D0B4B4BDA8B3C9B9A60D4B
:101A60000A0000005B5741524E5DB0B4BCFCCFFB96
:101A7000CFA2B6D3C1D0B4B4BDA8CAA7B0DC0D0AFA
:101A8000000000005B5741524E5DB5E7BBFA31B72D
:101A9000BDCFF2CFFBCFA2B6D3C1D0B4B4BDA8CADC
:101AA000A7B0DC0D0A0000005B5741524E5DB5E760
:101AB000BBFA31CBD9B6C8CFFBCFA2B6D3C1D0B415
:101AC000B4BDA8CAA7B0DC0D0A000000044A002972
:101AD000D16901D0014300E08143D161704700002A
:101AE00000100240044A0029916901D0014300E03E
:101AF00081439161704700000010024030B5204AD8
:101B00005168204B11F00C0103D0042901D00829A1
:101B100001D0036012E05168536801F470114FF076
:101B2000020413F4803F04EB914102D053689B03FD
:101B300001D5154B00E0134B5943016051680F2349
:101B400003EA1111114B5C5C0168E140416054688B
:101B5000072505EA14241C5D21FA04F48460546806
:101B600005EAD4241B5DD940C1605268032303EA0F
:101B70009232064B1B1F9A5CB1FBF2F1016130BD42
:101B80000010024000127A0000093D0058000020B9
:101B90000CB50022264800920192016841F4803180
:101BA00001604FF4A063016801F4003101910099D4
:101BB000491C0091019911B900999942F3D101682A
:101BC000890333D5012101911A490A6842F01002B4
:101BD0000A600A6822F003020A600A6842F0020200
:101BE0000A604168416041684160416841F4806138
:101BF0004160416821F47C114160416841F4E81181
:101C00004160016841F08071016001688901FCD583
:101C1000416821F003014160416841F002014160E7
:101C20004168C1F381010229FAD10CBD01920CBDBA
:101C300000100240002002404FF0E0210428086913
:101C400003D020F004000861704740F00400FAE778
:101C500010B502F01FF9012803D0BDE8104001F0D3
:101C6000A9BD10BD0F4810B5016841F00101016028
:101C700041680D4A1140416001680C4A1140016001
:101C8000016821F480210160416821F4FE01416076
:101C90004FF41F018160FFF77BFF05494FF00060A3
:101CA000086010BD001002400000FFF8FFFFF6FEC4
:101CB00008ED00E010B50A4C0121204600F093F831
:101CC00000280AD00121204600F080F80549D1F80B
:101CD000940118B10020C1F8940110BD0120FAE769
:101CE000000400400000234230B50D46044689B090
:101CF00001210220FFF7EAFE01210920FFF7F2FE91
:101D000001211A48FFF7DAFC2022ADF81C20182226
:101D10008DF81F2003208DF81E0007A91448FFF737
:101D20007EFCADF80440ADF800500024114DADF834
:101D30000640ADF802406946284600F0ADF8702133
:101D4000ADF80C100120ADF80E00ADF8144003A959
:101D5000284600F055F80821284600F091F80121A6
:101D6000284600F036F809B030BD000000081A001F
:101D7000000C01400004004010B5084C0121204631
:101D800000F031F8002808D00121204600F01EF8AC
:101D9000BDE8104002A0FEF799BA10BD000C00404B
:101DA0005B5741524E5DD6D0B6CFB4F2D3A13AB60E
:101DB000A8CAB1C6F734BCC6CAFDD2E7B3F6B7A20B
:101DC000C9FAD6D0B6CF0D0A00000000C94301827F
:101DD00070470029018802D041F0010101E021F0A3
:101DE00001010180704702460020138A92890B424C
:101DF00002EA010202D0002A00D001207047000050
:101E000070B5028C22F010020284028C8388048B4D
:101E10000D8824F4E6464FF6FF7404EA05253543A1
:101E20000E8922F0200204EA061616434A8804EAC4
:101E300002123243104EB04202D0104EB04215D1C1
:101E400022F080064A8923F4406304EA02123243F6
:101E500022F040068A8804EA021232438E8904EA9C
:101E600086061E43CB8904EA8303334383800583BC
:101E7000C9880187028470BD002C014000340140F4
:101E8000028B4FF6FF7322F4006203EA0121114333
:101E9000018370470187704730B502881B4C1C4D89
:101EA000A0420DD0A8420BD0B0F1804F08D0194B02
:101EB000984205D0184B984202D0184B984203D153
:101EC00022F070034A881A43154B984206D0154BEE
:101ED000984203D022F44073CA881A4302808A8849
:101EE00082850A880285A0420AD0A84208D00E4AFC
:101EF000904205D00D4A904202D00D4A904201D145
:101F0000097A01860121818230BD0000002C014048
:101F1000003401400004004000080040000C004074
:101F20000010004000140040004001400044014007
:101F30000048014070B5154C40F22551204600F094
:101F4000C7F800280ED0204600F050F9104AC1B260
:101F50001088030406D444044FF0000306D50A2970
:101F600001D0138070BD40F400400DE00D2909D070
:101F7000C0F30D04074D401C80B229551080C728BE
:101F8000EFD870BD40F48040108070BD0038014033
:101F90004E000020E00300202DE9FC473848364E73
:101FA000002100900160354C3046FFF723FB40F2E2
:101FB00024494946204600F08BF8A715A8B34FF4F2
:101FC0007000FFF7FFFA3046FFF71FFBC0F5807087
:101FD00005B2681EFF2839D800213046FFF70AFBFA
:101FE000776000983946001DFEF795FA25A0FEF7A8
:101FF0006DF900983A462A4920C0FEF752FA29485E
:10200000022301AA6946006801F000FE264801A9E2
:10201000006801F06BFE0198C0B12449A00408607B
:10202000BFF34F8FBFF36F8F10E0FFE74FF45A7885
:1020300041462546204600F04BF838B141462C4633
:10204000284600F035F82088A08801E02088A08884
:1020500000213046FFF7CEFA776001213046FFF7C6
:10206000C9FA40F22661204600F022F8494620468F
:1020700000F01EF8BDE8FC876C0002400044004000
:10208000DC0200205B5741524E5D57494649C4A3CC
:10209000D7E9BDD3CAD5B5BDCAFDBEDD0D0A000066
:1020A000DC0100200C0000201800002004ED00E0FE
:1020B0000A0A01219140C9430180704700298189A2
:1020C00002D041F4005101E021F4005181817047B8
:1020D00070B501F01F0501260024C1F3421306FA72
:1020E00005F2012B0FD0022B0FD0838A4FEA11216A
:1020F0000088134206FA01F600EA060001D000B19A
:102100000124204670BD8389F0E7038AEEE710B50D
:10211000C1F3421301F01F040121A140012B07D09C
:10212000022B07D01430002A026805D00A4304E0CD
:102130000C30F8E71030F6E78A43026010BD00006B
:1021400030B50446008A85B00D464CF6FF71084054
:10215000E98801432182A0894EF6F3110840A9883D
:102160002A8911436A8902431143A181A08A4FF64B
:10217000FF410840A9890143A1826846FFF7BEFCE0
:102180001948844201D1039800E00298A18909040A
:1021900000EBC00101EB0010296801D5490000E007
:1021A0008900B0FBF1F06422B0FBF2F109010B09E8
:1021B0006FF018056B4300EB8300A3891D044FF0FB
:1021C000320306D503EBC000B0FBF2F000F00700CD
:1021D00005E003EB0010B0FBF2F000F00F00084345
:1021E000208105B030BD0000003801408088C0F378
:1021F00008007047FEE7490050EAC12018BF0420DC
:102200004A0D18BF40F0010040F2FF72B2EB515F7F
:1022100008BF40F00200012808BF05207047704742
:1022200010B50420FFF708FD0C480D490D4A006861
:10223000B0FBF1F3B0FBF1F14FF47A70414313704E
:10224000012050804FF0E020026942F0020202615A
:102250004161016941F00101016110BD34000020BC
:1022600040420F004A00002070B5044601F012FE03
:1022700001280CD0094D6888844203D3B4FBF0F0E8
:1022800001F06CF86888B4FBF0F100FB11444FF4E6
:102290007A706043BDE8704000F002B84A00002048
:1022A00070B54FF0E02500216C69094AAB691278DE
:1022B0005043AA699A42FCD002D2A3EB020302E087
:1022C000A4EB02063344194413468142F1D370BD96
:1022D0004A00002004490A885206FCD5024AC1B2CD
:1022E000121D118070470000003801400EB502A891
:1022F0000024CDE90040274FDFF89CB0274D284E41
:10230000DFF8A090DFF8A0A04FF001080020FFF751
:102310003BFA042806D002280DD001281FD003283C
:1023200022D033E03946009802F024F90090B842F8
:102330000ADC009408E03946009802F04FF800905B
:10234000584501DBCDF800B0022300226946286819
:1023500001F098FB00231A461946306814E00198F2
:1023600080F80180047003E00198447080F80080D8
:102370000223002201A9D9F8000001F083FB002309
:102380001A461946DAF8000001F07CFB142000F030
:10239000E5FFBBE70000484200C0604408000020A1
:1023A0001400002004000020100000201CB54FF491
:1023B0004070FFF7C7FAFFF733FFFFF7C6F8FFF7E4
:1023C000CBFA07490120CDE900010023802205A1B5
:1023D000074801F033FD01F021F900201CBD000089
:1023E0001C00002073746172745F7461736B000071
:1023F000C12E00081CB501A8DFF86880DFF86890DE
:1024000000251A4C4FF0FF370126009000233A4672
:102410001946D8F8000001F01FFA01281ED1012347
:102420003A466946D9F8000001F016FA009841785A
:10243000012901D041B111E0007878B9C4F8805188
:10244000C4F884610AA007E00078012806D1C4F826
:102450008061C4F884510BA0FDF738FF142000F010
:102460007DFFD3E71000002004000020000022427E
:102470005B5741524E5DB5E7BBFAB7B4CFF20D0AD8
:10248000000000005B5741524E5DB5E7BBFAD5FD39
:10249000CFF20D0A0000000008B50020124C134DC9
:1024A000134F461E0090002332461946206801F063
:1024B000D3F9012814D101230A226946286801F0C2
:1024C000CBF9009801F0ECFF81B23846FFF7E2FC4F
:1024D000009801F057FF02460B4606A0FDF7F6FEF6
:1024E000142000F03BFFDEE714000020080000206D
:1024F000000400405B5741524E5DB5E7BBFACBD9B3
:10250000B6C8B2CECAFD3A25660D0A002DE9F041E3
:10251000184E0F460446F5683068001D00F094FD23
:1025200038B9306890F82C10012088403169814317
:102530003161601C07D137B13168BDE8F0410E4808
:10254000091D00F0B9BD30682C44AC4244603168CC
:1025500005D2B06BBDE8F041091D00F095BD706B70
:10256000091D00F091FDB06A844200D2B462BDE85A
:10257000F081000068000020B80700202DE9F0413C
:10258000054600F0A5FD2D4EB068401CB0603068D7
:102590002B4F10B1706930B32BE03560B068012863
:1025A00027D1002404EB840007EB800000F05EFDDF
:1025B000641C202CF6D3234800F058FD2148143029
:1025C00000F054FD1F48283000F050FD1D483C30FD
:1025D00000F04CFD1B48503000F048FD1948706376
:1025E0001430B06305E03068E96AC06A884200D8F8
:1025F0003560706A0121401C70626864E86A326963
:1026000081401143316100EB800007EB8000291D00
:1026100000F052FD00F098FD706900280CD0306881
:10262000E96AC06A884207D207494FF080500860C3
:10263000BFF34F8FBFF36F8FBDE8F08168000020BC
:10264000E80400206807002004ED00E010B500F069
:102650003FFD0E4C2068A0B90D4800F007FD0C4866
:10266000143000F003FD0A48E060143020610022BD
:102670001021052001F0B4F8206010B105A100F090
:1026800039FEBDE8104000F05FBD0000A40000204E
:10269000CC070020546D72510000000070B5124E3E
:1026A000124D1CE001F004F8306820B1002401F064
:1026B0001FFDA4B901E00124F9E700F009FDF0686D
:1026C000C468201D00F0C0FCA868401EA8606868AF
:1026D000401E686000F038FD204600F052F868683F
:1026E0000028DFD170BD0000A40700206800002092
:1026F00030B4026C0B46002A0BD0C1681144C16093
:102700004468A14201D30168C16030BC1846FDF79E
:1027100083BE30BC70472DE9F041856B17460446F7
:102720000026026C82B1C7B1E068FDF775FEE16872
:10273000206C091AE1602268914202D26168081A8D
:10274000E060022F16D017E02068A8B9606801F099
:1027500029FC0646002060600EE0A068FDF75CFEE4
:10276000216CA0680844A0606168884204D3206896
:10277000A06001E005B16D1E6D1CA5633046BDE88B
:10278000F08110B50446006B00F010FD2046BDE856
:10279000104000F00BBD000010484FF4A04142076C
:1027A00006D0C01D0D4920F00700411AC1F5A04117
:1027B0000B4A00230144C2E900030839103A21F012
:1027C000070111604B600B600B1AC0E900139360A6
:1027D0004FF000405360D06070470000F4070020C5
:1027E000C8000020074E4FF08054074DFFF756FFFA
:1027F00030680128FAD92C60BFF34F8FBFF36F8F79
:10280000F4E70000E804002004ED00E02DE9F047C3
:10281000DDE909840E461746824691009946089DD7
:10282000A522206BFDF76FFE6FF00301206B01EB1B
:102830008701084420F00707780705D040F22B32C3
:1028400019A11EA0FDF742FD00202218315C82F87C
:102850003410315C11B1401C1028F6D3002684F8E6
:102860004360202D00D31F25E562C4E91356201DC7
:1028700000F007FC04F1180000F003FC2461C5F12E
:1028800020006462A061666584F858604A4651463B
:10289000384600F003FB2060B8F1000F01D0C8F803
:1028A0000040BDE8F08700002E2E5C467265655240
:1028B000544F535C7461736B732E63004572726F77
:1028C000723A25732C25640D0A00000030B51149B9
:1028D00000E011460A688242FBD34B685C188442D0
:1028E00003D1406818444860084643681C18944265
:1028F00009D1084C103C2468A24209D052681A44FD
:1029000042600A6812680260814200D0086030BDEF
:102910000460F9E7C800002070B5002441600B4D49
:102920000061914206D8D11A8269914206D2011DF6
:10293000286907E09A4203D2994201D3012403E0B7
:10294000011DE86800F0A0FB204670BDA400002037
:1029500010B5044600F0BCFBA06B20B1002400F0D1
:10296000F3FB204610BD0124F9E700002DE9F341F7
:1029700000980F460026846C2CB940F6CE1216A1A2
:102980001AA0FDF7A3FCA06BE16B884205D340F6CB
:10299000CF1211A115A0FDF799FCA06BE16B884245
:1029A0000CD294F945503A4669462046FFF7B3FEEB
:1029B0000646681C05D06D1C84F845503046BDE8BD
:1029C000FC81606A0028F9D004F1240001F044FB86
:1029D0000028F3D00126F1E72E2E5C467265655281
:1029E000544F535C71756575652E63004572726F47
:1029F000723A25732C25640D0A000000F8B50546CF
:102A000014480E46C068C068C468201D00F01CFB56
:102A1000E069012817D1A0692B46411932462046AA
:102A2000FFF77AFF78B100200346014600902A465E
:102A3000204601F043FC30B907494FF4027201F11E
:102A40001800FDF743FC616A01B02046BDE8F04084
:102A500008470000A40000202042000870B586B09E
:102A60002F4E53E00198002806DADDE90301029AAF
:102A700090470198002849DB039C606910B1201D34
:102A800000F0E2FA05A800F0A7F8054601980A2828
:102A90003CD2DFE800F00505053B273805053B275C
:102AA0000298A169034601442A462046FFF734FFF5
:102AB00000282BD0616A20468847E069012825D18B
:102AC000002000900298A169002342181946204670
:102AD00001F0F4FBD0B940F2213212A117A0FDF7AA
:102AE000F5FB13E00298A06128B94FF44E720DA1D6
:102AF00012A0FDF7EBFBA0692B4641191A462046B0
:102B0000FFF70AFF02E0204600F050FB00231A46C0
:102B100001A9306800F0A0FE0028A3D106B070BD66
:102B2000A40000202E2E5C4672656552544F535C03
:102B300074696D6572732E63000000004572726FD8
:102B4000723A25732C25640D0A000000F8B50D4675
:102B5000064600F0ADFD684600F03EF804460098D9
:102B600010B101F0C5FAF8BD1148ADB101690968AD
:102B7000D9B10025311B2A46006800F0CDFB01F0D9
:102B8000B7FA0028EFD10B494FF080500860BFF32F
:102B90004F8FBFF36F8FF8BDA642EBD801F0A8FAB4
:102BA00021463046FFF72AFFF8BD0125E2E7000085
:102BB000A400002004ED00E00648416B096829B13B
:102BC000416BC968C9684968816270474FF0FF313D
:102BD000FAE700006800002070B5054601F068F9CA
:102BE000064E0446B068844203D200F009F8012082
:102BF00000E0002028602046B46070BDA4000020E2
:102C0000F8B5184E26E0C068C4680568201D00F0BD
:102C10001BFA616A20468847E06901281AD1A06939
:102C20002844A84206D924616060211DF06800F0A4
:102C30002BFA0FE000200346014600902A4620466A
:102C400001F03CFB30B9084940F2923201F1180022
:102C5000FDF73CFBF06801680029D4D13169C6E971
:102C60000310F8BDA4000020204200080848406876
:102C7000401C04D0F42207A111A0FDF727FB50202F
:102C800080F31188BFF34F8FBFF36F8FFEE7000013
:102C9000D00000202E2E5C4672656552544F535C66
:102CA000706F727461626C655C525644535C415241
:102CB0004D5F434D335C706F72742E6300000000F3
:102CC0004572726F723A25732C25640D0A0000005C
:102CD000084CE068016839B1002139B10020FFF7E4
:102CE00035FFFFF7BBFEF4E70121F6E7C068006897
:102CF000F5E70000A40000202DE9F041044600F0B3
:102D0000E7F994F9455004F1240610E0A06C20B1D5
:102D100000212046FFF72AFE04E0606A48B13046F1
:102D200001F09AF908B100F0B5FB6D1E6DB2002DEF
:102D3000ECDC4FF0FF3684F8456000F005FA00F057
:102D4000C7F994F9445004F1100709E0206948B12B
:102D5000384601F081F908B100F09CFB6D1E6DB2A0
:102D6000002DF3DC84F84460BDE8F04100F0ECB9DC
:102D70002DE9F0410546002600F09AFC324F3868F4
:102D800008B9FFF709FDF86805424FD1002D4DD075
:102D9000083568070BD005F00700C0F108000544AE
:102DA000680704D0BF2229A132A0FDF78FFA002DB9
:102DB0003CD07868854239D82349103108460468E8
:102DC00001E0214604466068A84202D2206800283B
:102DD000F7D13868B846844228D00E682068086069
:102DE00060680836401B10280ED96719780704D090
:102DF000EC2216A11FA0FDF769FA6068401B7860FD
:102E000038466560FFF762FD6168D8F80400424605
:102E1000401AC8F80400D8F80830984200D29060F0
:102E2000D8F80C0001430020C4E9000101F060F96A
:102E3000700705D04FF4967204A10EA0FDF746FA74
:102E40003046BDE8F0810000B80000202E2E5C4620
:102E500072656552544F535C706F727461626C6539
:102E60005C4D656D4D616E675C686561705F342EA9
:102E7000630000004572726F723A25732C25640D51
:102E80000A0000000449086818B10868026D521C65
:102E900002650868704700006800002010B5031F35
:102EA0004FF080741C601B1F21F001011960191F75
:102EB000024B0B60143940380A6010BD6D2C0008BD
:102EC0007CB500F005F904201E498501CDE900011B
:102ED00000232A461CA1204800F0B0FF1949022017
:102EE000091DCDE9000100232A461CA1204800F05D
:102EF000A5FF144801240830CDE9004000232A46EC
:102F00001CA1204800F09AFF0E4800230C30CDE9A8
:102F100000402A461CA11F4800F090FF09490020EC
:102F20001031CDE9000103462A461BA11D4800F0DF
:102F300085FF0448001F006800F046FABDE87C40A9
:102F400000F002B9200000206D6F746F72315F6471
:102F500069725F7461736B00F52300086D6F746FA5
:102F600072315F73706565645F7461736B0000003C
:102F700099240008456E636F646572315F746173F4
:102F80006B000000131600086B65795F7461736B4A
:102F900000000000ED22000849646C655F746173F5
:102FA0006B0000002917000870B5054686B00121A6
:102FB00044F20400FEF796FD4FF40070ADF81000E7
:102FC00003248DF8124018201D4E8DF8130004A91B
:102FD0003046FEF724FB3015ADF8100004208DF8C4
:102FE000130004A93046FEF71AFB25208DF81400C3
:102FF0008DF815408DF8164001208DF8170005A8B2
:10300000FEF76EFC0020ADF80400ADF80600ADF848
:103010000800ADF80C000C200A4CADF80A00009531
:1030200069462046FFF78CF8012240F225512046E0
:10303000FFF76DF801212046FFF740F806B070BD9C
:103040000008014000380140D0E9013201699A606E
:10305000D0E901235A604A68824201D182684A60FD
:10306000002202610868401E0860704700F10801F4
:103070004FF0FF32C0E90112C1600161002101601F
:10308000704700210161704730B50C68621C02D0A6
:1030900000F1080202E0026904E01A4653681D6864
:1030A000A542FAD953684B6099608A605160086103
:1030B0000168491C016030BD42684A6093688B60BA
:1030C00093685960916008610168491C016070470C
:1030D000502080F31188BFF34F8FBFF36F8F0949E2
:1030E0004868401C486001280AD10748006810F071
:1030F000FF0F05D04FF4BD7204A10FA0FDF7E6B895
:1031000070470000D000002004ED00E02E2E5C4649
:1031100072656552544F535C706F727461626C6576
:103120005C525644535C41524D5F434D335C706F6B
:1031300072742E63000000004572726F723A25733C
:103140002C25640D0A00000010B5084C606828B9F1
:1031500040F2811206A111A0FDF7B8F86068401E88
:10316000606001D180F3118810BD0000D000002004
:103170002E2E5C4672656552544F535C706F7274AC
:1031800061626C655C525644535C41524D5F434DE5
:10319000335C706F72742E63000000004572726FB2
:1031A000723A25732C25640D0A00000070B50028C2
:1031B0002AD0164DA0F108046068E968084205D1DC
:1031C0004FF4A07212A11CA0FDF780F8206828B16E
:1031D00040F241120EA118A0FDF778F86068E96886
:1031E000084211D02268002A0ED18843606000F0A6
:1031F0005FFA60686968084468602046FFF766FB0C
:10320000BDE8704000F074BF70BD0000B800002041
:103210002E2E5C4672656552544F535C706F72740B
:1032200061626C655C4D656D4D616E675C68656182
:10323000705F342E630000004572726F723A25731E
:103240002C25640D0A00000006484FF47A710068CE
:10325000B0FBF1F14FF0E020491E4161072101610F
:10326000704700003400002010B5FDF709F8104C3D
:1032700010280CD300F1E02090F8F0032178884268
:1032800005D24FF42A720BA115A0FDF71FF81848BC
:103290000068A16800F4E060884207D9BDE81040EA
:1032A0004FF42E7203A10EA0FDF710B810BD000060
:1032B000D00000202E2E5C4672656552544F535C40
:1032C000706F727461626C655C525644535C41521B
:1032D0004D5F434D335C706F72742E6300000000CD
:1032E0004572726F723A25732C25640D0A00000036
:1032F0000CED00E010B5074B002253F832401CB132
:10330000521C082AF9D310BD43F8321003EBC20156
:10331000486010BDA804002070B515460E4604464E
:10332000FFF7D6FE94F944100020491C01D184F81F
:10333000440094F94510491C01D184F84500FFF779
:1033400003FFA06B28B92A46314604F1240000F09F
:10335000D1F82046BDE87040FFF7CEBC10B50400A0
:1033600012D00E49096B29B140F2CF420CA111A035
:10337000FCF7ACFF00F09CF900212046FFF7C6F8EF
:1033800000F0B6FE002807D10E494FF080500860CB
:10339000BFF34F8FBFF36F8F10BD00006800002098
:1033A0002E2E5C4672656552544F535C7461736B8C
:1033B000732E63004572726F723A25732C25640D6B
:1033C0000A00000004ED00E070B50446FFF780FE3F
:1033D000234D04B92C68201DFFF736FE58B9E06A6A
:1033E000204A00EB800152F8211021B901218140CF
:1033F000286988432861A06A18B104F11800FFF712
:1034000023FE686A401C68622868844207D1211D37
:103410001548FFF751FE6868401C686007E0A8681F
:10342000401EA8602046FFF7ACF9FFF7C5FBFFF789
:103430008BFE6869002812D0286884420FD1286B5F
:1034400028B140F2654209A10DA0FCF73FFF1049E9
:103450004FF080500860BFF34F8FBFF36F8F70BD88
:1034600068000020E8040020A40700202E2E5C46FF
:1034700072656552544F535C7461736B732E6300B5
:103480004572726F723A25732C25640D0A00000094
:1034900004ED00E001490120C86170476800002088
:1034A00070B50D46040005D140F6063207A10CA008
:1034B000FCF70CFF0E48016820461831FFF7E4FDC9
:1034C0002846BDE870400121FFF720B82E2E5C464B
:1034D00072656552544F535C7461736B732E630055
:1034E0004572726F723A25732C25640D0A00000034
:1034F0006800002070B514460E46050005D140F660
:10350000313209A10DA0FCF7E1FE10480168284600
:103510001831FFF7D1FD0CB14FF0FF362146304690
:10352000BDE87040FEF7F2BF2E2E5C467265655214
:10353000544F535C7461736B732E63004572726FEA
:10354000723A25732C25640D0A00000068000020E3
:1035500070B5040039D01D4DE06A2968C96A8842F7
:1035600033D2A069002804DB2868C06AC0F12000BB
:10357000A061E06A164E00EB8000616906EB8000F6
:1035800081421FD1201DFFF75FFD012150B9E06A84
:1035900000EB800256F8222022B92A6901FA00F0D5
:1035A00082432A612868C06AE0622A698140114327
:1035B000296100EB800006EB8000211DBDE8704012
:1035C000FFF77ABD2868C06AE06270BD680000201D
:1035D000E804002010B5040005D140F6C13205A171
:1035E00009A0FCF773FE0C48016A2160C0686060A6
:1035F00010BD00002E2E5C4672656552544F535C20
:103600007461736B732E63004572726F723A257327
:103610002C25640D0A000000680000201CB5174826
:103620000024CDE900402346822215A1164800F06F
:1036300005FC012803D100F007FE01280AD0401C38
:103640001BD102B040F28472BDE810400FA114A05B
:10365000FCF73CBE502080F31188BFF34F8FBFF3BF
:103660006F8F06484FF0FF312C3881620121416194
:10367000C460BDE81C4000F061B81CBD940000208F
:1036800049444C4500000000E52700082E2E5C460A
:1036900072656552544F535C7461736B732E630093
:1036A0004572726F723A25732C25640D0A00000072
:1036B0000248016B491C016370470000680000204C
:1036C00070B5134D286B10B10120E86170BD00206A
:1036D000E86128690F4EB0FA80F0C0F11F0000EBDE
:1036E000800456F8240028B940F6F6220AA10FA05B
:1036F000FCF7ECFD06EB840000F108024168496824
:103700004160914201D149684160C868286070BD3C
:1037100068000020E80400202E2E5C467265655289
:10372000544F535C7461736B732E63004572726FF8
:10373000723A25732C25640D0A0000001CB51A4945
:1037400008780190FF20087008788DF800009DF837
:103750000000164A00F0500010700720906007E04B
:103760009068401E90609DF8000040008DF80000B9
:103770009DF800000006F3D4107A000200F4E06027
:103780009060019808700A48016841F47001016076
:10379000016841F070410160FFF756FD0020506064
:1037A000FCF738FD00201CBD00E400E0D000002044
:1037B00020ED00E010B5502080F31188BFF34F8F4B
:1037C000BFF36F8F00F07AFB18B104494FF08050BF
:1037D0000860002080F3118810BD000004ED00E0B7
:1037E0002DE9F04117460E46050005D14FF4C4728D
:1037F00010A115A0FCF76AFDBEB105FB06F0543020
:10380000FFF7B6FA04000ED004F154007EB1206038
:10381000C4E90F562046012100F0E0F884F850700A
:1038200000212046A164BDE8F0810020E7E7246084
:10383000EEE700002E2E5C4672656552544F535CD5
:1038400071756575652E63004572726F723A2573E6
:103850002C25640D0A0000002DE9FF4F83B09B4624
:103860008A4604004FF0000605D140F2DC4251A127
:1038700055A0FCF72BFDBAF1000F07D1206C28B141
:1038800040F2DD424BA150A0FCF720FD00F002FB0E
:1038900038B9059828B14FF49C6246A14AA0FCF7BC
:1038A00015FD4FF000094FF08057DFF82C81FFF72E
:1038B0000FFCA56B45B351462046E668FEF718FF9E
:1038C000BBF1000F13D0E660606A50B104F1240030
:1038D00000F0C2FB28B1C8F80070BFF34F8FBFF3F0
:1038E0006F8FFFF731FC012007B0BDE8F08F6D1E30
:1038F000A563206810B9FFF7C5FA60602069002849
:10390000EFD004F11000E3E7059808B11EB106E01E
:10391000FFF71AFC27E06846FFF75CFE0126FFF779
:1039200013FCFFF7C5FEFFF7D3FB94F94400401CDE
:1039300001D184F8449094F94500401C01D184F8E9
:103940004590FFF701FC05A9684600F033FA00280E
:1039500020460AD0FFF7D0F900F0CAFB2046FEF758
:10396000F7FF0028A3D00020BEE7FEF7F1FFD8B193
:10397000206830B9FFF7ACFB6068FFF7E9FDFFF79F
:10398000E3FB04F124000599FFF78AFD2046FFF7C9
:10399000B3F900F0ADFB002889D1C8F80070BFF37F
:1039A0004F8FBFF36F8F82E72046FFF7A5F900F036
:1039B0009FFB7CE72E2E5C4672656552544F535C2C
:1039C00071756575652E63004572726F723A257365
:1039D0002C25640D0A00000004ED00E070B50D46D2
:1039E000040005D140F21B121CA121A0FCF76EFCC3
:1039F000FFF76EFBD4E90F20216802FB0011616024
:103A00000021A1632168A1600A46D4E90F01401E8C
:103A100000FB0121E16021464FF0FF3001F8440F27
:103A2000487004F110004DB1FFF720FB04F12400B1
:103A3000FFF71CFBFFF788FB012070BD21690029FF
:103A4000F8D000F009FB0028F4D00D494FF0805069
:103A50000860BFF34F8FBFF36F8FEBE72E2E5C46EE
:103A600072656552544F535C71756575652E6300C0
:103A70004572726F723A25732C25640D0A0000009E
:103A800004ED00E02DE9FF4F83B099468B4604001A
:103A90004FF0000605D140F2D92252A156A0FCF702
:103AA00015FCBBF1000F07D1206C28B140F2DA22DF
:103AB0004CA151A0FCF70AFCB9F1020F08D1E06B50
:103AC000012805D040F2DB2246A14BA0FCF7FEFB0B
:103AD00000F0E0F938B9059828B140F2DE2241A1A2
:103AE00045A0FCF7F3FB4FF0000A4FF08057DFF8DA
:103AF0001881FFF7EDFAA06BE16B884206D3B9F1AC
:103B0000020F03D0059800B316B325E04A46594684
:103B10002046FEF700FEA16C21B149462046FEF783
:103B200025FF05E0616A19B104F1240000F094FA60
:103B300028B1C8F80070BFF34F8FBFF36F8FFFF746
:103B400003FB012007B0BDE8F08FFFF7FDFA21E08D
:103B50006846FFF73FFD0126FFF7F6FAFFF7A8FDDD
:103B6000FFF7B6FA94F94400401C01D184F844A050
:103B700094F94500401C01D184F845A0FFF7E4FA10
:103B800005A9684600F016F930B12046FFF7B4F8F1
:103B900000F0AEFA0020D5E7FFF79AFAA06BE16BD0
:103BA000884201D1012500E00025FFF7CDFA95B14B
:103BB00004F110000599FFF773FC2046FFF79CF80D
:103BC00000F096FA002894D1C8F80070BFF34F8F28
:103BD000BFF36F8F8DE72046FFF78EF800F088FA6D
:103BE00087E700002E2E5C4672656552544F535C89
:103BF00071756575652E63004572726F723A257333
:103C00002C25640D0A00000004ED00E02DE9F047CA
:103C1000984615468946040005D140F29F322AA1F4
:103C20002EA0FCF753FBB9F1000F07D1206C28B18F
:103C30004FF4687224A129A0FCF748FBB8F1020FE9
:103C400008D1E06B012805D040F2A1321EA123A0CB
:103C5000FCF73CFBFFF708FB5020EFF3118780F3E4
:103C60001188BFF34F8FBFF36F8FA06BE16B88425A
:103C700007D3B8F1020F04D0002087F31188BDE804
:103C8000F08794F94560424649462046FEF743FDD9
:103C9000701C04D0761C84F845600120EDE7A06C10
:103CA000012620B141462046FEF760FE06E0606A2C
:103CB0000028F2D004F1240000F0CEF90028ECD066
:103CC000002DEAD02E60E8E72E2E5C467265655224
:103CD000544F535C71756575652E63004572726F44
:103CE000723A25732C25640D0A0000002DE9F0417D
:103CF0000D46040005D140F23C4225A129A0FCF765
:103D0000E5FA206C28B14FF4886221A125A0FCF7C8
:103D1000DDFA206838B9606828B140F245421CA13C
:103D200020A0FCF7D3FAFFF79FFA5020EFF311869B
:103D300080F31188BFF34F8FBFF36F8FA16BE06BE0
:103D400088421FD994F94500491CA163411C04D045
:103D5000401C84F84500012015E0A06C012720B12B
:103D600000212046FEF702FE06E0606A0028F2D03D
:103D700004F1240000F070F90028ECD0002DEAD006
:103D80002F60E8E7002086F31188BDE8F08100008D
:103D90002E2E5C4672656552544F535C7175657585
:103DA000652E63004572726F723A25732C25640D7F
:103DB0000A00000070B50D46040005D140F6CB3274
:103DC00014A119A0FCF782FA2DB940F6CC3211A14A
:103DD00015A0FCF77BFAFFF77BF9174AD068296832
:103DE0004B1C0FD02368126A934202D06268824251
:103DF0000AD96268801A884206D2081A28602046CA
:103E0000FFF7E8FB002400E00124FFF79DF92046BE
:103E100070BD00002E2E5C4672656552544F535C97
:103E20007461736B732E63004572726F723A2573FF
:103E30002C25640D0A000000680000202DE9FF5FBA
:103E40008346DDE90E87994616468A469000FEF7BE
:103E50008FFF05001AD05C20FEF78AFF040012D005
:103E600025630021CDE90241CDE900874B4632466A
:103E700051465846FEF7CAFC2046FEF77FFB01205C
:103E800004B0BDE8F09F2846FFF790F94FF0FF30EF
:103E9000F6E700000548416919B1006B18B1002030
:103EA0007047012070470220704700006800002022
:103EB0000148C06870470000680000202DE9F0410B
:103EC0002D4F0026386B40B1B869401CB861F869C5
:103ED00000B101263046BDE8F081FD686D1CFD6033
:103EE00011D1786B006828B140F6D91223A128A01F
:103EF000FCF7ECF9786BB96B7963B863386A401CEE
:103F00003862FEF759FEB86ADFF89480854209D31B
:103F1000786B006880B1786BC068C468606885425F
:103F20000DD2B8623868C06A00EB800158F82100F1
:103F30000128CCD90126CAE74FF0FF30F1E7201D58
:103F4000FFF782F8A06A18B104F11800FFF77CF8B7
:103F5000E06A01213A6981401143396100EB800137
:103F600008EB8100211DFFF7A7F8E06A3968C96AEC
:103F70008842CDD30126CBE7680000202E2E5C4678
:103F800072656552544F535C7461736B732E63009A
:103F90004572726F723A25732C25640D0A00000079
:103FA000E804002070B504004FF000063CD01F4D1F
:103FB0002868844205D040F6C7621DA121A0FCF705
:103FC00085F9206D28B940F6C96219A11DA0FCF73A
:103FD0007DF9206D401E2065E26CE16A914223D09C
:103FE00010BB201DFFF730F81A49012250B9E06AD2
:103FF00000EB800351F8233023B92B6902FA00F05B
:1040000083432B61E06CE062C0F12000A061E06AB4
:104010002B6982401A432A6100EB800001EB80008B
:10402000211DFFF749F80126304670BD68000020C9
:104030002E2E5C4672656552544F535C7461736BEF
:10404000732E63004572726F723A25732C25640DCE
:104050000A000000E80400202DE9F041C068C468AF
:104060002CB940F6613216A11AA0FCF72FF904F121
:1040700018000746FEF7E8FF1A4D286B012660B1CD
:1040800039461948FFF718F8E06A2968C96A884272
:1040900013D90120EE61BDE8F081201DFEF7D4FFA9
:1040A000E06A2A6906FA00F1114329610F4900EB21
:1040B000800001EB8000211DE4E70020EBE7000019
:1040C0002E2E5C4672656552544F535C7461736B5F
:1040D000732E63004572726F723A25732C25640D3E
:1040E0000A0000006800002090070020E80400207B
:1040F0002DE9F0472B4D00242746286B28B94FF4B3
:10410000FD6229A12DA0FCF7E1F8FEF7E1FF286B85
:10411000401E2863286BE8BBA8682C490126C8B359
:10412000A1F52A798846D8F80010E9B1D8F80C0032
:10413000C46804F11800FEF787FF201DFEF784FF16
:10414000E06A2A6906FA00F11143296100EB800157
:1041500009EB8100211DFEF7AFFFE06A2968C96AFB
:104160008842E0D3EE61DEE70CB1FEF725FDAC69D5
:104170003CB1FFF7A3FE00B1EE61641EF9D100204F
:10418000A861E86930B11249012738070860BFF318
:104190004F8F00E001E0BFF36F8FFEF7D5FF384689
:1041A000BDE8F087680000202E2E5C4672656552DF
:1041B000544F535C7461736B732E63004572726F5E
:1041C000723A25732C25640D0A0000009007002028
:1041D00004ED00E02DE9F0470746994616460D46E6
:1041E0002C20DDF820A0FEF7C3FD040014D0B84653
:1041F0004F46D1462DB94FF4C67209A10EA0FCF767
:1042000065F8FEF723FA04F11801C4F8008081E88C
:10421000E002201DFEF735FF2046BDE8F0870000D4
:104220002E2E5C4672656552544F535C74696D6501
:1042300072732E63000000004572726F723A25732C
:104240002C25640D0A0000001CB50024FEF7FEF9C1
:104250000C48006868B10B491F20091DCDE9000119
:1042600000234FF4827208A10948FFF7E7FD04001C
:1042700005D140F2331207A10CA0FCF727F8204625
:104280001CBD0000A4000020546D72205376630012
:10429000D12C00082E2E5C4672656552544F535C3B
:1042A00074696D6572732E63000000004572726F51
:1042B000723A25732C25640D0A0000002DE9FF4792
:1042C000DDF830A0994690460D4606004FF00007F5
:1042D00005D14FF4D37212A117A0FBF7F7FF1A4CC8
:1042E000206880B1CDE900580296062D11DAFFF75B
:1042F000D1FD02284FF0000309D000226946206852
:10430000FFF7C0FB074604B03846BDE8F0875246C9
:10431000F4E700234A466946FFF778FCF2E700001D
:104320002E2E5C4672656552544F535C74696D6500
:1043300072732E63000000004572726F723A25732B
:104340002C25640D0A000000A400002010B50029EF
:104350000AD00878002807D005487844FCF7FAFC12
:10436000002801D0002010BD0248784410BD000094
:10437000BE030000B60300000808A0F500114FEAD4
:104380003101704743004FEAD30C4FEA3C0C4340E5
:104390001FBF40070CF1605113F0FE4F70471CF037
:1043A000006F03D100200CF0004170470CF0004377
:1043B00043EA507010B540EACC0000F090F800BF1E
:1043C000000000924FEA0001FFF7D6BF4FF0004116
:1043D0004FF00000A1F500217047000090EA010FA6
:1043E00048BF81F0004100F1CC80421A3CBF801AE6
:1043F00089184FEAD0524FF07F4C1CEA410FA2EBD4
:10440000D15318BF9CEA026F00F03B804FF0004C84
:104410004CEA00204CEA012121FA03FC10EB0C0CC1
:104420001ED202F1FF325FEA1C2040EBC25038BFBF
:1044300070471CF07F0F4FEA400C18BFBCF17F4F54
:1044400038BF7047C3F12003994008BF20F0010036
:10445000BCF17F4F38BF7047A0F1C04000F085B875
:104460004FEA3C00000A40EBC25028BF1CF0FF0F8F
:104470004FEA400CE6D018BFBCF17F4F38BF704701
:10448000EAE79CEA026F05D010EA5C0F08BF00F073
:104490000040704710B500F022F800BF64FBBE3E3C
:1044A000C10DD1F19E0206DB4FEA002343F0004329
:1044B00023FA02F07047004207D54FEA4001B1F1FC
:1044C000FE4F02D24FF00000704710B500F007F821
:1044D00049922480002070476FEA200070470EF157
:1044E000020E2EF0030E5EF8044B244204D44FEA71
:1044F0004102B2F17F4F11D84FEA4003B3F17F4F31
:104500000CD80ED14FEAD07CB2F17F4F0CEB4C0CA3
:104510000CF1020C08BF4CEBD17C04E04FF0080C0E
:1045200001E04FEAD17C0CEB4C0324FA03F404F0D5
:104530000704B4F1040C06D20EEB840CBDE8104065
:104540004CF0010C6047DFE80CF0070802024FF066
:104550000040A0F5800010BD0846420018BFD2F10F
:10456000807288BF00F0004010BDFF2141EAD050AA
:10457000C005704790EA010F48BF81F000413FF548
:1045800034AF421A04D882F00042A0EB020011447A
:104590004FEAD0524FF07F4C1CEA410FA2EBD153AF
:1045A00018BF9CEA026F4AD04FF0004C4CEA002042
:1045B0004CEA012121FA03FCB0EB0C0C0FD412F0F1
:1045C000FE0F36D05FEA4C001DD5001240EBC25002
:1045D00038BF70471CF03F0F18BF70470BE0A2F1C7
:1045E00001025FEA1C2040EBC25038BF70471CF04C
:1045F0007F0F18BF7047C3F12003994014BF401EBE
:1046000020F00100704780084FEA122308BF70476E
:10461000B0FA80FCA2EB0C02CCF1280C60FA0CF092
:1046200093EA122F04BF00EBC25070474FEAC370E9
:104630007047130A5FEADC1008BF7047F6E79CEA90
:10464000026F04D010EA5C0F08BF0020704710B55D
:10465000FFF745FF40DFF63E81F000407047FCF772
:10466000B5B8000002400000000000A000000000FB
:1046700005400000000000C8000000000C400000E1
:104680000000409C00000000194000000020BCBE5B
:104690000000000034400000BFC91B8E0000000471
:1046A000B5400000504BCFD06607E2CF01000000BC
:1046B0006C4100003E8251AADFEEA73401000000E9
:1046C000D9420000DCB5A0E23A301F97FFFFFFFFA0
:1046D000B4450000FD25A0C8E9A3C14FFFFFFFFFBF
:1046E000FF3F00000000008000000000FF3F0000CE
:1046F0000000008000000000344700080000002097
:10470000DC0000006C01000810480008DC000020FC
:104710007C5D0000880100081C00000043000000D0
:10472000F8FFFFFF0C0000000E0000000F0000006B
:104730002E0000000000000000000000000000004B
:104740000000000000000000000000000000000069
:104750000000000000000000000000000000000059
:10476000000000000000000000A24A040000000059
:104770000000000001020304060708090100000010
:104780000000000000000000020406080000000015
:1047900001020304010203040607080900000000E7
:1047A0000000000000000000000000000000000009
:1047B00000000000000000000000000000000000F9
:1047C00000000000000000000000000000000000E9
:1047D00000000000000000000000000000000000D9
:1047E00000000000000000000000000000000000C9
:1047F00000000000000000000000000000000000B9
:104800000000000000000000AAAAAAAA0000000000
:040000050800028964
:00000001FF
